{
  "contractName": "BetKernel",
  "abi": [
    {
      "constant": true,
      "inputs": [],
      "name": "betRegistry",
      "outputs": [
        {
          "name": "",
          "type": "address"
        }
      ],
      "payable": false,
      "stateMutability": "view",
      "type": "function",
      "signature": "0x1ff677bf"
    },
    {
      "constant": false,
      "inputs": [],
      "name": "unpause",
      "outputs": [],
      "payable": false,
      "stateMutability": "nonpayable",
      "type": "function",
      "signature": "0x3f4ba83a"
    },
    {
      "constant": true,
      "inputs": [],
      "name": "wethAddress",
      "outputs": [
        {
          "name": "",
          "type": "address"
        }
      ],
      "payable": false,
      "stateMutability": "view",
      "type": "function",
      "signature": "0x4f0e0ef3"
    },
    {
      "constant": true,
      "inputs": [],
      "name": "paused",
      "outputs": [
        {
          "name": "",
          "type": "bool"
        }
      ],
      "payable": false,
      "stateMutability": "view",
      "type": "function",
      "signature": "0x5c975abb"
    },
    {
      "constant": false,
      "inputs": [],
      "name": "renounceOwnership",
      "outputs": [],
      "payable": false,
      "stateMutability": "nonpayable",
      "type": "function",
      "signature": "0x715018a6"
    },
    {
      "constant": false,
      "inputs": [],
      "name": "pause",
      "outputs": [],
      "payable": false,
      "stateMutability": "nonpayable",
      "type": "function",
      "signature": "0x8456cb59"
    },
    {
      "constant": true,
      "inputs": [],
      "name": "owner",
      "outputs": [
        {
          "name": "",
          "type": "address"
        }
      ],
      "payable": false,
      "stateMutability": "view",
      "type": "function",
      "signature": "0x8da5cb5b"
    },
    {
      "constant": false,
      "inputs": [
        {
          "name": "_betRegistry",
          "type": "address"
        }
      ],
      "name": "setBetRegistry",
      "outputs": [],
      "payable": false,
      "stateMutability": "nonpayable",
      "type": "function",
      "signature": "0xefdb2b46"
    },
    {
      "constant": false,
      "inputs": [
        {
          "name": "_newOwner",
          "type": "address"
        }
      ],
      "name": "transferOwnership",
      "outputs": [],
      "payable": false,
      "stateMutability": "nonpayable",
      "type": "function",
      "signature": "0xf2fde38b"
    },
    {
      "payable": true,
      "stateMutability": "payable",
      "type": "fallback"
    },
    {
      "anonymous": false,
      "inputs": [],
      "name": "Pause",
      "type": "event",
      "signature": "0x6985a02210a168e66602d3235cb6db0e70f92b3ba4d376a33c0f3d9434bff625"
    },
    {
      "anonymous": false,
      "inputs": [],
      "name": "Unpause",
      "type": "event",
      "signature": "0x7805862f689e2f13df9f062ff482ad3ad112aca9e0847911ed832e158c525b33"
    },
    {
      "anonymous": false,
      "inputs": [
        {
          "indexed": true,
          "name": "previousOwner",
          "type": "address"
        }
      ],
      "name": "OwnershipRenounced",
      "type": "event",
      "signature": "0xf8df31144d9c2f0f6b59d69b8b98abd5459d07f2742c4df920b25aae33c64820"
    },
    {
      "anonymous": false,
      "inputs": [
        {
          "indexed": true,
          "name": "previousOwner",
          "type": "address"
        },
        {
          "indexed": true,
          "name": "newOwner",
          "type": "address"
        }
      ],
      "name": "OwnershipTransferred",
      "type": "event",
      "signature": "0x8be0079c531659141344cd1fd0a4f28419497f9722a3daafe3b4186f6b6457e0"
    },
    {
      "constant": false,
      "inputs": [
        {
          "name": "_wethAddress",
          "type": "address"
        }
      ],
      "name": "setWethAddress",
      "outputs": [],
      "payable": false,
      "stateMutability": "nonpayable",
      "type": "function",
      "signature": "0xa96e2423"
    },
    {
      "constant": false,
      "inputs": [
        {
          "name": "_kernelProxy",
          "type": "address"
        },
        {
          "name": "_paymentsProxy",
          "type": "address"
        },
        {
          "name": "_paymentsToken",
          "type": "address"
        },
        {
          "name": "_oracleProxy",
          "type": "address"
        },
        {
          "name": "_termsProxy",
          "type": "address"
        },
        {
          "name": "_terms",
          "type": "bytes32[]"
        },
        {
          "name": "_title",
          "type": "string"
        },
        {
          "name": "_salt",
          "type": "uint256"
        }
      ],
      "name": "createBet",
      "outputs": [
        {
          "name": "",
          "type": "bytes32"
        },
        {
          "name": "",
          "type": "bytes32"
        }
      ],
      "payable": false,
      "stateMutability": "nonpayable",
      "type": "function",
      "signature": "0x067c35f8"
    },
    {
      "constant": false,
      "inputs": [
        {
          "name": "_betHash",
          "type": "bytes32"
        },
        {
          "name": "_option",
          "type": "uint256"
        },
        {
          "name": "_number",
          "type": "uint256"
        }
      ],
      "name": "placeBet",
      "outputs": [
        {
          "name": "",
          "type": "bytes32"
        }
      ],
      "payable": true,
      "stateMutability": "payable",
      "type": "function",
      "signature": "0xebd96ab0"
    },
    {
      "constant": false,
      "inputs": [
        {
          "name": "_betHash",
          "type": "bytes32"
        },
        {
          "name": "_player",
          "type": "address"
        },
        {
          "name": "_option",
          "type": "uint256"
        },
        {
          "name": "_number",
          "type": "uint256"
        }
      ],
      "name": "placeBet",
      "outputs": [
        {
          "name": "",
          "type": "bytes32"
        }
      ],
      "payable": true,
      "stateMutability": "payable",
      "type": "function",
      "signature": "0xedda9b29"
    },
    {
      "constant": false,
      "inputs": [
        {
          "name": "_betHash",
          "type": "bytes32"
        },
        {
          "name": "_playerBetHash",
          "type": "bytes32"
        }
      ],
      "name": "getProfits",
      "outputs": [
        {
          "name": "",
          "type": "uint256"
        }
      ],
      "payable": false,
      "stateMutability": "nonpayable",
      "type": "function",
      "signature": "0x7355ac8f"
    }
  ],
  "bytecode": "0x608060405260008060146101000a81548160ff021916908315150217905550336000806101000a81548173ffffffffffffffffffffffffffffffffffffffff021916908373ffffffffffffffffffffffffffffffffffffffff160217905550611c508061006d6000396000f3006080604052600436106100d0576000357c0100000000000000000000000000000000000000000000000000000000900463ffffffff168063067c35f8146101c75780631ff677bf146103485780633f4ba83a1461039f5780634f0e0ef3146103b65780635c975abb1461040d578063715018a61461043c5780637355ac8f146104535780638456cb59146104a65780638da5cb5b146104bd578063a96e242314610514578063ebd96ab014610557578063edda9b29146105ab578063efdb2b461461061f578063f2fde38b14610662575b60003411156101c557600260009054906101000a900473ffffffffffffffffffffffffffffffffffffffff1673ffffffffffffffffffffffffffffffffffffffff163373ffffffffffffffffffffffffffffffffffffffff161415156101c4576040517f08c379a000000000000000000000000000000000000000000000000000000000815260040180806020018281038252602f8152602001807f4f6e6c79205745544820746f6b656e2063616e2073656e64206d6f6e6579207481526020017f6f207468697320636f6e7472616374000000000000000000000000000000000081525060400191505060405180910390fd5b5b005b3480156101d357600080fd5b5061031b600480360381019080803573ffffffffffffffffffffffffffffffffffffffff169060200190929190803573ffffffffffffffffffffffffffffffffffffffff169060200190929190803573ffffffffffffffffffffffffffffffffffffffff169060200190929190803573ffffffffffffffffffffffffffffffffffffffff169060200190929190803573ffffffffffffffffffffffffffffffffffffffff16906020019092919080359060200190820180359060200190808060200260200160405190810160405280939291908181526020018383602002808284378201915050505050509192919290803590602001908201803590602001908080601f0160208091040260200160405190810160405280939291908181526020018383808284378201915050505050509192919290803590602001909291905050506106a5565b60405180836000191660001916815260200182600019166000191681526020019250505060405180910390f35b34801561035457600080fd5b5061035d610b22565b604051808273ffffffffffffffffffffffffffffffffffffffff1673ffffffffffffffffffffffffffffffffffffffff16815260200191505060405180910390f35b3480156103ab57600080fd5b506103b4610b4c565b005b3480156103c257600080fd5b506103cb610c0a565b604051808273ffffffffffffffffffffffffffffffffffffffff1673ffffffffffffffffffffffffffffffffffffffff16815260200191505060405180910390f35b34801561041957600080fd5b50610422610c30565b604051808215151515815260200191505060405180910390f35b34801561044857600080fd5b50610451610c43565b005b34801561045f57600080fd5b5061049060048036038101908080356000191690602001909291908035600019169060200190929190505050610d45565b6040518082815260200191505060405180910390f35b3480156104b257600080fd5b506104bb6113ff565b005b3480156104c957600080fd5b506104d26114bf565b604051808273ffffffffffffffffffffffffffffffffffffffff1673ffffffffffffffffffffffffffffffffffffffff16815260200191505060405180910390f35b34801561052057600080fd5b50610555600480360381019080803573ffffffffffffffffffffffffffffffffffffffff1690602001909291905050506114e4565b005b61058d6004803603810190808035600019169060200190929190803590602001909291908035906020019092919050505061166f565b60405180826000191660001916815260200191505060405180910390f35b6106016004803603810190808035600019169060200190929190803573ffffffffffffffffffffffffffffffffffffffff16906020019092919080359060200190929190803590602001909291905050506116a0565b60405180826000191660001916815260200191505060405180910390f35b34801561062b57600080fd5b50610660600480360381019080803573ffffffffffffffffffffffffffffffffffffffff1690602001909291905050506119ff565b005b34801561066e57600080fd5b506106a3600480360381019080803573ffffffffffffffffffffffffffffffffffffffff169060200190929190505050611ac3565b005b60008060008060008892508273ffffffffffffffffffffffffffffffffffffffff16639a402f40896040518263ffffffff167c01000000000000000000000000000000000000000000000000000000000281526004018080602001828103825283818151815260200191508051906020019060200280838360005b8381101561073b578082015181840152602081019050610720565b5050505090500192505050602060405180830381600087803b15801561076057600080fd5b505af1158015610774573d6000803e3d6000fd5b505050506040513d602081101561078a57600080fd5b810190808051906020019092919050505091508273ffffffffffffffffffffffffffffffffffffffff16634389a94e896040518263ffffffff167c01000000000000000000000000000000000000000000000000000000000281526004018080602001828103825283818151815260200191508051906020019060200280838360005b8381101561082857808201518184015260208101905061080d565b5050505090500192505050602060405180830381600087803b15801561084d57600080fd5b505af1158015610861573d6000803e3d6000fd5b505050506040513d602081101561087757600080fd5b810190808051906020019092919050505050600160009054906101000a900473ffffffffffffffffffffffffffffffffffffffff1673ffffffffffffffffffffffffffffffffffffffff1663b67265bd8e8e8e8e8e888e338f6040518a63ffffffff167c0100000000000000000000000000000000000000000000000000000000028152600401808a73ffffffffffffffffffffffffffffffffffffffff1673ffffffffffffffffffffffffffffffffffffffff1681526020018973ffffffffffffffffffffffffffffffffffffffff1673ffffffffffffffffffffffffffffffffffffffff1681526020018873ffffffffffffffffffffffffffffffffffffffff1673ffffffffffffffffffffffffffffffffffffffff1681526020018773ffffffffffffffffffffffffffffffffffffffff1673ffffffffffffffffffffffffffffffffffffffff1681526020018673ffffffffffffffffffffffffffffffffffffffff1673ffffffffffffffffffffffffffffffffffffffff1681526020018560001916600019168152602001806020018473ffffffffffffffffffffffffffffffffffffffff1673ffffffffffffffffffffffffffffffffffffffff168152602001838152602001828103825285818151815260200191508051906020019080838360005b83811015610a7b578082015181840152602081019050610a60565b50505050905090810190601f168015610aa85780820380516001836020036101000a031916815260200191505b509a5050505050505050505050602060405180830381600087803b158015610acf57600080fd5b505af1158015610ae3573d6000803e3d6000fd5b505050506040513d6020811015610af957600080fd5b810190808051906020019092919050505090508082945094505050509850989650505050505050565b6000600160009054906101000a900473ffffffffffffffffffffffffffffffffffffffff16905090565b6000809054906101000a900473ffffffffffffffffffffffffffffffffffffffff1673ffffffffffffffffffffffffffffffffffffffff163373ffffffffffffffffffffffffffffffffffffffff16141515610ba757600080fd5b600060149054906101000a900460ff161515610bc257600080fd5b60008060146101000a81548160ff0219169083151502179055507f7805862f689e2f13df9f062ff482ad3ad112aca9e0847911ed832e158c525b3360405160405180910390a1565b600260009054906101000a900473ffffffffffffffffffffffffffffffffffffffff1681565b600060149054906101000a900460ff1681565b6000809054906101000a900473ffffffffffffffffffffffffffffffffffffffff1673ffffffffffffffffffffffffffffffffffffffff163373ffffffffffffffffffffffffffffffffffffffff16141515610c9e57600080fd5b6000809054906101000a900473ffffffffffffffffffffffffffffffffffffffff1673ffffffffffffffffffffffffffffffffffffffff167ff8df31144d9c2f0f6b59d69b8b98abd5459d07f2742c4df920b25aae33c6482060405160405180910390a260008060006101000a81548173ffffffffffffffffffffffffffffffffffffffff021916908373ffffffffffffffffffffffffffffffffffffffff160217905550565b6000806000806000806000600160009054906101000a900473ffffffffffffffffffffffffffffffffffffffff1673ffffffffffffffffffffffffffffffffffffffff1663dd943d046040518163ffffffff167c0100000000000000000000000000000000000000000000000000000000028152600401602060405180830381600087803b158015610dd657600080fd5b505af1158015610dea573d6000803e3d6000fd5b505050506040513d6020811015610e0057600080fd5b81019080805190602001909291905050509550600160009054906101000a900473ffffffffffffffffffffffffffffffffffffffff1673ffffffffffffffffffffffffffffffffffffffff16633a8100d18a6040518263ffffffff167c0100000000000000000000000000000000000000000000000000000000028152600401808260001916600019168152602001915050602060405180830381600087803b158015610eac57600080fd5b505af1158015610ec0573d6000803e3d6000fd5b505050506040513d6020811015610ed657600080fd5b81019080805190602001909291905050509450600160009054906101000a900473ffffffffffffffffffffffffffffffffffffffff1673ffffffffffffffffffffffffffffffffffffffff166314715bcc8a6040518263ffffffff167c0100000000000000000000000000000000000000000000000000000000028152600401808260001916600019168152602001915050602060405180830381600087803b158015610f8257600080fd5b505af1158015610f96573d6000803e3d6000fd5b505050506040513d6020811015610fac57600080fd5b81019080805190602001909291905050509350600160009054906101000a900473ffffffffffffffffffffffffffffffffffffffff1673ffffffffffffffffffffffffffffffffffffffff1663de1028e18a6040518263ffffffff167c0100000000000000000000000000000000000000000000000000000000028152600401808260001916600019168152602001915050602060405180830381600087803b15801561105857600080fd5b505af115801561106c573d6000803e3d6000fd5b505050506040513d602081101561108257600080fd5b810190808051906020019092919050505092508573ffffffffffffffffffffffffffffffffffffffff166375bb9b638585896040518463ffffffff167c0100000000000000000000000000000000000000000000000000000000028152600401808473ffffffffffffffffffffffffffffffffffffffff1673ffffffffffffffffffffffffffffffffffffffff1681526020018373ffffffffffffffffffffffffffffffffffffffff1673ffffffffffffffffffffffffffffffffffffffff1681526020018273ffffffffffffffffffffffffffffffffffffffff1673ffffffffffffffffffffffffffffffffffffffff1681526020019350505050602060405180830381600087803b15801561119857600080fd5b505af11580156111ac573d6000803e3d6000fd5b505050506040513d60208110156111c257600080fd5b810190808051906020019092919050505091508473ffffffffffffffffffffffffffffffffffffffff1660405180807f67657450726f6669747328627974657333322c62797465733332290000000000815250601b01905060405180910390207c010000000000000000000000000000000000000000000000000000000090048a8a6040518363ffffffff167c0100000000000000000000000000000000000000000000000000000000028152600401808360001916600019168152602001826000191660001916815260200192505050600060405180830381865af49250505015156112ae57600080fd5b8573ffffffffffffffffffffffffffffffffffffffff166375bb9b638585896040518463ffffffff167c0100000000000000000000000000000000000000000000000000000000028152600401808473ffffffffffffffffffffffffffffffffffffffff1673ffffffffffffffffffffffffffffffffffffffff1681526020018373ffffffffffffffffffffffffffffffffffffffff1673ffffffffffffffffffffffffffffffffffffffff1681526020018273ffffffffffffffffffffffffffffffffffffffff1673ffffffffffffffffffffffffffffffffffffffff1681526020019350505050602060405180830381600087803b1580156113b157600080fd5b505af11580156113c5573d6000803e3d6000fd5b505050506040513d60208110156113db57600080fd5b81019080805190602001909291905050509050808203965050505050505092915050565b6000809054906101000a900473ffffffffffffffffffffffffffffffffffffffff1673ffffffffffffffffffffffffffffffffffffffff163373ffffffffffffffffffffffffffffffffffffffff1614151561145a57600080fd5b600060149054906101000a900460ff1615151561147657600080fd5b6001600060146101000a81548160ff0219169083151502179055507f6985a02210a168e66602d3235cb6db0e70f92b3ba4d376a33c0f3d9434bff62560405160405180910390a1565b6000809054906101000a900473ffffffffffffffffffffffffffffffffffffffff1681565b6000809054906101000a900473ffffffffffffffffffffffffffffffffffffffff1673ffffffffffffffffffffffffffffffffffffffff163373ffffffffffffffffffffffffffffffffffffffff1614151561153f57600080fd5b600073ffffffffffffffffffffffffffffffffffffffff16600260009054906101000a900473ffffffffffffffffffffffffffffffffffffffff1673ffffffffffffffffffffffffffffffffffffffff1614151561162b576040517f08c379a00000000000000000000000000000000000000000000000000000000081526004018080602001828103825260268152602001807f5745544820746f6b656e206164647265737320616c726561647920696e69746981526020017f616c697a6564000000000000000000000000000000000000000000000000000081525060400191505060405180910390fd5b80600260006101000a81548173ffffffffffffffffffffffffffffffffffffffff021916908373ffffffffffffffffffffffffffffffffffffffff16021790555050565b60008060149054906101000a900460ff16151561168b57600080fd5b611697843385856116a0565b90509392505050565b60008060008060149054906101000a900460ff1615156116bf57600080fd5b600160009054906101000a900473ffffffffffffffffffffffffffffffffffffffff1673ffffffffffffffffffffffffffffffffffffffff1663f61fdeb8888888886040518563ffffffff167c01000000000000000000000000000000000000000000000000000000000281526004018085600019166000191681526020018473ffffffffffffffffffffffffffffffffffffffff1673ffffffffffffffffffffffffffffffffffffffff168152602001838152602001828152602001945050505050602060405180830381600087803b15801561179c57600080fd5b505af11580156117b0573d6000803e3d6000fd5b505050506040513d60208110156117c657600080fd5b81019080805190602001909291905050509150600160009054906101000a900473ffffffffffffffffffffffffffffffffffffffff1673ffffffffffffffffffffffffffffffffffffffff16633a8100d1886040518263ffffffff167c0100000000000000000000000000000000000000000000000000000000028152600401808260001916600019168152602001915050602060405180830381600087803b15801561187257600080fd5b505af1158015611886573d6000803e3d6000fd5b505050506040513d602081101561189c57600080fd5b810190808051906020019092919050505090508073ffffffffffffffffffffffffffffffffffffffff1660405180807f706c61636542657428627974657333322c627974657333322c6164647265737381526020017f2c75696e743235362c75696e7432353629000000000000000000000000000000815250603101905060405180910390207c0100000000000000000000000000000000000000000000000000000000900488848989896040518663ffffffff167c010000000000000000000000000000000000000000000000000000000002815260040180866000191660001916815260200185600019166000191681526020018473ffffffffffffffffffffffffffffffffffffffff1673ffffffffffffffffffffffffffffffffffffffff16815260200183815260200182815260200195505050505050600060405180830381865af49250505015156119f257600080fd5b8192505050949350505050565b6000809054906101000a900473ffffffffffffffffffffffffffffffffffffffff1673ffffffffffffffffffffffffffffffffffffffff163373ffffffffffffffffffffffffffffffffffffffff16141515611a5a57600080fd5b80600160006101000a81548173ffffffffffffffffffffffffffffffffffffffff021916908373ffffffffffffffffffffffffffffffffffffffff16021790555060001515600060149054906101000a900460ff1615151415611ac057611abf6113ff565b5b50565b6000809054906101000a900473ffffffffffffffffffffffffffffffffffffffff1673ffffffffffffffffffffffffffffffffffffffff163373ffffffffffffffffffffffffffffffffffffffff16141515611b1e57600080fd5b611b2781611b2a565b50565b600073ffffffffffffffffffffffffffffffffffffffff168173ffffffffffffffffffffffffffffffffffffffff1614151515611b6657600080fd5b8073ffffffffffffffffffffffffffffffffffffffff166000809054906101000a900473ffffffffffffffffffffffffffffffffffffffff1673ffffffffffffffffffffffffffffffffffffffff167f8be0079c531659141344cd1fd0a4f28419497f9722a3daafe3b4186f6b6457e060405160405180910390a3806000806101000a81548173ffffffffffffffffffffffffffffffffffffffff021916908373ffffffffffffffffffffffffffffffffffffffff160217905550505600a165627a7a72305820cc428c30fa898db49791e7774b545144d3054df8e664ceeea52d77b67f3e1f470029",
  "source": "pragma solidity ^0.4.24;\n\n// Internal\nimport \"./RegistrySetter.sol\";\nimport \"./BetPayments.sol\";\nimport \"./BetOracle.sol\";\nimport \"./BetTerms.sol\";\nimport \"./ProxyInterfaces/BetKernelProxyInterface.sol\";\nimport \"./ProxyInterfaces/BetTermsProxyInterface.sol\";\n\n\n/**\n *\n * Author: Carlos Gonzalez -- Github: carlosgj94\n */\n/** @title BetKernel. */\ncontract BetKernel is RegistrySetter {\n    address public wethAddress;\n\n    function () public payable {\n        if (msg.value > 0)\n            require(msg.sender == wethAddress, \"Only WETH token can send money to this contract\");\n    }\n\n    function setWethAddress(address _wethAddress) external onlyOwner {\n        require(wethAddress == address(0), \"WETH token address already initialized\");\n        wethAddress = _wethAddress;\n    }\n    \n    /**\n     * @dev Function creates a bet with the selected parameters\n     * @param _kernelProxy address Direction of the kernel proxy contract\n     * @param _paymentsProxy address Direction of the payments proxy contract\n     * @param _oracleProxy address Direction of the oracle proxy contract\n     * @param _termsProxy address Address of the terms proxy contract\n     * @param _terms bytes32[] The terms of the bet\n     * @param _salt uint random number to provide a unique hash\n     * @return bytes32 the that identifies the bet\n     * @return bytes32 the terms of the created bet\n     */\n    function createBet(\n        address _kernelProxy,\n        address _paymentsProxy,\n        address _paymentsToken,\n        address _oracleProxy,\n        address _termsProxy,\n        bytes32[] _terms,\n        string _title,\n        uint _salt\n    )\n        public\n        returns(bytes32, bytes32)\n    {\n        BetTermsProxyInterface _termsProxyContract = BetTermsProxyInterface(_termsProxy);\n        bytes32 _termsHash = _termsProxyContract.getTermsHash(_terms);\n        _termsProxyContract.setTermsHash(_terms);\n\n        bytes32 _betHash = betRegistry.createBet(\n            _kernelProxy,\n            _paymentsProxy,\n            _paymentsToken,\n            _oracleProxy,\n            _termsProxy,\n            _termsHash,\n            _title,\n            msg.sender,\n            _salt\n        );\n\n        return (_betHash, _termsHash);\n    }\n\n    /**\n     * @dev Function adds a bet from a player to a bet\n     * @param _betHash bytes32 of the bet you want to get\n     * @param _player address the address of the player (might be registered by other address)\n     * @param _option uint the choosen option by the player\n     * @param _number uint the quantity of tokens bet\n     * @return bool if the betting was succesfull\n     */\n    function placeBet(\n        bytes32 _betHash,\n        address _player,\n        uint _option,\n        uint _number\n    )\n        public\n        payable\n        whenPaused\n        returns(bytes32)\n    {\n        bytes32 _playerBetHash = betRegistry.getPlayerBetHash(\n            _betHash,\n            _player,\n            _option,\n            _number\n        );\n\n        address _kernelProxy = betRegistry.getBetKernelProxy(_betHash);\n        require(\n            _kernelProxy.delegatecall(\n                bytes4(\n                    keccak256(\n                        \"placeBet(bytes32,bytes32,address,uint256,uint256)\"\n                    )\n                ),\n                _betHash,\n                _playerBetHash,\n                _player,\n                _option,\n                _number\n            )\n        );\n\n        return _playerBetHash;\n    }\n\n    /**\n     * @dev Function adds a bet from a player to a bet\n     * @param _betHash bytes32 of the bet you want to get\n     * @param _option uint the choosen option by the player\n     * @param _number uint the quantity of tokens bet\n     * @return bool if the betting was succesfull\n     */\n    function placeBet(\n        bytes32 _betHash,\n        uint _option,\n        uint _number\n    )\n        public\n        payable\n        whenPaused\n        returns(bytes32)\n    {\n        return placeBet(_betHash, msg.sender, _option, _number);\n    }\n\n    /**\n     * @dev Function that ask for the profits of a user\n     * @param _betHash bytes32 the hash of the bet\n     * @param _playerBetHash bytes32 the hash of the game bet the player played\n     * @return bool if returning profits was succesfull\n     */\n    function getProfits(\n        bytes32 _betHash,\n        bytes32 _playerBetHash\n    )\n        public\n        returns(uint)\n    {\n        BetPayments _betPayments = BetPayments(betRegistry.betPayments());\n\n        address _kernelProxy = betRegistry.getBetKernelProxy(_betHash);\n        address _paymentsProxy = betRegistry.getBetPaymentsProxy(_betHash);\n        address _paymentsToken = betRegistry.getBetPaymentsToken(_betHash);\n\n        uint _initialBalance = _betPayments.balanceOf(\n            _paymentsProxy,\n            _paymentsToken,\n            address(_betPayments)\n        );\n        require(\n            _kernelProxy.delegatecall(\n                bytes4(\n                    keccak256(\n                        \"getProfits(bytes32,bytes32)\"\n                    )\n                ),\n                _betHash,\n                _playerBetHash\n            )\n        );\n\n        uint _finalBalance = _betPayments.balanceOf(\n            _paymentsProxy,\n            _paymentsToken,\n            address(_betPayments)\n        );\n        return _initialBalance - _finalBalance;\n    }\n}\n",
  "sourcePath": "/Users/carlosgonzalezjuarez/Documents/Development/GuesserProtocol/contracts/BetKernel.sol",
  "compiler": {
    "name": "solc",
    "version": "0.4.25+commit.59dbf8f1.Emscripten.clang"
  },
  "schemaVersion": "3.0.0-beta.1",
  "updatedAt": "2018-11-09T16:16:18.262Z"
}