{
  "contractName": "BetKernel",
  "abi": [
    {
      "constant": true,
      "inputs": [],
      "name": "betRegistry",
      "outputs": [
        {
          "name": "",
          "type": "address"
        }
      ],
      "payable": false,
      "stateMutability": "view",
      "type": "function",
      "signature": "0x1ff677bf"
    },
    {
      "constant": false,
      "inputs": [],
      "name": "unpause",
      "outputs": [],
      "payable": false,
      "stateMutability": "nonpayable",
      "type": "function",
      "signature": "0x3f4ba83a"
    },
    {
      "constant": true,
      "inputs": [],
      "name": "paused",
      "outputs": [
        {
          "name": "",
          "type": "bool"
        }
      ],
      "payable": false,
      "stateMutability": "view",
      "type": "function",
      "signature": "0x5c975abb"
    },
    {
      "constant": false,
      "inputs": [],
      "name": "renounceOwnership",
      "outputs": [],
      "payable": false,
      "stateMutability": "nonpayable",
      "type": "function",
      "signature": "0x715018a6"
    },
    {
      "constant": false,
      "inputs": [],
      "name": "pause",
      "outputs": [],
      "payable": false,
      "stateMutability": "nonpayable",
      "type": "function",
      "signature": "0x8456cb59"
    },
    {
      "constant": true,
      "inputs": [],
      "name": "owner",
      "outputs": [
        {
          "name": "",
          "type": "address"
        }
      ],
      "payable": false,
      "stateMutability": "view",
      "type": "function",
      "signature": "0x8da5cb5b"
    },
    {
      "constant": false,
      "inputs": [
        {
          "name": "_betRegistry",
          "type": "address"
        }
      ],
      "name": "setBetRegistry",
      "outputs": [],
      "payable": false,
      "stateMutability": "nonpayable",
      "type": "function",
      "signature": "0xefdb2b46"
    },
    {
      "constant": false,
      "inputs": [
        {
          "name": "_newOwner",
          "type": "address"
        }
      ],
      "name": "transferOwnership",
      "outputs": [],
      "payable": false,
      "stateMutability": "nonpayable",
      "type": "function",
      "signature": "0xf2fde38b"
    },
    {
      "anonymous": false,
      "inputs": [],
      "name": "Pause",
      "type": "event",
      "signature": "0x6985a02210a168e66602d3235cb6db0e70f92b3ba4d376a33c0f3d9434bff625"
    },
    {
      "anonymous": false,
      "inputs": [],
      "name": "Unpause",
      "type": "event",
      "signature": "0x7805862f689e2f13df9f062ff482ad3ad112aca9e0847911ed832e158c525b33"
    },
    {
      "anonymous": false,
      "inputs": [
        {
          "indexed": true,
          "name": "previousOwner",
          "type": "address"
        }
      ],
      "name": "OwnershipRenounced",
      "type": "event",
      "signature": "0xf8df31144d9c2f0f6b59d69b8b98abd5459d07f2742c4df920b25aae33c64820"
    },
    {
      "anonymous": false,
      "inputs": [
        {
          "indexed": true,
          "name": "previousOwner",
          "type": "address"
        },
        {
          "indexed": true,
          "name": "newOwner",
          "type": "address"
        }
      ],
      "name": "OwnershipTransferred",
      "type": "event",
      "signature": "0x8be0079c531659141344cd1fd0a4f28419497f9722a3daafe3b4186f6b6457e0"
    },
    {
      "constant": false,
      "inputs": [
        {
          "name": "_kernelProxy",
          "type": "address"
        },
        {
          "name": "_paymentsProxy",
          "type": "address"
        },
        {
          "name": "_paymentsToken",
          "type": "address"
        },
        {
          "name": "_oracleProxy",
          "type": "address"
        },
        {
          "name": "_termsProxy",
          "type": "address"
        },
        {
          "name": "_terms",
          "type": "bytes32[]"
        },
        {
          "name": "_title",
          "type": "string"
        },
        {
          "name": "_salt",
          "type": "uint256"
        }
      ],
      "name": "createBet",
      "outputs": [
        {
          "name": "",
          "type": "bytes32"
        },
        {
          "name": "",
          "type": "bytes32"
        }
      ],
      "payable": false,
      "stateMutability": "nonpayable",
      "type": "function",
      "signature": "0x067c35f8"
    },
    {
      "constant": false,
      "inputs": [
        {
          "name": "_betHash",
          "type": "bytes32"
        },
        {
          "name": "_option",
          "type": "uint256"
        },
        {
          "name": "_number",
          "type": "uint256"
        }
      ],
      "name": "placeBet",
      "outputs": [
        {
          "name": "",
          "type": "bytes32"
        }
      ],
      "payable": false,
      "stateMutability": "nonpayable",
      "type": "function",
      "signature": "0xebd96ab0"
    },
    {
      "constant": false,
      "inputs": [
        {
          "name": "_betHash",
          "type": "bytes32"
        },
        {
          "name": "_playerBetHash",
          "type": "bytes32"
        }
      ],
      "name": "getProfits",
      "outputs": [
        {
          "name": "",
          "type": "uint256"
        }
      ],
      "payable": false,
      "stateMutability": "nonpayable",
      "type": "function",
      "signature": "0x7355ac8f"
    }
  ],
  "bytecode": "0x608060405260008060146101000a81548160ff021916908315150217905550336000806101000a81548173ffffffffffffffffffffffffffffffffffffffff021916908373ffffffffffffffffffffffffffffffffffffffff1602179055506117f18061006d6000396000f3006080604052600436106100af576000357c0100000000000000000000000000000000000000000000000000000000900463ffffffff168063067c35f8146100b45780631ff677bf146102355780633f4ba83a1461028c5780635c975abb146102a3578063715018a6146102d25780637355ac8f146102e95780638456cb591461033c5780638da5cb5b14610353578063ebd96ab0146103aa578063efdb2b461461040b578063f2fde38b1461044e575b600080fd5b3480156100c057600080fd5b50610208600480360381019080803573ffffffffffffffffffffffffffffffffffffffff169060200190929190803573ffffffffffffffffffffffffffffffffffffffff169060200190929190803573ffffffffffffffffffffffffffffffffffffffff169060200190929190803573ffffffffffffffffffffffffffffffffffffffff169060200190929190803573ffffffffffffffffffffffffffffffffffffffff16906020019092919080359060200190820180359060200190808060200260200160405190810160405280939291908181526020018383602002808284378201915050505050509192919290803590602001908201803590602001908080601f016020809104026020016040519081016040528093929190818152602001838380828437820191505050505050919291929080359060200190929190505050610491565b60405180836000191660001916815260200182600019166000191681526020019250505060405180910390f35b34801561024157600080fd5b5061024a6108da565b604051808273ffffffffffffffffffffffffffffffffffffffff1673ffffffffffffffffffffffffffffffffffffffff16815260200191505060405180910390f35b34801561029857600080fd5b506102a1610904565b005b3480156102af57600080fd5b506102b86109c2565b604051808215151515815260200191505060405180910390f35b3480156102de57600080fd5b506102e76109d5565b005b3480156102f557600080fd5b5061032660048036038101908080356000191690602001909291908035600019169060200190929190505050610ad7565b6040518082815260200191505060405180910390f35b34801561034857600080fd5b50610351611191565b005b34801561035f57600080fd5b50610368611251565b604051808273ffffffffffffffffffffffffffffffffffffffff1673ffffffffffffffffffffffffffffffffffffffff16815260200191505060405180910390f35b3480156103b657600080fd5b506103ed60048036038101908080356000191690602001909291908035906020019092919080359060200190929190505050611276565b60405180826000191660001916815260200191505060405180910390f35b34801561041757600080fd5b5061044c600480360381019080803573ffffffffffffffffffffffffffffffffffffffff1690602001909291905050506115a0565b005b34801561045a57600080fd5b5061048f600480360381019080803573ffffffffffffffffffffffffffffffffffffffff169060200190929190505050611664565b005b60008060008060008892508273ffffffffffffffffffffffffffffffffffffffff16639a402f40896040518263ffffffff167c01000000000000000000000000000000000000000000000000000000000281526004018080602001828103825283818151815260200191508051906020019060200280838360005b8381101561052757808201518184015260208101905061050c565b5050505090500192505050602060405180830381600087803b15801561054c57600080fd5b505af1158015610560573d6000803e3d6000fd5b505050506040513d602081101561057657600080fd5b810190808051906020019092919050505091508273ffffffffffffffffffffffffffffffffffffffff16634389a94e896040518263ffffffff167c01000000000000000000000000000000000000000000000000000000000281526004018080602001828103825283818151815260200191508051906020019060200280838360005b838110156106145780820151818401526020810190506105f9565b5050505090500192505050602060405180830381600087803b15801561063957600080fd5b505af115801561064d573d6000803e3d6000fd5b505050506040513d602081101561066357600080fd5b810190808051906020019092919050505050600160009054906101000a900473ffffffffffffffffffffffffffffffffffffffff1673ffffffffffffffffffffffffffffffffffffffff1663f1f639658e8e8e8e8e888e8e6040518963ffffffff167c0100000000000000000000000000000000000000000000000000000000028152600401808973ffffffffffffffffffffffffffffffffffffffff1673ffffffffffffffffffffffffffffffffffffffff1681526020018873ffffffffffffffffffffffffffffffffffffffff1673ffffffffffffffffffffffffffffffffffffffff1681526020018773ffffffffffffffffffffffffffffffffffffffff1673ffffffffffffffffffffffffffffffffffffffff1681526020018673ffffffffffffffffffffffffffffffffffffffff1673ffffffffffffffffffffffffffffffffffffffff1681526020018573ffffffffffffffffffffffffffffffffffffffff1673ffffffffffffffffffffffffffffffffffffffff168152602001846000191660001916815260200180602001838152602001828103825284818151815260200191508051906020019080838360005b83811015610834578082015181840152602081019050610819565b50505050905090810190601f1680156108615780820380516001836020036101000a031916815260200191505b509950505050505050505050602060405180830381600087803b15801561088757600080fd5b505af115801561089b573d6000803e3d6000fd5b505050506040513d60208110156108b157600080fd5b810190808051906020019092919050505090508082945094505050509850989650505050505050565b6000600160009054906101000a900473ffffffffffffffffffffffffffffffffffffffff16905090565b6000809054906101000a900473ffffffffffffffffffffffffffffffffffffffff1673ffffffffffffffffffffffffffffffffffffffff163373ffffffffffffffffffffffffffffffffffffffff1614151561095f57600080fd5b600060149054906101000a900460ff16151561097a57600080fd5b60008060146101000a81548160ff0219169083151502179055507f7805862f689e2f13df9f062ff482ad3ad112aca9e0847911ed832e158c525b3360405160405180910390a1565b600060149054906101000a900460ff1681565b6000809054906101000a900473ffffffffffffffffffffffffffffffffffffffff1673ffffffffffffffffffffffffffffffffffffffff163373ffffffffffffffffffffffffffffffffffffffff16141515610a3057600080fd5b6000809054906101000a900473ffffffffffffffffffffffffffffffffffffffff1673ffffffffffffffffffffffffffffffffffffffff167ff8df31144d9c2f0f6b59d69b8b98abd5459d07f2742c4df920b25aae33c6482060405160405180910390a260008060006101000a81548173ffffffffffffffffffffffffffffffffffffffff021916908373ffffffffffffffffffffffffffffffffffffffff160217905550565b6000806000806000806000600160009054906101000a900473ffffffffffffffffffffffffffffffffffffffff1673ffffffffffffffffffffffffffffffffffffffff1663dd943d046040518163ffffffff167c0100000000000000000000000000000000000000000000000000000000028152600401602060405180830381600087803b158015610b6857600080fd5b505af1158015610b7c573d6000803e3d6000fd5b505050506040513d6020811015610b9257600080fd5b81019080805190602001909291905050509550600160009054906101000a900473ffffffffffffffffffffffffffffffffffffffff1673ffffffffffffffffffffffffffffffffffffffff16633a8100d18a6040518263ffffffff167c0100000000000000000000000000000000000000000000000000000000028152600401808260001916600019168152602001915050602060405180830381600087803b158015610c3e57600080fd5b505af1158015610c52573d6000803e3d6000fd5b505050506040513d6020811015610c6857600080fd5b81019080805190602001909291905050509450600160009054906101000a900473ffffffffffffffffffffffffffffffffffffffff1673ffffffffffffffffffffffffffffffffffffffff166314715bcc8a6040518263ffffffff167c0100000000000000000000000000000000000000000000000000000000028152600401808260001916600019168152602001915050602060405180830381600087803b158015610d1457600080fd5b505af1158015610d28573d6000803e3d6000fd5b505050506040513d6020811015610d3e57600080fd5b81019080805190602001909291905050509350600160009054906101000a900473ffffffffffffffffffffffffffffffffffffffff1673ffffffffffffffffffffffffffffffffffffffff1663de1028e18a6040518263ffffffff167c0100000000000000000000000000000000000000000000000000000000028152600401808260001916600019168152602001915050602060405180830381600087803b158015610dea57600080fd5b505af1158015610dfe573d6000803e3d6000fd5b505050506040513d6020811015610e1457600080fd5b810190808051906020019092919050505092508573ffffffffffffffffffffffffffffffffffffffff166375bb9b638585896040518463ffffffff167c0100000000000000000000000000000000000000000000000000000000028152600401808473ffffffffffffffffffffffffffffffffffffffff1673ffffffffffffffffffffffffffffffffffffffff1681526020018373ffffffffffffffffffffffffffffffffffffffff1673ffffffffffffffffffffffffffffffffffffffff1681526020018273ffffffffffffffffffffffffffffffffffffffff1673ffffffffffffffffffffffffffffffffffffffff1681526020019350505050602060405180830381600087803b158015610f2a57600080fd5b505af1158015610f3e573d6000803e3d6000fd5b505050506040513d6020811015610f5457600080fd5b810190808051906020019092919050505091508473ffffffffffffffffffffffffffffffffffffffff1660405180807f67657450726f6669747328627974657333322c62797465733332290000000000815250601b01905060405180910390207c010000000000000000000000000000000000000000000000000000000090048a8a6040518363ffffffff167c0100000000000000000000000000000000000000000000000000000000028152600401808360001916600019168152602001826000191660001916815260200192505050600060405180830381865af492505050151561104057600080fd5b8573ffffffffffffffffffffffffffffffffffffffff166375bb9b638585896040518463ffffffff167c0100000000000000000000000000000000000000000000000000000000028152600401808473ffffffffffffffffffffffffffffffffffffffff1673ffffffffffffffffffffffffffffffffffffffff1681526020018373ffffffffffffffffffffffffffffffffffffffff1673ffffffffffffffffffffffffffffffffffffffff1681526020018273ffffffffffffffffffffffffffffffffffffffff1673ffffffffffffffffffffffffffffffffffffffff1681526020019350505050602060405180830381600087803b15801561114357600080fd5b505af1158015611157573d6000803e3d6000fd5b505050506040513d602081101561116d57600080fd5b81019080805190602001909291905050509050808203965050505050505092915050565b6000809054906101000a900473ffffffffffffffffffffffffffffffffffffffff1673ffffffffffffffffffffffffffffffffffffffff163373ffffffffffffffffffffffffffffffffffffffff161415156111ec57600080fd5b600060149054906101000a900460ff1615151561120857600080fd5b6001600060146101000a81548160ff0219169083151502179055507f6985a02210a168e66602d3235cb6db0e70f92b3ba4d376a33c0f3d9434bff62560405160405180910390a1565b6000809054906101000a900473ffffffffffffffffffffffffffffffffffffffff1681565b60008060008060149054906101000a900460ff16151561129557600080fd5b600160009054906101000a900473ffffffffffffffffffffffffffffffffffffffff1673ffffffffffffffffffffffffffffffffffffffff1663f61fdeb8873388886040518563ffffffff167c01000000000000000000000000000000000000000000000000000000000281526004018085600019166000191681526020018473ffffffffffffffffffffffffffffffffffffffff1673ffffffffffffffffffffffffffffffffffffffff168152602001838152602001828152602001945050505050602060405180830381600087803b15801561137257600080fd5b505af1158015611386573d6000803e3d6000fd5b505050506040513d602081101561139c57600080fd5b81019080805190602001909291905050509150600160009054906101000a900473ffffffffffffffffffffffffffffffffffffffff1673ffffffffffffffffffffffffffffffffffffffff16633a8100d1876040518263ffffffff167c0100000000000000000000000000000000000000000000000000000000028152600401808260001916600019168152602001915050602060405180830381600087803b15801561144857600080fd5b505af115801561145c573d6000803e3d6000fd5b505050506040513d602081101561147257600080fd5b810190808051906020019092919050505090508073ffffffffffffffffffffffffffffffffffffffff1660405180807f706c61636542657428627974657333322c627974657333322c75696e7432353681526020017f2c75696e74323536290000000000000000000000000000000000000000000000815250602901905060405180910390207c01000000000000000000000000000000000000000000000000000000009004878488886040518563ffffffff167c01000000000000000000000000000000000000000000000000000000000281526004018085600019166000191681526020018460001916600019168152602001838152602001828152602001945050505050600060405180830381865af492505050151561159457600080fd5b81925050509392505050565b6000809054906101000a900473ffffffffffffffffffffffffffffffffffffffff1673ffffffffffffffffffffffffffffffffffffffff163373ffffffffffffffffffffffffffffffffffffffff161415156115fb57600080fd5b80600160006101000a81548173ffffffffffffffffffffffffffffffffffffffff021916908373ffffffffffffffffffffffffffffffffffffffff16021790555060001515600060149054906101000a900460ff161515141561166157611660611191565b5b50565b6000809054906101000a900473ffffffffffffffffffffffffffffffffffffffff1673ffffffffffffffffffffffffffffffffffffffff163373ffffffffffffffffffffffffffffffffffffffff161415156116bf57600080fd5b6116c8816116cb565b50565b600073ffffffffffffffffffffffffffffffffffffffff168173ffffffffffffffffffffffffffffffffffffffff161415151561170757600080fd5b8073ffffffffffffffffffffffffffffffffffffffff166000809054906101000a900473ffffffffffffffffffffffffffffffffffffffff1673ffffffffffffffffffffffffffffffffffffffff167f8be0079c531659141344cd1fd0a4f28419497f9722a3daafe3b4186f6b6457e060405160405180910390a3806000806101000a81548173ffffffffffffffffffffffffffffffffffffffff021916908373ffffffffffffffffffffffffffffffffffffffff160217905550505600a165627a7a7230582026796c75c8e69264403c26cf3305a03df489122e0ef27d9e906b4f687cf207340029",
  "source": "pragma solidity ^0.4.24;\n\n// Internal\nimport \"./RegistrySetter.sol\";\nimport \"./BetPayments.sol\";\nimport \"./BetOracle.sol\";\nimport \"./BetTerms.sol\";\nimport \"./ProxyInterfaces/BetKernelProxyInterface.sol\";\nimport \"./ProxyInterfaces/BetTermsProxyInterface.sol\";\n\n\n/**\n *\n * Author: Carlos Gonzalez -- Github: carlosgj94\n */\n/** @title BetKernel. */\ncontract BetKernel is RegistrySetter {\n\n    /**\n     * @dev Function creates a bet with the selected parameters\n     * @param _kernelProxy address Direction of the kernel proxy contract\n     * @param _paymentsProxy address Direction of the payments proxy contract\n     * @param _oracleProxy address Direction of the oracle proxy contract\n     * @param _termsProxy address Address of the terms proxy contract\n     * @param _terms bytes32[] The terms of the bet\n     * @param _salt uint random number to provide a unique hash\n     * @return bytes32 the that identifies the bet\n     * @return bytes32 the terms of the created bet\n     */\n    function createBet(\n        address _kernelProxy,\n        address _paymentsProxy,\n        address _paymentsToken,\n        address _oracleProxy,\n        address _termsProxy,\n        bytes32[] _terms,\n        string _title,\n        uint _salt\n    )\n        public\n        returns(bytes32, bytes32)\n    {\n        BetTermsProxyInterface _termsProxyContract = BetTermsProxyInterface(_termsProxy);\n        bytes32 _termsHash = _termsProxyContract.getTermsHash(_terms);\n        _termsProxyContract.setTermsHash(_terms);\n\n        bytes32 _betHash = betRegistry.createBet(\n            _kernelProxy,\n            _paymentsProxy,\n            _paymentsToken,\n            _oracleProxy,\n            _termsProxy,\n            _termsHash,\n            _title,\n            _salt\n        );\n\n        return (_betHash, _termsHash);\n    }\n\n    /**\n     * @dev Function adds a bet from a player to a bet\n     * @param _betHash bytes32 of the bet you want to get\n     * @param _option uint the choosen option by the player\n     * @param _number uint the quantity of tokens bet\n     * @return bool if the betting was succesfull\n     */\n    function placeBet(\n        bytes32 _betHash,\n        uint _option,\n        uint _number\n    )\n        public\n        whenPaused\n        returns(bytes32)\n    {\n        bytes32 _playerBetHash = betRegistry.getPlayerBetHash(\n            _betHash,\n            msg.sender,\n            _option,\n            _number\n        );\n\n        address _kernelProxy = betRegistry.getBetKernelProxy(_betHash);\n        require(\n            _kernelProxy.delegatecall(\n                bytes4(\n                    keccak256(\n                        \"placeBet(bytes32,bytes32,uint256,uint256)\"\n                    )\n                ),\n                _betHash,\n                _playerBetHash,\n                _option,\n                _number\n            )\n        );\n\n        return _playerBetHash;\n    }\n\n    /**\n     * @dev Function that ask for the profits of a user\n     * @param _betHash bytes32 the hash of the bet\n     * @param _playerBetHash bytes32 the hash of the game bet the player played\n     * @return bool if returning profits was succesfull\n     */\n    function getProfits(\n        bytes32 _betHash,\n        bytes32 _playerBetHash\n    )\n        public\n        returns(uint)\n    {\n        BetPayments _betPayments = BetPayments(betRegistry.betPayments());\n\n        address _kernelProxy = betRegistry.getBetKernelProxy(_betHash);\n        address _paymentsProxy = betRegistry.getBetPaymentsProxy(_betHash);\n        address _paymentsToken = betRegistry.getBetPaymentsToken(_betHash);\n\n        uint _initialBalance = _betPayments.balanceOf(\n            _paymentsProxy,\n            _paymentsToken,\n            address(_betPayments)\n        );\n        require(\n            _kernelProxy.delegatecall(\n                bytes4(\n                    keccak256(\n                        \"getProfits(bytes32,bytes32)\"\n                    )\n                ),\n                _betHash,\n                _playerBetHash\n            )\n        );\n\n        uint _finalBalance = _betPayments.balanceOf(\n            _paymentsProxy,\n            _paymentsToken,\n            address(_betPayments)\n        );\n        return _initialBalance - _finalBalance;\n    }\n}\n",
  "sourcePath": "/Users/carlosgonzalezjuarez/Documents/Development/GuesserProtocol/contracts/BetKernel.sol",
  "compiler": {
    "name": "solc",
    "version": "0.4.25+commit.59dbf8f1.Emscripten.clang"
  },
  "schemaVersion": "3.0.0-beta.1",
  "updatedAt": "2018-11-01T18:08:50.862Z"
}