{
  "contractName": "BetOwnerBasedOracle",
  "abi": [
    {
      "constant": true,
      "inputs": [],
      "name": "betRegistry",
      "outputs": [
        {
          "name": "",
          "type": "address"
        }
      ],
      "payable": false,
      "stateMutability": "view",
      "type": "function",
      "signature": "0x1ff677bf"
    },
    {
      "constant": false,
      "inputs": [],
      "name": "unpause",
      "outputs": [],
      "payable": false,
      "stateMutability": "nonpayable",
      "type": "function",
      "signature": "0x3f4ba83a"
    },
    {
      "constant": true,
      "inputs": [],
      "name": "paused",
      "outputs": [
        {
          "name": "",
          "type": "bool"
        }
      ],
      "payable": false,
      "stateMutability": "view",
      "type": "function",
      "signature": "0x5c975abb"
    },
    {
      "constant": false,
      "inputs": [],
      "name": "renounceOwnership",
      "outputs": [],
      "payable": false,
      "stateMutability": "nonpayable",
      "type": "function",
      "signature": "0x715018a6"
    },
    {
      "constant": false,
      "inputs": [],
      "name": "pause",
      "outputs": [],
      "payable": false,
      "stateMutability": "nonpayable",
      "type": "function",
      "signature": "0x8456cb59"
    },
    {
      "constant": true,
      "inputs": [],
      "name": "owner",
      "outputs": [
        {
          "name": "",
          "type": "address"
        }
      ],
      "payable": false,
      "stateMutability": "view",
      "type": "function",
      "signature": "0x8da5cb5b"
    },
    {
      "constant": false,
      "inputs": [
        {
          "name": "_betRegistry",
          "type": "address"
        }
      ],
      "name": "setBetRegistry",
      "outputs": [],
      "payable": false,
      "stateMutability": "nonpayable",
      "type": "function",
      "signature": "0xefdb2b46"
    },
    {
      "constant": false,
      "inputs": [
        {
          "name": "_newOwner",
          "type": "address"
        }
      ],
      "name": "transferOwnership",
      "outputs": [],
      "payable": false,
      "stateMutability": "nonpayable",
      "type": "function",
      "signature": "0xf2fde38b"
    },
    {
      "anonymous": false,
      "inputs": [],
      "name": "Pause",
      "type": "event",
      "signature": "0x6985a02210a168e66602d3235cb6db0e70f92b3ba4d376a33c0f3d9434bff625"
    },
    {
      "anonymous": false,
      "inputs": [],
      "name": "Unpause",
      "type": "event",
      "signature": "0x7805862f689e2f13df9f062ff482ad3ad112aca9e0847911ed832e158c525b33"
    },
    {
      "anonymous": false,
      "inputs": [
        {
          "indexed": true,
          "name": "previousOwner",
          "type": "address"
        }
      ],
      "name": "OwnershipRenounced",
      "type": "event",
      "signature": "0xf8df31144d9c2f0f6b59d69b8b98abd5459d07f2742c4df920b25aae33c64820"
    },
    {
      "anonymous": false,
      "inputs": [
        {
          "indexed": true,
          "name": "previousOwner",
          "type": "address"
        },
        {
          "indexed": true,
          "name": "newOwner",
          "type": "address"
        }
      ],
      "name": "OwnershipTransferred",
      "type": "event",
      "signature": "0x8be0079c531659141344cd1fd0a4f28419497f9722a3daafe3b4186f6b6457e0"
    },
    {
      "constant": true,
      "inputs": [
        {
          "name": "_betHash",
          "type": "bytes32"
        }
      ],
      "name": "outcomeReady",
      "outputs": [
        {
          "name": "",
          "type": "bool"
        }
      ],
      "payable": false,
      "stateMutability": "view",
      "type": "function",
      "signature": "0xd1ddf6bb"
    },
    {
      "constant": true,
      "inputs": [
        {
          "name": "_betHash",
          "type": "bytes32"
        }
      ],
      "name": "getOutcome",
      "outputs": [
        {
          "name": "",
          "type": "uint256"
        }
      ],
      "payable": false,
      "stateMutability": "view",
      "type": "function",
      "signature": "0x5d1a3b82"
    },
    {
      "constant": false,
      "inputs": [
        {
          "name": "_betHash",
          "type": "bytes32"
        },
        {
          "name": "_ready",
          "type": "bool"
        }
      ],
      "name": "setOutcomeReady",
      "outputs": [],
      "payable": false,
      "stateMutability": "nonpayable",
      "type": "function",
      "signature": "0x3b4cdb4e"
    },
    {
      "constant": false,
      "inputs": [
        {
          "name": "_betHash",
          "type": "bytes32"
        },
        {
          "name": "_outcome",
          "type": "uint256"
        }
      ],
      "name": "setOutcome",
      "outputs": [],
      "payable": false,
      "stateMutability": "nonpayable",
      "type": "function",
      "signature": "0xa70d41b0"
    }
  ],
  "bytecode": "0x608060405260008060146101000a81548160ff021916908315150217905550336000806101000a81548173ffffffffffffffffffffffffffffffffffffffff021916908373ffffffffffffffffffffffffffffffffffffffff160217905550610b848061006d6000396000f3006080604052600436106100ba576000357c0100000000000000000000000000000000000000000000000000000000900463ffffffff1680631ff677bf146100bf5780633b4cdb4e146101165780633f4ba83a146101535780635c975abb1461016a5780635d1a3b8214610199578063715018a6146101de5780638456cb59146101f55780638da5cb5b1461020c578063a70d41b014610263578063d1ddf6bb1461029e578063efdb2b46146102e7578063f2fde38b1461032a575b600080fd5b3480156100cb57600080fd5b506100d461036d565b604051808273ffffffffffffffffffffffffffffffffffffffff1673ffffffffffffffffffffffffffffffffffffffff16815260200191505060405180910390f35b34801561012257600080fd5b506101516004803603810190808035600019169060200190929190803515159060200190929190505050610397565b005b34801561015f57600080fd5b506101686104dd565b005b34801561017657600080fd5b5061017f61059b565b604051808215151515815260200191505060405180910390f35b3480156101a557600080fd5b506101c860048036038101908080356000191690602001909291905050506105ae565b6040518082815260200191505060405180910390f35b3480156101ea57600080fd5b506101f36105e7565b005b34801561020157600080fd5b5061020a6106e9565b005b34801561021857600080fd5b506102216107a9565b604051808273ffffffffffffffffffffffffffffffffffffffff1673ffffffffffffffffffffffffffffffffffffffff16815260200191505060405180910390f35b34801561026f57600080fd5b5061029c6004803603810190808035600019169060200190929190803590602001909291905050506107ce565b005b3480156102aa57600080fd5b506102cd6004803603810190808035600019169060200190929190505050610901565b604051808215151515815260200191505060405180910390f35b3480156102f357600080fd5b50610328600480360381019080803573ffffffffffffffffffffffffffffffffffffffff169060200190929190505050610933565b005b34801561033657600080fd5b5061036b600480360381019080803573ffffffffffffffffffffffffffffffffffffffff1690602001909291905050506109f7565b005b6000600160009054906101000a900473ffffffffffffffffffffffffffffffffffffffff16905090565b813373ffffffffffffffffffffffffffffffffffffffff16600160009054906101000a900473ffffffffffffffffffffffffffffffffffffffff1673ffffffffffffffffffffffffffffffffffffffff1663ac21e313836040518263ffffffff167c0100000000000000000000000000000000000000000000000000000000028152600401808260001916600019168152602001915050602060405180830381600087803b15801561044857600080fd5b505af115801561045c573d6000803e3d6000fd5b505050506040513d602081101561047257600080fd5b810190808051906020019092919050505073ffffffffffffffffffffffffffffffffffffffff161415156104a557600080fd5b8160026000856000191660001916815260200190815260200160002060006101000a81548160ff021916908315150217905550505050565b6000809054906101000a900473ffffffffffffffffffffffffffffffffffffffff1673ffffffffffffffffffffffffffffffffffffffff163373ffffffffffffffffffffffffffffffffffffffff1614151561053857600080fd5b600060149054906101000a900460ff16151561055357600080fd5b60008060146101000a81548160ff0219169083151502179055507f7805862f689e2f13df9f062ff482ad3ad112aca9e0847911ed832e158c525b3360405160405180910390a1565b600060149054906101000a900460ff1681565b60006105b982610901565b15156105c457600080fd5b600360008360001916600019168152602001908152602001600020549050919050565b6000809054906101000a900473ffffffffffffffffffffffffffffffffffffffff1673ffffffffffffffffffffffffffffffffffffffff163373ffffffffffffffffffffffffffffffffffffffff1614151561064257600080fd5b6000809054906101000a900473ffffffffffffffffffffffffffffffffffffffff1673ffffffffffffffffffffffffffffffffffffffff167ff8df31144d9c2f0f6b59d69b8b98abd5459d07f2742c4df920b25aae33c6482060405160405180910390a260008060006101000a81548173ffffffffffffffffffffffffffffffffffffffff021916908373ffffffffffffffffffffffffffffffffffffffff160217905550565b6000809054906101000a900473ffffffffffffffffffffffffffffffffffffffff1673ffffffffffffffffffffffffffffffffffffffff163373ffffffffffffffffffffffffffffffffffffffff1614151561074457600080fd5b600060149054906101000a900460ff1615151561076057600080fd5b6001600060146101000a81548160ff0219169083151502179055507f6985a02210a168e66602d3235cb6db0e70f92b3ba4d376a33c0f3d9434bff62560405160405180910390a1565b6000809054906101000a900473ffffffffffffffffffffffffffffffffffffffff1681565b813373ffffffffffffffffffffffffffffffffffffffff16600160009054906101000a900473ffffffffffffffffffffffffffffffffffffffff1673ffffffffffffffffffffffffffffffffffffffff1663ac21e313836040518263ffffffff167c0100000000000000000000000000000000000000000000000000000000028152600401808260001916600019168152602001915050602060405180830381600087803b15801561087f57600080fd5b505af1158015610893573d6000803e3d6000fd5b505050506040513d60208110156108a957600080fd5b810190808051906020019092919050505073ffffffffffffffffffffffffffffffffffffffff161415156108dc57600080fd5b8160036000856000191660001916815260200190815260200160002081905550505050565b600060026000836000191660001916815260200190815260200160002060009054906101000a900460ff169050919050565b6000809054906101000a900473ffffffffffffffffffffffffffffffffffffffff1673ffffffffffffffffffffffffffffffffffffffff163373ffffffffffffffffffffffffffffffffffffffff1614151561098e57600080fd5b80600160006101000a81548173ffffffffffffffffffffffffffffffffffffffff021916908373ffffffffffffffffffffffffffffffffffffffff16021790555060001515600060149054906101000a900460ff16151514156109f4576109f36106e9565b5b50565b6000809054906101000a900473ffffffffffffffffffffffffffffffffffffffff1673ffffffffffffffffffffffffffffffffffffffff163373ffffffffffffffffffffffffffffffffffffffff16141515610a5257600080fd5b610a5b81610a5e565b50565b600073ffffffffffffffffffffffffffffffffffffffff168173ffffffffffffffffffffffffffffffffffffffff1614151515610a9a57600080fd5b8073ffffffffffffffffffffffffffffffffffffffff166000809054906101000a900473ffffffffffffffffffffffffffffffffffffffff1673ffffffffffffffffffffffffffffffffffffffff167f8be0079c531659141344cd1fd0a4f28419497f9722a3daafe3b4186f6b6457e060405160405180910390a3806000806101000a81548173ffffffffffffffffffffffffffffffffffffffff021916908373ffffffffffffffffffffffffffffffffffffffff160217905550505600a165627a7a72305820f5905223da54eaa4ed5b4b097a1290291098e002fb7417f9310eeeccc59cb8cb0029",
  "source": "pragma solidity ^0.4.24;\n\n// Internal\nimport \"../ProxyInterfaces/BetOracleProxyInterface.sol\";\nimport \"../RegistrySetter.sol\";\n\n\n/**\n * A contract that allows the bet owner to choose the outcome of an event\n * The main difference between this contract and the OwnerBasedOracle is that\n * in that one, all the bets outcomes are choosen by the creator of the oracle\n * and not the creator of the bet.\n *\n * Author: Carlos Gonzalez -- Github: carlosgj94\n */\n/** @title BetOwnerBasedOracle. */\ncontract BetOwnerBasedOracle is RegistrySetter, BetOracleProxyInterface {\n\n    mapping(bytes32 => bool) private betReady;\n    mapping(bytes32 => uint) private betOutcome;\n\n    modifier onlyBetOwner(bytes32 _betHash) {\n        require(betRegistry.getBetCreator(_betHash) == msg.sender);\n        _;\n    }\n\n    /**\n     * @dev Function that returns if the oracle is ready to return the outcome\n     * @param _betHash bytes32 the hash of the bet we are asking for\n     * @return bool if the outcome is ready to get it\n     */\n    function outcomeReady(\n        bytes32 _betHash\n    )\n        public\n        view\n        returns(bool)\n    {\n        return betReady[_betHash];\n    }\n\n    /**\n     * @dev Function that returns the outcome of the bet\n     * @param _betHash bytes32 the hash of the bet we are asking for\n     * @return uint the outcome of the bet\n     */\n    function getOutcome(\n        bytes32 _betHash\n    )\n        public\n        view\n        returns(uint)\n    {\n        require(outcomeReady(_betHash));\n\n        return betOutcome[_betHash];\n    }\n\n    /**\n     * @dev Function that sets if the outcome of a bet is ready\n     * @param _betHash bytes32 the hash of the bet we are asking for\n     */\n    function setOutcomeReady(\n        bytes32 _betHash,\n        bool _ready\n    )\n        public\n        onlyBetOwner(_betHash)\n    {\n        betReady[_betHash] = _ready;\n    }\n\n    /**\n     * @dev Function that sets the outcome of a bet\n     * @param _betHash bytes32 the hash of the bet we are asking for\n     */\n    function setOutcome(\n        bytes32 _betHash,\n        uint _outcome\n    )\n        public\n        onlyBetOwner(_betHash)\n    {\n        betOutcome[_betHash] = _outcome;\n    }\n}\n",
  "sourcePath": "/Users/carlosgonzalezjuarez/Documents/Development/GuesserProtocol/contracts/BetOracleProxies/BetOwnerBasedOracle.sol",
  "compiler": {
    "name": "solc",
    "version": "0.4.25+commit.59dbf8f1.Emscripten.clang"
  },
  "schemaVersion": "3.0.0-beta.1",
  "updatedAt": "2018-11-01T18:08:50.834Z"
}