{
  "contractName": "BetPayments",
  "abi": [
    {
      "constant": true,
      "inputs": [],
      "name": "betRegistry",
      "outputs": [
        {
          "name": "",
          "type": "address"
        }
      ],
      "payable": false,
      "stateMutability": "view",
      "type": "function"
    },
    {
      "constant": false,
      "inputs": [],
      "name": "unpause",
      "outputs": [],
      "payable": false,
      "stateMutability": "nonpayable",
      "type": "function"
    },
    {
      "constant": true,
      "inputs": [],
      "name": "paused",
      "outputs": [
        {
          "name": "",
          "type": "bool"
        }
      ],
      "payable": false,
      "stateMutability": "view",
      "type": "function"
    },
    {
      "constant": false,
      "inputs": [],
      "name": "renounceOwnership",
      "outputs": [],
      "payable": false,
      "stateMutability": "nonpayable",
      "type": "function"
    },
    {
      "constant": false,
      "inputs": [],
      "name": "pause",
      "outputs": [],
      "payable": false,
      "stateMutability": "nonpayable",
      "type": "function"
    },
    {
      "constant": true,
      "inputs": [],
      "name": "owner",
      "outputs": [
        {
          "name": "",
          "type": "address"
        }
      ],
      "payable": false,
      "stateMutability": "view",
      "type": "function"
    },
    {
      "constant": false,
      "inputs": [
        {
          "name": "_betRegistry",
          "type": "address"
        }
      ],
      "name": "setBetRegistry",
      "outputs": [],
      "payable": false,
      "stateMutability": "nonpayable",
      "type": "function"
    },
    {
      "constant": false,
      "inputs": [
        {
          "name": "_newOwner",
          "type": "address"
        }
      ],
      "name": "transferOwnership",
      "outputs": [],
      "payable": false,
      "stateMutability": "nonpayable",
      "type": "function"
    },
    {
      "payable": true,
      "stateMutability": "payable",
      "type": "fallback"
    },
    {
      "anonymous": false,
      "inputs": [
        {
          "indexed": false,
          "name": "sender",
          "type": "address"
        },
        {
          "indexed": false,
          "name": "amount",
          "type": "uint256"
        }
      ],
      "name": "LogPaymentReceived",
      "type": "event"
    },
    {
      "anonymous": false,
      "inputs": [],
      "name": "Pause",
      "type": "event"
    },
    {
      "anonymous": false,
      "inputs": [],
      "name": "Unpause",
      "type": "event"
    },
    {
      "anonymous": false,
      "inputs": [
        {
          "indexed": true,
          "name": "previousOwner",
          "type": "address"
        }
      ],
      "name": "OwnershipRenounced",
      "type": "event"
    },
    {
      "anonymous": false,
      "inputs": [
        {
          "indexed": true,
          "name": "previousOwner",
          "type": "address"
        },
        {
          "indexed": true,
          "name": "newOwner",
          "type": "address"
        }
      ],
      "name": "OwnershipTransferred",
      "type": "event"
    },
    {
      "constant": true,
      "inputs": [
        {
          "name": "_paymentsProxy",
          "type": "address"
        },
        {
          "name": "_token",
          "type": "address"
        },
        {
          "name": "_owner",
          "type": "address"
        },
        {
          "name": "_chosen",
          "type": "uint256"
        }
      ],
      "name": "allowance",
      "outputs": [
        {
          "name": "",
          "type": "bool"
        }
      ],
      "payable": false,
      "stateMutability": "view",
      "type": "function"
    },
    {
      "constant": false,
      "inputs": [
        {
          "name": "_paymentsProxy",
          "type": "address"
        },
        {
          "name": "_token",
          "type": "address"
        },
        {
          "name": "_from",
          "type": "address"
        },
        {
          "name": "_to",
          "type": "address"
        },
        {
          "name": "_profit",
          "type": "uint256"
        }
      ],
      "name": "transferFrom",
      "outputs": [
        {
          "name": "",
          "type": "bool"
        }
      ],
      "payable": false,
      "stateMutability": "nonpayable",
      "type": "function"
    },
    {
      "constant": false,
      "inputs": [
        {
          "name": "_paymentsProxy",
          "type": "address"
        },
        {
          "name": "_token",
          "type": "address"
        },
        {
          "name": "_to",
          "type": "address"
        },
        {
          "name": "_profit",
          "type": "uint256"
        }
      ],
      "name": "transfer",
      "outputs": [
        {
          "name": "",
          "type": "bool"
        }
      ],
      "payable": false,
      "stateMutability": "nonpayable",
      "type": "function"
    },
    {
      "constant": true,
      "inputs": [
        {
          "name": "_paymentsProxy",
          "type": "address"
        },
        {
          "name": "_token",
          "type": "address"
        },
        {
          "name": "_address",
          "type": "address"
        }
      ],
      "name": "balanceOf",
      "outputs": [
        {
          "name": "",
          "type": "uint256"
        }
      ],
      "payable": false,
      "stateMutability": "view",
      "type": "function"
    }
  ],
  "bytecode": "0x608060405260008060146101000a81548160ff021916908315150217905550336000806101000a81548173ffffffffffffffffffffffffffffffffffffffff021916908373ffffffffffffffffffffffffffffffffffffffff1602179055506111a38061006d6000396000f3006080604052600436106100ba576000357c0100000000000000000000000000000000000000000000000000000000900463ffffffff1680631ff677bf146101275780633f4ba83a1461017e5780635c975abb146101955780636e275bd2146101c4578063715018a61461028957806375bb9b63146102a05780637ad5408b146103375780638456cb59146103dc5780638da5cb5b146103f3578063efdb2b461461044a578063f18d03cc1461048d578063f2fde38b14610532575b7f71c66459b89364f3bf3c906b1a1d8652cc2920224be995f47e1bd17fd14282223334604051808373ffffffffffffffffffffffffffffffffffffffff1673ffffffffffffffffffffffffffffffffffffffff1681526020018281526020019250505060405180910390a1005b34801561013357600080fd5b5061013c610575565b604051808273ffffffffffffffffffffffffffffffffffffffff1673ffffffffffffffffffffffffffffffffffffffff16815260200191505060405180910390f35b34801561018a57600080fd5b5061019361059b565b005b3480156101a157600080fd5b506101aa610659565b604051808215151515815260200191505060405180910390f35b3480156101d057600080fd5b5061026f600480360381019080803573ffffffffffffffffffffffffffffffffffffffff169060200190929190803573ffffffffffffffffffffffffffffffffffffffff169060200190929190803573ffffffffffffffffffffffffffffffffffffffff169060200190929190803573ffffffffffffffffffffffffffffffffffffffff1690602001909291908035906020019092919050505061066c565b604051808215151515815260200191505060405180910390f35b34801561029557600080fd5b5061029e6108ed565b005b3480156102ac57600080fd5b50610321600480360381019080803573ffffffffffffffffffffffffffffffffffffffff169060200190929190803573ffffffffffffffffffffffffffffffffffffffff169060200190929190803573ffffffffffffffffffffffffffffffffffffffff1690602001909291905050506109ef565b6040518082815260200191505060405180910390f35b34801561034357600080fd5b506103c2600480360381019080803573ffffffffffffffffffffffffffffffffffffffff169060200190929190803573ffffffffffffffffffffffffffffffffffffffff169060200190929190803573ffffffffffffffffffffffffffffffffffffffff16906020019092919080359060200190929190505050610b04565b604051808215151515815260200191505060405180910390f35b3480156103e857600080fd5b506103f1610c22565b005b3480156103ff57600080fd5b50610408610ce2565b604051808273ffffffffffffffffffffffffffffffffffffffff1673ffffffffffffffffffffffffffffffffffffffff16815260200191505060405180910390f35b34801561045657600080fd5b5061048b600480360381019080803573ffffffffffffffffffffffffffffffffffffffff169060200190929190505050610d07565b005b34801561049957600080fd5b50610518600480360381019080803573ffffffffffffffffffffffffffffffffffffffff169060200190929190803573ffffffffffffffffffffffffffffffffffffffff169060200190929190803573ffffffffffffffffffffffffffffffffffffffff16906020019092919080359060200190929190505050610dca565b604051808215151515815260200191505060405180910390f35b34801561053e57600080fd5b50610573600480360381019080803573ffffffffffffffffffffffffffffffffffffffff169060200190929190505050611016565b005b600160009054906101000a900473ffffffffffffffffffffffffffffffffffffffff1681565b6000809054906101000a900473ffffffffffffffffffffffffffffffffffffffff1673ffffffffffffffffffffffffffffffffffffffff163373ffffffffffffffffffffffffffffffffffffffff161415156105f657600080fd5b600060149054906101000a900460ff16151561061157600080fd5b60008060146101000a81548160ff0219169083151502179055507f7805862f689e2f13df9f062ff482ad3ad112aca9e0847911ed832e158c525b3360405160405180910390a1565b600060149054906101000a900460ff1681565b60008060149054906101000a900460ff16151561068857600080fd5b600160009054906101000a900473ffffffffffffffffffffffffffffffffffffffff1673ffffffffffffffffffffffffffffffffffffffff166351b699cd336040518263ffffffff167c0100000000000000000000000000000000000000000000000000000000028152600401808273ffffffffffffffffffffffffffffffffffffffff1673ffffffffffffffffffffffffffffffffffffffff168152602001915050600060405180830381600087803b15801561074557600080fd5b505af1158015610759573d6000803e3d6000fd5b505050508573ffffffffffffffffffffffffffffffffffffffff1660405180807f7472616e7366657246726f6d28616464726573732c616464726573732c61646481526020017f726573732c75696e743235362900000000000000000000000000000000000000815250602d01905060405180910390207c01000000000000000000000000000000000000000000000000000000009004868686866040518563ffffffff167c0100000000000000000000000000000000000000000000000000000000028152600401808573ffffffffffffffffffffffffffffffffffffffff1673ffffffffffffffffffffffffffffffffffffffff1681526020018473ffffffffffffffffffffffffffffffffffffffff1673ffffffffffffffffffffffffffffffffffffffff1681526020018373ffffffffffffffffffffffffffffffffffffffff1673ffffffffffffffffffffffffffffffffffffffff168152602001828152602001945050505050600060405180830381865af49250505015156108e057600080fd5b6001905095945050505050565b6000809054906101000a900473ffffffffffffffffffffffffffffffffffffffff1673ffffffffffffffffffffffffffffffffffffffff163373ffffffffffffffffffffffffffffffffffffffff1614151561094857600080fd5b6000809054906101000a900473ffffffffffffffffffffffffffffffffffffffff1673ffffffffffffffffffffffffffffffffffffffff167ff8df31144d9c2f0f6b59d69b8b98abd5459d07f2742c4df920b25aae33c6482060405160405180910390a260008060006101000a81548173ffffffffffffffffffffffffffffffffffffffff021916908373ffffffffffffffffffffffffffffffffffffffff160217905550565b60008373ffffffffffffffffffffffffffffffffffffffff1663f7888aec84846040518363ffffffff167c0100000000000000000000000000000000000000000000000000000000028152600401808373ffffffffffffffffffffffffffffffffffffffff1673ffffffffffffffffffffffffffffffffffffffff1681526020018273ffffffffffffffffffffffffffffffffffffffff1673ffffffffffffffffffffffffffffffffffffffff16815260200192505050602060405180830381600087803b158015610ac057600080fd5b505af1158015610ad4573d6000803e3d6000fd5b505050506040513d6020811015610aea57600080fd5b810190808051906020019092919050505090509392505050565b60008473ffffffffffffffffffffffffffffffffffffffff1663598af9e78585856040518463ffffffff167c0100000000000000000000000000000000000000000000000000000000028152600401808473ffffffffffffffffffffffffffffffffffffffff1673ffffffffffffffffffffffffffffffffffffffff1681526020018373ffffffffffffffffffffffffffffffffffffffff1673ffffffffffffffffffffffffffffffffffffffff1681526020018281526020019350505050602060405180830381600087803b158015610bdd57600080fd5b505af1158015610bf1573d6000803e3d6000fd5b505050506040513d6020811015610c0757600080fd5b81019080805190602001909291905050509050949350505050565b6000809054906101000a900473ffffffffffffffffffffffffffffffffffffffff1673ffffffffffffffffffffffffffffffffffffffff163373ffffffffffffffffffffffffffffffffffffffff16141515610c7d57600080fd5b600060149054906101000a900460ff16151515610c9957600080fd5b6001600060146101000a81548160ff0219169083151502179055507f6985a02210a168e66602d3235cb6db0e70f92b3ba4d376a33c0f3d9434bff62560405160405180910390a1565b6000809054906101000a900473ffffffffffffffffffffffffffffffffffffffff1681565b6000809054906101000a900473ffffffffffffffffffffffffffffffffffffffff1673ffffffffffffffffffffffffffffffffffffffff163373ffffffffffffffffffffffffffffffffffffffff16141515610d6257600080fd5b600060149054906101000a900460ff16151515610d7e57600080fd5b80600160006101000a81548173ffffffffffffffffffffffffffffffffffffffff021916908373ffffffffffffffffffffffffffffffffffffffff160217905550610dc7610c22565b50565b60008060149054906101000a900460ff161515610de657600080fd5b600160009054906101000a900473ffffffffffffffffffffffffffffffffffffffff1673ffffffffffffffffffffffffffffffffffffffff166351b699cd336040518263ffffffff167c0100000000000000000000000000000000000000000000000000000000028152600401808273ffffffffffffffffffffffffffffffffffffffff1673ffffffffffffffffffffffffffffffffffffffff168152602001915050600060405180830381600087803b158015610ea357600080fd5b505af1158015610eb7573d6000803e3d6000fd5b505050508473ffffffffffffffffffffffffffffffffffffffff1660405180807f7472616e7366657228616464726573732c616464726573732c75696e7432353681526020017f2900000000000000000000000000000000000000000000000000000000000000815250602101905060405180910390207c010000000000000000000000000000000000000000000000000000000090048585856040518463ffffffff167c0100000000000000000000000000000000000000000000000000000000028152600401808473ffffffffffffffffffffffffffffffffffffffff1673ffffffffffffffffffffffffffffffffffffffff1681526020018373ffffffffffffffffffffffffffffffffffffffff1673ffffffffffffffffffffffffffffffffffffffff1681526020018281526020019350505050600060405180830381865af492505050151561100a57600080fd5b60019050949350505050565b6000809054906101000a900473ffffffffffffffffffffffffffffffffffffffff1673ffffffffffffffffffffffffffffffffffffffff163373ffffffffffffffffffffffffffffffffffffffff1614151561107157600080fd5b61107a8161107d565b50565b600073ffffffffffffffffffffffffffffffffffffffff168173ffffffffffffffffffffffffffffffffffffffff16141515156110b957600080fd5b8073ffffffffffffffffffffffffffffffffffffffff166000809054906101000a900473ffffffffffffffffffffffffffffffffffffffff1673ffffffffffffffffffffffffffffffffffffffff167f8be0079c531659141344cd1fd0a4f28419497f9722a3daafe3b4186f6b6457e060405160405180910390a3806000806101000a81548173ffffffffffffffffffffffffffffffffffffffff021916908373ffffffffffffffffffffffffffffffffffffffff160217905550505600a165627a7a723058208b6dfb4f8128c930563d44f4a08deab674c68bdc7c1cac31ea48f206957ebc030029",
  "source": "pragma solidity 0.4.24;\n\n// Internal\nimport \"./RegistrySetter.sol\";\nimport \"./ProxyInterfaces/BetPaymentsProxyInterface.sol\";\n\n\n/**\n * By the moment the types supported are be:\n *  - ERC20 tokens\n *  - ERC721 tokens\n *\n * Author: Carlos Gonzalez -- Github: carlosgj94\n */\n/** @title BetPayments. */\ncontract BetPayments is RegistrySetter {\n\n    // Events\n    event LogPaymentReceived(\n        address sender,\n        uint amount\n    );\n\n    // Fallback function\n    function () external payable {\n        emit LogPaymentReceived(msg.sender, msg.value);\n    }\n\n    /**\n     * @dev Function that tells the balance of the bet.\n     * This function is used to check the balance an address has allowed to use\n     * @param _paymentsProxy address Address of the payments proxy\n     * @param _token address Address of the better\n     * @param _owner address Address of the better\n     * @param _chosen uint Address of the better\n     * @return bool the balance of the user\n     */\n    function allowance(\n        address _paymentsProxy,\n        address _token,\n        address _owner,\n        uint _chosen\n    )\n        public\n        view\n        returns(bool)\n    {\n        return BetPaymentsProxyInterface(_paymentsProxy).allowance(\n            _token,\n            _owner,\n            _chosen\n        );\n    }\n\n    /**\n     * @dev Function to send the profits the bet has to an address\n     * @param _from address Address of the current owner\n     * @param _to address Address of the beneficiary\n     * @param _profit uint this will depend in the child token if it is\n     * an ERC721 or ERC20 Token. But it's the profit the person gets\n     * @return bool if the transaction was succesfull\n     */\n    function transferFrom(\n        address _paymentsProxy,\n        address _token,\n        address _from,\n        address _to,\n        uint _profit\n    )\n        public\n        whenPaused\n        returns(bool)\n    {    \n        betRegistry.isAuthorised(msg.sender);\n        require(_paymentsProxy.delegatecall(\n            bytes4(\n                keccak256(\n                    \"transferFrom(address,address,address,uint256)\"\n                )\n            ),\n            _token,\n            _from,\n            _to,\n            _profit\n        ));\n        return true;\n    }\n\n    /**\n     * @dev Function to send the profits the bet has to an address\n     * @param _paymentsProxy address Address of the proxy\n     * @param _token address Address of the token to use\n     * @param _to address Address of the beneficiary\n     * @param _profit uint this will depend in the child token if it is\n     * an ERC721 or ERC20 Token. But it's the profit the person gets\n     * @return bool if the transaction was succesfull\n     */\n    function transfer(\n        address _paymentsProxy,\n        address _token,\n        address _to,\n        uint _profit\n    )\n        public\n        whenPaused\n        returns(bool)\n    {    \n        betRegistry.isAuthorised(msg.sender);\n        require(_paymentsProxy.delegatecall(\n            bytes4(\n                keccak256(\n                    \"transfer(address,address,uint256)\"\n                )\n            ),\n            _token,\n            _to,\n            _profit\n        ));\n        return true;\n    }\n\n    /**\n     * @dev Function that returns the balance of an address\n     * @param _paymentsProxy address Address of the proxy\n     * @param _token address Address fo the token to use\n     * @param _address address Address of the user we want the data from\n     * @return uint the amount of tokens the address holds\n     */\n    function balanceOf(\n        address _paymentsProxy,\n        address _token,\n        address _address\n    )\n        public\n        view\n        returns(uint)\n    {\n        return BetPaymentsProxyInterface(_paymentsProxy).balanceOf(_token, _address);\n    }\n}\n",
  "sourcePath": "/Users/carlosgonzalezjuarez/Documents/Development/GuesserProtocol/contracts/BetPayments.sol",
  "compiler": {
    "name": "solc",
    "version": "0.4.24+commit.e67f0147.Emscripten.clang"
  },
  "schemaVersion": "2.0.0",
  "updatedAt": "2018-07-11T19:48:47.883Z"
}