{
  "contractName": "BetRegistry",
  "abi": [
    {
      "constant": false,
      "inputs": [
        {
          "name": "_betTerms",
          "type": "address"
        }
      ],
      "name": "setBetTerms",
      "outputs": [],
      "payable": false,
      "stateMutability": "nonpayable",
      "type": "function"
    },
    {
      "constant": false,
      "inputs": [
        {
          "name": "_betKernel",
          "type": "address"
        }
      ],
      "name": "setBetKernel",
      "outputs": [],
      "payable": false,
      "stateMutability": "nonpayable",
      "type": "function"
    },
    {
      "constant": false,
      "inputs": [],
      "name": "unpause",
      "outputs": [],
      "payable": false,
      "stateMutability": "nonpayable",
      "type": "function"
    },
    {
      "constant": true,
      "inputs": [],
      "name": "betKernel",
      "outputs": [
        {
          "name": "",
          "type": "address"
        }
      ],
      "payable": false,
      "stateMutability": "view",
      "type": "function"
    },
    {
      "constant": true,
      "inputs": [],
      "name": "paused",
      "outputs": [
        {
          "name": "",
          "type": "bool"
        }
      ],
      "payable": false,
      "stateMutability": "view",
      "type": "function"
    },
    {
      "constant": false,
      "inputs": [],
      "name": "renounceOwnership",
      "outputs": [],
      "payable": false,
      "stateMutability": "nonpayable",
      "type": "function"
    },
    {
      "constant": true,
      "inputs": [],
      "name": "betOracle",
      "outputs": [
        {
          "name": "",
          "type": "address"
        }
      ],
      "payable": false,
      "stateMutability": "view",
      "type": "function"
    },
    {
      "constant": false,
      "inputs": [],
      "name": "pause",
      "outputs": [],
      "payable": false,
      "stateMutability": "nonpayable",
      "type": "function"
    },
    {
      "constant": true,
      "inputs": [],
      "name": "owner",
      "outputs": [
        {
          "name": "",
          "type": "address"
        }
      ],
      "payable": false,
      "stateMutability": "view",
      "type": "function"
    },
    {
      "constant": true,
      "inputs": [],
      "name": "proxyRegistry",
      "outputs": [
        {
          "name": "",
          "type": "address"
        }
      ],
      "payable": false,
      "stateMutability": "view",
      "type": "function"
    },
    {
      "constant": false,
      "inputs": [
        {
          "name": "_betPayments",
          "type": "address"
        }
      ],
      "name": "setBetPayments",
      "outputs": [],
      "payable": false,
      "stateMutability": "nonpayable",
      "type": "function"
    },
    {
      "constant": true,
      "inputs": [],
      "name": "betTerms",
      "outputs": [
        {
          "name": "",
          "type": "address"
        }
      ],
      "payable": false,
      "stateMutability": "view",
      "type": "function"
    },
    {
      "constant": true,
      "inputs": [],
      "name": "betPayments",
      "outputs": [
        {
          "name": "",
          "type": "address"
        }
      ],
      "payable": false,
      "stateMutability": "view",
      "type": "function"
    },
    {
      "constant": false,
      "inputs": [
        {
          "name": "_betOracle",
          "type": "address"
        }
      ],
      "name": "setBetOracle",
      "outputs": [],
      "payable": false,
      "stateMutability": "nonpayable",
      "type": "function"
    },
    {
      "constant": false,
      "inputs": [
        {
          "name": "_newOwner",
          "type": "address"
        }
      ],
      "name": "transferOwnership",
      "outputs": [],
      "payable": false,
      "stateMutability": "nonpayable",
      "type": "function"
    },
    {
      "inputs": [
        {
          "name": "_proxyRegistry",
          "type": "address"
        },
        {
          "name": "_betKernel",
          "type": "address"
        },
        {
          "name": "_betPayments",
          "type": "address"
        },
        {
          "name": "_betOracle",
          "type": "address"
        },
        {
          "name": "_betTerms",
          "type": "address"
        }
      ],
      "payable": false,
      "stateMutability": "nonpayable",
      "type": "constructor"
    },
    {
      "anonymous": false,
      "inputs": [
        {
          "indexed": false,
          "name": "_hash",
          "type": "bytes32"
        }
      ],
      "name": "LogBetEntry",
      "type": "event"
    },
    {
      "anonymous": false,
      "inputs": [],
      "name": "Pause",
      "type": "event"
    },
    {
      "anonymous": false,
      "inputs": [],
      "name": "Unpause",
      "type": "event"
    },
    {
      "anonymous": false,
      "inputs": [
        {
          "indexed": true,
          "name": "previousOwner",
          "type": "address"
        }
      ],
      "name": "OwnershipRenounced",
      "type": "event"
    },
    {
      "anonymous": false,
      "inputs": [
        {
          "indexed": true,
          "name": "previousOwner",
          "type": "address"
        },
        {
          "indexed": true,
          "name": "newOwner",
          "type": "address"
        }
      ],
      "name": "OwnershipTransferred",
      "type": "event"
    },
    {
      "constant": false,
      "inputs": [
        {
          "name": "_kernelProxy",
          "type": "address"
        },
        {
          "name": "_paymentsProxy",
          "type": "address"
        },
        {
          "name": "_paymentsToken",
          "type": "address"
        },
        {
          "name": "_oracleProxy",
          "type": "address"
        },
        {
          "name": "_termsProxy",
          "type": "address"
        },
        {
          "name": "_termsHash",
          "type": "bytes32"
        },
        {
          "name": "_title",
          "type": "string"
        },
        {
          "name": "_salt",
          "type": "uint256"
        }
      ],
      "name": "createBet",
      "outputs": [
        {
          "name": "",
          "type": "bytes32"
        }
      ],
      "payable": false,
      "stateMutability": "nonpayable",
      "type": "function"
    },
    {
      "constant": false,
      "inputs": [
        {
          "name": "_betHash",
          "type": "bytes32"
        },
        {
          "name": "_sender",
          "type": "address"
        },
        {
          "name": "_option",
          "type": "uint256"
        },
        {
          "name": "_number",
          "type": "uint256"
        }
      ],
      "name": "insertPlayerBet",
      "outputs": [
        {
          "name": "",
          "type": "bytes32"
        }
      ],
      "payable": false,
      "stateMutability": "nonpayable",
      "type": "function"
    },
    {
      "constant": false,
      "inputs": [
        {
          "name": "_betHash",
          "type": "bytes32"
        },
        {
          "name": "_number",
          "type": "uint256"
        }
      ],
      "name": "addTotalPrincipal",
      "outputs": [
        {
          "name": "",
          "type": "uint256"
        }
      ],
      "payable": false,
      "stateMutability": "nonpayable",
      "type": "function"
    },
    {
      "constant": false,
      "inputs": [
        {
          "name": "_betHash",
          "type": "bytes32"
        },
        {
          "name": "_option",
          "type": "uint256"
        },
        {
          "name": "_number",
          "type": "uint256"
        }
      ],
      "name": "addToOption",
      "outputs": [
        {
          "name": "",
          "type": "uint256"
        }
      ],
      "payable": false,
      "stateMutability": "nonpayable",
      "type": "function"
    },
    {
      "constant": true,
      "inputs": [
        {
          "name": "_betHash",
          "type": "bytes32"
        },
        {
          "name": "_sender",
          "type": "address"
        },
        {
          "name": "_option",
          "type": "uint256"
        },
        {
          "name": "_number",
          "type": "uint256"
        }
      ],
      "name": "getPlayerBetHash",
      "outputs": [
        {
          "name": "",
          "type": "bytes32"
        }
      ],
      "payable": false,
      "stateMutability": "view",
      "type": "function"
    },
    {
      "constant": false,
      "inputs": [
        {
          "name": "_betHash",
          "type": "bytes32"
        },
        {
          "name": "_option",
          "type": "uint256"
        },
        {
          "name": "_title",
          "type": "string"
        }
      ],
      "name": "setOptionTitle",
      "outputs": [],
      "payable": false,
      "stateMutability": "nonpayable",
      "type": "function"
    },
    {
      "constant": true,
      "inputs": [
        {
          "name": "_betHash",
          "type": "bytes32"
        }
      ],
      "name": "getBetKernelProxy",
      "outputs": [
        {
          "name": "",
          "type": "address"
        }
      ],
      "payable": false,
      "stateMutability": "view",
      "type": "function"
    },
    {
      "constant": true,
      "inputs": [
        {
          "name": "_betHash",
          "type": "bytes32"
        }
      ],
      "name": "getBetPaymentsProxy",
      "outputs": [
        {
          "name": "",
          "type": "address"
        }
      ],
      "payable": false,
      "stateMutability": "view",
      "type": "function"
    },
    {
      "constant": true,
      "inputs": [
        {
          "name": "_betHash",
          "type": "bytes32"
        }
      ],
      "name": "getBetPaymentsToken",
      "outputs": [
        {
          "name": "",
          "type": "address"
        }
      ],
      "payable": false,
      "stateMutability": "view",
      "type": "function"
    },
    {
      "constant": true,
      "inputs": [
        {
          "name": "_betHash",
          "type": "bytes32"
        }
      ],
      "name": "getBetOracleProxy",
      "outputs": [
        {
          "name": "",
          "type": "address"
        }
      ],
      "payable": false,
      "stateMutability": "view",
      "type": "function"
    },
    {
      "constant": true,
      "inputs": [
        {
          "name": "_betHash",
          "type": "bytes32"
        }
      ],
      "name": "getBetTermsProxy",
      "outputs": [
        {
          "name": "",
          "type": "address"
        }
      ],
      "payable": false,
      "stateMutability": "view",
      "type": "function"
    },
    {
      "constant": true,
      "inputs": [
        {
          "name": "_betHash",
          "type": "bytes32"
        }
      ],
      "name": "getBetTermsHash",
      "outputs": [
        {
          "name": "",
          "type": "bytes32"
        }
      ],
      "payable": false,
      "stateMutability": "view",
      "type": "function"
    },
    {
      "constant": true,
      "inputs": [
        {
          "name": "_betHash",
          "type": "bytes32"
        }
      ],
      "name": "getBetTitle",
      "outputs": [
        {
          "name": "",
          "type": "string"
        }
      ],
      "payable": false,
      "stateMutability": "view",
      "type": "function"
    },
    {
      "constant": true,
      "inputs": [
        {
          "name": "_betHash",
          "type": "bytes32"
        }
      ],
      "name": "getBetDatetime",
      "outputs": [
        {
          "name": "",
          "type": "uint256"
        }
      ],
      "payable": false,
      "stateMutability": "view",
      "type": "function"
    },
    {
      "constant": true,
      "inputs": [
        {
          "name": "_betHash",
          "type": "bytes32"
        }
      ],
      "name": "getBetCreator",
      "outputs": [
        {
          "name": "",
          "type": "address"
        }
      ],
      "payable": false,
      "stateMutability": "view",
      "type": "function"
    },
    {
      "constant": true,
      "inputs": [
        {
          "name": "_betHash",
          "type": "bytes32"
        }
      ],
      "name": "getTotalPrincipal",
      "outputs": [
        {
          "name": "",
          "type": "uint256"
        }
      ],
      "payable": false,
      "stateMutability": "view",
      "type": "function"
    },
    {
      "constant": true,
      "inputs": [
        {
          "name": "_betHash",
          "type": "bytes32"
        },
        {
          "name": "_option",
          "type": "uint256"
        }
      ],
      "name": "getPrincipalInOption",
      "outputs": [
        {
          "name": "",
          "type": "uint256"
        }
      ],
      "payable": false,
      "stateMutability": "view",
      "type": "function"
    },
    {
      "constant": true,
      "inputs": [
        {
          "name": "_betHash",
          "type": "bytes32"
        },
        {
          "name": "_option",
          "type": "uint256"
        }
      ],
      "name": "getOptionTitle",
      "outputs": [
        {
          "name": "",
          "type": "string"
        }
      ],
      "payable": false,
      "stateMutability": "view",
      "type": "function"
    },
    {
      "constant": true,
      "inputs": [
        {
          "name": "_betHash",
          "type": "bytes32"
        },
        {
          "name": "_playerBetHash",
          "type": "bytes32"
        }
      ],
      "name": "getPlayerBetPlayer",
      "outputs": [
        {
          "name": "",
          "type": "address"
        }
      ],
      "payable": false,
      "stateMutability": "view",
      "type": "function"
    },
    {
      "constant": true,
      "inputs": [
        {
          "name": "_betHash",
          "type": "bytes32"
        },
        {
          "name": "_playerBetHash",
          "type": "bytes32"
        }
      ],
      "name": "getPlayerBetOption",
      "outputs": [
        {
          "name": "",
          "type": "uint256"
        }
      ],
      "payable": false,
      "stateMutability": "view",
      "type": "function"
    },
    {
      "constant": true,
      "inputs": [
        {
          "name": "_betHash",
          "type": "bytes32"
        },
        {
          "name": "_playerBetHash",
          "type": "bytes32"
        }
      ],
      "name": "getPlayerBetPrincipal",
      "outputs": [
        {
          "name": "",
          "type": "uint256"
        }
      ],
      "payable": false,
      "stateMutability": "view",
      "type": "function"
    },
    {
      "constant": true,
      "inputs": [
        {
          "name": "_betHash",
          "type": "bytes32"
        },
        {
          "name": "_playerBetHash",
          "type": "bytes32"
        }
      ],
      "name": "getPlayerBetReturned",
      "outputs": [
        {
          "name": "",
          "type": "bool"
        }
      ],
      "payable": false,
      "stateMutability": "view",
      "type": "function"
    },
    {
      "constant": true,
      "inputs": [
        {
          "name": "_betHash",
          "type": "bytes32"
        }
      ],
      "name": "betExists",
      "outputs": [
        {
          "name": "",
          "type": "bool"
        }
      ],
      "payable": false,
      "stateMutability": "view",
      "type": "function"
    },
    {
      "constant": true,
      "inputs": [
        {
          "name": "_betHash",
          "type": "bytes32"
        },
        {
          "name": "_playerBetHash",
          "type": "bytes32"
        }
      ],
      "name": "playerBetExists",
      "outputs": [
        {
          "name": "",
          "type": "bool"
        }
      ],
      "payable": false,
      "stateMutability": "view",
      "type": "function"
    },
    {
      "constant": false,
      "inputs": [
        {
          "name": "_betHash",
          "type": "bytes32"
        },
        {
          "name": "_playerBetHash",
          "type": "bytes32"
        },
        {
          "name": "_returned",
          "type": "bool"
        }
      ],
      "name": "setPlayerBetReturned",
      "outputs": [
        {
          "name": "",
          "type": "bool"
        }
      ],
      "payable": false,
      "stateMutability": "nonpayable",
      "type": "function"
    },
    {
      "constant": true,
      "inputs": [
        {
          "name": "_sender",
          "type": "address"
        }
      ],
      "name": "isAuthorised",
      "outputs": [],
      "payable": false,
      "stateMutability": "view",
      "type": "function"
    }
  ],
  "bytecode": "0x608060405260008060146101000a81548160ff02191690831515021790555034801561002a57600080fd5b5060405160a0806136e78339810180604052810190808051906020019092919080519060200190929190805190602001909291908051906020019092919080519060200190929190505050336000806101000a81548173ffffffffffffffffffffffffffffffffffffffff021916908373ffffffffffffffffffffffffffffffffffffffff16021790555084600760006101000a81548173ffffffffffffffffffffffffffffffffffffffff021916908373ffffffffffffffffffffffffffffffffffffffff16021790555083600160006101000a81548173ffffffffffffffffffffffffffffffffffffffff021916908373ffffffffffffffffffffffffffffffffffffffff16021790555082600260006101000a81548173ffffffffffffffffffffffffffffffffffffffff021916908373ffffffffffffffffffffffffffffffffffffffff16021790555081600360006101000a81548173ffffffffffffffffffffffffffffffffffffffff021916908373ffffffffffffffffffffffffffffffffffffffff16021790555080600460006101000a81548173ffffffffffffffffffffffffffffffffffffffff021916908373ffffffffffffffffffffffffffffffffffffffff16021790555050505050506134d98061020e6000396000f3006080604052600436106101f9576000357c0100000000000000000000000000000000000000000000000000000000900463ffffffff16806308fb0970146101fe57806314715bcc14610241578063171f1af1146102b25780632659a074146102f557806330cdb40d146103445780633a8100d1146103b55780633f4ba83a1461042657806341b273bb1461043d5780634c98ee7b146104a05780634fc2c76c146104f757806351b699cd146105465780635c975abb146105895780635faa7cee146105b8578063715018a6146106395780637171e757146106505780637d95ff89146106c157806380fabc911461071457806381bf37021461076b57806382507452146107ea5780638456cb59146108375780638da5cb5b1461084e57806391061d6f146108a55780639d5e693814610959578063ac21e313146109b0578063afc2779114610a21578063b2aa5d0c14610a66578063b50cbd9f14610ab9578063b87822bd14610b10578063b90a414914610b55578063bad07ee714610bae578063ca033e7d14610bf1578063d8818ad914610c48578063dd943d0414610c91578063de1028e114610ce8578063e564659714610d59578063e7ae81f714610db0578063e91e48da14610df3578063f1f6396514610e74578063f2fde38b14610fb1578063f61fdeb814610ff4578063f78bdec614611075575b600080fd5b34801561020a57600080fd5b5061023f600480360381019080803573ffffffffffffffffffffffffffffffffffffffff16906020019092919050505061111f565b005b34801561024d57600080fd5b5061027060048036038101908080356000191690602001909291905050506111be565b604051808273ffffffffffffffffffffffffffffffffffffffff1673ffffffffffffffffffffffffffffffffffffffff16815260200191505060405180910390f35b3480156102be57600080fd5b506102f3600480360381019080803573ffffffffffffffffffffffffffffffffffffffff169060200190929190505050611223565b005b34801561030157600080fd5b5061032e6004803603810190808035600019169060200190929190803590602001909291905050506112c2565b6040518082815260200191505060405180910390f35b34801561035057600080fd5b506103736004803603810190808035600019169060200190929190505050611319565b604051808273ffffffffffffffffffffffffffffffffffffffff1673ffffffffffffffffffffffffffffffffffffffff16815260200191505060405180910390f35b3480156103c157600080fd5b506103e4600480360381019080803560001916906020019092919050505061137e565b604051808273ffffffffffffffffffffffffffffffffffffffff1673ffffffffffffffffffffffffffffffffffffffff16815260200191505060405180910390f35b34801561043257600080fd5b5061043b6113e3565b005b34801561044957600080fd5b50610486600480360381019080803560001916906020019092919080356000191690602001909291908035151590602001909291905050506114a1565b604051808215151515815260200191505060405180910390f35b3480156104ac57600080fd5b506104b561151e565b604051808273ffffffffffffffffffffffffffffffffffffffff1673ffffffffffffffffffffffffffffffffffffffff16815260200191505060405180910390f35b34801561050357600080fd5b50610530600480360381019080803560001916906020019092919080359060200190929190505050611544565b6040518082815260200191505060405180910390f35b34801561055257600080fd5b50610587600480360381019080803573ffffffffffffffffffffffffffffffffffffffff16906020019092919050505061161c565b005b34801561059557600080fd5b5061059e6117da565b604051808215151515815260200191505060405180910390f35b3480156105c457600080fd5b5061061b6004803603810190808035600019169060200190929190803573ffffffffffffffffffffffffffffffffffffffff16906020019092919080359060200190929190803590602001909291905050506117ed565b60405180826000191660001916815260200191505060405180910390f35b34801561064557600080fd5b5061064e611a1f565b005b34801561065c57600080fd5b5061067f6004803603810190808035600019169060200190929190505050611b21565b604051808273ffffffffffffffffffffffffffffffffffffffff1673ffffffffffffffffffffffffffffffffffffffff16815260200191505060405180910390f35b3480156106cd57600080fd5b506106fe60048036038101908080356000191690602001909291908035600019169060200190929190505050611b86565b6040518082815260200191505060405180910390f35b34801561072057600080fd5b50610729611be9565b604051808273ffffffffffffffffffffffffffffffffffffffff1673ffffffffffffffffffffffffffffffffffffffff16815260200191505060405180910390f35b34801561077757600080fd5b506107a860048036038101908080356000191690602001909291908035600019169060200190929190505050611c0f565b604051808273ffffffffffffffffffffffffffffffffffffffff1673ffffffffffffffffffffffffffffffffffffffff16815260200191505060405180910390f35b3480156107f657600080fd5b506108196004803603810190808035600019169060200190929190505050611c92565b60405180826000191660001916815260200191505060405180910390f35b34801561084357600080fd5b5061084c611cd7565b005b34801561085a57600080fd5b50610863611d97565b604051808273ffffffffffffffffffffffffffffffffffffffff1673ffffffffffffffffffffffffffffffffffffffff16815260200191505060405180910390f35b3480156108b157600080fd5b506108de600480360381019080803560001916906020019092919080359060200190929190505050611dbc565b6040518080602001828103825283818151815260200191508051906020019080838360005b8381101561091e578082015181840152602081019050610903565b50505050905090810190601f16801561094b5780820380516001836020036101000a031916815260200191505b509250505060405180910390f35b34801561096557600080fd5b5061099660048036038101908080356000191690602001909291908035600019169060200190929190505050611e97565b604051808215151515815260200191505060405180910390f35b3480156109bc57600080fd5b506109df6004803603810190808035600019169060200190929190505050611f07565b604051808273ffffffffffffffffffffffffffffffffffffffff1673ffffffffffffffffffffffffffffffffffffffff16815260200191505060405180910390f35b348015610a2d57600080fd5b50610a506004803603810190808035600019169060200190929190505050611f63565b6040518082815260200191505060405180910390f35b348015610a7257600080fd5b50610aa360048036038101908080356000191690602001909291908035600019169060200190929190505050611fa8565b6040518082815260200191505060405180910390f35b348015610ac557600080fd5b50610ace61200b565b604051808273ffffffffffffffffffffffffffffffffffffffff1673ffffffffffffffffffffffffffffffffffffffff16815260200191505060405180910390f35b348015610b1c57600080fd5b50610b3f6004803603810190808035600019169060200190929190505050612031565b6040518082815260200191505060405180910390f35b348015610b6157600080fd5b50610b9860048036038101908080356000191690602001909291908035906020019092919080359060200190929190505050612076565b6040518082815260200191505060405180910390f35b348015610bba57600080fd5b50610bef600480360381019080803573ffffffffffffffffffffffffffffffffffffffff169060200190929190505050612171565b005b348015610bfd57600080fd5b50610c06612210565b604051808273ffffffffffffffffffffffffffffffffffffffff1673ffffffffffffffffffffffffffffffffffffffff16815260200191505060405180910390f35b348015610c5457600080fd5b50610c776004803603810190808035600019169060200190929190505050612236565b604051808215151515815260200191505060405180910390f35b348015610c9d57600080fd5b50610ca66122bd565b604051808273ffffffffffffffffffffffffffffffffffffffff1673ffffffffffffffffffffffffffffffffffffffff16815260200191505060405180910390f35b348015610cf457600080fd5b50610d1760048036038101908080356000191690602001909291905050506122e3565b604051808273ffffffffffffffffffffffffffffffffffffffff1673ffffffffffffffffffffffffffffffffffffffff16815260200191505060405180910390f35b348015610d6557600080fd5b50610d9660048036038101908080356000191690602001909291908035600019169060200190929190505050612348565b604051808215151515815260200191505060405180910390f35b348015610dbc57600080fd5b50610df1600480360381019080803573ffffffffffffffffffffffffffffffffffffffff169060200190929190505050612401565b005b348015610dff57600080fd5b50610e72600480360381019080803560001916906020019092919080359060200190929190803590602001908201803590602001908080601f01602080910402602001604051908101604052809392919081815260200183838082843782019150505050505091929192905050506124a0565b005b348015610e8057600080fd5b50610f93600480360381019080803573ffffffffffffffffffffffffffffffffffffffff169060200190929190803573ffffffffffffffffffffffffffffffffffffffff169060200190929190803573ffffffffffffffffffffffffffffffffffffffff169060200190929190803573ffffffffffffffffffffffffffffffffffffffff169060200190929190803573ffffffffffffffffffffffffffffffffffffffff1690602001909291908035600019169060200190929190803590602001908201803590602001908080601f0160208091040260200160405190810160405280939291908181526020018383808284378201915050505050509192919290803590602001909291905050506124f2565b60405180826000191660001916815260200191505060405180910390f35b348015610fbd57600080fd5b50610ff2600480360381019080803573ffffffffffffffffffffffffffffffffffffffff169060200190929190505050612f34565b005b34801561100057600080fd5b506110576004803603810190808035600019169060200190929190803573ffffffffffffffffffffffffffffffffffffffff1690602001909291908035906020019092919080359060200190929190505050612f9b565b60405180826000191660001916815260200191505060405180910390f35b34801561108157600080fd5b506110a46004803603810190808035600019169060200190929190505050613095565b6040518080602001828103825283818151815260200191508051906020019080838360005b838110156110e45780820151818401526020810190506110c9565b50505050905090810190601f1680156111115780820380516001836020036101000a031916815260200191505b509250505060405180910390f35b6000809054906101000a900473ffffffffffffffffffffffffffffffffffffffff1673ffffffffffffffffffffffffffffffffffffffff163373ffffffffffffffffffffffffffffffffffffffff1614151561117a57600080fd5b80600460006101000a81548173ffffffffffffffffffffffffffffffffffffffff021916908373ffffffffffffffffffffffffffffffffffffffff16021790555050565b60006111c93361161c565b6111d282612236565b15156111dd57600080fd5b60066000836000191660001916815260200190815260200160002060010160009054906101000a900473ffffffffffffffffffffffffffffffffffffffff169050919050565b6000809054906101000a900473ffffffffffffffffffffffffffffffffffffffff1673ffffffffffffffffffffffffffffffffffffffff163373ffffffffffffffffffffffffffffffffffffffff1614151561127e57600080fd5b80600160006101000a81548173ffffffffffffffffffffffffffffffffffffffff021916908373ffffffffffffffffffffffffffffffffffffffff16021790555050565b60006112cd3361161c565b6112d683612236565b15156112e157600080fd5b600660008460001916600019168152602001908152602001600020600a01600083815260200190815260200160002054905092915050565b60006113243361161c565b61132d82612236565b151561133857600080fd5b60066000836000191660001916815260200190815260200160002060030160009054906101000a900473ffffffffffffffffffffffffffffffffffffffff169050919050565b60006113893361161c565b61139282612236565b151561139d57600080fd5b60066000836000191660001916815260200190815260200160002060000160009054906101000a900473ffffffffffffffffffffffffffffffffffffffff169050919050565b6000809054906101000a900473ffffffffffffffffffffffffffffffffffffffff1673ffffffffffffffffffffffffffffffffffffffff163373ffffffffffffffffffffffffffffffffffffffff1614151561143e57600080fd5b600060149054906101000a900460ff16151561145957600080fd5b60008060146101000a81548160ff0219169083151502179055507f7805862f689e2f13df9f062ff482ad3ad112aca9e0847911ed832e158c525b3360405160405180910390a1565b60006114ac3361161c565b6114b68484612348565b15156114c157600080fd5b816006600086600019166000191681526020019081526020016000206009016000856000191660001916815260200190815260200160002060030160006101000a81548160ff021916908315150217905550600190509392505050565b600160009054906101000a900473ffffffffffffffffffffffffffffffffffffffff1681565b600061154f3361161c565b600073ffffffffffffffffffffffffffffffffffffffff1660066000856000191660001916815260200190815260200160002060080160009054906101000a900473ffffffffffffffffffffffffffffffffffffffff1673ffffffffffffffffffffffffffffffffffffffff16141515156115c957600080fd5b81600660008560001916600019168152602001908152602001600020600c0160008282540192505081905550600660008460001916600019168152602001908152602001600020600c0154905092915050565b600160009054906101000a900473ffffffffffffffffffffffffffffffffffffffff1673ffffffffffffffffffffffffffffffffffffffff168173ffffffffffffffffffffffffffffffffffffffff1614806116c55750600260009054906101000a900473ffffffffffffffffffffffffffffffffffffffff1673ffffffffffffffffffffffffffffffffffffffff168173ffffffffffffffffffffffffffffffffffffffff16145b8061171d5750600360009054906101000a900473ffffffffffffffffffffffffffffffffffffffff1673ffffffffffffffffffffffffffffffffffffffff168173ffffffffffffffffffffffffffffffffffffffff16145b806117755750600460009054906101000a900473ffffffffffffffffffffffffffffffffffffffff1673ffffffffffffffffffffffffffffffffffffffff168173ffffffffffffffffffffffffffffffffffffffff16145b806117cc57506000809054906101000a900473ffffffffffffffffffffffffffffffffffffffff1673ffffffffffffffffffffffffffffffffffffffff168173ffffffffffffffffffffffffffffffffffffffff16145b15156117d757600080fd5b50565b600060149054906101000a900460ff1681565b60006117f761326c565b60006118023361161c565b600073ffffffffffffffffffffffffffffffffffffffff1660066000896000191660001916815260200190815260200160002060080160009054906101000a900473ffffffffffffffffffffffffffffffffffffffff1673ffffffffffffffffffffffffffffffffffffffff161415151561187c57600080fd5b6080604051908101604052808773ffffffffffffffffffffffffffffffffffffffff1681526020018681526020018581526020016000151581525091506118c587878787612f9b565b9050600073ffffffffffffffffffffffffffffffffffffffff166006600089600019166000191681526020019081526020016000206009016000836000191660001916815260200190815260200160002060000160009054906101000a900473ffffffffffffffffffffffffffffffffffffffff1673ffffffffffffffffffffffffffffffffffffffff1614151561195c57600080fd5b816006600089600019166000191681526020019081526020016000206009016000836000191660001916815260200190815260200160002060008201518160000160006101000a81548173ffffffffffffffffffffffffffffffffffffffff021916908373ffffffffffffffffffffffffffffffffffffffff160217905550602082015181600101556040820151816002015560608201518160030160006101000a81548160ff0219169083151502179055509050508092505050949350505050565b6000809054906101000a900473ffffffffffffffffffffffffffffffffffffffff1673ffffffffffffffffffffffffffffffffffffffff163373ffffffffffffffffffffffffffffffffffffffff16141515611a7a57600080fd5b6000809054906101000a900473ffffffffffffffffffffffffffffffffffffffff1673ffffffffffffffffffffffffffffffffffffffff167ff8df31144d9c2f0f6b59d69b8b98abd5459d07f2742c4df920b25aae33c6482060405160405180910390a260008060006101000a81548173ffffffffffffffffffffffffffffffffffffffff021916908373ffffffffffffffffffffffffffffffffffffffff160217905550565b6000611b2c3361161c565b611b3582612236565b1515611b4057600080fd5b60066000836000191660001916815260200190815260200160002060040160009054906101000a900473ffffffffffffffffffffffffffffffffffffffff169050919050565b6000611b913361161c565b611b9b8383612348565b1515611ba657600080fd5b6006600084600019166000191681526020019081526020016000206009016000836000191660001916815260200190815260200160002060010154905092915050565b600360009054906101000a900473ffffffffffffffffffffffffffffffffffffffff1681565b6000611c1a3361161c565b611c248383612348565b1515611c2f57600080fd5b6006600084600019166000191681526020019081526020016000206009016000836000191660001916815260200190815260200160002060000160009054906101000a900473ffffffffffffffffffffffffffffffffffffffff16905092915050565b6000611c9d3361161c565b611ca682612236565b1515611cb157600080fd5b600660008360001916600019168152602001908152602001600020600501549050919050565b6000809054906101000a900473ffffffffffffffffffffffffffffffffffffffff1673ffffffffffffffffffffffffffffffffffffffff163373ffffffffffffffffffffffffffffffffffffffff16141515611d3257600080fd5b600060149054906101000a900460ff16151515611d4e57600080fd5b6001600060146101000a81548160ff0219169083151502179055507f6985a02210a168e66602d3235cb6db0e70f92b3ba4d376a33c0f3d9434bff62560405160405180910390a1565b6000809054906101000a900473ffffffffffffffffffffffffffffffffffffffff1681565b6060611dc73361161c565b600660008460001916600019168152602001908152602001600020600b0160008381526020019081526020016000208054600181600116156101000203166002900480601f016020809104026020016040519081016040528092919081815260200182805460018160011615610100020316600290048015611e8a5780601f10611e5f57610100808354040283529160200191611e8a565b820191906000526020600020905b815481529060010190602001808311611e6d57829003601f168201915b5050505050905092915050565b6000611ea23361161c565b611eac8383612348565b1515611eb757600080fd5b6006600084600019166000191681526020019081526020016000206009016000836000191660001916815260200190815260200160002060030160009054906101000a900460ff16905092915050565b6000611f1282612236565b1515611f1d57600080fd5b60066000836000191660001916815260200190815260200160002060080160009054906101000a900473ffffffffffffffffffffffffffffffffffffffff169050919050565b6000611f6e3361161c565b611f7782612236565b1515611f8257600080fd5b600660008360001916600019168152602001908152602001600020600c01549050919050565b6000611fb33361161c565b611fbd8383612348565b1515611fc857600080fd5b6006600084600019166000191681526020019081526020016000206009016000836000191660001916815260200190815260200160002060020154905092915050565b600760009054906101000a900473ffffffffffffffffffffffffffffffffffffffff1681565b600061203c3361161c565b61204582612236565b151561205057600080fd5b600660008360001916600019168152602001908152602001600020600701549050919050565b60006120813361161c565b600073ffffffffffffffffffffffffffffffffffffffff1660066000866000191660001916815260200190815260200160002060080160009054906101000a900473ffffffffffffffffffffffffffffffffffffffff1673ffffffffffffffffffffffffffffffffffffffff16141515156120fb57600080fd5b81600660008660001916600019168152602001908152602001600020600a01600085815260200190815260200160002060008282540192505081905550600660008560001916600019168152602001908152602001600020600a0160008481526020019081526020016000205490509392505050565b6000809054906101000a900473ffffffffffffffffffffffffffffffffffffffff1673ffffffffffffffffffffffffffffffffffffffff163373ffffffffffffffffffffffffffffffffffffffff161415156121cc57600080fd5b80600260006101000a81548173ffffffffffffffffffffffffffffffffffffffff021916908373ffffffffffffffffffffffffffffffffffffffff16021790555050565b600460009054906101000a900473ffffffffffffffffffffffffffffffffffffffff1681565b60008073ffffffffffffffffffffffffffffffffffffffff1660066000846000191660001916815260200190815260200160002060080160009054906101000a900473ffffffffffffffffffffffffffffffffffffffff1673ffffffffffffffffffffffffffffffffffffffff1614156122b357600090506122b8565b600190505b919050565b600260009054906101000a900473ffffffffffffffffffffffffffffffffffffffff1681565b60006122ee3361161c565b6122f782612236565b151561230257600080fd5b60066000836000191660001916815260200190815260200160002060020160009054906101000a900473ffffffffffffffffffffffffffffffffffffffff169050919050565b600061235383612236565b151561235e57600080fd5b600073ffffffffffffffffffffffffffffffffffffffff166006600085600019166000191681526020019081526020016000206009016000846000191660001916815260200190815260200160002060000160009054906101000a900473ffffffffffffffffffffffffffffffffffffffff1673ffffffffffffffffffffffffffffffffffffffff1614156123f657600090506123fb565b600190505b92915050565b6000809054906101000a900473ffffffffffffffffffffffffffffffffffffffff1673ffffffffffffffffffffffffffffffffffffffff163373ffffffffffffffffffffffffffffffffffffffff1614151561245c57600080fd5b80600360006101000a81548173ffffffffffffffffffffffffffffffffffffffff021916908373ffffffffffffffffffffffffffffffffffffffff16021790555050565b6124a93361161c565b80600660008560001916600019168152602001908152602001600020600b01600084815260200190815260200160002090805190602001906124ec9291906132ad565b50505050565b60006124fc61332d565b6000600760009054906101000a900473ffffffffffffffffffffffffffffffffffffffff1673ffffffffffffffffffffffffffffffffffffffff1663a67fcc9d8c6040518263ffffffff167c0100000000000000000000000000000000000000000000000000000000028152600401808273ffffffffffffffffffffffffffffffffffffffff1673ffffffffffffffffffffffffffffffffffffffff168152602001915050602060405180830381600087803b1580156125bb57600080fd5b505af11580156125cf573d6000803e3d6000fd5b505050506040513d60208110156125e557600080fd5b8101908080519060200190929190505050151561260157600080fd5b600760009054906101000a900473ffffffffffffffffffffffffffffffffffffffff1673ffffffffffffffffffffffffffffffffffffffff1663a67fcc9d8b6040518263ffffffff167c0100000000000000000000000000000000000000000000000000000000028152600401808273ffffffffffffffffffffffffffffffffffffffff1673ffffffffffffffffffffffffffffffffffffffff168152602001915050602060405180830381600087803b1580156126be57600080fd5b505af11580156126d2573d6000803e3d6000fd5b505050506040513d60208110156126e857600080fd5b8101908080519060200190929190505050151561270457600080fd5b600760009054906101000a900473ffffffffffffffffffffffffffffffffffffffff1673ffffffffffffffffffffffffffffffffffffffff1663a67fcc9d896040518263ffffffff167c0100000000000000000000000000000000000000000000000000000000028152600401808273ffffffffffffffffffffffffffffffffffffffff1673ffffffffffffffffffffffffffffffffffffffff168152602001915050602060405180830381600087803b1580156127c157600080fd5b505af11580156127d5573d6000803e3d6000fd5b505050506040513d60208110156127eb57600080fd5b8101908080519060200190929190505050151561280757600080fd5b600760009054906101000a900473ffffffffffffffffffffffffffffffffffffffff1673ffffffffffffffffffffffffffffffffffffffff1663a67fcc9d886040518263ffffffff167c0100000000000000000000000000000000000000000000000000000000028152600401808273ffffffffffffffffffffffffffffffffffffffff1673ffffffffffffffffffffffffffffffffffffffff168152602001915050602060405180830381600087803b1580156128c457600080fd5b505af11580156128d8573d6000803e3d6000fd5b505050506040513d60208110156128ee57600080fd5b8101908080519060200190929190505050151561290a57600080fd5b610140604051908101604052808c73ffffffffffffffffffffffffffffffffffffffff1681526020018b73ffffffffffffffffffffffffffffffffffffffff1681526020018a73ffffffffffffffffffffffffffffffffffffffff1681526020018973ffffffffffffffffffffffffffffffffffffffff1681526020018873ffffffffffffffffffffffffffffffffffffffff168152602001876000191681526020018681526020014281526020013373ffffffffffffffffffffffffffffffffffffffff168152602001600081525091508a8a8a8a8a8a8a42338c604051602001808b73ffffffffffffffffffffffffffffffffffffffff1673ffffffffffffffffffffffffffffffffffffffff166c010000000000000000000000000281526014018a73ffffffffffffffffffffffffffffffffffffffff1673ffffffffffffffffffffffffffffffffffffffff166c010000000000000000000000000281526014018973ffffffffffffffffffffffffffffffffffffffff1673ffffffffffffffffffffffffffffffffffffffff166c010000000000000000000000000281526014018873ffffffffffffffffffffffffffffffffffffffff1673ffffffffffffffffffffffffffffffffffffffff166c010000000000000000000000000281526014018773ffffffffffffffffffffffffffffffffffffffff1673ffffffffffffffffffffffffffffffffffffffff166c01000000000000000000000000028152601401866000191660001916815260200185805190602001908083835b602083101515612b715780518252602082019150602081019050602083039250612b4c565b6001836020036101000a0380198251168184511680821785525050505050509050018481526020018373ffffffffffffffffffffffffffffffffffffffff1673ffffffffffffffffffffffffffffffffffffffff166c010000000000000000000000000281526014018281526020019a50505050505050505050506040516020818303038152906040526040518082805190602001908083835b602083101515612c305780518252602082019150602081019050602083039250612c0b565b6001836020036101000a03801982511681845116808217855250505050505090500191505060405180910390209050600073ffffffffffffffffffffffffffffffffffffffff1660066000836000191660001916815260200190815260200160002060080160009054906101000a900473ffffffffffffffffffffffffffffffffffffffff1673ffffffffffffffffffffffffffffffffffffffff16141515612cd857600080fd5b8160066000836000191660001916815260200190815260200160002060008201518160000160006101000a81548173ffffffffffffffffffffffffffffffffffffffff021916908373ffffffffffffffffffffffffffffffffffffffff16021790555060208201518160010160006101000a81548173ffffffffffffffffffffffffffffffffffffffff021916908373ffffffffffffffffffffffffffffffffffffffff16021790555060408201518160020160006101000a81548173ffffffffffffffffffffffffffffffffffffffff021916908373ffffffffffffffffffffffffffffffffffffffff16021790555060608201518160030160006101000a81548173ffffffffffffffffffffffffffffffffffffffff021916908373ffffffffffffffffffffffffffffffffffffffff16021790555060808201518160040160006101000a81548173ffffffffffffffffffffffffffffffffffffffff021916908373ffffffffffffffffffffffffffffffffffffffff16021790555060a0820151816005019060001916905560c0820151816006019080519060200190612e83929190613408565b5060e082015181600701556101008201518160080160006101000a81548173ffffffffffffffffffffffffffffffffffffffff021916908373ffffffffffffffffffffffffffffffffffffffff16021790555061012082015181600c01559050507f3e3f1562581d79765962e32ff89b9793d9b8feccbab14ae907be9a320c2dccf88160405180826000191660001916815260200191505060405180910390a1809250505098975050505050505050565b6000809054906101000a900473ffffffffffffffffffffffffffffffffffffffff1673ffffffffffffffffffffffffffffffffffffffff163373ffffffffffffffffffffffffffffffffffffffff16141515612f8f57600080fd5b612f9881613172565b50565b6000612fa63361161c565b84848484436040516020018086600019166000191681526020018573ffffffffffffffffffffffffffffffffffffffff1673ffffffffffffffffffffffffffffffffffffffff166c01000000000000000000000000028152601401848152602001838152602001828152602001955050505050506040516020818303038152906040526040518082805190602001908083835b60208310151561305e5780518252602082019150602081019050602083039250613039565b6001836020036101000a03801982511681845116808217855250505050505090500191505060405180910390209050949350505050565b60606130a03361161c565b6130a982612236565b15156130b457600080fd5b6006600083600019166000191681526020019081526020016000206006018054600181600116156101000203166002900480601f0160208091040260200160405190810160405280929190818152602001828054600181600116156101000203166002900480156131665780601f1061313b57610100808354040283529160200191613166565b820191906000526020600020905b81548152906001019060200180831161314957829003601f168201915b50505050509050919050565b600073ffffffffffffffffffffffffffffffffffffffff168173ffffffffffffffffffffffffffffffffffffffff16141515156131ae57600080fd5b8073ffffffffffffffffffffffffffffffffffffffff166000809054906101000a900473ffffffffffffffffffffffffffffffffffffffff1673ffffffffffffffffffffffffffffffffffffffff167f8be0079c531659141344cd1fd0a4f28419497f9722a3daafe3b4186f6b6457e060405160405180910390a3806000806101000a81548173ffffffffffffffffffffffffffffffffffffffff021916908373ffffffffffffffffffffffffffffffffffffffff16021790555050565b608060405190810160405280600073ffffffffffffffffffffffffffffffffffffffff16815260200160008152602001600081526020016000151581525090565b828054600181600116156101000203166002900490600052602060002090601f016020900481019282601f106132ee57805160ff191683800117855561331c565b8280016001018555821561331c579182015b8281111561331b578251825591602001919060010190613300565b5b5090506133299190613488565b5090565b61014060405190810160405280600073ffffffffffffffffffffffffffffffffffffffff168152602001600073ffffffffffffffffffffffffffffffffffffffff168152602001600073ffffffffffffffffffffffffffffffffffffffff168152602001600073ffffffffffffffffffffffffffffffffffffffff168152602001600073ffffffffffffffffffffffffffffffffffffffff168152602001600080191681526020016060815260200160008152602001600073ffffffffffffffffffffffffffffffffffffffff168152602001600081525090565b828054600181600116156101000203166002900490600052602060002090601f016020900481019282601f1061344957805160ff1916838001178555613477565b82800160010185558215613477579182015b8281111561347657825182559160200191906001019061345b565b5b5090506134849190613488565b5090565b6134aa91905b808211156134a657600081600090555060010161348e565b5090565b905600a165627a7a72305820d7c0a6fb122964a582390c680073920dabc7c1a49655292409d54344b94eb2ab0029",
  "source": "pragma solidity 0.4.24;\n\n// Internal\nimport \"./RegistryStorage.sol\";\nimport \"./ProxyRegistry.sol\";\n// External\nimport \"openzeppelin-solidity/contracts/math/SafeMath.sol\";\n\n\n/**\n * The registry is a Eternal Storage contract that saves all the data for the\n * bet protocol. The rest of the contracts will communicate with this contract\n * with getters and setters to modify the data. They will be the interface for\n * for the protocol.\n *\n * Author: Carlos Gonzalez -- Github: carlosgj94\n */\n/** @title Bet BetRegistry. */\ncontract BetRegistry is RegistryStorage {\n    using SafeMath for uint;\n\n    // Events\n    event LogBetEntry(bytes32 _hash);\n\n    // Storage\n    ProxyRegistry public proxyRegistry;\n\n    constructor(\n        address _proxyRegistry,\n        address _betKernel,\n        address _betPayments,\n        address _betOracle,\n        address _betTerms\n    ) public {\n        proxyRegistry = ProxyRegistry(_proxyRegistry);\n        betKernel = _betKernel;\n        betPayments = _betPayments;\n        betOracle = _betOracle;\n        betTerms = _betTerms;\n    }\n\n    modifier onlyAuthorised {\n        isAuthorised(msg.sender);\n        _;\n    }\n\n    /**\n     * @dev Function to create bets in the registry\n     * @param _paymentsProxy address Direction of the payments proxy contract\n     * @param _oracleProxy address Direction of the oracle proxy contract\n     * @param _termsProxy address Address of the terms proxy contract\n     * @param _termsHash bytes32 Address of the hash terms of the bet\n     * @param _salt uint random number to provide a unique hash\n     * @return bytes32 the that identifies the bet\n     */\n    function createBet(\n        address _kernelProxy,\n        address _paymentsProxy,\n        address _paymentsToken,\n        address _oracleProxy,\n        address _termsProxy,\n        bytes32 _termsHash,\n        string _title,\n        uint _salt\n    ) public returns(bytes32) {\n        require(proxyRegistry.addressInProxies(_kernelProxy));\n        require(proxyRegistry.addressInProxies(_paymentsProxy));\n        require(proxyRegistry.addressInProxies(_oracleProxy));\n        require(proxyRegistry.addressInProxies(_termsProxy));\n\n        BetEntry memory _entry = BetEntry(\n            _kernelProxy,\n            _paymentsProxy,\n            _paymentsToken,\n            _oracleProxy,\n            _termsProxy,\n            _termsHash,\n            _title,\n            block.timestamp,\n            msg.sender,\n            0\n        );\n        bytes32 _hash = keccak256(\n            abi.encodePacked(\n                _kernelProxy,\n                _paymentsProxy,\n                _paymentsToken,\n                _oracleProxy,\n                _termsProxy,\n                _termsHash,\n                _title,\n                block.timestamp,\n                msg.sender,\n                _salt\n            )\n        );\n        require(betRegistry[_hash].creator == address(0));\n\n        betRegistry[_hash] = _entry;\n        emit LogBetEntry(_hash);\n        return _hash;\n    }\n\n    // Setters to place a bet\n    // These are authorised only\n    function insertPlayerBet(\n        bytes32 _betHash,\n        address _sender,\n        uint _option,\n        uint _number\n    )\n        public\n        onlyAuthorised\n        returns(bytes32)\n    {\n        require(betRegistry[_betHash].creator != address(0));\n\n        PlayerBet memory _bet = PlayerBet(\n            _sender,\n            _option,\n            _number,\n            false\n        );\n\n        bytes32 _playerBetHash = getPlayerBetHash(\n            _betHash,\n            _sender,\n            _option,\n            _number\n        );\n\n        require(betRegistry[_betHash].playerBets[_playerBetHash].player == address(0));\n        betRegistry[_betHash].playerBets[_playerBetHash] = _bet;\n\n        return _playerBetHash;\n    }\n\n    /**\n     * @dev Function that lets you add to the principal\n     * @param _betHash bytes32 the bet\n     * @param _number uint the amount to add\n     * @return uint the totalPrincipal\n     */\n    function addTotalPrincipal(\n        bytes32 _betHash,\n        uint _number\n    )\n        public \n        onlyAuthorised\n        returns(uint) \n    {\n        require(betRegistry[_betHash].creator != address(0));\n\n        betRegistry[_betHash].totalPrincipal += _number;\n        return betRegistry[_betHash].totalPrincipal;\n    }\n\n    /**\n     * @dev Function that lets you add to an option\n     * @param _betHash bytes32 of the bet you want to get\n     * @param _option uint the option you are betting on\n     * @param _number uint the amount to add\n     * @return uint the amount in that option\n     */\n    function addToOption(\n        bytes32 _betHash,\n        uint _option,\n        uint _number\n    )\n        public\n        onlyAuthorised\n        returns(uint)\n    {\n        require(betRegistry[_betHash].creator != address(0));\n\n        betRegistry[_betHash].principalInOption[_option] += _number;\n\n        return betRegistry[_betHash].principalInOption[_option];\n    }\n\n    /**\n     * @dev Function that returns the hash a bet would have\n     * @param _betHash bytes32 the hash of the bet where place play will happen\n     * @param _sender address the address that wants to bet\n     * @param _option uint the option they want to bet on\n     * @param _number uint the parameter of the bet. This depends if it is an\n     * ERC20 or ERC721 token\n     * @return bytes32 the hash of the bet the player is going to make\n     */\n    function getPlayerBetHash(\n        bytes32 _betHash,\n        address _sender,\n        uint _option,\n        uint _number\n    )\n        public\n        view\n        onlyAuthorised\n        returns(bytes32)\n    {\n        return keccak256(\n            abi.encodePacked(\n                _betHash,\n                _sender,\n                _option,\n                _number,\n                block.number\n            )\n        );\n\n    }\n\n    function setOptionTitle (\n        bytes32 _betHash,\n        uint _option,\n        string _title\n    )\n        public\n        onlyAuthorised\n    {\n        betRegistry[_betHash].optionTitles[_option] = _title;\n    }\n\n    // Getters\n    function getBetKernelProxy(\n        bytes32 _betHash\n    )\n        public \n        view \n        onlyAuthorised\n        returns (address) \n    {\n        require(betExists(_betHash));\n\n        return betRegistry[_betHash].kernelProxy;\n    }\n\n    function getBetPaymentsProxy(\n        bytes32 _betHash\n    )\n        public\n        view \n        onlyAuthorised\n        returns (address) \n    {\n        require(betExists(_betHash));\n\n        return betRegistry[_betHash].paymentsProxy;\n    }\n\n    function getBetPaymentsToken(\n        bytes32 _betHash\n    )\n        public\n        view \n        onlyAuthorised\n        returns(address) \n    {\n        require(betExists(_betHash));\n\n        return betRegistry[_betHash].paymentsToken;\n    }\n\n    function getBetOracleProxy(bytes32 _betHash) \n        public \n        view \n        onlyAuthorised\n        returns(address) \n    {\n        require(betExists(_betHash));\n\n        return betRegistry[_betHash].oracleProxy;\n    }\n\n    function getBetTermsProxy(\n        bytes32 _betHash\n    ) \n        public \n        view \n        onlyAuthorised\n        returns(address) \n    {\n        require(betExists(_betHash));\n\n        return betRegistry[_betHash].termsProxy;\n    }\n\n    function getBetTermsHash(\n        bytes32 _betHash\n    )\n        public \n        view \n        onlyAuthorised\n        returns(bytes32) \n    {\n        require(betExists(_betHash));\n\n        return betRegistry[_betHash].termsHash;\n    }\n\n    function getBetTitle(\n        bytes32 _betHash\n    )\n        public \n        view \n        onlyAuthorised\n        returns(string) \n    {\n        require(betExists(_betHash));\n\n        return betRegistry[_betHash].title;\n    }\n\n    function getBetDatetime(\n        bytes32 _betHash\n    )\n        public \n        view \n        onlyAuthorised\n        returns(uint) \n    {\n        require(betExists(_betHash));\n\n        return betRegistry[_betHash].datetime;\n    }\n\n    function getBetCreator(\n        bytes32 _betHash\n    )\n        public \n        view \n        returns(address) \n    {\n        require(betExists(_betHash));\n\n        return betRegistry[_betHash].creator;\n    }\n\n    function getTotalPrincipal(\n        bytes32 _betHash\n    )\n        public \n        view \n        onlyAuthorised\n        returns(uint) \n    {\n        require(betExists(_betHash));\n\n        return betRegistry[_betHash].totalPrincipal;\n    }\n\n    function getPrincipalInOption(\n        bytes32 _betHash,\n        uint _option\n    ) \n        public \n        view \n        onlyAuthorised\n        returns(uint) \n    {\n        require(betExists(_betHash));\n\n        return betRegistry[_betHash].principalInOption[_option];\n    }\n\n    function getOptionTitle (\n        bytes32 _betHash,\n        uint _option\n    )\n        public\n        view\n        onlyAuthorised\n        returns(string)\n    {\n        return betRegistry[_betHash].optionTitles[_option];\n    }\n\n    function getPlayerBetPlayer(\n        bytes32 _betHash,\n        bytes32 _playerBetHash\n    )\n        public\n        view\n        onlyAuthorised\n        returns(address)\n    {\n        require(playerBetExists(_betHash, _playerBetHash));\n\n        return betRegistry[_betHash].playerBets[_playerBetHash].player;\n    }\n\n    function getPlayerBetOption(\n        bytes32 _betHash,\n        bytes32 _playerBetHash\n    )\n        public\n        view\n        onlyAuthorised\n        returns(uint)\n    {\n        require(playerBetExists(_betHash, _playerBetHash));\n\n        return betRegistry[_betHash].playerBets[_playerBetHash].option;\n    }\n\n    function getPlayerBetPrincipal(\n        bytes32 _betHash,\n        bytes32 _playerBetHash\n    )\n        public\n        view\n        onlyAuthorised\n        returns(uint)\n    {\n        require(playerBetExists(_betHash, _playerBetHash));\n\n        return betRegistry[_betHash].playerBets[_playerBetHash].principal;\n    }\n\n    function getPlayerBetReturned(\n        bytes32 _betHash,\n        bytes32 _playerBetHash\n    )\n        public\n        view\n        onlyAuthorised\n        returns(bool)\n    {\n        require(playerBetExists(_betHash, _playerBetHash));\n\n        return betRegistry[_betHash].playerBets[_playerBetHash].returned;\n    }\n\n    function betExists(bytes32 _betHash) public view returns(bool) {\n        if (betRegistry[_betHash].creator == address(0))\n            return false;\n        return true;\n    }\n\n    function playerBetExists(bytes32 _betHash, bytes32 _playerBetHash) public view returns(bool) {\n        require(betExists(_betHash));\n        if (betRegistry[_betHash].playerBets[_playerBetHash].player == address(0))\n            return false;\n        return true;\n    }\n\n    function setPlayerBetReturned(\n        bytes32 _betHash,\n        bytes32 _playerBetHash,\n        bool _returned\n    )\n        public \n        onlyAuthorised\n        returns(bool)\n    {\n        require(playerBetExists(_betHash, _playerBetHash));\n        betRegistry[_betHash].playerBets[_playerBetHash].returned = _returned;\n        return true;\n    }\n\n    function isAuthorised(address _sender) public view {\n        require(\n            _sender == betKernel ||\n            _sender == betPayments ||\n            _sender == betOracle ||\n            _sender == betTerms ||\n            _sender == owner\n        );\n    }\n}\n",
  "sourcePath": "/Users/carlosgonzalezjuarez/Documents/Development/GuesserProtocol/contracts/BetRegistry.sol",
  "compiler": {
    "name": "solc",
    "version": "0.4.24+commit.e67f0147.Emscripten.clang"
  },
  "schemaVersion": "2.0.1",
  "updatedAt": "2018-09-05T08:19:40.939Z"
}