{
  "contractName": "BetRegistry",
  "abi": [
    {
      "constant": false,
      "inputs": [
        {
          "name": "_betTerms",
          "type": "address"
        }
      ],
      "name": "setBetTerms",
      "outputs": [],
      "payable": false,
      "stateMutability": "nonpayable",
      "type": "function",
      "signature": "0x08fb0970"
    },
    {
      "constant": false,
      "inputs": [
        {
          "name": "_betKernel",
          "type": "address"
        }
      ],
      "name": "setBetKernel",
      "outputs": [],
      "payable": false,
      "stateMutability": "nonpayable",
      "type": "function",
      "signature": "0x171f1af1"
    },
    {
      "constant": true,
      "inputs": [
        {
          "name": "",
          "type": "uint256"
        }
      ],
      "name": "bets",
      "outputs": [
        {
          "name": "",
          "type": "bytes32"
        }
      ],
      "payable": false,
      "stateMutability": "view",
      "type": "function",
      "signature": "0x22af00fa"
    },
    {
      "constant": false,
      "inputs": [],
      "name": "unpause",
      "outputs": [],
      "payable": false,
      "stateMutability": "nonpayable",
      "type": "function",
      "signature": "0x3f4ba83a"
    },
    {
      "constant": true,
      "inputs": [],
      "name": "betKernel",
      "outputs": [
        {
          "name": "",
          "type": "address"
        }
      ],
      "payable": false,
      "stateMutability": "view",
      "type": "function",
      "signature": "0x4c98ee7b"
    },
    {
      "constant": true,
      "inputs": [],
      "name": "paused",
      "outputs": [
        {
          "name": "",
          "type": "bool"
        }
      ],
      "payable": false,
      "stateMutability": "view",
      "type": "function",
      "signature": "0x5c975abb"
    },
    {
      "constant": false,
      "inputs": [],
      "name": "renounceOwnership",
      "outputs": [],
      "payable": false,
      "stateMutability": "nonpayable",
      "type": "function",
      "signature": "0x715018a6"
    },
    {
      "constant": true,
      "inputs": [],
      "name": "betOracle",
      "outputs": [
        {
          "name": "",
          "type": "address"
        }
      ],
      "payable": false,
      "stateMutability": "view",
      "type": "function",
      "signature": "0x80fabc91"
    },
    {
      "constant": false,
      "inputs": [],
      "name": "pause",
      "outputs": [],
      "payable": false,
      "stateMutability": "nonpayable",
      "type": "function",
      "signature": "0x8456cb59"
    },
    {
      "constant": true,
      "inputs": [],
      "name": "owner",
      "outputs": [
        {
          "name": "",
          "type": "address"
        }
      ],
      "payable": false,
      "stateMutability": "view",
      "type": "function",
      "signature": "0x8da5cb5b"
    },
    {
      "constant": true,
      "inputs": [],
      "name": "proxyRegistry",
      "outputs": [
        {
          "name": "",
          "type": "address"
        }
      ],
      "payable": false,
      "stateMutability": "view",
      "type": "function",
      "signature": "0xb50cbd9f"
    },
    {
      "constant": false,
      "inputs": [
        {
          "name": "_betPayments",
          "type": "address"
        }
      ],
      "name": "setBetPayments",
      "outputs": [],
      "payable": false,
      "stateMutability": "nonpayable",
      "type": "function",
      "signature": "0xbad07ee7"
    },
    {
      "constant": true,
      "inputs": [],
      "name": "betTerms",
      "outputs": [
        {
          "name": "",
          "type": "address"
        }
      ],
      "payable": false,
      "stateMutability": "view",
      "type": "function",
      "signature": "0xca033e7d"
    },
    {
      "constant": true,
      "inputs": [],
      "name": "betPayments",
      "outputs": [
        {
          "name": "",
          "type": "address"
        }
      ],
      "payable": false,
      "stateMutability": "view",
      "type": "function",
      "signature": "0xdd943d04"
    },
    {
      "constant": false,
      "inputs": [
        {
          "name": "_betOracle",
          "type": "address"
        }
      ],
      "name": "setBetOracle",
      "outputs": [],
      "payable": false,
      "stateMutability": "nonpayable",
      "type": "function",
      "signature": "0xe7ae81f7"
    },
    {
      "constant": false,
      "inputs": [
        {
          "name": "_newOwner",
          "type": "address"
        }
      ],
      "name": "transferOwnership",
      "outputs": [],
      "payable": false,
      "stateMutability": "nonpayable",
      "type": "function",
      "signature": "0xf2fde38b"
    },
    {
      "inputs": [
        {
          "name": "_proxyRegistry",
          "type": "address"
        },
        {
          "name": "_betKernel",
          "type": "address"
        },
        {
          "name": "_betPayments",
          "type": "address"
        },
        {
          "name": "_betOracle",
          "type": "address"
        },
        {
          "name": "_betTerms",
          "type": "address"
        }
      ],
      "payable": false,
      "stateMutability": "nonpayable",
      "type": "constructor",
      "signature": "constructor"
    },
    {
      "anonymous": false,
      "inputs": [
        {
          "indexed": false,
          "name": "_hash",
          "type": "bytes32"
        }
      ],
      "name": "LogBetEntry",
      "type": "event",
      "signature": "0x3e3f1562581d79765962e32ff89b9793d9b8feccbab14ae907be9a320c2dccf8"
    },
    {
      "anonymous": false,
      "inputs": [],
      "name": "Pause",
      "type": "event",
      "signature": "0x6985a02210a168e66602d3235cb6db0e70f92b3ba4d376a33c0f3d9434bff625"
    },
    {
      "anonymous": false,
      "inputs": [],
      "name": "Unpause",
      "type": "event",
      "signature": "0x7805862f689e2f13df9f062ff482ad3ad112aca9e0847911ed832e158c525b33"
    },
    {
      "anonymous": false,
      "inputs": [
        {
          "indexed": true,
          "name": "previousOwner",
          "type": "address"
        }
      ],
      "name": "OwnershipRenounced",
      "type": "event",
      "signature": "0xf8df31144d9c2f0f6b59d69b8b98abd5459d07f2742c4df920b25aae33c64820"
    },
    {
      "anonymous": false,
      "inputs": [
        {
          "indexed": true,
          "name": "previousOwner",
          "type": "address"
        },
        {
          "indexed": true,
          "name": "newOwner",
          "type": "address"
        }
      ],
      "name": "OwnershipTransferred",
      "type": "event",
      "signature": "0x8be0079c531659141344cd1fd0a4f28419497f9722a3daafe3b4186f6b6457e0"
    },
    {
      "constant": false,
      "inputs": [
        {
          "name": "_proxyRegistry",
          "type": "address"
        }
      ],
      "name": "setProxyRegistry",
      "outputs": [],
      "payable": false,
      "stateMutability": "nonpayable",
      "type": "function",
      "signature": "0xadfdeef9"
    },
    {
      "constant": false,
      "inputs": [
        {
          "name": "_kernelProxy",
          "type": "address"
        },
        {
          "name": "_paymentsProxy",
          "type": "address"
        },
        {
          "name": "_paymentsToken",
          "type": "address"
        },
        {
          "name": "_oracleProxy",
          "type": "address"
        },
        {
          "name": "_termsProxy",
          "type": "address"
        },
        {
          "name": "_termsHash",
          "type": "bytes32"
        },
        {
          "name": "_title",
          "type": "string"
        },
        {
          "name": "_sender",
          "type": "address"
        },
        {
          "name": "_salt",
          "type": "uint256"
        }
      ],
      "name": "createBet",
      "outputs": [
        {
          "name": "",
          "type": "bytes32"
        }
      ],
      "payable": false,
      "stateMutability": "nonpayable",
      "type": "function",
      "signature": "0xb67265bd"
    },
    {
      "constant": true,
      "inputs": [
        {
          "name": "_index",
          "type": "uint256"
        }
      ],
      "name": "getBet",
      "outputs": [
        {
          "name": "",
          "type": "bytes32"
        }
      ],
      "payable": false,
      "stateMutability": "view",
      "type": "function",
      "signature": "0x061e494f"
    },
    {
      "constant": false,
      "inputs": [
        {
          "name": "_betHash",
          "type": "bytes32"
        },
        {
          "name": "_sender",
          "type": "address"
        },
        {
          "name": "_option",
          "type": "uint256"
        },
        {
          "name": "_number",
          "type": "uint256"
        }
      ],
      "name": "insertPlayerBet",
      "outputs": [
        {
          "name": "",
          "type": "bytes32"
        }
      ],
      "payable": false,
      "stateMutability": "nonpayable",
      "type": "function",
      "signature": "0x5faa7cee"
    },
    {
      "constant": false,
      "inputs": [
        {
          "name": "_betHash",
          "type": "bytes32"
        },
        {
          "name": "_number",
          "type": "uint256"
        }
      ],
      "name": "addTotalPrincipal",
      "outputs": [
        {
          "name": "",
          "type": "uint256"
        }
      ],
      "payable": false,
      "stateMutability": "nonpayable",
      "type": "function",
      "signature": "0x4fc2c76c"
    },
    {
      "constant": false,
      "inputs": [
        {
          "name": "_betHash",
          "type": "bytes32"
        },
        {
          "name": "_option",
          "type": "uint256"
        },
        {
          "name": "_number",
          "type": "uint256"
        }
      ],
      "name": "addToOption",
      "outputs": [
        {
          "name": "",
          "type": "uint256"
        }
      ],
      "payable": false,
      "stateMutability": "nonpayable",
      "type": "function",
      "signature": "0xb90a4149"
    },
    {
      "constant": true,
      "inputs": [
        {
          "name": "_betHash",
          "type": "bytes32"
        },
        {
          "name": "_sender",
          "type": "address"
        },
        {
          "name": "_option",
          "type": "uint256"
        },
        {
          "name": "_number",
          "type": "uint256"
        }
      ],
      "name": "getPlayerBetHash",
      "outputs": [
        {
          "name": "",
          "type": "bytes32"
        }
      ],
      "payable": false,
      "stateMutability": "view",
      "type": "function",
      "signature": "0xf61fdeb8"
    },
    {
      "constant": false,
      "inputs": [
        {
          "name": "_betHash",
          "type": "bytes32"
        },
        {
          "name": "_option",
          "type": "uint256"
        },
        {
          "name": "_title",
          "type": "string"
        }
      ],
      "name": "setOptionTitle",
      "outputs": [],
      "payable": false,
      "stateMutability": "nonpayable",
      "type": "function",
      "signature": "0xe91e48da"
    },
    {
      "constant": true,
      "inputs": [
        {
          "name": "_betHash",
          "type": "bytes32"
        }
      ],
      "name": "getBetKernelProxy",
      "outputs": [
        {
          "name": "",
          "type": "address"
        }
      ],
      "payable": false,
      "stateMutability": "view",
      "type": "function",
      "signature": "0x3a8100d1"
    },
    {
      "constant": true,
      "inputs": [
        {
          "name": "_betHash",
          "type": "bytes32"
        }
      ],
      "name": "getBetPaymentsProxy",
      "outputs": [
        {
          "name": "",
          "type": "address"
        }
      ],
      "payable": false,
      "stateMutability": "view",
      "type": "function",
      "signature": "0x14715bcc"
    },
    {
      "constant": true,
      "inputs": [
        {
          "name": "_betHash",
          "type": "bytes32"
        }
      ],
      "name": "getBetPaymentsToken",
      "outputs": [
        {
          "name": "",
          "type": "address"
        }
      ],
      "payable": false,
      "stateMutability": "view",
      "type": "function",
      "signature": "0xde1028e1"
    },
    {
      "constant": true,
      "inputs": [
        {
          "name": "_betHash",
          "type": "bytes32"
        }
      ],
      "name": "getBetOracleProxy",
      "outputs": [
        {
          "name": "",
          "type": "address"
        }
      ],
      "payable": false,
      "stateMutability": "view",
      "type": "function",
      "signature": "0x30cdb40d"
    },
    {
      "constant": true,
      "inputs": [
        {
          "name": "_betHash",
          "type": "bytes32"
        }
      ],
      "name": "getBetTermsProxy",
      "outputs": [
        {
          "name": "",
          "type": "address"
        }
      ],
      "payable": false,
      "stateMutability": "view",
      "type": "function",
      "signature": "0x7171e757"
    },
    {
      "constant": true,
      "inputs": [
        {
          "name": "_betHash",
          "type": "bytes32"
        }
      ],
      "name": "getBetTermsHash",
      "outputs": [
        {
          "name": "",
          "type": "bytes32"
        }
      ],
      "payable": false,
      "stateMutability": "view",
      "type": "function",
      "signature": "0x82507452"
    },
    {
      "constant": true,
      "inputs": [
        {
          "name": "_betHash",
          "type": "bytes32"
        }
      ],
      "name": "getBetTitle",
      "outputs": [
        {
          "name": "",
          "type": "string"
        }
      ],
      "payable": false,
      "stateMutability": "view",
      "type": "function",
      "signature": "0xf78bdec6"
    },
    {
      "constant": true,
      "inputs": [
        {
          "name": "_betHash",
          "type": "bytes32"
        }
      ],
      "name": "getBetDatetime",
      "outputs": [
        {
          "name": "",
          "type": "uint256"
        }
      ],
      "payable": false,
      "stateMutability": "view",
      "type": "function",
      "signature": "0xb87822bd"
    },
    {
      "constant": true,
      "inputs": [
        {
          "name": "_betHash",
          "type": "bytes32"
        }
      ],
      "name": "getBetCreator",
      "outputs": [
        {
          "name": "",
          "type": "address"
        }
      ],
      "payable": false,
      "stateMutability": "view",
      "type": "function",
      "signature": "0xac21e313"
    },
    {
      "constant": true,
      "inputs": [
        {
          "name": "_betHash",
          "type": "bytes32"
        }
      ],
      "name": "getTotalPrincipal",
      "outputs": [
        {
          "name": "",
          "type": "uint256"
        }
      ],
      "payable": false,
      "stateMutability": "view",
      "type": "function",
      "signature": "0xafc27791"
    },
    {
      "constant": true,
      "inputs": [
        {
          "name": "_betHash",
          "type": "bytes32"
        },
        {
          "name": "_option",
          "type": "uint256"
        }
      ],
      "name": "getPrincipalInOption",
      "outputs": [
        {
          "name": "",
          "type": "uint256"
        }
      ],
      "payable": false,
      "stateMutability": "view",
      "type": "function",
      "signature": "0x2659a074"
    },
    {
      "constant": true,
      "inputs": [
        {
          "name": "_betHash",
          "type": "bytes32"
        },
        {
          "name": "_option",
          "type": "uint256"
        }
      ],
      "name": "getOptionTitle",
      "outputs": [
        {
          "name": "",
          "type": "string"
        }
      ],
      "payable": false,
      "stateMutability": "view",
      "type": "function",
      "signature": "0x91061d6f"
    },
    {
      "constant": true,
      "inputs": [
        {
          "name": "_betHash",
          "type": "bytes32"
        },
        {
          "name": "_playerBetHash",
          "type": "bytes32"
        }
      ],
      "name": "getPlayerBetPlayer",
      "outputs": [
        {
          "name": "",
          "type": "address"
        }
      ],
      "payable": false,
      "stateMutability": "view",
      "type": "function",
      "signature": "0x81bf3702"
    },
    {
      "constant": true,
      "inputs": [
        {
          "name": "_betHash",
          "type": "bytes32"
        },
        {
          "name": "_playerBetHash",
          "type": "bytes32"
        }
      ],
      "name": "getPlayerBetOption",
      "outputs": [
        {
          "name": "",
          "type": "uint256"
        }
      ],
      "payable": false,
      "stateMutability": "view",
      "type": "function",
      "signature": "0x7d95ff89"
    },
    {
      "constant": true,
      "inputs": [
        {
          "name": "_betHash",
          "type": "bytes32"
        },
        {
          "name": "_playerBetHash",
          "type": "bytes32"
        }
      ],
      "name": "getPlayerBetPrincipal",
      "outputs": [
        {
          "name": "",
          "type": "uint256"
        }
      ],
      "payable": false,
      "stateMutability": "view",
      "type": "function",
      "signature": "0xb2aa5d0c"
    },
    {
      "constant": true,
      "inputs": [
        {
          "name": "_betHash",
          "type": "bytes32"
        },
        {
          "name": "_playerBetHash",
          "type": "bytes32"
        }
      ],
      "name": "getPlayerBetReturned",
      "outputs": [
        {
          "name": "",
          "type": "bool"
        }
      ],
      "payable": false,
      "stateMutability": "view",
      "type": "function",
      "signature": "0x9d5e6938"
    },
    {
      "constant": true,
      "inputs": [
        {
          "name": "_betHash",
          "type": "bytes32"
        }
      ],
      "name": "betExists",
      "outputs": [
        {
          "name": "",
          "type": "bool"
        }
      ],
      "payable": false,
      "stateMutability": "view",
      "type": "function",
      "signature": "0xd8818ad9"
    },
    {
      "constant": true,
      "inputs": [
        {
          "name": "_betHash",
          "type": "bytes32"
        },
        {
          "name": "_playerBetHash",
          "type": "bytes32"
        }
      ],
      "name": "playerBetExists",
      "outputs": [
        {
          "name": "",
          "type": "bool"
        }
      ],
      "payable": false,
      "stateMutability": "view",
      "type": "function",
      "signature": "0xe5646597"
    },
    {
      "constant": false,
      "inputs": [
        {
          "name": "_betHash",
          "type": "bytes32"
        },
        {
          "name": "_playerBetHash",
          "type": "bytes32"
        },
        {
          "name": "_returned",
          "type": "bool"
        }
      ],
      "name": "setPlayerBetReturned",
      "outputs": [
        {
          "name": "",
          "type": "bool"
        }
      ],
      "payable": false,
      "stateMutability": "nonpayable",
      "type": "function",
      "signature": "0x41b273bb"
    },
    {
      "constant": true,
      "inputs": [
        {
          "name": "_sender",
          "type": "address"
        }
      ],
      "name": "isAuthorised",
      "outputs": [],
      "payable": false,
      "stateMutability": "view",
      "type": "function",
      "signature": "0x51b699cd"
    }
  ],
  "bytecode": "0x608060405260008060146101000a81548160ff02191690831515021790555034801561002a57600080fd5b5060405160a0806138698339810180604052810190808051906020019092919080519060200190929190805190602001909291908051906020019092919080519060200190929190505050336000806101000a81548173ffffffffffffffffffffffffffffffffffffffff021916908373ffffffffffffffffffffffffffffffffffffffff16021790555084600760006101000a81548173ffffffffffffffffffffffffffffffffffffffff021916908373ffffffffffffffffffffffffffffffffffffffff16021790555083600160006101000a81548173ffffffffffffffffffffffffffffffffffffffff021916908373ffffffffffffffffffffffffffffffffffffffff16021790555082600260006101000a81548173ffffffffffffffffffffffffffffffffffffffff021916908373ffffffffffffffffffffffffffffffffffffffff16021790555081600360006101000a81548173ffffffffffffffffffffffffffffffffffffffff021916908373ffffffffffffffffffffffffffffffffffffffff16021790555080600460006101000a81548173ffffffffffffffffffffffffffffffffffffffff021916908373ffffffffffffffffffffffffffffffffffffffff160217905550505050505061365b8061020e6000396000f30060806040526004361061021a576000357c0100000000000000000000000000000000000000000000000000000000900463ffffffff168063061e494f1461021f57806308fb09701461026857806314715bcc146102ab578063171f1af11461031c57806322af00fa1461035f5780632659a074146103a857806330cdb40d146103f75780633a8100d1146104685780633f4ba83a146104d957806341b273bb146104f05780634c98ee7b146105535780634fc2c76c146105aa57806351b699cd146105f95780635c975abb1461063c5780635faa7cee1461066b578063715018a6146106ec5780637171e757146107035780637d95ff891461077457806380fabc91146107c757806381bf37021461081e578063825074521461089d5780638456cb59146108ea5780638da5cb5b1461090157806391061d6f146109585780639d5e693814610a0c578063ac21e31314610a63578063adfdeef914610ad4578063afc2779114610b17578063b2aa5d0c14610b5c578063b50cbd9f14610baf578063b67265bd14610c06578063b87822bd14610d63578063b90a414914610da8578063bad07ee714610e01578063ca033e7d14610e44578063d8818ad914610e9b578063dd943d0414610ee4578063de1028e114610f3b578063e564659714610fac578063e7ae81f714611003578063e91e48da14611046578063f2fde38b146110c7578063f61fdeb81461110a578063f78bdec61461118b575b600080fd5b34801561022b57600080fd5b5061024a60048036038101908080359060200190929190505050611235565b60405180826000191660001916815260200191505060405180910390f35b34801561027457600080fd5b506102a9600480360381019080803573ffffffffffffffffffffffffffffffffffffffff169060200190929190505050611258565b005b3480156102b757600080fd5b506102da60048036038101908080356000191690602001909291905050506112f7565b604051808273ffffffffffffffffffffffffffffffffffffffff1673ffffffffffffffffffffffffffffffffffffffff16815260200191505060405180910390f35b34801561032857600080fd5b5061035d600480360381019080803573ffffffffffffffffffffffffffffffffffffffff169060200190929190505050611353565b005b34801561036b57600080fd5b5061038a600480360381019080803590602001909291905050506113f2565b60405180826000191660001916815260200191505060405180910390f35b3480156103b457600080fd5b506103e1600480360381019080803560001916906020019092919080359060200190929190505050611415565b6040518082815260200191505060405180910390f35b34801561040357600080fd5b506104266004803603810190808035600019169060200190929190505050611463565b604051808273ffffffffffffffffffffffffffffffffffffffff1673ffffffffffffffffffffffffffffffffffffffff16815260200191505060405180910390f35b34801561047457600080fd5b5061049760048036038101908080356000191690602001909291905050506114bf565b604051808273ffffffffffffffffffffffffffffffffffffffff1673ffffffffffffffffffffffffffffffffffffffff16815260200191505060405180910390f35b3480156104e557600080fd5b506104ee61151b565b005b3480156104fc57600080fd5b50610539600480360381019080803560001916906020019092919080356000191690602001909291908035151590602001909291905050506115d9565b604051808215151515815260200191505060405180910390f35b34801561055f57600080fd5b50610568611656565b604051808273ffffffffffffffffffffffffffffffffffffffff1673ffffffffffffffffffffffffffffffffffffffff16815260200191505060405180910390f35b3480156105b657600080fd5b506105e360048036038101908080356000191690602001909291908035906020019092919050505061167c565b6040518082815260200191505060405180910390f35b34801561060557600080fd5b5061063a600480360381019080803573ffffffffffffffffffffffffffffffffffffffff169060200190929190505050611754565b005b34801561064857600080fd5b50610651611912565b604051808215151515815260200191505060405180910390f35b34801561067757600080fd5b506106ce6004803603810190808035600019169060200190929190803573ffffffffffffffffffffffffffffffffffffffff1690602001909291908035906020019092919080359060200190929190505050611925565b60405180826000191660001916815260200191505060405180910390f35b3480156106f857600080fd5b50610701611b57565b005b34801561070f57600080fd5b506107326004803603810190808035600019169060200190929190505050611c59565b604051808273ffffffffffffffffffffffffffffffffffffffff1673ffffffffffffffffffffffffffffffffffffffff16815260200191505060405180910390f35b34801561078057600080fd5b506107b160048036038101908080356000191690602001909291908035600019169060200190929190505050611cb5565b6040518082815260200191505060405180910390f35b3480156107d357600080fd5b506107dc611d0f565b604051808273ffffffffffffffffffffffffffffffffffffffff1673ffffffffffffffffffffffffffffffffffffffff16815260200191505060405180910390f35b34801561082a57600080fd5b5061085b60048036038101908080356000191690602001909291908035600019169060200190929190505050611d35565b604051808273ffffffffffffffffffffffffffffffffffffffff1673ffffffffffffffffffffffffffffffffffffffff16815260200191505060405180910390f35b3480156108a957600080fd5b506108cc6004803603810190808035600019169060200190929190505050611daf565b60405180826000191660001916815260200191505060405180910390f35b3480156108f657600080fd5b506108ff611deb565b005b34801561090d57600080fd5b50610916611eab565b604051808273ffffffffffffffffffffffffffffffffffffffff1673ffffffffffffffffffffffffffffffffffffffff16815260200191505060405180910390f35b34801561096457600080fd5b50610991600480360381019080803560001916906020019092919080359060200190929190505050611ed0565b6040518080602001828103825283818151815260200191508051906020019080838360005b838110156109d15780820151818401526020810190506109b6565b50505050905090810190601f1680156109fe5780820380516001836020036101000a031916815260200191505b509250505060405180910390f35b348015610a1857600080fd5b50610a4960048036038101908080356000191690602001909291908035600019169060200190929190505050611fa2565b604051808215151515815260200191505060405180910390f35b348015610a6f57600080fd5b50610a926004803603810190808035600019169060200190929190505050612009565b604051808273ffffffffffffffffffffffffffffffffffffffff1673ffffffffffffffffffffffffffffffffffffffff16815260200191505060405180910390f35b348015610ae057600080fd5b50610b15600480360381019080803573ffffffffffffffffffffffffffffffffffffffff169060200190929190505050612065565b005b348015610b2357600080fd5b50610b466004803603810190808035600019169060200190929190505050612104565b6040518082815260200191505060405180910390f35b348015610b6857600080fd5b50610b9960048036038101908080356000191690602001909291908035600019169060200190929190505050612140565b6040518082815260200191505060405180910390f35b348015610bbb57600080fd5b50610bc461219a565b604051808273ffffffffffffffffffffffffffffffffffffffff1673ffffffffffffffffffffffffffffffffffffffff16815260200191505060405180910390f35b348015610c1257600080fd5b50610d45600480360381019080803573ffffffffffffffffffffffffffffffffffffffff169060200190929190803573ffffffffffffffffffffffffffffffffffffffff169060200190929190803573ffffffffffffffffffffffffffffffffffffffff169060200190929190803573ffffffffffffffffffffffffffffffffffffffff169060200190929190803573ffffffffffffffffffffffffffffffffffffffff1690602001909291908035600019169060200190929190803590602001908201803590602001908080601f0160208091040260200160405190810160405280939291908181526020018383808284378201915050505050509192919290803573ffffffffffffffffffffffffffffffffffffffff169060200190929190803590602001909291905050506121c0565b60405180826000191660001916815260200191505060405180910390f35b348015610d6f57600080fd5b50610d926004803603810190808035600019169060200190929190505050612c2d565b6040518082815260200191505060405180910390f35b348015610db457600080fd5b50610deb60048036038101908080356000191690602001909291908035906020019092919080359060200190929190505050612c69565b6040518082815260200191505060405180910390f35b348015610e0d57600080fd5b50610e42600480360381019080803573ffffffffffffffffffffffffffffffffffffffff169060200190929190505050612d64565b005b348015610e5057600080fd5b50610e59612e03565b604051808273ffffffffffffffffffffffffffffffffffffffff1673ffffffffffffffffffffffffffffffffffffffff16815260200191505060405180910390f35b348015610ea757600080fd5b50610eca6004803603810190808035600019169060200190929190505050612e29565b604051808215151515815260200191505060405180910390f35b348015610ef057600080fd5b50610ef9612eb0565b604051808273ffffffffffffffffffffffffffffffffffffffff1673ffffffffffffffffffffffffffffffffffffffff16815260200191505060405180910390f35b348015610f4757600080fd5b50610f6a6004803603810190808035600019169060200190929190505050612ed6565b604051808273ffffffffffffffffffffffffffffffffffffffff1673ffffffffffffffffffffffffffffffffffffffff16815260200191505060405180910390f35b348015610fb857600080fd5b50610fe960048036038101908080356000191690602001909291908035600019169060200190929190505050612f32565b604051808215151515815260200191505060405180910390f35b34801561100f57600080fd5b50611044600480360381019080803573ffffffffffffffffffffffffffffffffffffffff169060200190929190505050612feb565b005b34801561105257600080fd5b506110c5600480360381019080803560001916906020019092919080359060200190929190803590602001908201803590602001908080601f016020809104026020016040519081016040528093929190818152602001838380828437820191505050505050919291929050505061308a565b005b3480156110d357600080fd5b50611108600480360381019080803573ffffffffffffffffffffffffffffffffffffffff1690602001909291905050506130dc565b005b34801561111657600080fd5b5061116d6004803603810190808035600019169060200190929190803573ffffffffffffffffffffffffffffffffffffffff1690602001909291908035906020019092919080359060200190929190505050613143565b60405180826000191660001916815260200191505060405180910390f35b34801561119757600080fd5b506111ba6004803603810190808035600019169060200190929190505050613234565b6040518080602001828103825283818151815260200191508051906020019080838360005b838110156111fa5780820151818401526020810190506111df565b50505050905090810190601f1680156112275780820380516001836020036101000a031916815260200191505b509250505060405180910390f35b600060088281548110151561124657fe5b90600052602060002001549050919050565b6000809054906101000a900473ffffffffffffffffffffffffffffffffffffffff1673ffffffffffffffffffffffffffffffffffffffff163373ffffffffffffffffffffffffffffffffffffffff161415156112b357600080fd5b80600460006101000a81548173ffffffffffffffffffffffffffffffffffffffff021916908373ffffffffffffffffffffffffffffffffffffffff16021790555050565b600061130282612e29565b151561130d57600080fd5b60066000836000191660001916815260200190815260200160002060010160009054906101000a900473ffffffffffffffffffffffffffffffffffffffff169050919050565b6000809054906101000a900473ffffffffffffffffffffffffffffffffffffffff1673ffffffffffffffffffffffffffffffffffffffff163373ffffffffffffffffffffffffffffffffffffffff161415156113ae57600080fd5b80600160006101000a81548173ffffffffffffffffffffffffffffffffffffffff021916908373ffffffffffffffffffffffffffffffffffffffff16021790555050565b60088181548110151561140157fe5b906000526020600020016000915090505481565b600061142083612e29565b151561142b57600080fd5b600660008460001916600019168152602001908152602001600020600a01600083815260200190815260200160002054905092915050565b600061146e82612e29565b151561147957600080fd5b60066000836000191660001916815260200190815260200160002060030160009054906101000a900473ffffffffffffffffffffffffffffffffffffffff169050919050565b60006114ca82612e29565b15156114d557600080fd5b60066000836000191660001916815260200190815260200160002060000160009054906101000a900473ffffffffffffffffffffffffffffffffffffffff169050919050565b6000809054906101000a900473ffffffffffffffffffffffffffffffffffffffff1673ffffffffffffffffffffffffffffffffffffffff163373ffffffffffffffffffffffffffffffffffffffff1614151561157657600080fd5b600060149054906101000a900460ff16151561159157600080fd5b60008060146101000a81548160ff0219169083151502179055507f7805862f689e2f13df9f062ff482ad3ad112aca9e0847911ed832e158c525b3360405160405180910390a1565b60006115e433611754565b6115ee8484612f32565b15156115f957600080fd5b816006600086600019166000191681526020019081526020016000206009016000856000191660001916815260200190815260200160002060030160006101000a81548160ff021916908315150217905550600190509392505050565b600160009054906101000a900473ffffffffffffffffffffffffffffffffffffffff1681565b600061168733611754565b600073ffffffffffffffffffffffffffffffffffffffff1660066000856000191660001916815260200190815260200160002060080160009054906101000a900473ffffffffffffffffffffffffffffffffffffffff1673ffffffffffffffffffffffffffffffffffffffff161415151561170157600080fd5b81600660008560001916600019168152602001908152602001600020600c0160008282540192505081905550600660008460001916600019168152602001908152602001600020600c0154905092915050565b600160009054906101000a900473ffffffffffffffffffffffffffffffffffffffff1673ffffffffffffffffffffffffffffffffffffffff168173ffffffffffffffffffffffffffffffffffffffff1614806117fd5750600260009054906101000a900473ffffffffffffffffffffffffffffffffffffffff1673ffffffffffffffffffffffffffffffffffffffff168173ffffffffffffffffffffffffffffffffffffffff16145b806118555750600360009054906101000a900473ffffffffffffffffffffffffffffffffffffffff1673ffffffffffffffffffffffffffffffffffffffff168173ffffffffffffffffffffffffffffffffffffffff16145b806118ad5750600460009054906101000a900473ffffffffffffffffffffffffffffffffffffffff1673ffffffffffffffffffffffffffffffffffffffff168173ffffffffffffffffffffffffffffffffffffffff16145b8061190457506000809054906101000a900473ffffffffffffffffffffffffffffffffffffffff1673ffffffffffffffffffffffffffffffffffffffff168173ffffffffffffffffffffffffffffffffffffffff16145b151561190f57600080fd5b50565b600060149054906101000a900460ff1681565b600061192f6133ee565b600061193a33611754565b600073ffffffffffffffffffffffffffffffffffffffff1660066000896000191660001916815260200190815260200160002060080160009054906101000a900473ffffffffffffffffffffffffffffffffffffffff1673ffffffffffffffffffffffffffffffffffffffff16141515156119b457600080fd5b6080604051908101604052808773ffffffffffffffffffffffffffffffffffffffff1681526020018681526020018581526020016000151581525091506119fd87878787613143565b9050600073ffffffffffffffffffffffffffffffffffffffff166006600089600019166000191681526020019081526020016000206009016000836000191660001916815260200190815260200160002060000160009054906101000a900473ffffffffffffffffffffffffffffffffffffffff1673ffffffffffffffffffffffffffffffffffffffff16141515611a9457600080fd5b816006600089600019166000191681526020019081526020016000206009016000836000191660001916815260200190815260200160002060008201518160000160006101000a81548173ffffffffffffffffffffffffffffffffffffffff021916908373ffffffffffffffffffffffffffffffffffffffff160217905550602082015181600101556040820151816002015560608201518160030160006101000a81548160ff0219169083151502179055509050508092505050949350505050565b6000809054906101000a900473ffffffffffffffffffffffffffffffffffffffff1673ffffffffffffffffffffffffffffffffffffffff163373ffffffffffffffffffffffffffffffffffffffff16141515611bb257600080fd5b6000809054906101000a900473ffffffffffffffffffffffffffffffffffffffff1673ffffffffffffffffffffffffffffffffffffffff167ff8df31144d9c2f0f6b59d69b8b98abd5459d07f2742c4df920b25aae33c6482060405160405180910390a260008060006101000a81548173ffffffffffffffffffffffffffffffffffffffff021916908373ffffffffffffffffffffffffffffffffffffffff160217905550565b6000611c6482612e29565b1515611c6f57600080fd5b60066000836000191660001916815260200190815260200160002060040160009054906101000a900473ffffffffffffffffffffffffffffffffffffffff169050919050565b6000611cc18383612f32565b1515611ccc57600080fd5b6006600084600019166000191681526020019081526020016000206009016000836000191660001916815260200190815260200160002060010154905092915050565b600360009054906101000a900473ffffffffffffffffffffffffffffffffffffffff1681565b6000611d418383612f32565b1515611d4c57600080fd5b6006600084600019166000191681526020019081526020016000206009016000836000191660001916815260200190815260200160002060000160009054906101000a900473ffffffffffffffffffffffffffffffffffffffff16905092915050565b6000611dba82612e29565b1515611dc557600080fd5b600660008360001916600019168152602001908152602001600020600501549050919050565b6000809054906101000a900473ffffffffffffffffffffffffffffffffffffffff1673ffffffffffffffffffffffffffffffffffffffff163373ffffffffffffffffffffffffffffffffffffffff16141515611e4657600080fd5b600060149054906101000a900460ff16151515611e6257600080fd5b6001600060146101000a81548160ff0219169083151502179055507f6985a02210a168e66602d3235cb6db0e70f92b3ba4d376a33c0f3d9434bff62560405160405180910390a1565b6000809054906101000a900473ffffffffffffffffffffffffffffffffffffffff1681565b6060600660008460001916600019168152602001908152602001600020600b0160008381526020019081526020016000208054600181600116156101000203166002900480601f016020809104026020016040519081016040528092919081815260200182805460018160011615610100020316600290048015611f955780601f10611f6a57610100808354040283529160200191611f95565b820191906000526020600020905b815481529060010190602001808311611f7857829003601f168201915b5050505050905092915050565b6000611fae8383612f32565b1515611fb957600080fd5b6006600084600019166000191681526020019081526020016000206009016000836000191660001916815260200190815260200160002060030160009054906101000a900460ff16905092915050565b600061201482612e29565b151561201f57600080fd5b60066000836000191660001916815260200190815260200160002060080160009054906101000a900473ffffffffffffffffffffffffffffffffffffffff169050919050565b6000809054906101000a900473ffffffffffffffffffffffffffffffffffffffff1673ffffffffffffffffffffffffffffffffffffffff163373ffffffffffffffffffffffffffffffffffffffff161415156120c057600080fd5b80600760006101000a81548173ffffffffffffffffffffffffffffffffffffffff021916908373ffffffffffffffffffffffffffffffffffffffff16021790555050565b600061210f82612e29565b151561211a57600080fd5b600660008360001916600019168152602001908152602001600020600c01549050919050565b600061214c8383612f32565b151561215757600080fd5b6006600084600019166000191681526020019081526020016000206009016000836000191660001916815260200190815260200160002060020154905092915050565b600760009054906101000a900473ffffffffffffffffffffffffffffffffffffffff1681565b60006121ca61342f565b6000600760009054906101000a900473ffffffffffffffffffffffffffffffffffffffff1673ffffffffffffffffffffffffffffffffffffffff1663a67fcc9d8d6040518263ffffffff167c0100000000000000000000000000000000000000000000000000000000028152600401808273ffffffffffffffffffffffffffffffffffffffff1673ffffffffffffffffffffffffffffffffffffffff168152602001915050602060405180830381600087803b15801561228957600080fd5b505af115801561229d573d6000803e3d6000fd5b505050506040513d60208110156122b357600080fd5b810190808051906020019092919050505015156122cf57600080fd5b600760009054906101000a900473ffffffffffffffffffffffffffffffffffffffff1673ffffffffffffffffffffffffffffffffffffffff1663a67fcc9d8c6040518263ffffffff167c0100000000000000000000000000000000000000000000000000000000028152600401808273ffffffffffffffffffffffffffffffffffffffff1673ffffffffffffffffffffffffffffffffffffffff168152602001915050602060405180830381600087803b15801561238c57600080fd5b505af11580156123a0573d6000803e3d6000fd5b505050506040513d60208110156123b657600080fd5b810190808051906020019092919050505015156123d257600080fd5b600760009054906101000a900473ffffffffffffffffffffffffffffffffffffffff1673ffffffffffffffffffffffffffffffffffffffff1663a67fcc9d8a6040518263ffffffff167c0100000000000000000000000000000000000000000000000000000000028152600401808273ffffffffffffffffffffffffffffffffffffffff1673ffffffffffffffffffffffffffffffffffffffff168152602001915050602060405180830381600087803b15801561248f57600080fd5b505af11580156124a3573d6000803e3d6000fd5b505050506040513d60208110156124b957600080fd5b810190808051906020019092919050505015156124d557600080fd5b600760009054906101000a900473ffffffffffffffffffffffffffffffffffffffff1673ffffffffffffffffffffffffffffffffffffffff1663a67fcc9d896040518263ffffffff167c0100000000000000000000000000000000000000000000000000000000028152600401808273ffffffffffffffffffffffffffffffffffffffff1673ffffffffffffffffffffffffffffffffffffffff168152602001915050602060405180830381600087803b15801561259257600080fd5b505af11580156125a6573d6000803e3d6000fd5b505050506040513d60208110156125bc57600080fd5b810190808051906020019092919050505015156125d857600080fd5b610140604051908101604052808d73ffffffffffffffffffffffffffffffffffffffff1681526020018c73ffffffffffffffffffffffffffffffffffffffff1681526020018b73ffffffffffffffffffffffffffffffffffffffff1681526020018a73ffffffffffffffffffffffffffffffffffffffff1681526020018973ffffffffffffffffffffffffffffffffffffffff168152602001886000191681526020018781526020014281526020018673ffffffffffffffffffffffffffffffffffffffff168152602001600081525091508b8b8b8b8b8b8b338b604051602001808a73ffffffffffffffffffffffffffffffffffffffff1673ffffffffffffffffffffffffffffffffffffffff166c010000000000000000000000000281526014018973ffffffffffffffffffffffffffffffffffffffff1673ffffffffffffffffffffffffffffffffffffffff166c010000000000000000000000000281526014018873ffffffffffffffffffffffffffffffffffffffff1673ffffffffffffffffffffffffffffffffffffffff166c010000000000000000000000000281526014018773ffffffffffffffffffffffffffffffffffffffff1673ffffffffffffffffffffffffffffffffffffffff166c010000000000000000000000000281526014018673ffffffffffffffffffffffffffffffffffffffff1673ffffffffffffffffffffffffffffffffffffffff166c01000000000000000000000000028152601401856000191660001916815260200184805190602001908083835b60208310151561283e5780518252602082019150602081019050602083039250612819565b6001836020036101000a0380198251168184511680821785525050505050509050018373ffffffffffffffffffffffffffffffffffffffff1673ffffffffffffffffffffffffffffffffffffffff166c0100000000000000000000000002815260140182815260200199505050505050505050506040516020818303038152906040526040518082805190602001908083835b6020831015156128f657805182526020820191506020810190506020830392506128d1565b6001836020036101000a03801982511681845116808217855250505050505090500191505060405180910390209050600073ffffffffffffffffffffffffffffffffffffffff1660066000836000191660001916815260200190815260200160002060080160009054906101000a900473ffffffffffffffffffffffffffffffffffffffff1673ffffffffffffffffffffffffffffffffffffffff1614151561299e57600080fd5b8160066000836000191660001916815260200190815260200160002060008201518160000160006101000a81548173ffffffffffffffffffffffffffffffffffffffff021916908373ffffffffffffffffffffffffffffffffffffffff16021790555060208201518160010160006101000a81548173ffffffffffffffffffffffffffffffffffffffff021916908373ffffffffffffffffffffffffffffffffffffffff16021790555060408201518160020160006101000a81548173ffffffffffffffffffffffffffffffffffffffff021916908373ffffffffffffffffffffffffffffffffffffffff16021790555060608201518160030160006101000a81548173ffffffffffffffffffffffffffffffffffffffff021916908373ffffffffffffffffffffffffffffffffffffffff16021790555060808201518160040160006101000a81548173ffffffffffffffffffffffffffffffffffffffff021916908373ffffffffffffffffffffffffffffffffffffffff16021790555060a0820151816005019060001916905560c0820151816006019080519060200190612b4992919061350a565b5060e082015181600701556101008201518160080160006101000a81548173ffffffffffffffffffffffffffffffffffffffff021916908373ffffffffffffffffffffffffffffffffffffffff16021790555061012082015181600c015590505060088190806001815401808255809150509060018203906000526020600020016000909192909190915090600019169055507f3e3f1562581d79765962e32ff89b9793d9b8feccbab14ae907be9a320c2dccf88160405180826000191660001916815260200191505060405180910390a180925050509998505050505050505050565b6000612c3882612e29565b1515612c4357600080fd5b600660008360001916600019168152602001908152602001600020600701549050919050565b6000612c7433611754565b600073ffffffffffffffffffffffffffffffffffffffff1660066000866000191660001916815260200190815260200160002060080160009054906101000a900473ffffffffffffffffffffffffffffffffffffffff1673ffffffffffffffffffffffffffffffffffffffff1614151515612cee57600080fd5b81600660008660001916600019168152602001908152602001600020600a01600085815260200190815260200160002060008282540192505081905550600660008560001916600019168152602001908152602001600020600a0160008481526020019081526020016000205490509392505050565b6000809054906101000a900473ffffffffffffffffffffffffffffffffffffffff1673ffffffffffffffffffffffffffffffffffffffff163373ffffffffffffffffffffffffffffffffffffffff16141515612dbf57600080fd5b80600260006101000a81548173ffffffffffffffffffffffffffffffffffffffff021916908373ffffffffffffffffffffffffffffffffffffffff16021790555050565b600460009054906101000a900473ffffffffffffffffffffffffffffffffffffffff1681565b60008073ffffffffffffffffffffffffffffffffffffffff1660066000846000191660001916815260200190815260200160002060080160009054906101000a900473ffffffffffffffffffffffffffffffffffffffff1673ffffffffffffffffffffffffffffffffffffffff161415612ea65760009050612eab565b600190505b919050565b600260009054906101000a900473ffffffffffffffffffffffffffffffffffffffff1681565b6000612ee182612e29565b1515612eec57600080fd5b60066000836000191660001916815260200190815260200160002060020160009054906101000a900473ffffffffffffffffffffffffffffffffffffffff169050919050565b6000612f3d83612e29565b1515612f4857600080fd5b600073ffffffffffffffffffffffffffffffffffffffff166006600085600019166000191681526020019081526020016000206009016000846000191660001916815260200190815260200160002060000160009054906101000a900473ffffffffffffffffffffffffffffffffffffffff1673ffffffffffffffffffffffffffffffffffffffff161415612fe05760009050612fe5565b600190505b92915050565b6000809054906101000a900473ffffffffffffffffffffffffffffffffffffffff1673ffffffffffffffffffffffffffffffffffffffff163373ffffffffffffffffffffffffffffffffffffffff1614151561304657600080fd5b80600360006101000a81548173ffffffffffffffffffffffffffffffffffffffff021916908373ffffffffffffffffffffffffffffffffffffffff16021790555050565b61309333611754565b80600660008560001916600019168152602001908152602001600020600b01600084815260200190815260200160002090805190602001906130d692919061358a565b50505050565b6000809054906101000a900473ffffffffffffffffffffffffffffffffffffffff1673ffffffffffffffffffffffffffffffffffffffff163373ffffffffffffffffffffffffffffffffffffffff1614151561313757600080fd5b613140816132f4565b50565b600084848484436040516020018086600019166000191681526020018573ffffffffffffffffffffffffffffffffffffffff1673ffffffffffffffffffffffffffffffffffffffff166c01000000000000000000000000028152601401848152602001838152602001828152602001955050505050506040516020818303038152906040526040518082805190602001908083835b6020831015156131fd57805182526020820191506020810190506020830392506131d8565b6001836020036101000a03801982511681845116808217855250505050505090500191505060405180910390209050949350505050565b60606006600083600019166000191681526020019081526020016000206006018054600181600116156101000203166002900480601f0160208091040260200160405190810160405280929190818152602001828054600181600116156101000203166002900480156132e85780601f106132bd576101008083540402835291602001916132e8565b820191906000526020600020905b8154815290600101906020018083116132cb57829003601f168201915b50505050509050919050565b600073ffffffffffffffffffffffffffffffffffffffff168173ffffffffffffffffffffffffffffffffffffffff161415151561333057600080fd5b8073ffffffffffffffffffffffffffffffffffffffff166000809054906101000a900473ffffffffffffffffffffffffffffffffffffffff1673ffffffffffffffffffffffffffffffffffffffff167f8be0079c531659141344cd1fd0a4f28419497f9722a3daafe3b4186f6b6457e060405160405180910390a3806000806101000a81548173ffffffffffffffffffffffffffffffffffffffff021916908373ffffffffffffffffffffffffffffffffffffffff16021790555050565b608060405190810160405280600073ffffffffffffffffffffffffffffffffffffffff16815260200160008152602001600081526020016000151581525090565b61014060405190810160405280600073ffffffffffffffffffffffffffffffffffffffff168152602001600073ffffffffffffffffffffffffffffffffffffffff168152602001600073ffffffffffffffffffffffffffffffffffffffff168152602001600073ffffffffffffffffffffffffffffffffffffffff168152602001600073ffffffffffffffffffffffffffffffffffffffff168152602001600080191681526020016060815260200160008152602001600073ffffffffffffffffffffffffffffffffffffffff168152602001600081525090565b828054600181600116156101000203166002900490600052602060002090601f016020900481019282601f1061354b57805160ff1916838001178555613579565b82800160010185558215613579579182015b8281111561357857825182559160200191906001019061355d565b5b509050613586919061360a565b5090565b828054600181600116156101000203166002900490600052602060002090601f016020900481019282601f106135cb57805160ff19168380011785556135f9565b828001600101855582156135f9579182015b828111156135f85782518255916020019190600101906135dd565b5b509050613606919061360a565b5090565b61362c91905b80821115613628576000816000905550600101613610565b5090565b905600a165627a7a723058207e5a2c941c08b2188e47d3f6c299333810d8390b5612e8ed08be48ed78c757cc0029",
  "source": "pragma solidity ^0.4.24;\n\n// Internal\nimport \"./RegistryStorage.sol\";\nimport \"./ProxyRegistry.sol\";\n// External\nimport \"openzeppelin-solidity/contracts/math/SafeMath.sol\";\n\n\n/**\n * The registry is a Eternal Storage contract that saves all the data for the\n * bet protocol. The rest of the contracts will communicate with this contract\n * with getters and setters to modify the data. They will be the interface for\n * for the protocol.\n *\n * Author: Carlos Gonzalez -- Github: carlosgj94\n */\n/** @title Bet BetRegistry. */\ncontract BetRegistry is RegistryStorage {\n    using SafeMath for uint;\n\n    // Events\n    event LogBetEntry(bytes32 _hash);\n\n    // Storage\n    ProxyRegistry public proxyRegistry;\n\n    bytes32[] public bets;\n\n    constructor(\n        address _proxyRegistry,\n        address _betKernel,\n        address _betPayments,\n        address _betOracle,\n        address _betTerms\n    ) public {\n        proxyRegistry = ProxyRegistry(_proxyRegistry);\n        betKernel = _betKernel;\n        betPayments = _betPayments;\n        betOracle = _betOracle;\n        betTerms = _betTerms;\n    }\n\n    modifier onlyAuthorised {\n        isAuthorised(msg.sender);\n        _;\n    }\n\n    function setProxyRegistry(address _proxyRegistry) public onlyOwner {\n        proxyRegistry = ProxyRegistry(_proxyRegistry);\n    }\n\n    /**\n     * @dev Function to create bets in the registry\n     * @param _kernelProxy address Direction of the kernel proxy contract\n     * @param _paymentsProxy address Direction of the payments proxy contract\n     * @param _oracleProxy address Direction of the oracle proxy contract\n     * @param _termsProxy address Address of the terms proxy contract\n     * @param _termsHash bytes32 Address of the hash terms of the bet\n     * @param _salt uint random number to provide a unique hash\n     * @return bytes32 the that identifies the bet\n     */\n    function createBet(\n        address _kernelProxy,\n        address _paymentsProxy,\n        address _paymentsToken,\n        address _oracleProxy,\n        address _termsProxy,\n        bytes32 _termsHash,\n        string _title,\n        address _sender,\n        uint _salt\n    ) public returns(bytes32) {\n        require(proxyRegistry.addressInProxies(_kernelProxy));\n        require(proxyRegistry.addressInProxies(_paymentsProxy));\n        require(proxyRegistry.addressInProxies(_oracleProxy));\n        require(proxyRegistry.addressInProxies(_termsProxy));\n\n        BetEntry memory _entry = BetEntry(\n            _kernelProxy,\n            _paymentsProxy,\n            _paymentsToken,\n            _oracleProxy,\n            _termsProxy,\n            _termsHash,\n            _title,\n            block.timestamp,\n            _sender,\n            0\n        );\n        bytes32 _hash = keccak256(\n            abi.encodePacked(\n                _kernelProxy,\n                _paymentsProxy,\n                _paymentsToken,\n                _oracleProxy,\n                _termsProxy,\n                _termsHash,\n                _title,\n                msg.sender,\n                _salt\n            )\n        );\n        require(betRegistry[_hash].creator == address(0));\n\n        betRegistry[_hash] = _entry;\n        bets.push(_hash);\n        emit LogBetEntry(_hash);\n        return _hash;\n    }\n\n    function getBet(uint _index) public view returns(bytes32) {\n        return bets[_index];\n    }\n\n    // Setters to place a bet\n    // These are authorised only\n    function insertPlayerBet(\n        bytes32 _betHash,\n        address _sender,\n        uint _option,\n        uint _number\n    )\n        public\n        onlyAuthorised\n        returns(bytes32)\n    {\n        require(betRegistry[_betHash].creator != address(0));\n\n        PlayerBet memory _bet = PlayerBet(\n            _sender,\n            _option,\n            _number,\n            false\n        );\n\n        bytes32 _playerBetHash = getPlayerBetHash(\n            _betHash,\n            _sender,\n            _option,\n            _number\n        );\n\n        require(betRegistry[_betHash].playerBets[_playerBetHash].player == address(0));\n        betRegistry[_betHash].playerBets[_playerBetHash] = _bet;\n\n        return _playerBetHash;\n    }\n\n    /**\n     * @dev Function that lets you add to the principal\n     * @param _betHash bytes32 the bet\n     * @param _number uint the amount to add\n     * @return uint the totalPrincipal\n     */\n    function addTotalPrincipal(\n        bytes32 _betHash,\n        uint _number\n    )\n        public\n        onlyAuthorised\n        returns(uint)\n    {\n        require(betRegistry[_betHash].creator != address(0));\n\n        betRegistry[_betHash].totalPrincipal += _number;\n        return betRegistry[_betHash].totalPrincipal;\n    }\n\n    /**\n     * @dev Function that lets you add to an option\n     * @param _betHash bytes32 of the bet you want to get\n     * @param _option uint the option you are betting on\n     * @param _number uint the amount to add\n     * @return uint the amount in that option\n     */\n    function addToOption(\n        bytes32 _betHash,\n        uint _option,\n        uint _number\n    )\n        public\n        onlyAuthorised\n        returns(uint)\n    {\n        require(betRegistry[_betHash].creator != address(0));\n\n        betRegistry[_betHash].principalInOption[_option] += _number;\n\n        return betRegistry[_betHash].principalInOption[_option];\n    }\n\n    /**\n     * @dev Function that returns the hash a bet would have\n     * @param _betHash bytes32 the hash of the bet where place play will happen\n     * @param _sender address the address that wants to bet\n     * @param _option uint the option they want to bet on\n     * @param _number uint the parameter of the bet. This depends if it is an\n     * ERC20 or ERC721 token\n     * @return bytes32 the hash of the bet the player is going to make\n     */\n    function getPlayerBetHash(\n        bytes32 _betHash,\n        address _sender,\n        uint _option,\n        uint _number\n    )\n        public\n        view\n        returns(bytes32)\n    {\n        return keccak256(\n            abi.encodePacked(\n                _betHash,\n                _sender,\n                _option,\n                _number,\n                block.number\n            )\n        );\n\n    }\n\n    function setOptionTitle (\n        bytes32 _betHash,\n        uint _option,\n        string _title\n    )\n        public\n        onlyAuthorised\n    {\n        betRegistry[_betHash].optionTitles[_option] = _title;\n    }\n\n    // Getters\n    function getBetKernelProxy(\n        bytes32 _betHash\n    )\n        public\n        view\n        returns (address)\n    {\n        require(betExists(_betHash));\n\n        return betRegistry[_betHash].kernelProxy;\n    }\n\n    function getBetPaymentsProxy(\n        bytes32 _betHash\n    )\n        public\n        view\n        returns (address)\n    {\n        require(betExists(_betHash));\n\n        return betRegistry[_betHash].paymentsProxy;\n    }\n\n    function getBetPaymentsToken(\n        bytes32 _betHash\n    )\n        public\n        view\n        returns(address)\n    {\n        require(betExists(_betHash));\n\n        return betRegistry[_betHash].paymentsToken;\n    }\n\n    function getBetOracleProxy(bytes32 _betHash)\n        public\n        view\n        returns(address)\n    {\n        require(betExists(_betHash));\n\n        return betRegistry[_betHash].oracleProxy;\n    }\n\n    function getBetTermsProxy(\n        bytes32 _betHash\n    )\n        public\n        view\n        returns(address)\n    {\n        require(betExists(_betHash));\n\n        return betRegistry[_betHash].termsProxy;\n    }\n\n    function getBetTermsHash(\n        bytes32 _betHash\n    )\n        public\n        view\n        returns(bytes32)\n    {\n        require(betExists(_betHash));\n\n        return betRegistry[_betHash].termsHash;\n    }\n\n    function getBetTitle(\n        bytes32 _betHash\n    )\n        public\n        view\n        returns(string)\n    {\n        return betRegistry[_betHash].title;\n    }\n\n    function getBetDatetime(\n        bytes32 _betHash\n    )\n        public\n        view\n        returns(uint)\n    {\n        require(betExists(_betHash));\n\n        return betRegistry[_betHash].datetime;\n    }\n\n    function getBetCreator(\n        bytes32 _betHash\n    )\n        public\n        view\n        returns(address)\n    {\n        require(betExists(_betHash));\n\n        return betRegistry[_betHash].creator;\n    }\n\n    function getTotalPrincipal(\n        bytes32 _betHash\n    )\n        public\n        view\n        returns(uint)\n    {\n        require(betExists(_betHash));\n\n        return betRegistry[_betHash].totalPrincipal;\n    }\n\n    function getPrincipalInOption(\n        bytes32 _betHash,\n        uint _option\n    )\n        public\n        view\n        returns(uint)\n    {\n        require(betExists(_betHash));\n\n        return betRegistry[_betHash].principalInOption[_option];\n    }\n\n    function getOptionTitle(\n        bytes32 _betHash,\n        uint _option\n    )\n        public\n        view\n        returns(string)\n    {\n        return betRegistry[_betHash].optionTitles[_option];\n    }\n\n    function getPlayerBetPlayer(\n        bytes32 _betHash,\n        bytes32 _playerBetHash\n    )\n        public\n        view\n        returns(address)\n    {\n        require(playerBetExists(_betHash, _playerBetHash));\n\n        return betRegistry[_betHash].playerBets[_playerBetHash].player;\n    }\n\n    function getPlayerBetOption(\n        bytes32 _betHash,\n        bytes32 _playerBetHash\n    )\n        public\n        view\n        returns(uint)\n    {\n        require(playerBetExists(_betHash, _playerBetHash));\n\n        return betRegistry[_betHash].playerBets[_playerBetHash].option;\n    }\n\n    function getPlayerBetPrincipal(\n        bytes32 _betHash,\n        bytes32 _playerBetHash\n    )\n        public\n        view\n        returns(uint)\n    {\n        require(playerBetExists(_betHash, _playerBetHash));\n\n        return betRegistry[_betHash].playerBets[_playerBetHash].principal;\n    }\n\n    function getPlayerBetReturned(\n        bytes32 _betHash,\n        bytes32 _playerBetHash\n    )\n        public\n        view\n        returns(bool)\n    {\n        require(playerBetExists(_betHash, _playerBetHash));\n\n        return betRegistry[_betHash].playerBets[_playerBetHash].returned;\n    }\n\n    function betExists(bytes32 _betHash) public view returns(bool) {\n        if (betRegistry[_betHash].creator == address(0))\n            return false;\n        return true;\n    }\n\n    function playerBetExists(bytes32 _betHash, bytes32 _playerBetHash) public view returns(bool) {\n        require(betExists(_betHash));\n        if (betRegistry[_betHash].playerBets[_playerBetHash].player == address(0))\n            return false;\n        return true;\n    }\n\n    function setPlayerBetReturned(\n        bytes32 _betHash,\n        bytes32 _playerBetHash,\n        bool _returned\n    )\n        public\n        onlyAuthorised\n        returns(bool)\n    {\n        require(playerBetExists(_betHash, _playerBetHash));\n        betRegistry[_betHash].playerBets[_playerBetHash].returned = _returned;\n        return true;\n    }\n\n    function isAuthorised(address _sender) public view {\n        require(\n            _sender == betKernel ||\n            _sender == betPayments ||\n            _sender == betOracle ||\n            _sender == betTerms ||\n            _sender == owner\n        );\n    }\n}\n",
  "sourcePath": "/Users/carlosgonzalezjuarez/Documents/Development/GuesserProtocol/contracts/BetRegistry.sol",
  "compiler": {
    "name": "solc",
    "version": "0.4.25+commit.59dbf8f1.Emscripten.clang"
  },
  "schemaVersion": "3.0.0-beta.1",
  "updatedAt": "2018-11-09T16:16:18.378Z"
}