{
  "contractName": "BetRegistry",
  "abi": [
    {
      "constant": false,
      "inputs": [
        {
          "name": "_betTerms",
          "type": "address"
        }
      ],
      "name": "setBetTerms",
      "outputs": [],
      "payable": false,
      "stateMutability": "nonpayable",
      "type": "function",
      "signature": "0x08fb0970"
    },
    {
      "constant": false,
      "inputs": [
        {
          "name": "_betKernel",
          "type": "address"
        }
      ],
      "name": "setBetKernel",
      "outputs": [],
      "payable": false,
      "stateMutability": "nonpayable",
      "type": "function",
      "signature": "0x171f1af1"
    },
    {
      "constant": false,
      "inputs": [],
      "name": "unpause",
      "outputs": [],
      "payable": false,
      "stateMutability": "nonpayable",
      "type": "function",
      "signature": "0x3f4ba83a"
    },
    {
      "constant": true,
      "inputs": [],
      "name": "betKernel",
      "outputs": [
        {
          "name": "",
          "type": "address"
        }
      ],
      "payable": false,
      "stateMutability": "view",
      "type": "function",
      "signature": "0x4c98ee7b"
    },
    {
      "constant": true,
      "inputs": [],
      "name": "paused",
      "outputs": [
        {
          "name": "",
          "type": "bool"
        }
      ],
      "payable": false,
      "stateMutability": "view",
      "type": "function",
      "signature": "0x5c975abb"
    },
    {
      "constant": false,
      "inputs": [],
      "name": "renounceOwnership",
      "outputs": [],
      "payable": false,
      "stateMutability": "nonpayable",
      "type": "function",
      "signature": "0x715018a6"
    },
    {
      "constant": true,
      "inputs": [],
      "name": "betOracle",
      "outputs": [
        {
          "name": "",
          "type": "address"
        }
      ],
      "payable": false,
      "stateMutability": "view",
      "type": "function",
      "signature": "0x80fabc91"
    },
    {
      "constant": false,
      "inputs": [],
      "name": "pause",
      "outputs": [],
      "payable": false,
      "stateMutability": "nonpayable",
      "type": "function",
      "signature": "0x8456cb59"
    },
    {
      "constant": true,
      "inputs": [],
      "name": "owner",
      "outputs": [
        {
          "name": "",
          "type": "address"
        }
      ],
      "payable": false,
      "stateMutability": "view",
      "type": "function",
      "signature": "0x8da5cb5b"
    },
    {
      "constant": true,
      "inputs": [],
      "name": "proxyRegistry",
      "outputs": [
        {
          "name": "",
          "type": "address"
        }
      ],
      "payable": false,
      "stateMutability": "view",
      "type": "function",
      "signature": "0xb50cbd9f"
    },
    {
      "constant": false,
      "inputs": [
        {
          "name": "_betPayments",
          "type": "address"
        }
      ],
      "name": "setBetPayments",
      "outputs": [],
      "payable": false,
      "stateMutability": "nonpayable",
      "type": "function",
      "signature": "0xbad07ee7"
    },
    {
      "constant": true,
      "inputs": [],
      "name": "betTerms",
      "outputs": [
        {
          "name": "",
          "type": "address"
        }
      ],
      "payable": false,
      "stateMutability": "view",
      "type": "function",
      "signature": "0xca033e7d"
    },
    {
      "constant": true,
      "inputs": [],
      "name": "betPayments",
      "outputs": [
        {
          "name": "",
          "type": "address"
        }
      ],
      "payable": false,
      "stateMutability": "view",
      "type": "function",
      "signature": "0xdd943d04"
    },
    {
      "constant": false,
      "inputs": [
        {
          "name": "_betOracle",
          "type": "address"
        }
      ],
      "name": "setBetOracle",
      "outputs": [],
      "payable": false,
      "stateMutability": "nonpayable",
      "type": "function",
      "signature": "0xe7ae81f7"
    },
    {
      "constant": false,
      "inputs": [
        {
          "name": "_newOwner",
          "type": "address"
        }
      ],
      "name": "transferOwnership",
      "outputs": [],
      "payable": false,
      "stateMutability": "nonpayable",
      "type": "function",
      "signature": "0xf2fde38b"
    },
    {
      "inputs": [
        {
          "name": "_proxyRegistry",
          "type": "address"
        },
        {
          "name": "_betKernel",
          "type": "address"
        },
        {
          "name": "_betPayments",
          "type": "address"
        },
        {
          "name": "_betOracle",
          "type": "address"
        },
        {
          "name": "_betTerms",
          "type": "address"
        }
      ],
      "payable": false,
      "stateMutability": "nonpayable",
      "type": "constructor",
      "signature": "constructor"
    },
    {
      "anonymous": false,
      "inputs": [
        {
          "indexed": false,
          "name": "_hash",
          "type": "bytes32"
        }
      ],
      "name": "LogBetEntry",
      "type": "event",
      "signature": "0x3e3f1562581d79765962e32ff89b9793d9b8feccbab14ae907be9a320c2dccf8"
    },
    {
      "anonymous": false,
      "inputs": [],
      "name": "Pause",
      "type": "event",
      "signature": "0x6985a02210a168e66602d3235cb6db0e70f92b3ba4d376a33c0f3d9434bff625"
    },
    {
      "anonymous": false,
      "inputs": [],
      "name": "Unpause",
      "type": "event",
      "signature": "0x7805862f689e2f13df9f062ff482ad3ad112aca9e0847911ed832e158c525b33"
    },
    {
      "anonymous": false,
      "inputs": [
        {
          "indexed": true,
          "name": "previousOwner",
          "type": "address"
        }
      ],
      "name": "OwnershipRenounced",
      "type": "event",
      "signature": "0xf8df31144d9c2f0f6b59d69b8b98abd5459d07f2742c4df920b25aae33c64820"
    },
    {
      "anonymous": false,
      "inputs": [
        {
          "indexed": true,
          "name": "previousOwner",
          "type": "address"
        },
        {
          "indexed": true,
          "name": "newOwner",
          "type": "address"
        }
      ],
      "name": "OwnershipTransferred",
      "type": "event",
      "signature": "0x8be0079c531659141344cd1fd0a4f28419497f9722a3daafe3b4186f6b6457e0"
    },
    {
      "constant": false,
      "inputs": [
        {
          "name": "_proxyRegistry",
          "type": "address"
        }
      ],
      "name": "setProxyRegistry",
      "outputs": [],
      "payable": false,
      "stateMutability": "nonpayable",
      "type": "function",
      "signature": "0xadfdeef9"
    },
    {
      "constant": false,
      "inputs": [
        {
          "name": "_kernelProxy",
          "type": "address"
        },
        {
          "name": "_paymentsProxy",
          "type": "address"
        },
        {
          "name": "_paymentsToken",
          "type": "address"
        },
        {
          "name": "_oracleProxy",
          "type": "address"
        },
        {
          "name": "_termsProxy",
          "type": "address"
        },
        {
          "name": "_termsHash",
          "type": "bytes32"
        },
        {
          "name": "_title",
          "type": "string"
        },
        {
          "name": "_salt",
          "type": "uint256"
        }
      ],
      "name": "createBet",
      "outputs": [
        {
          "name": "",
          "type": "bytes32"
        }
      ],
      "payable": false,
      "stateMutability": "nonpayable",
      "type": "function",
      "signature": "0xf1f63965"
    },
    {
      "constant": false,
      "inputs": [
        {
          "name": "_betHash",
          "type": "bytes32"
        },
        {
          "name": "_sender",
          "type": "address"
        },
        {
          "name": "_option",
          "type": "uint256"
        },
        {
          "name": "_number",
          "type": "uint256"
        }
      ],
      "name": "insertPlayerBet",
      "outputs": [
        {
          "name": "",
          "type": "bytes32"
        }
      ],
      "payable": false,
      "stateMutability": "nonpayable",
      "type": "function",
      "signature": "0x5faa7cee"
    },
    {
      "constant": false,
      "inputs": [
        {
          "name": "_betHash",
          "type": "bytes32"
        },
        {
          "name": "_number",
          "type": "uint256"
        }
      ],
      "name": "addTotalPrincipal",
      "outputs": [
        {
          "name": "",
          "type": "uint256"
        }
      ],
      "payable": false,
      "stateMutability": "nonpayable",
      "type": "function",
      "signature": "0x4fc2c76c"
    },
    {
      "constant": false,
      "inputs": [
        {
          "name": "_betHash",
          "type": "bytes32"
        },
        {
          "name": "_option",
          "type": "uint256"
        },
        {
          "name": "_number",
          "type": "uint256"
        }
      ],
      "name": "addToOption",
      "outputs": [
        {
          "name": "",
          "type": "uint256"
        }
      ],
      "payable": false,
      "stateMutability": "nonpayable",
      "type": "function",
      "signature": "0xb90a4149"
    },
    {
      "constant": true,
      "inputs": [
        {
          "name": "_betHash",
          "type": "bytes32"
        },
        {
          "name": "_sender",
          "type": "address"
        },
        {
          "name": "_option",
          "type": "uint256"
        },
        {
          "name": "_number",
          "type": "uint256"
        }
      ],
      "name": "getPlayerBetHash",
      "outputs": [
        {
          "name": "",
          "type": "bytes32"
        }
      ],
      "payable": false,
      "stateMutability": "view",
      "type": "function",
      "signature": "0xf61fdeb8"
    },
    {
      "constant": false,
      "inputs": [
        {
          "name": "_betHash",
          "type": "bytes32"
        },
        {
          "name": "_option",
          "type": "uint256"
        },
        {
          "name": "_title",
          "type": "string"
        }
      ],
      "name": "setOptionTitle",
      "outputs": [],
      "payable": false,
      "stateMutability": "nonpayable",
      "type": "function",
      "signature": "0xe91e48da"
    },
    {
      "constant": true,
      "inputs": [
        {
          "name": "_betHash",
          "type": "bytes32"
        }
      ],
      "name": "getBetKernelProxy",
      "outputs": [
        {
          "name": "",
          "type": "address"
        }
      ],
      "payable": false,
      "stateMutability": "view",
      "type": "function",
      "signature": "0x3a8100d1"
    },
    {
      "constant": true,
      "inputs": [
        {
          "name": "_betHash",
          "type": "bytes32"
        }
      ],
      "name": "getBetPaymentsProxy",
      "outputs": [
        {
          "name": "",
          "type": "address"
        }
      ],
      "payable": false,
      "stateMutability": "view",
      "type": "function",
      "signature": "0x14715bcc"
    },
    {
      "constant": true,
      "inputs": [
        {
          "name": "_betHash",
          "type": "bytes32"
        }
      ],
      "name": "getBetPaymentsToken",
      "outputs": [
        {
          "name": "",
          "type": "address"
        }
      ],
      "payable": false,
      "stateMutability": "view",
      "type": "function",
      "signature": "0xde1028e1"
    },
    {
      "constant": true,
      "inputs": [
        {
          "name": "_betHash",
          "type": "bytes32"
        }
      ],
      "name": "getBetOracleProxy",
      "outputs": [
        {
          "name": "",
          "type": "address"
        }
      ],
      "payable": false,
      "stateMutability": "view",
      "type": "function",
      "signature": "0x30cdb40d"
    },
    {
      "constant": true,
      "inputs": [
        {
          "name": "_betHash",
          "type": "bytes32"
        }
      ],
      "name": "getBetTermsProxy",
      "outputs": [
        {
          "name": "",
          "type": "address"
        }
      ],
      "payable": false,
      "stateMutability": "view",
      "type": "function",
      "signature": "0x7171e757"
    },
    {
      "constant": true,
      "inputs": [
        {
          "name": "_betHash",
          "type": "bytes32"
        }
      ],
      "name": "getBetTermsHash",
      "outputs": [
        {
          "name": "",
          "type": "bytes32"
        }
      ],
      "payable": false,
      "stateMutability": "view",
      "type": "function",
      "signature": "0x82507452"
    },
    {
      "constant": true,
      "inputs": [
        {
          "name": "_betHash",
          "type": "bytes32"
        }
      ],
      "name": "getBetTitle",
      "outputs": [
        {
          "name": "",
          "type": "string"
        }
      ],
      "payable": false,
      "stateMutability": "view",
      "type": "function",
      "signature": "0xf78bdec6"
    },
    {
      "constant": true,
      "inputs": [
        {
          "name": "_betHash",
          "type": "bytes32"
        }
      ],
      "name": "getBetDatetime",
      "outputs": [
        {
          "name": "",
          "type": "uint256"
        }
      ],
      "payable": false,
      "stateMutability": "view",
      "type": "function",
      "signature": "0xb87822bd"
    },
    {
      "constant": true,
      "inputs": [
        {
          "name": "_betHash",
          "type": "bytes32"
        }
      ],
      "name": "getBetCreator",
      "outputs": [
        {
          "name": "",
          "type": "address"
        }
      ],
      "payable": false,
      "stateMutability": "view",
      "type": "function",
      "signature": "0xac21e313"
    },
    {
      "constant": true,
      "inputs": [
        {
          "name": "_betHash",
          "type": "bytes32"
        }
      ],
      "name": "getTotalPrincipal",
      "outputs": [
        {
          "name": "",
          "type": "uint256"
        }
      ],
      "payable": false,
      "stateMutability": "view",
      "type": "function",
      "signature": "0xafc27791"
    },
    {
      "constant": true,
      "inputs": [
        {
          "name": "_betHash",
          "type": "bytes32"
        },
        {
          "name": "_option",
          "type": "uint256"
        }
      ],
      "name": "getPrincipalInOption",
      "outputs": [
        {
          "name": "",
          "type": "uint256"
        }
      ],
      "payable": false,
      "stateMutability": "view",
      "type": "function",
      "signature": "0x2659a074"
    },
    {
      "constant": true,
      "inputs": [
        {
          "name": "_betHash",
          "type": "bytes32"
        },
        {
          "name": "_option",
          "type": "uint256"
        }
      ],
      "name": "getOptionTitle",
      "outputs": [
        {
          "name": "",
          "type": "string"
        }
      ],
      "payable": false,
      "stateMutability": "view",
      "type": "function",
      "signature": "0x91061d6f"
    },
    {
      "constant": true,
      "inputs": [
        {
          "name": "_betHash",
          "type": "bytes32"
        },
        {
          "name": "_playerBetHash",
          "type": "bytes32"
        }
      ],
      "name": "getPlayerBetPlayer",
      "outputs": [
        {
          "name": "",
          "type": "address"
        }
      ],
      "payable": false,
      "stateMutability": "view",
      "type": "function",
      "signature": "0x81bf3702"
    },
    {
      "constant": true,
      "inputs": [
        {
          "name": "_betHash",
          "type": "bytes32"
        },
        {
          "name": "_playerBetHash",
          "type": "bytes32"
        }
      ],
      "name": "getPlayerBetOption",
      "outputs": [
        {
          "name": "",
          "type": "uint256"
        }
      ],
      "payable": false,
      "stateMutability": "view",
      "type": "function",
      "signature": "0x7d95ff89"
    },
    {
      "constant": true,
      "inputs": [
        {
          "name": "_betHash",
          "type": "bytes32"
        },
        {
          "name": "_playerBetHash",
          "type": "bytes32"
        }
      ],
      "name": "getPlayerBetPrincipal",
      "outputs": [
        {
          "name": "",
          "type": "uint256"
        }
      ],
      "payable": false,
      "stateMutability": "view",
      "type": "function",
      "signature": "0xb2aa5d0c"
    },
    {
      "constant": true,
      "inputs": [
        {
          "name": "_betHash",
          "type": "bytes32"
        },
        {
          "name": "_playerBetHash",
          "type": "bytes32"
        }
      ],
      "name": "getPlayerBetReturned",
      "outputs": [
        {
          "name": "",
          "type": "bool"
        }
      ],
      "payable": false,
      "stateMutability": "view",
      "type": "function",
      "signature": "0x9d5e6938"
    },
    {
      "constant": true,
      "inputs": [
        {
          "name": "_betHash",
          "type": "bytes32"
        }
      ],
      "name": "betExists",
      "outputs": [
        {
          "name": "",
          "type": "bool"
        }
      ],
      "payable": false,
      "stateMutability": "view",
      "type": "function",
      "signature": "0xd8818ad9"
    },
    {
      "constant": true,
      "inputs": [
        {
          "name": "_betHash",
          "type": "bytes32"
        },
        {
          "name": "_playerBetHash",
          "type": "bytes32"
        }
      ],
      "name": "playerBetExists",
      "outputs": [
        {
          "name": "",
          "type": "bool"
        }
      ],
      "payable": false,
      "stateMutability": "view",
      "type": "function",
      "signature": "0xe5646597"
    },
    {
      "constant": false,
      "inputs": [
        {
          "name": "_betHash",
          "type": "bytes32"
        },
        {
          "name": "_playerBetHash",
          "type": "bytes32"
        },
        {
          "name": "_returned",
          "type": "bool"
        }
      ],
      "name": "setPlayerBetReturned",
      "outputs": [
        {
          "name": "",
          "type": "bool"
        }
      ],
      "payable": false,
      "stateMutability": "nonpayable",
      "type": "function",
      "signature": "0x41b273bb"
    },
    {
      "constant": true,
      "inputs": [
        {
          "name": "_sender",
          "type": "address"
        }
      ],
      "name": "isAuthorised",
      "outputs": [],
      "payable": false,
      "stateMutability": "view",
      "type": "function",
      "signature": "0x51b699cd"
    }
  ],
  "bytecode": "0x608060405260008060146101000a81548160ff02191690831515021790555034801561002a57600080fd5b5060405160a0806137448339810180604052810190808051906020019092919080519060200190929190805190602001909291908051906020019092919080519060200190929190505050336000806101000a81548173ffffffffffffffffffffffffffffffffffffffff021916908373ffffffffffffffffffffffffffffffffffffffff16021790555084600760006101000a81548173ffffffffffffffffffffffffffffffffffffffff021916908373ffffffffffffffffffffffffffffffffffffffff16021790555083600160006101000a81548173ffffffffffffffffffffffffffffffffffffffff021916908373ffffffffffffffffffffffffffffffffffffffff16021790555082600260006101000a81548173ffffffffffffffffffffffffffffffffffffffff021916908373ffffffffffffffffffffffffffffffffffffffff16021790555081600360006101000a81548173ffffffffffffffffffffffffffffffffffffffff021916908373ffffffffffffffffffffffffffffffffffffffff16021790555080600460006101000a81548173ffffffffffffffffffffffffffffffffffffffff021916908373ffffffffffffffffffffffffffffffffffffffff16021790555050505050506135368061020e6000396000f300608060405260043610610204576000357c0100000000000000000000000000000000000000000000000000000000900463ffffffff16806308fb09701461020957806314715bcc1461024c578063171f1af1146102bd5780632659a0741461030057806330cdb40d1461034f5780633a8100d1146103c05780633f4ba83a1461043157806341b273bb146104485780634c98ee7b146104ab5780634fc2c76c1461050257806351b699cd146105515780635c975abb146105945780635faa7cee146105c3578063715018a6146106445780637171e7571461065b5780637d95ff89146106cc57806380fabc911461071f57806381bf37021461077657806382507452146107f55780638456cb59146108425780638da5cb5b1461085957806391061d6f146108b05780639d5e693814610964578063ac21e313146109bb578063adfdeef914610a2c578063afc2779114610a6f578063b2aa5d0c14610ab4578063b50cbd9f14610b07578063b87822bd14610b5e578063b90a414914610ba3578063bad07ee714610bfc578063ca033e7d14610c3f578063d8818ad914610c96578063dd943d0414610cdf578063de1028e114610d36578063e564659714610da7578063e7ae81f714610dfe578063e91e48da14610e41578063f1f6396514610ec2578063f2fde38b14610fff578063f61fdeb814611042578063f78bdec6146110c3575b600080fd5b34801561021557600080fd5b5061024a600480360381019080803573ffffffffffffffffffffffffffffffffffffffff16906020019092919050505061116d565b005b34801561025857600080fd5b5061027b600480360381019080803560001916906020019092919050505061120c565b604051808273ffffffffffffffffffffffffffffffffffffffff1673ffffffffffffffffffffffffffffffffffffffff16815260200191505060405180910390f35b3480156102c957600080fd5b506102fe600480360381019080803573ffffffffffffffffffffffffffffffffffffffff169060200190929190505050611268565b005b34801561030c57600080fd5b50610339600480360381019080803560001916906020019092919080359060200190929190505050611307565b6040518082815260200191505060405180910390f35b34801561035b57600080fd5b5061037e6004803603810190808035600019169060200190929190505050611355565b604051808273ffffffffffffffffffffffffffffffffffffffff1673ffffffffffffffffffffffffffffffffffffffff16815260200191505060405180910390f35b3480156103cc57600080fd5b506103ef60048036038101908080356000191690602001909291905050506113b1565b604051808273ffffffffffffffffffffffffffffffffffffffff1673ffffffffffffffffffffffffffffffffffffffff16815260200191505060405180910390f35b34801561043d57600080fd5b5061044661140d565b005b34801561045457600080fd5b50610491600480360381019080803560001916906020019092919080356000191690602001909291908035151590602001909291905050506114cb565b604051808215151515815260200191505060405180910390f35b3480156104b757600080fd5b506104c0611548565b604051808273ffffffffffffffffffffffffffffffffffffffff1673ffffffffffffffffffffffffffffffffffffffff16815260200191505060405180910390f35b34801561050e57600080fd5b5061053b60048036038101908080356000191690602001909291908035906020019092919050505061156e565b6040518082815260200191505060405180910390f35b34801561055d57600080fd5b50610592600480360381019080803573ffffffffffffffffffffffffffffffffffffffff169060200190929190505050611646565b005b3480156105a057600080fd5b506105a9611804565b604051808215151515815260200191505060405180910390f35b3480156105cf57600080fd5b506106266004803603810190808035600019169060200190929190803573ffffffffffffffffffffffffffffffffffffffff1690602001909291908035906020019092919080359060200190929190505050611817565b60405180826000191660001916815260200191505060405180910390f35b34801561065057600080fd5b50610659611a49565b005b34801561066757600080fd5b5061068a6004803603810190808035600019169060200190929190505050611b4b565b604051808273ffffffffffffffffffffffffffffffffffffffff1673ffffffffffffffffffffffffffffffffffffffff16815260200191505060405180910390f35b3480156106d857600080fd5b5061070960048036038101908080356000191690602001909291908035600019169060200190929190505050611ba7565b6040518082815260200191505060405180910390f35b34801561072b57600080fd5b50610734611c01565b604051808273ffffffffffffffffffffffffffffffffffffffff1673ffffffffffffffffffffffffffffffffffffffff16815260200191505060405180910390f35b34801561078257600080fd5b506107b360048036038101908080356000191690602001909291908035600019169060200190929190505050611c27565b604051808273ffffffffffffffffffffffffffffffffffffffff1673ffffffffffffffffffffffffffffffffffffffff16815260200191505060405180910390f35b34801561080157600080fd5b506108246004803603810190808035600019169060200190929190505050611ca1565b60405180826000191660001916815260200191505060405180910390f35b34801561084e57600080fd5b50610857611cdd565b005b34801561086557600080fd5b5061086e611d9d565b604051808273ffffffffffffffffffffffffffffffffffffffff1673ffffffffffffffffffffffffffffffffffffffff16815260200191505060405180910390f35b3480156108bc57600080fd5b506108e9600480360381019080803560001916906020019092919080359060200190929190505050611dc2565b6040518080602001828103825283818151815260200191508051906020019080838360005b8381101561092957808201518184015260208101905061090e565b50505050905090810190601f1680156109565780820380516001836020036101000a031916815260200191505b509250505060405180910390f35b34801561097057600080fd5b506109a160048036038101908080356000191690602001909291908035600019169060200190929190505050611e94565b604051808215151515815260200191505060405180910390f35b3480156109c757600080fd5b506109ea6004803603810190808035600019169060200190929190505050611efb565b604051808273ffffffffffffffffffffffffffffffffffffffff1673ffffffffffffffffffffffffffffffffffffffff16815260200191505060405180910390f35b348015610a3857600080fd5b50610a6d600480360381019080803573ffffffffffffffffffffffffffffffffffffffff169060200190929190505050611f57565b005b348015610a7b57600080fd5b50610a9e6004803603810190808035600019169060200190929190505050611ff6565b6040518082815260200191505060405180910390f35b348015610ac057600080fd5b50610af160048036038101908080356000191690602001909291908035600019169060200190929190505050612032565b6040518082815260200191505060405180910390f35b348015610b1357600080fd5b50610b1c61208c565b604051808273ffffffffffffffffffffffffffffffffffffffff1673ffffffffffffffffffffffffffffffffffffffff16815260200191505060405180910390f35b348015610b6a57600080fd5b50610b8d60048036038101908080356000191690602001909291905050506120b2565b6040518082815260200191505060405180910390f35b348015610baf57600080fd5b50610be6600480360381019080803560001916906020019092919080359060200190929190803590602001909291905050506120ee565b6040518082815260200191505060405180910390f35b348015610c0857600080fd5b50610c3d600480360381019080803573ffffffffffffffffffffffffffffffffffffffff1690602001909291905050506121e9565b005b348015610c4b57600080fd5b50610c54612288565b604051808273ffffffffffffffffffffffffffffffffffffffff1673ffffffffffffffffffffffffffffffffffffffff16815260200191505060405180910390f35b348015610ca257600080fd5b50610cc560048036038101908080356000191690602001909291905050506122ae565b604051808215151515815260200191505060405180910390f35b348015610ceb57600080fd5b50610cf4612335565b604051808273ffffffffffffffffffffffffffffffffffffffff1673ffffffffffffffffffffffffffffffffffffffff16815260200191505060405180910390f35b348015610d4257600080fd5b50610d65600480360381019080803560001916906020019092919050505061235b565b604051808273ffffffffffffffffffffffffffffffffffffffff1673ffffffffffffffffffffffffffffffffffffffff16815260200191505060405180910390f35b348015610db357600080fd5b50610de4600480360381019080803560001916906020019092919080356000191690602001909291905050506123b7565b604051808215151515815260200191505060405180910390f35b348015610e0a57600080fd5b50610e3f600480360381019080803573ffffffffffffffffffffffffffffffffffffffff169060200190929190505050612470565b005b348015610e4d57600080fd5b50610ec0600480360381019080803560001916906020019092919080359060200190929190803590602001908201803590602001908080601f016020809104026020016040519081016040528093929190818152602001838380828437820191505050505050919291929050505061250f565b005b348015610ece57600080fd5b50610fe1600480360381019080803573ffffffffffffffffffffffffffffffffffffffff169060200190929190803573ffffffffffffffffffffffffffffffffffffffff169060200190929190803573ffffffffffffffffffffffffffffffffffffffff169060200190929190803573ffffffffffffffffffffffffffffffffffffffff169060200190929190803573ffffffffffffffffffffffffffffffffffffffff1690602001909291908035600019169060200190929190803590602001908201803590602001908080601f016020809104026020016040519081016040528093929190818152602001838380828437820191505050505050919291929080359060200190929190505050612561565b60405180826000191660001916815260200191505060405180910390f35b34801561100b57600080fd5b50611040600480360381019080803573ffffffffffffffffffffffffffffffffffffffff169060200190929190505050612fa3565b005b34801561104e57600080fd5b506110a56004803603810190808035600019169060200190929190803573ffffffffffffffffffffffffffffffffffffffff169060200190929190803590602001909291908035906020019092919050505061300a565b60405180826000191660001916815260200191505060405180910390f35b3480156110cf57600080fd5b506110f260048036038101908080356000191690602001909291905050506130fb565b6040518080602001828103825283818151815260200191508051906020019080838360005b83811015611132578082015181840152602081019050611117565b50505050905090810190601f16801561115f5780820380516001836020036101000a031916815260200191505b509250505060405180910390f35b6000809054906101000a900473ffffffffffffffffffffffffffffffffffffffff1673ffffffffffffffffffffffffffffffffffffffff163373ffffffffffffffffffffffffffffffffffffffff161415156111c857600080fd5b80600460006101000a81548173ffffffffffffffffffffffffffffffffffffffff021916908373ffffffffffffffffffffffffffffffffffffffff16021790555050565b6000611217826122ae565b151561122257600080fd5b60066000836000191660001916815260200190815260200160002060010160009054906101000a900473ffffffffffffffffffffffffffffffffffffffff169050919050565b6000809054906101000a900473ffffffffffffffffffffffffffffffffffffffff1673ffffffffffffffffffffffffffffffffffffffff163373ffffffffffffffffffffffffffffffffffffffff161415156112c357600080fd5b80600160006101000a81548173ffffffffffffffffffffffffffffffffffffffff021916908373ffffffffffffffffffffffffffffffffffffffff16021790555050565b6000611312836122ae565b151561131d57600080fd5b600660008460001916600019168152602001908152602001600020600a01600083815260200190815260200160002054905092915050565b6000611360826122ae565b151561136b57600080fd5b60066000836000191660001916815260200190815260200160002060030160009054906101000a900473ffffffffffffffffffffffffffffffffffffffff169050919050565b60006113bc826122ae565b15156113c757600080fd5b60066000836000191660001916815260200190815260200160002060000160009054906101000a900473ffffffffffffffffffffffffffffffffffffffff169050919050565b6000809054906101000a900473ffffffffffffffffffffffffffffffffffffffff1673ffffffffffffffffffffffffffffffffffffffff163373ffffffffffffffffffffffffffffffffffffffff1614151561146857600080fd5b600060149054906101000a900460ff16151561148357600080fd5b60008060146101000a81548160ff0219169083151502179055507f7805862f689e2f13df9f062ff482ad3ad112aca9e0847911ed832e158c525b3360405160405180910390a1565b60006114d633611646565b6114e084846123b7565b15156114eb57600080fd5b816006600086600019166000191681526020019081526020016000206009016000856000191660001916815260200190815260200160002060030160006101000a81548160ff021916908315150217905550600190509392505050565b600160009054906101000a900473ffffffffffffffffffffffffffffffffffffffff1681565b600061157933611646565b600073ffffffffffffffffffffffffffffffffffffffff1660066000856000191660001916815260200190815260200160002060080160009054906101000a900473ffffffffffffffffffffffffffffffffffffffff1673ffffffffffffffffffffffffffffffffffffffff16141515156115f357600080fd5b81600660008560001916600019168152602001908152602001600020600c0160008282540192505081905550600660008460001916600019168152602001908152602001600020600c0154905092915050565b600160009054906101000a900473ffffffffffffffffffffffffffffffffffffffff1673ffffffffffffffffffffffffffffffffffffffff168173ffffffffffffffffffffffffffffffffffffffff1614806116ef5750600260009054906101000a900473ffffffffffffffffffffffffffffffffffffffff1673ffffffffffffffffffffffffffffffffffffffff168173ffffffffffffffffffffffffffffffffffffffff16145b806117475750600360009054906101000a900473ffffffffffffffffffffffffffffffffffffffff1673ffffffffffffffffffffffffffffffffffffffff168173ffffffffffffffffffffffffffffffffffffffff16145b8061179f5750600460009054906101000a900473ffffffffffffffffffffffffffffffffffffffff1673ffffffffffffffffffffffffffffffffffffffff168173ffffffffffffffffffffffffffffffffffffffff16145b806117f657506000809054906101000a900473ffffffffffffffffffffffffffffffffffffffff1673ffffffffffffffffffffffffffffffffffffffff168173ffffffffffffffffffffffffffffffffffffffff16145b151561180157600080fd5b50565b600060149054906101000a900460ff1681565b60006118216132c9565b600061182c33611646565b600073ffffffffffffffffffffffffffffffffffffffff1660066000896000191660001916815260200190815260200160002060080160009054906101000a900473ffffffffffffffffffffffffffffffffffffffff1673ffffffffffffffffffffffffffffffffffffffff16141515156118a657600080fd5b6080604051908101604052808773ffffffffffffffffffffffffffffffffffffffff1681526020018681526020018581526020016000151581525091506118ef8787878761300a565b9050600073ffffffffffffffffffffffffffffffffffffffff166006600089600019166000191681526020019081526020016000206009016000836000191660001916815260200190815260200160002060000160009054906101000a900473ffffffffffffffffffffffffffffffffffffffff1673ffffffffffffffffffffffffffffffffffffffff1614151561198657600080fd5b816006600089600019166000191681526020019081526020016000206009016000836000191660001916815260200190815260200160002060008201518160000160006101000a81548173ffffffffffffffffffffffffffffffffffffffff021916908373ffffffffffffffffffffffffffffffffffffffff160217905550602082015181600101556040820151816002015560608201518160030160006101000a81548160ff0219169083151502179055509050508092505050949350505050565b6000809054906101000a900473ffffffffffffffffffffffffffffffffffffffff1673ffffffffffffffffffffffffffffffffffffffff163373ffffffffffffffffffffffffffffffffffffffff16141515611aa457600080fd5b6000809054906101000a900473ffffffffffffffffffffffffffffffffffffffff1673ffffffffffffffffffffffffffffffffffffffff167ff8df31144d9c2f0f6b59d69b8b98abd5459d07f2742c4df920b25aae33c6482060405160405180910390a260008060006101000a81548173ffffffffffffffffffffffffffffffffffffffff021916908373ffffffffffffffffffffffffffffffffffffffff160217905550565b6000611b56826122ae565b1515611b6157600080fd5b60066000836000191660001916815260200190815260200160002060040160009054906101000a900473ffffffffffffffffffffffffffffffffffffffff169050919050565b6000611bb383836123b7565b1515611bbe57600080fd5b6006600084600019166000191681526020019081526020016000206009016000836000191660001916815260200190815260200160002060010154905092915050565b600360009054906101000a900473ffffffffffffffffffffffffffffffffffffffff1681565b6000611c3383836123b7565b1515611c3e57600080fd5b6006600084600019166000191681526020019081526020016000206009016000836000191660001916815260200190815260200160002060000160009054906101000a900473ffffffffffffffffffffffffffffffffffffffff16905092915050565b6000611cac826122ae565b1515611cb757600080fd5b600660008360001916600019168152602001908152602001600020600501549050919050565b6000809054906101000a900473ffffffffffffffffffffffffffffffffffffffff1673ffffffffffffffffffffffffffffffffffffffff163373ffffffffffffffffffffffffffffffffffffffff16141515611d3857600080fd5b600060149054906101000a900460ff16151515611d5457600080fd5b6001600060146101000a81548160ff0219169083151502179055507f6985a02210a168e66602d3235cb6db0e70f92b3ba4d376a33c0f3d9434bff62560405160405180910390a1565b6000809054906101000a900473ffffffffffffffffffffffffffffffffffffffff1681565b6060600660008460001916600019168152602001908152602001600020600b0160008381526020019081526020016000208054600181600116156101000203166002900480601f016020809104026020016040519081016040528092919081815260200182805460018160011615610100020316600290048015611e875780601f10611e5c57610100808354040283529160200191611e87565b820191906000526020600020905b815481529060010190602001808311611e6a57829003601f168201915b5050505050905092915050565b6000611ea083836123b7565b1515611eab57600080fd5b6006600084600019166000191681526020019081526020016000206009016000836000191660001916815260200190815260200160002060030160009054906101000a900460ff16905092915050565b6000611f06826122ae565b1515611f1157600080fd5b60066000836000191660001916815260200190815260200160002060080160009054906101000a900473ffffffffffffffffffffffffffffffffffffffff169050919050565b6000809054906101000a900473ffffffffffffffffffffffffffffffffffffffff1673ffffffffffffffffffffffffffffffffffffffff163373ffffffffffffffffffffffffffffffffffffffff16141515611fb257600080fd5b80600760006101000a81548173ffffffffffffffffffffffffffffffffffffffff021916908373ffffffffffffffffffffffffffffffffffffffff16021790555050565b6000612001826122ae565b151561200c57600080fd5b600660008360001916600019168152602001908152602001600020600c01549050919050565b600061203e83836123b7565b151561204957600080fd5b6006600084600019166000191681526020019081526020016000206009016000836000191660001916815260200190815260200160002060020154905092915050565b600760009054906101000a900473ffffffffffffffffffffffffffffffffffffffff1681565b60006120bd826122ae565b15156120c857600080fd5b600660008360001916600019168152602001908152602001600020600701549050919050565b60006120f933611646565b600073ffffffffffffffffffffffffffffffffffffffff1660066000866000191660001916815260200190815260200160002060080160009054906101000a900473ffffffffffffffffffffffffffffffffffffffff1673ffffffffffffffffffffffffffffffffffffffff161415151561217357600080fd5b81600660008660001916600019168152602001908152602001600020600a01600085815260200190815260200160002060008282540192505081905550600660008560001916600019168152602001908152602001600020600a0160008481526020019081526020016000205490509392505050565b6000809054906101000a900473ffffffffffffffffffffffffffffffffffffffff1673ffffffffffffffffffffffffffffffffffffffff163373ffffffffffffffffffffffffffffffffffffffff1614151561224457600080fd5b80600260006101000a81548173ffffffffffffffffffffffffffffffffffffffff021916908373ffffffffffffffffffffffffffffffffffffffff16021790555050565b600460009054906101000a900473ffffffffffffffffffffffffffffffffffffffff1681565b60008073ffffffffffffffffffffffffffffffffffffffff1660066000846000191660001916815260200190815260200160002060080160009054906101000a900473ffffffffffffffffffffffffffffffffffffffff1673ffffffffffffffffffffffffffffffffffffffff16141561232b5760009050612330565b600190505b919050565b600260009054906101000a900473ffffffffffffffffffffffffffffffffffffffff1681565b6000612366826122ae565b151561237157600080fd5b60066000836000191660001916815260200190815260200160002060020160009054906101000a900473ffffffffffffffffffffffffffffffffffffffff169050919050565b60006123c2836122ae565b15156123cd57600080fd5b600073ffffffffffffffffffffffffffffffffffffffff166006600085600019166000191681526020019081526020016000206009016000846000191660001916815260200190815260200160002060000160009054906101000a900473ffffffffffffffffffffffffffffffffffffffff1673ffffffffffffffffffffffffffffffffffffffff161415612465576000905061246a565b600190505b92915050565b6000809054906101000a900473ffffffffffffffffffffffffffffffffffffffff1673ffffffffffffffffffffffffffffffffffffffff163373ffffffffffffffffffffffffffffffffffffffff161415156124cb57600080fd5b80600360006101000a81548173ffffffffffffffffffffffffffffffffffffffff021916908373ffffffffffffffffffffffffffffffffffffffff16021790555050565b61251833611646565b80600660008560001916600019168152602001908152602001600020600b016000848152602001908152602001600020908051906020019061255b92919061330a565b50505050565b600061256b61338a565b6000600760009054906101000a900473ffffffffffffffffffffffffffffffffffffffff1673ffffffffffffffffffffffffffffffffffffffff1663a67fcc9d8c6040518263ffffffff167c0100000000000000000000000000000000000000000000000000000000028152600401808273ffffffffffffffffffffffffffffffffffffffff1673ffffffffffffffffffffffffffffffffffffffff168152602001915050602060405180830381600087803b15801561262a57600080fd5b505af115801561263e573d6000803e3d6000fd5b505050506040513d602081101561265457600080fd5b8101908080519060200190929190505050151561267057600080fd5b600760009054906101000a900473ffffffffffffffffffffffffffffffffffffffff1673ffffffffffffffffffffffffffffffffffffffff1663a67fcc9d8b6040518263ffffffff167c0100000000000000000000000000000000000000000000000000000000028152600401808273ffffffffffffffffffffffffffffffffffffffff1673ffffffffffffffffffffffffffffffffffffffff168152602001915050602060405180830381600087803b15801561272d57600080fd5b505af1158015612741573d6000803e3d6000fd5b505050506040513d602081101561275757600080fd5b8101908080519060200190929190505050151561277357600080fd5b600760009054906101000a900473ffffffffffffffffffffffffffffffffffffffff1673ffffffffffffffffffffffffffffffffffffffff1663a67fcc9d896040518263ffffffff167c0100000000000000000000000000000000000000000000000000000000028152600401808273ffffffffffffffffffffffffffffffffffffffff1673ffffffffffffffffffffffffffffffffffffffff168152602001915050602060405180830381600087803b15801561283057600080fd5b505af1158015612844573d6000803e3d6000fd5b505050506040513d602081101561285a57600080fd5b8101908080519060200190929190505050151561287657600080fd5b600760009054906101000a900473ffffffffffffffffffffffffffffffffffffffff1673ffffffffffffffffffffffffffffffffffffffff1663a67fcc9d886040518263ffffffff167c0100000000000000000000000000000000000000000000000000000000028152600401808273ffffffffffffffffffffffffffffffffffffffff1673ffffffffffffffffffffffffffffffffffffffff168152602001915050602060405180830381600087803b15801561293357600080fd5b505af1158015612947573d6000803e3d6000fd5b505050506040513d602081101561295d57600080fd5b8101908080519060200190929190505050151561297957600080fd5b610140604051908101604052808c73ffffffffffffffffffffffffffffffffffffffff1681526020018b73ffffffffffffffffffffffffffffffffffffffff1681526020018a73ffffffffffffffffffffffffffffffffffffffff1681526020018973ffffffffffffffffffffffffffffffffffffffff1681526020018873ffffffffffffffffffffffffffffffffffffffff168152602001876000191681526020018681526020014281526020013373ffffffffffffffffffffffffffffffffffffffff168152602001600081525091508a8a8a8a8a8a8a42338c604051602001808b73ffffffffffffffffffffffffffffffffffffffff1673ffffffffffffffffffffffffffffffffffffffff166c010000000000000000000000000281526014018a73ffffffffffffffffffffffffffffffffffffffff1673ffffffffffffffffffffffffffffffffffffffff166c010000000000000000000000000281526014018973ffffffffffffffffffffffffffffffffffffffff1673ffffffffffffffffffffffffffffffffffffffff166c010000000000000000000000000281526014018873ffffffffffffffffffffffffffffffffffffffff1673ffffffffffffffffffffffffffffffffffffffff166c010000000000000000000000000281526014018773ffffffffffffffffffffffffffffffffffffffff1673ffffffffffffffffffffffffffffffffffffffff166c01000000000000000000000000028152601401866000191660001916815260200185805190602001908083835b602083101515612be05780518252602082019150602081019050602083039250612bbb565b6001836020036101000a0380198251168184511680821785525050505050509050018481526020018373ffffffffffffffffffffffffffffffffffffffff1673ffffffffffffffffffffffffffffffffffffffff166c010000000000000000000000000281526014018281526020019a50505050505050505050506040516020818303038152906040526040518082805190602001908083835b602083101515612c9f5780518252602082019150602081019050602083039250612c7a565b6001836020036101000a03801982511681845116808217855250505050505090500191505060405180910390209050600073ffffffffffffffffffffffffffffffffffffffff1660066000836000191660001916815260200190815260200160002060080160009054906101000a900473ffffffffffffffffffffffffffffffffffffffff1673ffffffffffffffffffffffffffffffffffffffff16141515612d4757600080fd5b8160066000836000191660001916815260200190815260200160002060008201518160000160006101000a81548173ffffffffffffffffffffffffffffffffffffffff021916908373ffffffffffffffffffffffffffffffffffffffff16021790555060208201518160010160006101000a81548173ffffffffffffffffffffffffffffffffffffffff021916908373ffffffffffffffffffffffffffffffffffffffff16021790555060408201518160020160006101000a81548173ffffffffffffffffffffffffffffffffffffffff021916908373ffffffffffffffffffffffffffffffffffffffff16021790555060608201518160030160006101000a81548173ffffffffffffffffffffffffffffffffffffffff021916908373ffffffffffffffffffffffffffffffffffffffff16021790555060808201518160040160006101000a81548173ffffffffffffffffffffffffffffffffffffffff021916908373ffffffffffffffffffffffffffffffffffffffff16021790555060a0820151816005019060001916905560c0820151816006019080519060200190612ef2929190613465565b5060e082015181600701556101008201518160080160006101000a81548173ffffffffffffffffffffffffffffffffffffffff021916908373ffffffffffffffffffffffffffffffffffffffff16021790555061012082015181600c01559050507f3e3f1562581d79765962e32ff89b9793d9b8feccbab14ae907be9a320c2dccf88160405180826000191660001916815260200191505060405180910390a1809250505098975050505050505050565b6000809054906101000a900473ffffffffffffffffffffffffffffffffffffffff1673ffffffffffffffffffffffffffffffffffffffff163373ffffffffffffffffffffffffffffffffffffffff16141515612ffe57600080fd5b613007816131cf565b50565b600084848484436040516020018086600019166000191681526020018573ffffffffffffffffffffffffffffffffffffffff1673ffffffffffffffffffffffffffffffffffffffff166c01000000000000000000000000028152601401848152602001838152602001828152602001955050505050506040516020818303038152906040526040518082805190602001908083835b6020831015156130c4578051825260208201915060208101905060208303925061309f565b6001836020036101000a03801982511681845116808217855250505050505090500191505060405180910390209050949350505050565b6060613106826122ae565b151561311157600080fd5b6006600083600019166000191681526020019081526020016000206006018054600181600116156101000203166002900480601f0160208091040260200160405190810160405280929190818152602001828054600181600116156101000203166002900480156131c35780601f10613198576101008083540402835291602001916131c3565b820191906000526020600020905b8154815290600101906020018083116131a657829003601f168201915b50505050509050919050565b600073ffffffffffffffffffffffffffffffffffffffff168173ffffffffffffffffffffffffffffffffffffffff161415151561320b57600080fd5b8073ffffffffffffffffffffffffffffffffffffffff166000809054906101000a900473ffffffffffffffffffffffffffffffffffffffff1673ffffffffffffffffffffffffffffffffffffffff167f8be0079c531659141344cd1fd0a4f28419497f9722a3daafe3b4186f6b6457e060405160405180910390a3806000806101000a81548173ffffffffffffffffffffffffffffffffffffffff021916908373ffffffffffffffffffffffffffffffffffffffff16021790555050565b608060405190810160405280600073ffffffffffffffffffffffffffffffffffffffff16815260200160008152602001600081526020016000151581525090565b828054600181600116156101000203166002900490600052602060002090601f016020900481019282601f1061334b57805160ff1916838001178555613379565b82800160010185558215613379579182015b8281111561337857825182559160200191906001019061335d565b5b50905061338691906134e5565b5090565b61014060405190810160405280600073ffffffffffffffffffffffffffffffffffffffff168152602001600073ffffffffffffffffffffffffffffffffffffffff168152602001600073ffffffffffffffffffffffffffffffffffffffff168152602001600073ffffffffffffffffffffffffffffffffffffffff168152602001600073ffffffffffffffffffffffffffffffffffffffff168152602001600080191681526020016060815260200160008152602001600073ffffffffffffffffffffffffffffffffffffffff168152602001600081525090565b828054600181600116156101000203166002900490600052602060002090601f016020900481019282601f106134a657805160ff19168380011785556134d4565b828001600101855582156134d4579182015b828111156134d35782518255916020019190600101906134b8565b5b5090506134e191906134e5565b5090565b61350791905b808211156135035760008160009055506001016134eb565b5090565b905600a165627a7a723058205e53357db4aa794bf3443b70fcd6c2b1a66e973eb4951d1fd8f386bb0c53bee20029",
  "source": "pragma solidity ^0.4.24;\n\n// Internal\nimport \"./RegistryStorage.sol\";\nimport \"./ProxyRegistry.sol\";\n// External\nimport \"openzeppelin-solidity/contracts/math/SafeMath.sol\";\n\n\n/**\n * The registry is a Eternal Storage contract that saves all the data for the\n * bet protocol. The rest of the contracts will communicate with this contract\n * with getters and setters to modify the data. They will be the interface for\n * for the protocol.\n *\n * Author: Carlos Gonzalez -- Github: carlosgj94\n */\n/** @title Bet BetRegistry. */\ncontract BetRegistry is RegistryStorage {\n    using SafeMath for uint;\n\n    // Events\n    event LogBetEntry(bytes32 _hash);\n\n    // Storage\n    ProxyRegistry public proxyRegistry;\n\n    constructor(\n        address _proxyRegistry,\n        address _betKernel,\n        address _betPayments,\n        address _betOracle,\n        address _betTerms\n    ) public {\n        proxyRegistry = ProxyRegistry(_proxyRegistry);\n        betKernel = _betKernel;\n        betPayments = _betPayments;\n        betOracle = _betOracle;\n        betTerms = _betTerms;\n    }\n\n    modifier onlyAuthorised {\n        isAuthorised(msg.sender);\n        _;\n    }\n\n    function setProxyRegistry(address _proxyRegistry) public onlyOwner {\n        proxyRegistry = ProxyRegistry(_proxyRegistry);\n    }\n\n    /**\n     * @dev Function to create bets in the registry\n     * @param _kernelProxy address Direction of the kernel proxy contract\n     * @param _paymentsProxy address Direction of the payments proxy contract\n     * @param _oracleProxy address Direction of the oracle proxy contract\n     * @param _termsProxy address Address of the terms proxy contract\n     * @param _termsHash bytes32 Address of the hash terms of the bet\n     * @param _salt uint random number to provide a unique hash\n     * @return bytes32 the that identifies the bet\n     */\n    function createBet(\n        address _kernelProxy,\n        address _paymentsProxy,\n        address _paymentsToken,\n        address _oracleProxy,\n        address _termsProxy,\n        bytes32 _termsHash,\n        string _title,\n        uint _salt\n    ) public returns(bytes32) {\n        require(proxyRegistry.addressInProxies(_kernelProxy));\n        require(proxyRegistry.addressInProxies(_paymentsProxy));\n        require(proxyRegistry.addressInProxies(_oracleProxy));\n        require(proxyRegistry.addressInProxies(_termsProxy));\n\n        BetEntry memory _entry = BetEntry(\n            _kernelProxy,\n            _paymentsProxy,\n            _paymentsToken,\n            _oracleProxy,\n            _termsProxy,\n            _termsHash,\n            _title,\n            block.timestamp,\n            msg.sender,\n            0\n        );\n        bytes32 _hash = keccak256(\n            abi.encodePacked(\n                _kernelProxy,\n                _paymentsProxy,\n                _paymentsToken,\n                _oracleProxy,\n                _termsProxy,\n                _termsHash,\n                _title,\n                block.timestamp,\n                msg.sender,\n                _salt\n            )\n        );\n        require(betRegistry[_hash].creator == address(0));\n\n        betRegistry[_hash] = _entry;\n        emit LogBetEntry(_hash);\n        return _hash;\n    }\n\n    // Setters to place a bet\n    // These are authorised only\n    function insertPlayerBet(\n        bytes32 _betHash,\n        address _sender,\n        uint _option,\n        uint _number\n    )\n        public\n        onlyAuthorised\n        returns(bytes32)\n    {\n        require(betRegistry[_betHash].creator != address(0));\n\n        PlayerBet memory _bet = PlayerBet(\n            _sender,\n            _option,\n            _number,\n            false\n        );\n\n        bytes32 _playerBetHash = getPlayerBetHash(\n            _betHash,\n            _sender,\n            _option,\n            _number\n        );\n\n        require(betRegistry[_betHash].playerBets[_playerBetHash].player == address(0));\n        betRegistry[_betHash].playerBets[_playerBetHash] = _bet;\n\n        return _playerBetHash;\n    }\n\n    /**\n     * @dev Function that lets you add to the principal\n     * @param _betHash bytes32 the bet\n     * @param _number uint the amount to add\n     * @return uint the totalPrincipal\n     */\n    function addTotalPrincipal(\n        bytes32 _betHash,\n        uint _number\n    )\n        public\n        onlyAuthorised\n        returns(uint)\n    {\n        require(betRegistry[_betHash].creator != address(0));\n\n        betRegistry[_betHash].totalPrincipal += _number;\n        return betRegistry[_betHash].totalPrincipal;\n    }\n\n    /**\n     * @dev Function that lets you add to an option\n     * @param _betHash bytes32 of the bet you want to get\n     * @param _option uint the option you are betting on\n     * @param _number uint the amount to add\n     * @return uint the amount in that option\n     */\n    function addToOption(\n        bytes32 _betHash,\n        uint _option,\n        uint _number\n    )\n        public\n        onlyAuthorised\n        returns(uint)\n    {\n        require(betRegistry[_betHash].creator != address(0));\n\n        betRegistry[_betHash].principalInOption[_option] += _number;\n\n        return betRegistry[_betHash].principalInOption[_option];\n    }\n\n    /**\n     * @dev Function that returns the hash a bet would have\n     * @param _betHash bytes32 the hash of the bet where place play will happen\n     * @param _sender address the address that wants to bet\n     * @param _option uint the option they want to bet on\n     * @param _number uint the parameter of the bet. This depends if it is an\n     * ERC20 or ERC721 token\n     * @return bytes32 the hash of the bet the player is going to make\n     */\n    function getPlayerBetHash(\n        bytes32 _betHash,\n        address _sender,\n        uint _option,\n        uint _number\n    )\n        public\n        view\n        returns(bytes32)\n    {\n        return keccak256(\n            abi.encodePacked(\n                _betHash,\n                _sender,\n                _option,\n                _number,\n                block.number\n            )\n        );\n\n    }\n\n    function setOptionTitle (\n        bytes32 _betHash,\n        uint _option,\n        string _title\n    )\n        public\n        onlyAuthorised\n    {\n        betRegistry[_betHash].optionTitles[_option] = _title;\n    }\n\n    // Getters\n    function getBetKernelProxy(\n        bytes32 _betHash\n    )\n        public\n        view\n        returns (address)\n    {\n        require(betExists(_betHash));\n\n        return betRegistry[_betHash].kernelProxy;\n    }\n\n    function getBetPaymentsProxy(\n        bytes32 _betHash\n    )\n        public\n        view\n        returns (address)\n    {\n        require(betExists(_betHash));\n\n        return betRegistry[_betHash].paymentsProxy;\n    }\n\n    function getBetPaymentsToken(\n        bytes32 _betHash\n    )\n        public\n        view\n        returns(address)\n    {\n        require(betExists(_betHash));\n\n        return betRegistry[_betHash].paymentsToken;\n    }\n\n    function getBetOracleProxy(bytes32 _betHash)\n        public\n        view\n        returns(address)\n    {\n        require(betExists(_betHash));\n\n        return betRegistry[_betHash].oracleProxy;\n    }\n\n    function getBetTermsProxy(\n        bytes32 _betHash\n    )\n        public\n        view\n        returns(address)\n    {\n        require(betExists(_betHash));\n\n        return betRegistry[_betHash].termsProxy;\n    }\n\n    function getBetTermsHash(\n        bytes32 _betHash\n    )\n        public\n        view\n        returns(bytes32)\n    {\n        require(betExists(_betHash));\n\n        return betRegistry[_betHash].termsHash;\n    }\n\n    function getBetTitle(\n        bytes32 _betHash\n    )\n        public\n        view\n        returns(string)\n    {\n        require(betExists(_betHash));\n\n        return betRegistry[_betHash].title;\n    }\n\n    function getBetDatetime(\n        bytes32 _betHash\n    )\n        public\n        view\n        returns(uint)\n    {\n        require(betExists(_betHash));\n\n        return betRegistry[_betHash].datetime;\n    }\n\n    function getBetCreator(\n        bytes32 _betHash\n    )\n        public\n        view\n        returns(address)\n    {\n        require(betExists(_betHash));\n\n        return betRegistry[_betHash].creator;\n    }\n\n    function getTotalPrincipal(\n        bytes32 _betHash\n    )\n        public\n        view\n        returns(uint)\n    {\n        require(betExists(_betHash));\n\n        return betRegistry[_betHash].totalPrincipal;\n    }\n\n    function getPrincipalInOption(\n        bytes32 _betHash,\n        uint _option\n    )\n        public\n        view\n        returns(uint)\n    {\n        require(betExists(_betHash));\n\n        return betRegistry[_betHash].principalInOption[_option];\n    }\n\n    function getOptionTitle(\n        bytes32 _betHash,\n        uint _option\n    )\n        public\n        view\n        returns(string)\n    {\n        return betRegistry[_betHash].optionTitles[_option];\n    }\n\n    function getPlayerBetPlayer(\n        bytes32 _betHash,\n        bytes32 _playerBetHash\n    )\n        public\n        view\n        returns(address)\n    {\n        require(playerBetExists(_betHash, _playerBetHash));\n\n        return betRegistry[_betHash].playerBets[_playerBetHash].player;\n    }\n\n    function getPlayerBetOption(\n        bytes32 _betHash,\n        bytes32 _playerBetHash\n    )\n        public\n        view\n        returns(uint)\n    {\n        require(playerBetExists(_betHash, _playerBetHash));\n\n        return betRegistry[_betHash].playerBets[_playerBetHash].option;\n    }\n\n    function getPlayerBetPrincipal(\n        bytes32 _betHash,\n        bytes32 _playerBetHash\n    )\n        public\n        view\n        returns(uint)\n    {\n        require(playerBetExists(_betHash, _playerBetHash));\n\n        return betRegistry[_betHash].playerBets[_playerBetHash].principal;\n    }\n\n    function getPlayerBetReturned(\n        bytes32 _betHash,\n        bytes32 _playerBetHash\n    )\n        public\n        view\n        returns(bool)\n    {\n        require(playerBetExists(_betHash, _playerBetHash));\n\n        return betRegistry[_betHash].playerBets[_playerBetHash].returned;\n    }\n\n    function betExists(bytes32 _betHash) public view returns(bool) {\n        if (betRegistry[_betHash].creator == address(0))\n            return false;\n        return true;\n    }\n\n    function playerBetExists(bytes32 _betHash, bytes32 _playerBetHash) public view returns(bool) {\n        require(betExists(_betHash));\n        if (betRegistry[_betHash].playerBets[_playerBetHash].player == address(0))\n            return false;\n        return true;\n    }\n\n    function setPlayerBetReturned(\n        bytes32 _betHash,\n        bytes32 _playerBetHash,\n        bool _returned\n    )\n        public\n        onlyAuthorised\n        returns(bool)\n    {\n        require(playerBetExists(_betHash, _playerBetHash));\n        betRegistry[_betHash].playerBets[_playerBetHash].returned = _returned;\n        return true;\n    }\n\n    function isAuthorised(address _sender) public view {\n        require(\n            _sender == betKernel ||\n            _sender == betPayments ||\n            _sender == betOracle ||\n            _sender == betTerms ||\n            _sender == owner\n        );\n    }\n}\n",
  "sourcePath": "/Users/carlosgonzalezjuarez/Documents/Development/GuesserProtocol/contracts/BetRegistry.sol",
  "compiler": {
    "name": "solc",
    "version": "0.4.25+commit.59dbf8f1.Emscripten.clang"
  },
  "schemaVersion": "3.0.0-beta.1",
  "updatedAt": "2018-11-05T16:42:08.014Z"
}