{
  "contractName": "BetRegistry",
  "abi": [
    {
      "constant": true,
      "inputs": [
        {
          "name": "",
          "type": "address"
        }
      ],
      "name": "oracleProxiesAllowance",
      "outputs": [
        {
          "name": "",
          "type": "bool"
        }
      ],
      "payable": false,
      "stateMutability": "view",
      "type": "function"
    },
    {
      "constant": false,
      "inputs": [
        {
          "name": "_termsProxy",
          "type": "address"
        },
        {
          "name": "_allowance",
          "type": "bool"
        }
      ],
      "name": "setTermsProxiesAllowance",
      "outputs": [],
      "payable": false,
      "stateMutability": "nonpayable",
      "type": "function"
    },
    {
      "constant": false,
      "inputs": [],
      "name": "unpause",
      "outputs": [],
      "payable": false,
      "stateMutability": "nonpayable",
      "type": "function"
    },
    {
      "constant": true,
      "inputs": [
        {
          "name": "",
          "type": "address"
        }
      ],
      "name": "paymentsProxiesAllowance",
      "outputs": [
        {
          "name": "",
          "type": "bool"
        }
      ],
      "payable": false,
      "stateMutability": "view",
      "type": "function"
    },
    {
      "constant": true,
      "inputs": [],
      "name": "betKernel",
      "outputs": [
        {
          "name": "",
          "type": "address"
        }
      ],
      "payable": false,
      "stateMutability": "view",
      "type": "function"
    },
    {
      "constant": true,
      "inputs": [],
      "name": "paused",
      "outputs": [
        {
          "name": "",
          "type": "bool"
        }
      ],
      "payable": false,
      "stateMutability": "view",
      "type": "function"
    },
    {
      "constant": false,
      "inputs": [],
      "name": "renounceOwnership",
      "outputs": [],
      "payable": false,
      "stateMutability": "nonpayable",
      "type": "function"
    },
    {
      "constant": true,
      "inputs": [],
      "name": "betOracle",
      "outputs": [
        {
          "name": "",
          "type": "address"
        }
      ],
      "payable": false,
      "stateMutability": "view",
      "type": "function"
    },
    {
      "constant": false,
      "inputs": [],
      "name": "pause",
      "outputs": [],
      "payable": false,
      "stateMutability": "nonpayable",
      "type": "function"
    },
    {
      "constant": true,
      "inputs": [],
      "name": "owner",
      "outputs": [
        {
          "name": "",
          "type": "address"
        }
      ],
      "payable": false,
      "stateMutability": "view",
      "type": "function"
    },
    {
      "constant": true,
      "inputs": [
        {
          "name": "",
          "type": "address"
        }
      ],
      "name": "termsProxiesAllowance",
      "outputs": [
        {
          "name": "",
          "type": "bool"
        }
      ],
      "payable": false,
      "stateMutability": "view",
      "type": "function"
    },
    {
      "constant": true,
      "inputs": [
        {
          "name": "_proxy",
          "type": "address"
        }
      ],
      "name": "addressInProxies",
      "outputs": [
        {
          "name": "",
          "type": "bool"
        }
      ],
      "payable": false,
      "stateMutability": "view",
      "type": "function"
    },
    {
      "constant": true,
      "inputs": [],
      "name": "proxyRegistry",
      "outputs": [
        {
          "name": "",
          "type": "address"
        }
      ],
      "payable": false,
      "stateMutability": "view",
      "type": "function"
    },
    {
      "constant": false,
      "inputs": [
        {
          "name": "_kernelProxy",
          "type": "address"
        },
        {
          "name": "_allowance",
          "type": "bool"
        }
      ],
      "name": "setKernelProxiesAllowance",
      "outputs": [],
      "payable": false,
      "stateMutability": "nonpayable",
      "type": "function"
    },
    {
      "constant": true,
      "inputs": [
        {
          "name": "",
          "type": "address"
        }
      ],
      "name": "kernelProxiesAllowance",
      "outputs": [
        {
          "name": "",
          "type": "bool"
        }
      ],
      "payable": false,
      "stateMutability": "view",
      "type": "function"
    },
    {
      "constant": false,
      "inputs": [
        {
          "name": "_oracleProxy",
          "type": "address"
        },
        {
          "name": "_allowance",
          "type": "bool"
        }
      ],
      "name": "setOracleProxiesAllowance",
      "outputs": [],
      "payable": false,
      "stateMutability": "nonpayable",
      "type": "function"
    },
    {
      "constant": true,
      "inputs": [],
      "name": "betTerms",
      "outputs": [
        {
          "name": "",
          "type": "address"
        }
      ],
      "payable": false,
      "stateMutability": "view",
      "type": "function"
    },
    {
      "constant": true,
      "inputs": [],
      "name": "betPayments",
      "outputs": [
        {
          "name": "",
          "type": "address"
        }
      ],
      "payable": false,
      "stateMutability": "view",
      "type": "function"
    },
    {
      "constant": false,
      "inputs": [
        {
          "name": "_newOwner",
          "type": "address"
        }
      ],
      "name": "transferOwnership",
      "outputs": [],
      "payable": false,
      "stateMutability": "nonpayable",
      "type": "function"
    },
    {
      "constant": false,
      "inputs": [
        {
          "name": "_paymentsProxy",
          "type": "address"
        },
        {
          "name": "_allowance",
          "type": "bool"
        }
      ],
      "name": "setPaymentsProxiesAllowance",
      "outputs": [],
      "payable": false,
      "stateMutability": "nonpayable",
      "type": "function"
    },
    {
      "inputs": [
        {
          "name": "_betKernel",
          "type": "address"
        },
        {
          "name": "_betPayments",
          "type": "address"
        },
        {
          "name": "_betOracle",
          "type": "address"
        },
        {
          "name": "_betTerms",
          "type": "address"
        }
      ],
      "payable": false,
      "stateMutability": "nonpayable",
      "type": "constructor"
    },
    {
      "anonymous": false,
      "inputs": [
        {
          "indexed": false,
          "name": "_hash",
          "type": "bytes32"
        }
      ],
      "name": "LogBetEntry",
      "type": "event"
    },
    {
      "anonymous": false,
      "inputs": [],
      "name": "Pause",
      "type": "event"
    },
    {
      "anonymous": false,
      "inputs": [],
      "name": "Unpause",
      "type": "event"
    },
    {
      "anonymous": false,
      "inputs": [
        {
          "indexed": true,
          "name": "previousOwner",
          "type": "address"
        }
      ],
      "name": "OwnershipRenounced",
      "type": "event"
    },
    {
      "anonymous": false,
      "inputs": [
        {
          "indexed": true,
          "name": "previousOwner",
          "type": "address"
        },
        {
          "indexed": true,
          "name": "newOwner",
          "type": "address"
        }
      ],
      "name": "OwnershipTransferred",
      "type": "event"
    },
    {
      "constant": false,
      "inputs": [
        {
          "name": "_betKernel",
          "type": "address"
        }
      ],
      "name": "setBetKernel",
      "outputs": [],
      "payable": false,
      "stateMutability": "nonpayable",
      "type": "function"
    },
    {
      "constant": false,
      "inputs": [
        {
          "name": "_betPayments",
          "type": "address"
        }
      ],
      "name": "setBetPayments",
      "outputs": [],
      "payable": false,
      "stateMutability": "nonpayable",
      "type": "function"
    },
    {
      "constant": false,
      "inputs": [
        {
          "name": "_betOracle",
          "type": "address"
        }
      ],
      "name": "setBetOracle",
      "outputs": [],
      "payable": false,
      "stateMutability": "nonpayable",
      "type": "function"
    },
    {
      "constant": false,
      "inputs": [
        {
          "name": "_betTerms",
          "type": "address"
        }
      ],
      "name": "setBetTerms",
      "outputs": [],
      "payable": false,
      "stateMutability": "nonpayable",
      "type": "function"
    },
    {
      "constant": false,
      "inputs": [
        {
          "name": "_kernelProxy",
          "type": "address"
        },
        {
          "name": "_paymentsProxy",
          "type": "address"
        },
        {
          "name": "_paymentsToken",
          "type": "address"
        },
        {
          "name": "_oracleProxy",
          "type": "address"
        },
        {
          "name": "_termsProxy",
          "type": "address"
        },
        {
          "name": "_termsHash",
          "type": "bytes32"
        },
        {
          "name": "_title",
          "type": "string"
        },
        {
          "name": "_salt",
          "type": "uint256"
        }
      ],
      "name": "createBet",
      "outputs": [
        {
          "name": "",
          "type": "bytes32"
        }
      ],
      "payable": false,
      "stateMutability": "nonpayable",
      "type": "function"
    },
    {
      "constant": false,
      "inputs": [
        {
          "name": "_betHash",
          "type": "bytes32"
        },
        {
          "name": "_sender",
          "type": "address"
        },
        {
          "name": "_option",
          "type": "uint256"
        },
        {
          "name": "_amount",
          "type": "uint256"
        }
      ],
      "name": "placeBet",
      "outputs": [
        {
          "name": "",
          "type": "bytes32"
        }
      ],
      "payable": false,
      "stateMutability": "nonpayable",
      "type": "function"
    },
    {
      "constant": true,
      "inputs": [
        {
          "name": "_betHash",
          "type": "bytes32"
        }
      ],
      "name": "getBetKernelProxy",
      "outputs": [
        {
          "name": "",
          "type": "address"
        }
      ],
      "payable": false,
      "stateMutability": "view",
      "type": "function"
    },
    {
      "constant": true,
      "inputs": [
        {
          "name": "_betHash",
          "type": "bytes32"
        }
      ],
      "name": "getBetPaymentsProxy",
      "outputs": [
        {
          "name": "",
          "type": "address"
        }
      ],
      "payable": false,
      "stateMutability": "view",
      "type": "function"
    },
    {
      "constant": true,
      "inputs": [
        {
          "name": "_betHash",
          "type": "bytes32"
        }
      ],
      "name": "getBetPaymentsToken",
      "outputs": [
        {
          "name": "",
          "type": "address"
        }
      ],
      "payable": false,
      "stateMutability": "view",
      "type": "function"
    },
    {
      "constant": true,
      "inputs": [
        {
          "name": "_betHash",
          "type": "bytes32"
        }
      ],
      "name": "getBetOracleProxy",
      "outputs": [
        {
          "name": "",
          "type": "address"
        }
      ],
      "payable": false,
      "stateMutability": "view",
      "type": "function"
    },
    {
      "constant": true,
      "inputs": [
        {
          "name": "_betHash",
          "type": "bytes32"
        }
      ],
      "name": "getBetTermsProxy",
      "outputs": [
        {
          "name": "",
          "type": "address"
        }
      ],
      "payable": false,
      "stateMutability": "view",
      "type": "function"
    },
    {
      "constant": true,
      "inputs": [
        {
          "name": "_betHash",
          "type": "bytes32"
        }
      ],
      "name": "getBetTermsHash",
      "outputs": [
        {
          "name": "",
          "type": "bytes32"
        }
      ],
      "payable": false,
      "stateMutability": "view",
      "type": "function"
    },
    {
      "constant": true,
      "inputs": [
        {
          "name": "_betHash",
          "type": "bytes32"
        }
      ],
      "name": "getBetTitle",
      "outputs": [
        {
          "name": "",
          "type": "string"
        }
      ],
      "payable": false,
      "stateMutability": "view",
      "type": "function"
    },
    {
      "constant": true,
      "inputs": [
        {
          "name": "_betHash",
          "type": "bytes32"
        }
      ],
      "name": "getBetDatetime",
      "outputs": [
        {
          "name": "",
          "type": "uint256"
        }
      ],
      "payable": false,
      "stateMutability": "view",
      "type": "function"
    },
    {
      "constant": true,
      "inputs": [
        {
          "name": "_betHash",
          "type": "bytes32"
        }
      ],
      "name": "getBetCreator",
      "outputs": [
        {
          "name": "",
          "type": "address"
        }
      ],
      "payable": false,
      "stateMutability": "view",
      "type": "function"
    },
    {
      "constant": true,
      "inputs": [
        {
          "name": "_betHash",
          "type": "bytes32"
        }
      ],
      "name": "getTotalPrincipal",
      "outputs": [
        {
          "name": "",
          "type": "uint256"
        }
      ],
      "payable": false,
      "stateMutability": "view",
      "type": "function"
    },
    {
      "constant": true,
      "inputs": [
        {
          "name": "_betHash",
          "type": "bytes32"
        },
        {
          "name": "_option",
          "type": "uint256"
        }
      ],
      "name": "getPrincipalInOption",
      "outputs": [
        {
          "name": "",
          "type": "uint256"
        }
      ],
      "payable": false,
      "stateMutability": "view",
      "type": "function"
    },
    {
      "constant": true,
      "inputs": [
        {
          "name": "_betHash",
          "type": "bytes32"
        },
        {
          "name": "_playerBetHash",
          "type": "bytes32"
        }
      ],
      "name": "getPlayerBetPlayer",
      "outputs": [
        {
          "name": "",
          "type": "address"
        }
      ],
      "payable": false,
      "stateMutability": "view",
      "type": "function"
    },
    {
      "constant": true,
      "inputs": [
        {
          "name": "_betHash",
          "type": "bytes32"
        },
        {
          "name": "_playerBetHash",
          "type": "bytes32"
        }
      ],
      "name": "getPlayerBetOption",
      "outputs": [
        {
          "name": "",
          "type": "uint256"
        }
      ],
      "payable": false,
      "stateMutability": "view",
      "type": "function"
    },
    {
      "constant": true,
      "inputs": [
        {
          "name": "_betHash",
          "type": "bytes32"
        },
        {
          "name": "_playerBetHash",
          "type": "bytes32"
        }
      ],
      "name": "getPlayerBetPrincipal",
      "outputs": [
        {
          "name": "",
          "type": "uint256"
        }
      ],
      "payable": false,
      "stateMutability": "view",
      "type": "function"
    },
    {
      "constant": true,
      "inputs": [
        {
          "name": "_betHash",
          "type": "bytes32"
        },
        {
          "name": "_playerBetHash",
          "type": "bytes32"
        }
      ],
      "name": "getPlayerBetReturned",
      "outputs": [
        {
          "name": "",
          "type": "bool"
        }
      ],
      "payable": false,
      "stateMutability": "view",
      "type": "function"
    },
    {
      "constant": true,
      "inputs": [
        {
          "name": "_betHash",
          "type": "bytes32"
        }
      ],
      "name": "betExists",
      "outputs": [
        {
          "name": "",
          "type": "bool"
        }
      ],
      "payable": false,
      "stateMutability": "view",
      "type": "function"
    },
    {
      "constant": true,
      "inputs": [
        {
          "name": "_betHash",
          "type": "bytes32"
        },
        {
          "name": "_playerBetHash",
          "type": "bytes32"
        }
      ],
      "name": "playerBetExists",
      "outputs": [
        {
          "name": "",
          "type": "bool"
        }
      ],
      "payable": false,
      "stateMutability": "view",
      "type": "function"
    },
    {
      "constant": false,
      "inputs": [
        {
          "name": "_betHash",
          "type": "bytes32"
        },
        {
          "name": "_playerBetHash",
          "type": "bytes32"
        },
        {
          "name": "_returned",
          "type": "bool"
        }
      ],
      "name": "setPlayerBetReturned",
      "outputs": [
        {
          "name": "",
          "type": "bool"
        }
      ],
      "payable": false,
      "stateMutability": "nonpayable",
      "type": "function"
    },
    {
      "constant": true,
      "inputs": [
        {
          "name": "_sender",
          "type": "address"
        }
      ],
      "name": "isAuthorised",
      "outputs": [],
      "payable": false,
      "stateMutability": "view",
      "type": "function"
    }
  ],
  "bytecode": "0x60806040526000600660146101000a81548160ff02191690831515021790555034801561002b57600080fd5b506040516080806138368339810180604052810190808051906020019092919080519060200190929190805190602001909291908051906020019092919050505033600660006101000a81548173ffffffffffffffffffffffffffffffffffffffff021916908373ffffffffffffffffffffffffffffffffffffffff160217905550836000806101000a81548173ffffffffffffffffffffffffffffffffffffffff021916908373ffffffffffffffffffffffffffffffffffffffff16021790555082600160006101000a81548173ffffffffffffffffffffffffffffffffffffffff021916908373ffffffffffffffffffffffffffffffffffffffff16021790555081600260006101000a81548173ffffffffffffffffffffffffffffffffffffffff021916908373ffffffffffffffffffffffffffffffffffffffff16021790555080600360006101000a81548173ffffffffffffffffffffffffffffffffffffffff021916908373ffffffffffffffffffffffffffffffffffffffff16021790555050505050613673806101c36000396000f300608060405260043610610225576000357c0100000000000000000000000000000000000000000000000000000000900463ffffffff16806308fb09701461022a57806314715bcc1461026d578063171f1af1146102de57806323cc137a146103215780632659a0741461037c57806330cdb40d146103cb5780633a8100d11461043c5780633cbede6b146104ad5780633f4ba83a146104fc57806341b273bb1461051357806342f0a13a146105765780634c98ee7b146105d157806351b699cd146106285780635c975abb1461066b578063715018a61461069a5780637171e757146106b15780637d95ff891461072257806380fabc911461077557806381bf3702146107cc578063825074521461084b5780638456cb59146108985780638da5cb5b146108af5780639d4faab3146109065780639d5e693814610961578063a67fcc9d146109b8578063ac21e31314610a13578063afc2779114610a84578063b2aa5d0c14610ac9578063b50cbd9f14610b1c578063b87822bd14610b73578063b943bb9914610bb8578063bad07ee714610c07578063bd26e0df14610c4a578063c4a68d1014610ca5578063ca033e7d14610cf4578063d8818ad914610d4b578063dd943d0414610d94578063de1028e114610deb578063e564659714610e5c578063e7ae81f714610eb3578063edda9b2914610ef6578063f1f6396514610f77578063f2fde38b146110b4578063f78bdec6146110f7578063fb46edb3146111a1575b600080fd5b34801561023657600080fd5b5061026b600480360381019080803573ffffffffffffffffffffffffffffffffffffffff1690602001909291905050506111f0565b005b34801561027957600080fd5b5061029c6004803603810190808035600019169060200190929190505050611290565b604051808273ffffffffffffffffffffffffffffffffffffffff1673ffffffffffffffffffffffffffffffffffffffff16815260200191505060405180910390f35b3480156102ea57600080fd5b5061031f600480360381019080803573ffffffffffffffffffffffffffffffffffffffff1690602001909291905050506112ec565b005b34801561032d57600080fd5b50610362600480360381019080803573ffffffffffffffffffffffffffffffffffffffff16906020019092919050505061138b565b604051808215151515815260200191505060405180910390f35b34801561038857600080fd5b506103b56004803603810190808035600019169060200190929190803590602001909291905050506113ab565b6040518082815260200191505060405180910390f35b3480156103d757600080fd5b506103fa60048036038101908080356000191690602001909291905050506113f9565b604051808273ffffffffffffffffffffffffffffffffffffffff1673ffffffffffffffffffffffffffffffffffffffff16815260200191505060405180910390f35b34801561044857600080fd5b5061046b6004803603810190808035600019169060200190929190505050611455565b604051808273ffffffffffffffffffffffffffffffffffffffff1673ffffffffffffffffffffffffffffffffffffffff16815260200191505060405180910390f35b3480156104b957600080fd5b506104fa600480360381019080803573ffffffffffffffffffffffffffffffffffffffff1690602001909291908035151590602001909291905050506114b1565b005b34801561050857600080fd5b50610511611568565b005b34801561051f57600080fd5b5061055c60048036038101908080356000191690602001909291908035600019169060200190929190803515159060200190929190505050611628565b604051808215151515815260200191505060405180910390f35b34801561058257600080fd5b506105b7600480360381019080803573ffffffffffffffffffffffffffffffffffffffff169060200190929190505050611857565b604051808215151515815260200191505060405180910390f35b3480156105dd57600080fd5b506105e6611877565b604051808273ffffffffffffffffffffffffffffffffffffffff1673ffffffffffffffffffffffffffffffffffffffff16815260200191505060405180910390f35b34801561063457600080fd5b50610669600480360381019080803573ffffffffffffffffffffffffffffffffffffffff16906020019092919050505061189c565b005b34801561067757600080fd5b50610680611a5a565b604051808215151515815260200191505060405180910390f35b3480156106a657600080fd5b506106af611a6d565b005b3480156106bd57600080fd5b506106e06004803603810190808035600019169060200190929190505050611b72565b604051808273ffffffffffffffffffffffffffffffffffffffff1673ffffffffffffffffffffffffffffffffffffffff16815260200191505060405180910390f35b34801561072e57600080fd5b5061075f60048036038101908080356000191690602001909291908035600019169060200190929190505050611bce565b6040518082815260200191505060405180910390f35b34801561078157600080fd5b5061078a611c28565b604051808273ffffffffffffffffffffffffffffffffffffffff1673ffffffffffffffffffffffffffffffffffffffff16815260200191505060405180910390f35b3480156107d857600080fd5b5061080960048036038101908080356000191690602001909291908035600019169060200190929190505050611c4e565b604051808273ffffffffffffffffffffffffffffffffffffffff1673ffffffffffffffffffffffffffffffffffffffff16815260200191505060405180910390f35b34801561085757600080fd5b5061087a6004803603810190808035600019169060200190929190505050611cc8565b60405180826000191660001916815260200191505060405180910390f35b3480156108a457600080fd5b506108ad611d04565b005b3480156108bb57600080fd5b506108c4611dc5565b604051808273ffffffffffffffffffffffffffffffffffffffff1673ffffffffffffffffffffffffffffffffffffffff16815260200191505060405180910390f35b34801561091257600080fd5b50610947600480360381019080803573ffffffffffffffffffffffffffffffffffffffff169060200190929190505050611deb565b604051808215151515815260200191505060405180910390f35b34801561096d57600080fd5b5061099e60048036038101908080356000191690602001909291908035600019169060200190929190505050611e0b565b604051808215151515815260200191505060405180910390f35b3480156109c457600080fd5b506109f9600480360381019080803573ffffffffffffffffffffffffffffffffffffffff169060200190929190505050611e72565b604051808215151515815260200191505060405180910390f35b348015610a1f57600080fd5b50610a426004803603810190808035600019169060200190929190505050611ff1565b604051808273ffffffffffffffffffffffffffffffffffffffff1673ffffffffffffffffffffffffffffffffffffffff16815260200191505060405180910390f35b348015610a9057600080fd5b50610ab3600480360381019080803560001916906020019092919050505061204d565b6040518082815260200191505060405180910390f35b348015610ad557600080fd5b50610b0660048036038101908080356000191690602001909291908035600019169060200190929190505050612089565b6040518082815260200191505060405180910390f35b348015610b2857600080fd5b50610b316120e3565b604051808273ffffffffffffffffffffffffffffffffffffffff1673ffffffffffffffffffffffffffffffffffffffff16815260200191505060405180910390f35b348015610b7f57600080fd5b50610ba26004803603810190808035600019169060200190929190505050612109565b6040518082815260200191505060405180910390f35b348015610bc457600080fd5b50610c05600480360381019080803573ffffffffffffffffffffffffffffffffffffffff169060200190929190803515159060200190929190505050612145565b005b348015610c1357600080fd5b50610c48600480360381019080803573ffffffffffffffffffffffffffffffffffffffff1690602001909291905050506121fc565b005b348015610c5657600080fd5b50610c8b600480360381019080803573ffffffffffffffffffffffffffffffffffffffff16906020019092919050505061229c565b604051808215151515815260200191505060405180910390f35b348015610cb157600080fd5b50610cf2600480360381019080803573ffffffffffffffffffffffffffffffffffffffff1690602001909291908035151590602001909291905050506122bc565b005b348015610d0057600080fd5b50610d09612373565b604051808273ffffffffffffffffffffffffffffffffffffffff1673ffffffffffffffffffffffffffffffffffffffff16815260200191505060405180910390f35b348015610d5757600080fd5b50610d7a6004803603810190808035600019169060200190929190505050612399565b604051808215151515815260200191505060405180910390f35b348015610da057600080fd5b50610da9612420565b604051808273ffffffffffffffffffffffffffffffffffffffff1673ffffffffffffffffffffffffffffffffffffffff16815260200191505060405180910390f35b348015610df757600080fd5b50610e1a6004803603810190808035600019169060200190929190505050612446565b604051808273ffffffffffffffffffffffffffffffffffffffff1673ffffffffffffffffffffffffffffffffffffffff16815260200191505060405180910390f35b348015610e6857600080fd5b50610e99600480360381019080803560001916906020019092919080356000191690602001909291905050506124a2565b604051808215151515815260200191505060405180910390f35b348015610ebf57600080fd5b50610ef4600480360381019080803573ffffffffffffffffffffffffffffffffffffffff16906020019092919050505061255b565b005b348015610f0257600080fd5b50610f596004803603810190808035600019169060200190929190803573ffffffffffffffffffffffffffffffffffffffff16906020019092919080359060200190929190803590602001909291905050506125fb565b60405180826000191660001916815260200191505060405180910390f35b348015610f8357600080fd5b50611096600480360381019080803573ffffffffffffffffffffffffffffffffffffffff169060200190929190803573ffffffffffffffffffffffffffffffffffffffff169060200190929190803573ffffffffffffffffffffffffffffffffffffffff169060200190929190803573ffffffffffffffffffffffffffffffffffffffff169060200190929190803573ffffffffffffffffffffffffffffffffffffffff1690602001909291908035600019169060200190929190803590602001908201803590602001908080601f016020809104026020016040519081016040528093929190818152602001838380828437820191505050505050919291929080359060200190929190505050612b11565b60405180826000191660001916815260200191505060405180910390f35b3480156110c057600080fd5b506110f5600480360381019080803573ffffffffffffffffffffffffffffffffffffffff169060200190929190505050613197565b005b34801561110357600080fd5b5061112660048036038101908080356000191690602001909291905050506131ff565b6040518080602001828103825283818151815260200191508051906020019080838360005b8381101561116657808201518184015260208101905061114b565b50505050905090810190601f1680156111935780820380516001836020036101000a031916815260200191505b509250505060405180910390f35b3480156111ad57600080fd5b506111ee600480360381019080803573ffffffffffffffffffffffffffffffffffffffff1690602001909291908035151590602001909291905050506132d3565b005b600660009054906101000a900473ffffffffffffffffffffffffffffffffffffffff1673ffffffffffffffffffffffffffffffffffffffff163373ffffffffffffffffffffffffffffffffffffffff1614151561124c57600080fd5b80600360006101000a81548173ffffffffffffffffffffffffffffffffffffffff021916908373ffffffffffffffffffffffffffffffffffffffff16021790555050565b600061129b82612399565b15156112a657600080fd5b60056000836000191660001916815260200190815260200160002060010160009054906101000a900473ffffffffffffffffffffffffffffffffffffffff169050919050565b600660009054906101000a900473ffffffffffffffffffffffffffffffffffffffff1673ffffffffffffffffffffffffffffffffffffffff163373ffffffffffffffffffffffffffffffffffffffff1614151561134857600080fd5b806000806101000a81548173ffffffffffffffffffffffffffffffffffffffff021916908373ffffffffffffffffffffffffffffffffffffffff16021790555050565b60096020528060005260406000206000915054906101000a900460ff1681565b60006113b683612399565b15156113c157600080fd5b600560008460001916600019168152602001908152602001600020600a01600083815260200190815260200160002054905092915050565b600061140482612399565b151561140f57600080fd5b60056000836000191660001916815260200190815260200160002060030160009054906101000a900473ffffffffffffffffffffffffffffffffffffffff169050919050565b600061146082612399565b151561146b57600080fd5b60056000836000191660001916815260200190815260200160002060000160009054906101000a900473ffffffffffffffffffffffffffffffffffffffff169050919050565b600660009054906101000a900473ffffffffffffffffffffffffffffffffffffffff1673ffffffffffffffffffffffffffffffffffffffff163373ffffffffffffffffffffffffffffffffffffffff1614151561150d57600080fd5b80600a60008473ffffffffffffffffffffffffffffffffffffffff1673ffffffffffffffffffffffffffffffffffffffff16815260200190815260200160002060006101000a81548160ff0219169083151502179055505050565b600660009054906101000a900473ffffffffffffffffffffffffffffffffffffffff1673ffffffffffffffffffffffffffffffffffffffff163373ffffffffffffffffffffffffffffffffffffffff161415156115c457600080fd5b600660149054906101000a900460ff1615156115df57600080fd5b6000600660146101000a81548160ff0219169083151502179055507f7805862f689e2f13df9f062ff482ad3ad112aca9e0847911ed832e158c525b3360405160405180910390a1565b60008060009054906101000a900473ffffffffffffffffffffffffffffffffffffffff1673ffffffffffffffffffffffffffffffffffffffff163373ffffffffffffffffffffffffffffffffffffffff1614806116d25750600160009054906101000a900473ffffffffffffffffffffffffffffffffffffffff1673ffffffffffffffffffffffffffffffffffffffff163373ffffffffffffffffffffffffffffffffffffffff16145b8061172a5750600260009054906101000a900473ffffffffffffffffffffffffffffffffffffffff1673ffffffffffffffffffffffffffffffffffffffff163373ffffffffffffffffffffffffffffffffffffffff16145b806117825750600360009054906101000a900473ffffffffffffffffffffffffffffffffffffffff1673ffffffffffffffffffffffffffffffffffffffff163373ffffffffffffffffffffffffffffffffffffffff16145b806117da5750600660009054906101000a900473ffffffffffffffffffffffffffffffffffffffff1673ffffffffffffffffffffffffffffffffffffffff163373ffffffffffffffffffffffffffffffffffffffff16145b15156117e557600080fd5b6117ef84846124a2565b15156117fa57600080fd5b816005600086600019166000191681526020019081526020016000206009016000856000191660001916815260200190815260200160002060030160006101000a81548160ff021916908315150217905550600190509392505050565b60086020528060005260406000206000915054906101000a900460ff1681565b6000809054906101000a900473ffffffffffffffffffffffffffffffffffffffff1681565b6000809054906101000a900473ffffffffffffffffffffffffffffffffffffffff1673ffffffffffffffffffffffffffffffffffffffff168173ffffffffffffffffffffffffffffffffffffffff1614806119445750600160009054906101000a900473ffffffffffffffffffffffffffffffffffffffff1673ffffffffffffffffffffffffffffffffffffffff168173ffffffffffffffffffffffffffffffffffffffff16145b8061199c5750600260009054906101000a900473ffffffffffffffffffffffffffffffffffffffff1673ffffffffffffffffffffffffffffffffffffffff168173ffffffffffffffffffffffffffffffffffffffff16145b806119f45750600360009054906101000a900473ffffffffffffffffffffffffffffffffffffffff1673ffffffffffffffffffffffffffffffffffffffff168173ffffffffffffffffffffffffffffffffffffffff16145b80611a4c5750600660009054906101000a900473ffffffffffffffffffffffffffffffffffffffff1673ffffffffffffffffffffffffffffffffffffffff168173ffffffffffffffffffffffffffffffffffffffff16145b1515611a5757600080fd5b50565b600660149054906101000a900460ff1681565b600660009054906101000a900473ffffffffffffffffffffffffffffffffffffffff1673ffffffffffffffffffffffffffffffffffffffff163373ffffffffffffffffffffffffffffffffffffffff16141515611ac957600080fd5b600660009054906101000a900473ffffffffffffffffffffffffffffffffffffffff1673ffffffffffffffffffffffffffffffffffffffff167ff8df31144d9c2f0f6b59d69b8b98abd5459d07f2742c4df920b25aae33c6482060405160405180910390a26000600660006101000a81548173ffffffffffffffffffffffffffffffffffffffff021916908373ffffffffffffffffffffffffffffffffffffffff160217905550565b6000611b7d82612399565b1515611b8857600080fd5b60056000836000191660001916815260200190815260200160002060040160009054906101000a900473ffffffffffffffffffffffffffffffffffffffff169050919050565b6000611bda83836124a2565b1515611be557600080fd5b6005600084600019166000191681526020019081526020016000206009016000836000191660001916815260200190815260200160002060010154905092915050565b600260009054906101000a900473ffffffffffffffffffffffffffffffffffffffff1681565b6000611c5a83836124a2565b1515611c6557600080fd5b6005600084600019166000191681526020019081526020016000206009016000836000191660001916815260200190815260200160002060000160009054906101000a900473ffffffffffffffffffffffffffffffffffffffff16905092915050565b6000611cd382612399565b1515611cde57600080fd5b600560008360001916600019168152602001908152602001600020600501549050919050565b600660009054906101000a900473ffffffffffffffffffffffffffffffffffffffff1673ffffffffffffffffffffffffffffffffffffffff163373ffffffffffffffffffffffffffffffffffffffff16141515611d6057600080fd5b600660149054906101000a900460ff16151515611d7c57600080fd5b6001600660146101000a81548160ff0219169083151502179055507f6985a02210a168e66602d3235cb6db0e70f92b3ba4d376a33c0f3d9434bff62560405160405180910390a1565b600660009054906101000a900473ffffffffffffffffffffffffffffffffffffffff1681565b600a6020528060005260406000206000915054906101000a900460ff1681565b6000611e1783836124a2565b1515611e2257600080fd5b6005600084600019166000191681526020019081526020016000206009016000836000191660001916815260200190815260200160002060030160009054906101000a900460ff16905092915050565b600060011515600760008473ffffffffffffffffffffffffffffffffffffffff1673ffffffffffffffffffffffffffffffffffffffff16815260200190815260200160002060009054906101000a900460ff1615151480611f23575060011515600860008473ffffffffffffffffffffffffffffffffffffffff1673ffffffffffffffffffffffffffffffffffffffff16815260200190815260200160002060009054906101000a900460ff161515145b80611f7e575060011515600960008473ffffffffffffffffffffffffffffffffffffffff1673ffffffffffffffffffffffffffffffffffffffff16815260200190815260200160002060009054906101000a900460ff161515145b80611fd9575060011515600a60008473ffffffffffffffffffffffffffffffffffffffff1673ffffffffffffffffffffffffffffffffffffffff16815260200190815260200160002060009054906101000a900460ff161515145b15611fe75760019050611fec565b600090505b919050565b6000611ffc82612399565b151561200757600080fd5b60056000836000191660001916815260200190815260200160002060080160009054906101000a900473ffffffffffffffffffffffffffffffffffffffff169050919050565b600061205882612399565b151561206357600080fd5b600560008360001916600019168152602001908152602001600020600b01549050919050565b600061209583836124a2565b15156120a057600080fd5b6005600084600019166000191681526020019081526020016000206009016000836000191660001916815260200190815260200160002060020154905092915050565b600460009054906101000a900473ffffffffffffffffffffffffffffffffffffffff1681565b600061211482612399565b151561211f57600080fd5b600560008360001916600019168152602001908152602001600020600701549050919050565b600660009054906101000a900473ffffffffffffffffffffffffffffffffffffffff1673ffffffffffffffffffffffffffffffffffffffff163373ffffffffffffffffffffffffffffffffffffffff161415156121a157600080fd5b80600760008473ffffffffffffffffffffffffffffffffffffffff1673ffffffffffffffffffffffffffffffffffffffff16815260200190815260200160002060006101000a81548160ff0219169083151502179055505050565b600660009054906101000a900473ffffffffffffffffffffffffffffffffffffffff1673ffffffffffffffffffffffffffffffffffffffff163373ffffffffffffffffffffffffffffffffffffffff1614151561225857600080fd5b80600160006101000a81548173ffffffffffffffffffffffffffffffffffffffff021916908373ffffffffffffffffffffffffffffffffffffffff16021790555050565b60076020528060005260406000206000915054906101000a900460ff1681565b600660009054906101000a900473ffffffffffffffffffffffffffffffffffffffff1673ffffffffffffffffffffffffffffffffffffffff163373ffffffffffffffffffffffffffffffffffffffff1614151561231857600080fd5b80600960008473ffffffffffffffffffffffffffffffffffffffff1673ffffffffffffffffffffffffffffffffffffffff16815260200190815260200160002060006101000a81548160ff0219169083151502179055505050565b600360009054906101000a900473ffffffffffffffffffffffffffffffffffffffff1681565b60008073ffffffffffffffffffffffffffffffffffffffff1660056000846000191660001916815260200190815260200160002060080160009054906101000a900473ffffffffffffffffffffffffffffffffffffffff1673ffffffffffffffffffffffffffffffffffffffff161415612416576000905061241b565b600190505b919050565b600160009054906101000a900473ffffffffffffffffffffffffffffffffffffffff1681565b600061245182612399565b151561245c57600080fd5b60056000836000191660001916815260200190815260200160002060020160009054906101000a900473ffffffffffffffffffffffffffffffffffffffff169050919050565b60006124ad83612399565b15156124b857600080fd5b600073ffffffffffffffffffffffffffffffffffffffff166005600085600019166000191681526020019081526020016000206009016000846000191660001916815260200190815260200160002060000160009054906101000a900473ffffffffffffffffffffffffffffffffffffffff1673ffffffffffffffffffffffffffffffffffffffff1614156125505760009050612555565b600190505b92915050565b600660009054906101000a900473ffffffffffffffffffffffffffffffffffffffff1673ffffffffffffffffffffffffffffffffffffffff163373ffffffffffffffffffffffffffffffffffffffff161415156125b757600080fd5b80600260006101000a81548173ffffffffffffffffffffffffffffffffffffffff021916908373ffffffffffffffffffffffffffffffffffffffff16021790555050565b6000612605613486565b60008060009054906101000a900473ffffffffffffffffffffffffffffffffffffffff1673ffffffffffffffffffffffffffffffffffffffff163373ffffffffffffffffffffffffffffffffffffffff1614806126af5750600160009054906101000a900473ffffffffffffffffffffffffffffffffffffffff1673ffffffffffffffffffffffffffffffffffffffff163373ffffffffffffffffffffffffffffffffffffffff16145b806127075750600260009054906101000a900473ffffffffffffffffffffffffffffffffffffffff1673ffffffffffffffffffffffffffffffffffffffff163373ffffffffffffffffffffffffffffffffffffffff16145b8061275f5750600360009054906101000a900473ffffffffffffffffffffffffffffffffffffffff1673ffffffffffffffffffffffffffffffffffffffff163373ffffffffffffffffffffffffffffffffffffffff16145b806127b75750600660009054906101000a900473ffffffffffffffffffffffffffffffffffffffff1673ffffffffffffffffffffffffffffffffffffffff163373ffffffffffffffffffffffffffffffffffffffff16145b15156127c257600080fd5b600073ffffffffffffffffffffffffffffffffffffffff1660056000896000191660001916815260200190815260200160002060080160009054906101000a900473ffffffffffffffffffffffffffffffffffffffff1673ffffffffffffffffffffffffffffffffffffffff161415151561283c57600080fd5b6080604051908101604052808773ffffffffffffffffffffffffffffffffffffffff16815260200186815260200185815260200160001515815250915085858543604051602001808573ffffffffffffffffffffffffffffffffffffffff1673ffffffffffffffffffffffffffffffffffffffff166c010000000000000000000000000281526014018481526020018381526020018281526020019450505050506040516020818303038152906040526040518082805190602001908083835b60208310151561292157805182526020820191506020810190506020830392506128fc565b6001836020036101000a03801982511681845116808217855250505050505090500191505060405180910390209050600073ffffffffffffffffffffffffffffffffffffffff166005600089600019166000191681526020019081526020016000206009016000836000191660001916815260200190815260200160002060000160009054906101000a900473ffffffffffffffffffffffffffffffffffffffff1673ffffffffffffffffffffffffffffffffffffffff161415156129e557600080fd5b816005600089600019166000191681526020019081526020016000206009016000836000191660001916815260200190815260200160002060008201518160000160006101000a81548173ffffffffffffffffffffffffffffffffffffffff021916908373ffffffffffffffffffffffffffffffffffffffff160217905550602082015181600101556040820151816002015560608201518160030160006101000a81548160ff02191690831515021790555090505083600560008960001916600019168152602001908152602001600020600b016000828254019250508190555083600560008960001916600019168152602001908152602001600020600a016000878152602001908152602001600020600082825401925050819055508092505050949350505050565b6000612b1b6134c7565b6000612b268b611e72565b1515612b3157600080fd5b612b3a8a611e72565b1515612b4557600080fd5b612b4e88611e72565b1515612b5957600080fd5b612b6287611e72565b1515612b6d57600080fd5b610140604051908101604052808c73ffffffffffffffffffffffffffffffffffffffff1681526020018b73ffffffffffffffffffffffffffffffffffffffff1681526020018a73ffffffffffffffffffffffffffffffffffffffff1681526020018973ffffffffffffffffffffffffffffffffffffffff1681526020018873ffffffffffffffffffffffffffffffffffffffff168152602001876000191681526020018681526020014281526020013373ffffffffffffffffffffffffffffffffffffffff168152602001600081525091508a8a8a8a8a8a8a42338c604051602001808b73ffffffffffffffffffffffffffffffffffffffff1673ffffffffffffffffffffffffffffffffffffffff166c010000000000000000000000000281526014018a73ffffffffffffffffffffffffffffffffffffffff1673ffffffffffffffffffffffffffffffffffffffff166c010000000000000000000000000281526014018973ffffffffffffffffffffffffffffffffffffffff1673ffffffffffffffffffffffffffffffffffffffff166c010000000000000000000000000281526014018873ffffffffffffffffffffffffffffffffffffffff1673ffffffffffffffffffffffffffffffffffffffff166c010000000000000000000000000281526014018773ffffffffffffffffffffffffffffffffffffffff1673ffffffffffffffffffffffffffffffffffffffff166c01000000000000000000000000028152601401866000191660001916815260200185805190602001908083835b602083101515612dd45780518252602082019150602081019050602083039250612daf565b6001836020036101000a0380198251168184511680821785525050505050509050018481526020018373ffffffffffffffffffffffffffffffffffffffff1673ffffffffffffffffffffffffffffffffffffffff166c010000000000000000000000000281526014018281526020019a50505050505050505050506040516020818303038152906040526040518082805190602001908083835b602083101515612e935780518252602082019150602081019050602083039250612e6e565b6001836020036101000a03801982511681845116808217855250505050505090500191505060405180910390209050600073ffffffffffffffffffffffffffffffffffffffff1660056000836000191660001916815260200190815260200160002060080160009054906101000a900473ffffffffffffffffffffffffffffffffffffffff1673ffffffffffffffffffffffffffffffffffffffff16141515612f3b57600080fd5b8160056000836000191660001916815260200190815260200160002060008201518160000160006101000a81548173ffffffffffffffffffffffffffffffffffffffff021916908373ffffffffffffffffffffffffffffffffffffffff16021790555060208201518160010160006101000a81548173ffffffffffffffffffffffffffffffffffffffff021916908373ffffffffffffffffffffffffffffffffffffffff16021790555060408201518160020160006101000a81548173ffffffffffffffffffffffffffffffffffffffff021916908373ffffffffffffffffffffffffffffffffffffffff16021790555060608201518160030160006101000a81548173ffffffffffffffffffffffffffffffffffffffff021916908373ffffffffffffffffffffffffffffffffffffffff16021790555060808201518160040160006101000a81548173ffffffffffffffffffffffffffffffffffffffff021916908373ffffffffffffffffffffffffffffffffffffffff16021790555060a0820151816005019060001916905560c08201518160060190805190602001906130e69291906135a2565b5060e082015181600701556101008201518160080160006101000a81548173ffffffffffffffffffffffffffffffffffffffff021916908373ffffffffffffffffffffffffffffffffffffffff16021790555061012082015181600b01559050507f3e3f1562581d79765962e32ff89b9793d9b8feccbab14ae907be9a320c2dccf88160405180826000191660001916815260200191505060405180910390a1809250505098975050505050505050565b600660009054906101000a900473ffffffffffffffffffffffffffffffffffffffff1673ffffffffffffffffffffffffffffffffffffffff163373ffffffffffffffffffffffffffffffffffffffff161415156131f357600080fd5b6131fc8161338a565b50565b606061320a82612399565b151561321557600080fd5b6005600083600019166000191681526020019081526020016000206006018054600181600116156101000203166002900480601f0160208091040260200160405190810160405280929190818152602001828054600181600116156101000203166002900480156132c75780601f1061329c576101008083540402835291602001916132c7565b820191906000526020600020905b8154815290600101906020018083116132aa57829003601f168201915b50505050509050919050565b600660009054906101000a900473ffffffffffffffffffffffffffffffffffffffff1673ffffffffffffffffffffffffffffffffffffffff163373ffffffffffffffffffffffffffffffffffffffff1614151561332f57600080fd5b80600860008473ffffffffffffffffffffffffffffffffffffffff1673ffffffffffffffffffffffffffffffffffffffff16815260200190815260200160002060006101000a81548160ff0219169083151502179055505050565b600073ffffffffffffffffffffffffffffffffffffffff168173ffffffffffffffffffffffffffffffffffffffff16141515156133c657600080fd5b8073ffffffffffffffffffffffffffffffffffffffff16600660009054906101000a900473ffffffffffffffffffffffffffffffffffffffff1673ffffffffffffffffffffffffffffffffffffffff167f8be0079c531659141344cd1fd0a4f28419497f9722a3daafe3b4186f6b6457e060405160405180910390a380600660006101000a81548173ffffffffffffffffffffffffffffffffffffffff021916908373ffffffffffffffffffffffffffffffffffffffff16021790555050565b608060405190810160405280600073ffffffffffffffffffffffffffffffffffffffff16815260200160008152602001600081526020016000151581525090565b61014060405190810160405280600073ffffffffffffffffffffffffffffffffffffffff168152602001600073ffffffffffffffffffffffffffffffffffffffff168152602001600073ffffffffffffffffffffffffffffffffffffffff168152602001600073ffffffffffffffffffffffffffffffffffffffff168152602001600073ffffffffffffffffffffffffffffffffffffffff168152602001600080191681526020016060815260200160008152602001600073ffffffffffffffffffffffffffffffffffffffff168152602001600081525090565b828054600181600116156101000203166002900490600052602060002090601f016020900481019282601f106135e357805160ff1916838001178555613611565b82800160010185558215613611579182015b828111156136105782518255916020019190600101906135f5565b5b50905061361e9190613622565b5090565b61364491905b80821115613640576000816000905550600101613628565b5090565b905600a165627a7a7230582089269d3196ced02faca0adc3f9dad736d03a7a99478e8da7ee6fcb6c3ff0d7c20029",
  "source": "pragma solidity 0.4.24;\n\n// Internal\nimport \"./RegistryStorage.sol\";\nimport \"./ProxyRegistry.sol\";\n// External\nimport \"openzeppelin-solidity/contracts/math/SafeMath.sol\";\n\n\n/**\n * The registry is a Eternal Storage contract that saves all the data for the\n * bet protocol. The rest of the contracts will communicate with this contract\n * with getters and setters to modify the data. They will be the interface for\n * for the protocol.\n *\n * Author: Carlos Gonzalez -- Github: carlosgj94\n */\n/** @title Bet BetRegistry. */\ncontract BetRegistry is RegistryStorage, ProxyRegistry {\n    using SafeMath for uint;\n\n    // Events\n    event LogBetEntry(bytes32 _hash);\n\n    constructor(\n        address _betKernel,\n        address _betPayments,\n        address _betOracle,\n        address _betTerms\n    ) public {\n        betKernel = _betKernel;\n        betPayments = _betPayments;\n        betOracle = _betOracle;\n        betTerms = _betTerms;\n    }\n\n    modifier onlyAuthorised {\n        require(\n            msg.sender == betKernel ||\n            msg.sender == betPayments ||\n            msg.sender == betOracle ||\n            msg.sender == betTerms ||\n            msg.sender == owner\n        );\n        _;\n    }\n\n    /**\n      * @dev Function to change the bet kernel contract address\n      * @param _betKernel address the address of the new bet kernel\n      */\n    function setBetKernel(address _betKernel) \n        public\n        onlyOwner\n    {\n        betKernel = _betKernel;\n    }\n\n    /**\n      * @dev Function to change the bet payments contract address\n      * @param _betPayments address the address of the new bet payments\n      */\n    function setBetPayments(address _betPayments) \n        public\n        onlyOwner\n    {\n        betPayments = _betPayments;\n    }\n\n    /**\n      * @dev Function to change the bet oracle contract address\n      * @param _betOracle address the address of the new bet oracle\n      */\n    function setBetOracle(address _betOracle) \n        public\n        onlyOwner\n    {\n        betOracle = _betOracle;\n    }\n\n    /**\n      * @dev Function to change the bet terms contract address\n      * @param _betTerms address the address of the new bet terms\n      */\n    function setBetTerms(address _betTerms) \n        public\n        onlyOwner\n    {\n        betTerms = _betTerms;\n    }\n\n    /**\n     * @dev Function to create bets in the registry\n     * @param _paymentsProxy address Direction of the payments proxy contract\n     * @param _oracleProxy address Direction of the oracle proxy contract\n     * @param _termsProxy address Address of the terms proxy contract\n     * @param _termsHash bytes32 Address of the hash terms of the bet\n     * @param _salt uint random number to provide a unique hash\n     * @return bytes32 the that identifies the bet\n     */\n    function createBet(\n        address _kernelProxy,\n        address _paymentsProxy,\n        address _paymentsToken,\n        address _oracleProxy,\n        address _termsProxy,\n        bytes32 _termsHash,\n        string _title,\n        uint _salt\n    ) public returns(bytes32) {\n        require(addressInProxies(_kernelProxy));\n        require(addressInProxies(_paymentsProxy));\n        require(addressInProxies(_oracleProxy));\n        require(addressInProxies(_termsProxy));\n\n        BetEntry memory _entry = BetEntry(\n            _kernelProxy,\n            _paymentsProxy,\n            _paymentsToken,\n            _oracleProxy,\n            _termsProxy,\n            _termsHash,\n            _title,\n            block.timestamp,\n            msg.sender,\n            0\n        );\n        bytes32 _hash = keccak256(\n            abi.encodePacked(\n                _kernelProxy,\n                _paymentsProxy,\n                _paymentsToken,\n                _oracleProxy,\n                _termsProxy,\n                _termsHash,\n                _title,\n                block.timestamp,\n                msg.sender,\n                _salt\n            )\n        );\n        require(betRegistry[_hash].creator == address(0));\n\n        betRegistry[_hash] = _entry;\n        emit LogBetEntry(_hash);\n        return _hash;\n    }\n\n    /**\n     * @dev Function adds a bet from a player to a bet\n     * @param _betHash bytes32 of the bet you want to get\n     * @param _sender address of the sender\n     * @param _option uint the choosen option by the player\n     * @param _amount uint the quantity of tokens bet\n     * @return bool if the the betting was succesfull\n     */\n    function placeBet(\n        bytes32 _betHash,\n        address _sender,\n        uint _option,\n        uint _amount\n    )\n        public\n        onlyAuthorised\n        returns(bytes32)\n    {\n        require(betRegistry[_betHash].creator != address(0));\n\n        PlayerBet memory _bet = PlayerBet(\n            _sender,\n            _option,\n            _amount,\n            false\n        );\n\n        bytes32 _playerBetHash = keccak256(\n            abi.encodePacked(\n                _sender,\n                _option,\n                _amount,\n                block.number\n            )\n        );\n\n        require(betRegistry[_betHash].playerBets[_playerBetHash].player == address(0));\n        betRegistry[_betHash].playerBets[_playerBetHash] = _bet;\n        betRegistry[_betHash].totalPrincipal += _amount;\n        betRegistry[_betHash].principalInOption[_option] += _amount;\n\n        return _playerBetHash;\n    }\n\n    // Getters\n    function getBetKernelProxy(bytes32 _betHash) public view returns (address) {\n        require(betExists(_betHash));\n\n        return betRegistry[_betHash].kernelProxy;\n    }\n\n    function getBetPaymentsProxy(bytes32 _betHash) public view returns (address) {\n        require(betExists(_betHash));\n\n        return betRegistry[_betHash].paymentsProxy;\n    }\n\n    function getBetPaymentsToken(bytes32 _betHash) public view returns(address) {\n        require(betExists(_betHash));\n\n        return betRegistry[_betHash].paymentsToken;\n    }\n\n    function getBetOracleProxy(bytes32 _betHash) public view returns(address) {\n        require(betExists(_betHash));\n\n        return betRegistry[_betHash].oracleProxy;\n    }\n\n    function getBetTermsProxy(bytes32 _betHash) public view returns(address) {\n        require(betExists(_betHash));\n\n        return betRegistry[_betHash].termsProxy;\n    }\n\n    function getBetTermsHash(bytes32 _betHash) public view returns(bytes32) {\n        require(betExists(_betHash));\n\n        return betRegistry[_betHash].termsHash;\n    }\n\n    function getBetTitle(bytes32 _betHash) public view returns(string) {\n        require(betExists(_betHash));\n\n        return betRegistry[_betHash].title;\n    }\n\n    function getBetDatetime(bytes32 _betHash) public view returns(uint) {\n        require(betExists(_betHash));\n\n        return betRegistry[_betHash].datetime;\n    }\n\n    function getBetCreator(bytes32 _betHash) public view returns(address) {\n        require(betExists(_betHash));\n\n        return betRegistry[_betHash].creator;\n    }\n\n    function getTotalPrincipal(bytes32 _betHash) public view returns(uint) {\n        require(betExists(_betHash));\n\n        return betRegistry[_betHash].totalPrincipal;\n    }\n\n    function getPrincipalInOption(bytes32 _betHash, uint _option) public view returns(uint) {\n        require(betExists(_betHash));\n\n        return betRegistry[_betHash].principalInOption[_option];\n    }\n\n    function getPlayerBetPlayer(\n        bytes32 _betHash,\n        bytes32 _playerBetHash\n    )\n        public\n        view\n        returns(address)\n    {\n        require(playerBetExists(_betHash, _playerBetHash));\n\n        return betRegistry[_betHash].playerBets[_playerBetHash].player;\n    }\n\n    function getPlayerBetOption(\n        bytes32 _betHash,\n        bytes32 _playerBetHash\n    )\n        public\n        view\n        returns(uint)\n    {\n        require(playerBetExists(_betHash, _playerBetHash));\n\n        return betRegistry[_betHash].playerBets[_playerBetHash].option;\n    }\n\n    function getPlayerBetPrincipal(\n        bytes32 _betHash,\n        bytes32 _playerBetHash\n    )\n        public\n        view\n        returns(uint)\n    {\n        require(playerBetExists(_betHash, _playerBetHash));\n\n        return betRegistry[_betHash].playerBets[_playerBetHash].principal;\n    }\n\n    function getPlayerBetReturned(\n        bytes32 _betHash,\n        bytes32 _playerBetHash\n    )\n        public\n        view\n        returns(bool)\n    {\n        require(playerBetExists(_betHash, _playerBetHash));\n\n        return betRegistry[_betHash].playerBets[_playerBetHash].returned;\n    }\n\n    function betExists(bytes32 _betHash) public view returns(bool) {\n        if (betRegistry[_betHash].creator == address(0))\n            return false;\n        return true;\n    }\n\n    function playerBetExists(bytes32 _betHash, bytes32 _playerBetHash) public view returns(bool) {\n        require(betExists(_betHash));\n        if (betRegistry[_betHash].playerBets[_playerBetHash].player == address(0))\n            return false;\n        return true;\n    }\n\n    function setPlayerBetReturned(\n        bytes32 _betHash,\n        bytes32 _playerBetHash,\n        bool _returned\n    )\n        public \n        onlyAuthorised\n        returns(bool)\n    {\n        require(playerBetExists(_betHash, _playerBetHash));\n        betRegistry[_betHash].playerBets[_playerBetHash].returned = _returned;\n        return true;\n    }\n\n    function isAuthorised(address _sender) public view {\n        require(\n            _sender == betKernel ||\n            _sender == betPayments ||\n            _sender == betOracle ||\n            _sender == betTerms ||\n            _sender == owner\n        );\n    }\n}\n",
  "sourcePath": "/Users/carlosgonzalezjuarez/Documents/Development/GuesserProtocol/contracts/BetRegistry.sol",
  "compiler": {
    "name": "solc",
    "version": "0.4.24+commit.e67f0147.Emscripten.clang"
  },
  "schemaVersion": "2.0.0",
  "updatedAt": "2018-07-11T19:48:47.896Z"
}