{
  "contractName": "BetTerms",
  "abi": [
    {
      "constant": true,
      "inputs": [],
      "name": "initialBlock",
      "outputs": [
        {
          "name": "",
          "type": "uint256"
        }
      ],
      "payable": false,
      "stateMutability": "view",
      "type": "function"
    },
    {
      "constant": false,
      "inputs": [],
      "name": "unpause",
      "outputs": [],
      "payable": false,
      "stateMutability": "nonpayable",
      "type": "function"
    },
    {
      "constant": true,
      "inputs": [],
      "name": "paused",
      "outputs": [
        {
          "name": "",
          "type": "bool"
        }
      ],
      "payable": false,
      "stateMutability": "view",
      "type": "function"
    },
    {
      "constant": false,
      "inputs": [],
      "name": "renounceOwnership",
      "outputs": [],
      "payable": false,
      "stateMutability": "nonpayable",
      "type": "function"
    },
    {
      "constant": false,
      "inputs": [],
      "name": "pause",
      "outputs": [],
      "payable": false,
      "stateMutability": "nonpayable",
      "type": "function"
    },
    {
      "constant": true,
      "inputs": [],
      "name": "owner",
      "outputs": [
        {
          "name": "",
          "type": "address"
        }
      ],
      "payable": false,
      "stateMutability": "view",
      "type": "function"
    },
    {
      "constant": true,
      "inputs": [],
      "name": "termsHash",
      "outputs": [
        {
          "name": "",
          "type": "bytes32"
        }
      ],
      "payable": false,
      "stateMutability": "view",
      "type": "function"
    },
    {
      "constant": false,
      "inputs": [
        {
          "name": "_newOwner",
          "type": "address"
        }
      ],
      "name": "transferOwnership",
      "outputs": [],
      "payable": false,
      "stateMutability": "nonpayable",
      "type": "function"
    },
    {
      "inputs": [
        {
          "name": "_termsContract",
          "type": "address"
        },
        {
          "name": "_termsHash",
          "type": "bytes32"
        }
      ],
      "payable": false,
      "stateMutability": "nonpayable",
      "type": "constructor"
    },
    {
      "anonymous": false,
      "inputs": [],
      "name": "Pause",
      "type": "event"
    },
    {
      "anonymous": false,
      "inputs": [],
      "name": "Unpause",
      "type": "event"
    },
    {
      "anonymous": false,
      "inputs": [
        {
          "indexed": true,
          "name": "previousOwner",
          "type": "address"
        }
      ],
      "name": "OwnershipRenounced",
      "type": "event"
    },
    {
      "anonymous": false,
      "inputs": [
        {
          "indexed": true,
          "name": "previousOwner",
          "type": "address"
        },
        {
          "indexed": true,
          "name": "newOwner",
          "type": "address"
        }
      ],
      "name": "OwnershipTransferred",
      "type": "event"
    },
    {
      "constant": true,
      "inputs": [],
      "name": "getTermsContractAddress",
      "outputs": [
        {
          "name": "",
          "type": "address"
        }
      ],
      "payable": false,
      "stateMutability": "view",
      "type": "function"
    }
  ],
  "bytecode": "0x608060405260008060146101000a81548160ff02191690831515021790555034801561002a57600080fd5b506040516040806107d78339810180604052810190808051906020019092919080519060200190929190505050336000806101000a81548173ffffffffffffffffffffffffffffffffffffffff021916908373ffffffffffffffffffffffffffffffffffffffff16021790555081600160006101000a81548173ffffffffffffffffffffffffffffffffffffffff021916908373ffffffffffffffffffffffffffffffffffffffff16021790555080600281600019169055504360038190555050506106dc806100fb6000396000f300608060405260043610610099576000357c0100000000000000000000000000000000000000000000000000000000900463ffffffff1680632cb158641461009e5780633f4ba83a146100c95780635c975abb146100e0578063715018a61461010f5780638456cb59146101265780638da5cb5b1461013d578063ad2483af14610194578063b311d9fd146101eb578063f2fde38b1461021e575b600080fd5b3480156100aa57600080fd5b506100b3610261565b6040518082815260200191505060405180910390f35b3480156100d557600080fd5b506100de610267565b005b3480156100ec57600080fd5b506100f5610325565b604051808215151515815260200191505060405180910390f35b34801561011b57600080fd5b50610124610338565b005b34801561013257600080fd5b5061013b61043a565b005b34801561014957600080fd5b506101526104fa565b604051808273ffffffffffffffffffffffffffffffffffffffff1673ffffffffffffffffffffffffffffffffffffffff16815260200191505060405180910390f35b3480156101a057600080fd5b506101a961051f565b604051808273ffffffffffffffffffffffffffffffffffffffff1673ffffffffffffffffffffffffffffffffffffffff16815260200191505060405180910390f35b3480156101f757600080fd5b50610200610549565b60405180826000191660001916815260200191505060405180910390f35b34801561022a57600080fd5b5061025f600480360381019080803573ffffffffffffffffffffffffffffffffffffffff16906020019092919050505061054f565b005b60035481565b6000809054906101000a900473ffffffffffffffffffffffffffffffffffffffff1673ffffffffffffffffffffffffffffffffffffffff163373ffffffffffffffffffffffffffffffffffffffff161415156102c257600080fd5b600060149054906101000a900460ff1615156102dd57600080fd5b60008060146101000a81548160ff0219169083151502179055507f7805862f689e2f13df9f062ff482ad3ad112aca9e0847911ed832e158c525b3360405160405180910390a1565b600060149054906101000a900460ff1681565b6000809054906101000a900473ffffffffffffffffffffffffffffffffffffffff1673ffffffffffffffffffffffffffffffffffffffff163373ffffffffffffffffffffffffffffffffffffffff1614151561039357600080fd5b6000809054906101000a900473ffffffffffffffffffffffffffffffffffffffff1673ffffffffffffffffffffffffffffffffffffffff167ff8df31144d9c2f0f6b59d69b8b98abd5459d07f2742c4df920b25aae33c6482060405160405180910390a260008060006101000a81548173ffffffffffffffffffffffffffffffffffffffff021916908373ffffffffffffffffffffffffffffffffffffffff160217905550565b6000809054906101000a900473ffffffffffffffffffffffffffffffffffffffff1673ffffffffffffffffffffffffffffffffffffffff163373ffffffffffffffffffffffffffffffffffffffff1614151561049557600080fd5b600060149054906101000a900460ff161515156104b157600080fd5b6001600060146101000a81548160ff0219169083151502179055507f6985a02210a168e66602d3235cb6db0e70f92b3ba4d376a33c0f3d9434bff62560405160405180910390a1565b6000809054906101000a900473ffffffffffffffffffffffffffffffffffffffff1681565b6000600160009054906101000a900473ffffffffffffffffffffffffffffffffffffffff16905090565b60025481565b6000809054906101000a900473ffffffffffffffffffffffffffffffffffffffff1673ffffffffffffffffffffffffffffffffffffffff163373ffffffffffffffffffffffffffffffffffffffff161415156105aa57600080fd5b6105b3816105b6565b50565b600073ffffffffffffffffffffffffffffffffffffffff168173ffffffffffffffffffffffffffffffffffffffff16141515156105f257600080fd5b8073ffffffffffffffffffffffffffffffffffffffff166000809054906101000a900473ffffffffffffffffffffffffffffffffffffffff1673ffffffffffffffffffffffffffffffffffffffff167f8be0079c531659141344cd1fd0a4f28419497f9722a3daafe3b4186f6b6457e060405160405180910390a3806000806101000a81548173ffffffffffffffffffffffffffffffffffffffff021916908373ffffffffffffffffffffffffffffffffffffffff160217905550505600a165627a7a7230582064581d2428f8bad9d0e521194bb884ab804d245aeaf95aafcad22ffec5e1b83f0029",
  "source": "pragma solidity 0.4.24;\n\n//Internal\nimport \"./TermsContract.sol\";\n// External\nimport \"openzeppelin-solidity/contracts/math/SafeMath.sol\";\nimport \"openzeppelin-solidity/contracts/lifecycle/Pausable.sol\";\n\n\n/**\n * The Bet Terms contract is in charge of storing the basic information of the event\n * to function in time. This contract is the one that will ask if participation in an event is\n * still allowed, and, in case it is time, to allow the Oracle to ask for the information\n * and give the permision to return the profits to the Bet Token hodlers.\n *\n * Author: Carlos Gonzalez -- Github: carlosgj94\n */\n/** @title Bet terms. */\ncontract BetTerms is Pausable {\n    using SafeMath for uint;\n\n    TermsContract internal termsContract;\n    bytes32 public termsHash;\n    uint public initialBlock;\n\n    constructor(address _termsContract, bytes32 _termsHash) public {\n        termsContract = TermsContract(_termsContract);\n        termsHash = _termsHash;\n        initialBlock = block.number;\n    }\n\n    /**\n     * @dev Function that returns the address of the Terms Contract of the event\n     * @return address the address of the Terms Contract it relates to\n     */\n    function getTermsContractAddress() public view returns(address) {\n        return address(termsContract);\n    }\n\n    /**\n     * @dev Function that asks the TermsContract if playing is allowd\n     * @return bool if it is the period for playing\n     */\n    function participationPeriod()\n        internal\n        view\n        returns(bool)\n    {\n        return termsContract.participationPeriod(termsHash);\n    }\n\n    /**\n     * @dev Function that asks the TermsContract if it is the time to ask for the profits\n     * @return bool if the period for betting is over\n     */\n    function retrievingPeriod()\n        internal\n        view\n        returns(bool)\n    {\n        return termsContract.retrievingPeriod(termsHash);\n    }\n\n    /**\n     * @dev Function that asks the TermsContract if the event has finished\n     * @return bool if the event is over\n     */\n    function finishedPeriod()\n        internal\n        view\n        returns(bool)\n    {\n        return termsContract.finishedPeriod(termsHash);\n    }\n}\n",
  "sourcePath": "/Users/carlosgonzalezjuarez/Documents/Development/GuesserProtocol/contracts/BetTerms.sol",
  "compiler": {
    "name": "solc",
    "version": "0.4.24+commit.e67f0147.Emscripten.clang"
  },
  "schemaVersion": "2.0.0",
  "updatedAt": "2018-06-30T11:16:49.690Z"
}