{
  "contractName": "BetTerms",
  "abi": [
    {
      "constant": true,
      "inputs": [],
      "name": "betRegistry",
      "outputs": [
        {
          "name": "",
          "type": "address"
        }
      ],
      "payable": false,
      "stateMutability": "view",
      "type": "function",
      "signature": "0x1ff677bf"
    },
    {
      "constant": false,
      "inputs": [],
      "name": "unpause",
      "outputs": [],
      "payable": false,
      "stateMutability": "nonpayable",
      "type": "function",
      "signature": "0x3f4ba83a"
    },
    {
      "constant": true,
      "inputs": [],
      "name": "paused",
      "outputs": [
        {
          "name": "",
          "type": "bool"
        }
      ],
      "payable": false,
      "stateMutability": "view",
      "type": "function",
      "signature": "0x5c975abb"
    },
    {
      "constant": false,
      "inputs": [],
      "name": "renounceOwnership",
      "outputs": [],
      "payable": false,
      "stateMutability": "nonpayable",
      "type": "function",
      "signature": "0x715018a6"
    },
    {
      "constant": false,
      "inputs": [],
      "name": "pause",
      "outputs": [],
      "payable": false,
      "stateMutability": "nonpayable",
      "type": "function",
      "signature": "0x8456cb59"
    },
    {
      "constant": true,
      "inputs": [],
      "name": "owner",
      "outputs": [
        {
          "name": "",
          "type": "address"
        }
      ],
      "payable": false,
      "stateMutability": "view",
      "type": "function",
      "signature": "0x8da5cb5b"
    },
    {
      "constant": false,
      "inputs": [
        {
          "name": "_betRegistry",
          "type": "address"
        }
      ],
      "name": "setBetRegistry",
      "outputs": [],
      "payable": false,
      "stateMutability": "nonpayable",
      "type": "function",
      "signature": "0xefdb2b46"
    },
    {
      "constant": false,
      "inputs": [
        {
          "name": "_newOwner",
          "type": "address"
        }
      ],
      "name": "transferOwnership",
      "outputs": [],
      "payable": false,
      "stateMutability": "nonpayable",
      "type": "function",
      "signature": "0xf2fde38b"
    },
    {
      "anonymous": false,
      "inputs": [],
      "name": "Pause",
      "type": "event",
      "signature": "0x6985a02210a168e66602d3235cb6db0e70f92b3ba4d376a33c0f3d9434bff625"
    },
    {
      "anonymous": false,
      "inputs": [],
      "name": "Unpause",
      "type": "event",
      "signature": "0x7805862f689e2f13df9f062ff482ad3ad112aca9e0847911ed832e158c525b33"
    },
    {
      "anonymous": false,
      "inputs": [
        {
          "indexed": true,
          "name": "previousOwner",
          "type": "address"
        }
      ],
      "name": "OwnershipRenounced",
      "type": "event",
      "signature": "0xf8df31144d9c2f0f6b59d69b8b98abd5459d07f2742c4df920b25aae33c64820"
    },
    {
      "anonymous": false,
      "inputs": [
        {
          "indexed": true,
          "name": "previousOwner",
          "type": "address"
        },
        {
          "indexed": true,
          "name": "newOwner",
          "type": "address"
        }
      ],
      "name": "OwnershipTransferred",
      "type": "event",
      "signature": "0x8be0079c531659141344cd1fd0a4f28419497f9722a3daafe3b4186f6b6457e0"
    },
    {
      "constant": true,
      "inputs": [
        {
          "name": "_termsProxy",
          "type": "address"
        },
        {
          "name": "_termsHash",
          "type": "bytes32"
        }
      ],
      "name": "participationPeriod",
      "outputs": [
        {
          "name": "",
          "type": "bool"
        }
      ],
      "payable": false,
      "stateMutability": "view",
      "type": "function",
      "signature": "0x0348525e"
    },
    {
      "constant": true,
      "inputs": [
        {
          "name": "_termsProxy",
          "type": "address"
        },
        {
          "name": "_termsHash",
          "type": "bytes32"
        }
      ],
      "name": "waitingPeriod",
      "outputs": [
        {
          "name": "",
          "type": "bool"
        }
      ],
      "payable": false,
      "stateMutability": "view",
      "type": "function",
      "signature": "0x8189c420"
    },
    {
      "constant": true,
      "inputs": [
        {
          "name": "_termsProxy",
          "type": "address"
        },
        {
          "name": "_termsHash",
          "type": "bytes32"
        }
      ],
      "name": "retrievingPeriod",
      "outputs": [
        {
          "name": "",
          "type": "bool"
        }
      ],
      "payable": false,
      "stateMutability": "view",
      "type": "function",
      "signature": "0x1d765158"
    },
    {
      "constant": true,
      "inputs": [
        {
          "name": "_termsProxy",
          "type": "address"
        },
        {
          "name": "_termsHash",
          "type": "bytes32"
        }
      ],
      "name": "finishedPeriod",
      "outputs": [
        {
          "name": "",
          "type": "bool"
        }
      ],
      "payable": false,
      "stateMutability": "view",
      "type": "function",
      "signature": "0xf8fca9ff"
    },
    {
      "constant": false,
      "inputs": [
        {
          "name": "_termsProxy",
          "type": "address"
        },
        {
          "name": "_termsHash",
          "type": "bytes32"
        },
        {
          "name": "_status",
          "type": "uint256"
        }
      ],
      "name": "changePeriod",
      "outputs": [],
      "payable": false,
      "stateMutability": "nonpayable",
      "type": "function",
      "signature": "0x9f05b552"
    }
  ],
  "bytecode": "0x608060405260008060146101000a81548160ff021916908315150217905550336000806101000a81548173ffffffffffffffffffffffffffffffffffffffff021916908373ffffffffffffffffffffffffffffffffffffffff160217905550610e058061006d6000396000f3006080604052600436106100c5576000357c0100000000000000000000000000000000000000000000000000000000900463ffffffff1680630348525e146100ca5780631d765158146101335780631ff677bf1461019c5780633f4ba83a146101f35780635c975abb1461020a578063715018a6146102395780638189c420146102505780638456cb59146102b95780638da5cb5b146102d05780639f05b55214610327578063efdb2b4614610382578063f2fde38b146103c5578063f8fca9ff14610408575b600080fd5b3480156100d657600080fd5b50610119600480360381019080803573ffffffffffffffffffffffffffffffffffffffff1690602001909291908035600019169060200190929190505050610471565b604051808215151515815260200191505060405180910390f35b34801561013f57600080fd5b50610182600480360381019080803573ffffffffffffffffffffffffffffffffffffffff169060200190929190803560001916906020019092919050505061052d565b604051808215151515815260200191505060405180910390f35b3480156101a857600080fd5b506101b16105e9565b604051808273ffffffffffffffffffffffffffffffffffffffff1673ffffffffffffffffffffffffffffffffffffffff16815260200191505060405180910390f35b3480156101ff57600080fd5b50610208610613565b005b34801561021657600080fd5b5061021f6106d1565b604051808215151515815260200191505060405180910390f35b34801561024557600080fd5b5061024e6106e4565b005b34801561025c57600080fd5b5061029f600480360381019080803573ffffffffffffffffffffffffffffffffffffffff16906020019092919080356000191690602001909291905050506107e6565b604051808215151515815260200191505060405180910390f35b3480156102c557600080fd5b506102ce6108a2565b005b3480156102dc57600080fd5b506102e5610962565b604051808273ffffffffffffffffffffffffffffffffffffffff1673ffffffffffffffffffffffffffffffffffffffff16815260200191505060405180910390f35b34801561033357600080fd5b50610380600480360381019080803573ffffffffffffffffffffffffffffffffffffffff169060200190929190803560001916906020019092919080359060200190929190505050610987565b005b34801561038e57600080fd5b506103c3600480360381019080803573ffffffffffffffffffffffffffffffffffffffff169060200190929190505050610af8565b005b3480156103d157600080fd5b50610406600480360381019080803573ffffffffffffffffffffffffffffffffffffffff169060200190929190505050610bbc565b005b34801561041457600080fd5b50610457600480360381019080803573ffffffffffffffffffffffffffffffffffffffff1690602001909291908035600019169060200190929190505050610c23565b604051808215151515815260200191505060405180910390f35b60008273ffffffffffffffffffffffffffffffffffffffff16637f37aa97836040518263ffffffff167c0100000000000000000000000000000000000000000000000000000000028152600401808260001916600019168152602001915050602060405180830381600087803b1580156104ea57600080fd5b505af11580156104fe573d6000803e3d6000fd5b505050506040513d602081101561051457600080fd5b8101908080519060200190929190505050905092915050565b60008273ffffffffffffffffffffffffffffffffffffffff1663e2af856b836040518263ffffffff167c0100000000000000000000000000000000000000000000000000000000028152600401808260001916600019168152602001915050602060405180830381600087803b1580156105a657600080fd5b505af11580156105ba573d6000803e3d6000fd5b505050506040513d60208110156105d057600080fd5b8101908080519060200190929190505050905092915050565b6000600160009054906101000a900473ffffffffffffffffffffffffffffffffffffffff16905090565b6000809054906101000a900473ffffffffffffffffffffffffffffffffffffffff1673ffffffffffffffffffffffffffffffffffffffff163373ffffffffffffffffffffffffffffffffffffffff1614151561066e57600080fd5b600060149054906101000a900460ff16151561068957600080fd5b60008060146101000a81548160ff0219169083151502179055507f7805862f689e2f13df9f062ff482ad3ad112aca9e0847911ed832e158c525b3360405160405180910390a1565b600060149054906101000a900460ff1681565b6000809054906101000a900473ffffffffffffffffffffffffffffffffffffffff1673ffffffffffffffffffffffffffffffffffffffff163373ffffffffffffffffffffffffffffffffffffffff1614151561073f57600080fd5b6000809054906101000a900473ffffffffffffffffffffffffffffffffffffffff1673ffffffffffffffffffffffffffffffffffffffff167ff8df31144d9c2f0f6b59d69b8b98abd5459d07f2742c4df920b25aae33c6482060405160405180910390a260008060006101000a81548173ffffffffffffffffffffffffffffffffffffffff021916908373ffffffffffffffffffffffffffffffffffffffff160217905550565b60008273ffffffffffffffffffffffffffffffffffffffff166328ad26e6836040518263ffffffff167c0100000000000000000000000000000000000000000000000000000000028152600401808260001916600019168152602001915050602060405180830381600087803b15801561085f57600080fd5b505af1158015610873573d6000803e3d6000fd5b505050506040513d602081101561088957600080fd5b8101908080519060200190929190505050905092915050565b6000809054906101000a900473ffffffffffffffffffffffffffffffffffffffff1673ffffffffffffffffffffffffffffffffffffffff163373ffffffffffffffffffffffffffffffffffffffff161415156108fd57600080fd5b600060149054906101000a900460ff1615151561091957600080fd5b6001600060146101000a81548160ff0219169083151502179055507f6985a02210a168e66602d3235cb6db0e70f92b3ba4d376a33c0f3d9434bff62560405160405180910390a1565b6000809054906101000a900473ffffffffffffffffffffffffffffffffffffffff1681565b600160009054906101000a900473ffffffffffffffffffffffffffffffffffffffff1673ffffffffffffffffffffffffffffffffffffffff166351b699cd336040518263ffffffff167c0100000000000000000000000000000000000000000000000000000000028152600401808273ffffffffffffffffffffffffffffffffffffffff1673ffffffffffffffffffffffffffffffffffffffff168152602001915050600060405180830381600087803b158015610a4457600080fd5b505af1158015610a58573d6000803e3d6000fd5b505050508273ffffffffffffffffffffffffffffffffffffffff166351e069e783836040518363ffffffff167c010000000000000000000000000000000000000000000000000000000002815260040180836000191660001916815260200182815260200192505050600060405180830381600087803b158015610adb57600080fd5b505af1158015610aef573d6000803e3d6000fd5b50505050505050565b6000809054906101000a900473ffffffffffffffffffffffffffffffffffffffff1673ffffffffffffffffffffffffffffffffffffffff163373ffffffffffffffffffffffffffffffffffffffff16141515610b5357600080fd5b80600160006101000a81548173ffffffffffffffffffffffffffffffffffffffff021916908373ffffffffffffffffffffffffffffffffffffffff16021790555060001515600060149054906101000a900460ff1615151415610bb957610bb86108a2565b5b50565b6000809054906101000a900473ffffffffffffffffffffffffffffffffffffffff1673ffffffffffffffffffffffffffffffffffffffff163373ffffffffffffffffffffffffffffffffffffffff16141515610c1757600080fd5b610c2081610cdf565b50565b60008273ffffffffffffffffffffffffffffffffffffffff166365758e6c836040518263ffffffff167c0100000000000000000000000000000000000000000000000000000000028152600401808260001916600019168152602001915050602060405180830381600087803b158015610c9c57600080fd5b505af1158015610cb0573d6000803e3d6000fd5b505050506040513d6020811015610cc657600080fd5b8101908080519060200190929190505050905092915050565b600073ffffffffffffffffffffffffffffffffffffffff168173ffffffffffffffffffffffffffffffffffffffff1614151515610d1b57600080fd5b8073ffffffffffffffffffffffffffffffffffffffff166000809054906101000a900473ffffffffffffffffffffffffffffffffffffffff1673ffffffffffffffffffffffffffffffffffffffff167f8be0079c531659141344cd1fd0a4f28419497f9722a3daafe3b4186f6b6457e060405160405180910390a3806000806101000a81548173ffffffffffffffffffffffffffffffffffffffff021916908373ffffffffffffffffffffffffffffffffffffffff160217905550505600a165627a7a72305820597f896bf7f946f27a9025d04c58ade512e6140dab1470256b8b324ad31715990029",
  "source": "pragma solidity ^0.4.24;\n\n//Internal\nimport \"./ProxyInterfaces/BetTermsProxyInterface.sol\";\nimport \"./RegistrySetter.sol\";\n\n\n/**\n * The Bet Terms contract is in charge of the basic information of the event\n * to function in time. This contract is the one that will ask if participation in an event is\n * still allowed, and, in case it is time, to allow the Oracle to ask for the information\n * and give the permision to return the profits to the Bet hodlers.\n *\n * Author: Carlos Gonzalez -- Github: carlosgj94\n */\n/** @title Bet Terms. */\ncontract BetTerms is RegistrySetter {\n\n    /**\n     * @dev function that asks the termscontract if playing is allowd\n     * @param _termsProxy address the address of the Proxy contract\n     * @param _termsHash bytes32 the hash of the terms\n     * @return bool if it is the period for playing\n     */\n    function participationPeriod(address _termsProxy, bytes32 _termsHash)\n        public\n        view\n        returns(bool)\n    {\n        return BetTermsProxyInterface(_termsProxy)\n            .participationPeriod(_termsHash);\n    }\n\n    /**\n     * @dev function that asks the termscontract if playing is in stand by\n     * @param _termsProxy address the address of the Proxy contract\n     * @param _termsHash bytes32 the hash of the terms\n     * @return bool if it is the waiting period\n     */\n    function waitingPeriod(address _termsProxy, bytes32 _termsHash)\n        public\n        view\n        returns(bool)\n    {\n        return BetTermsProxyInterface(_termsProxy)\n            .waitingPeriod(_termsHash);\n    }\n\n    /**\n     * @dev Function that asks the TermsContract if it is the time to ask for the profits\n     * @param _termsProxy address the address of the Proxy contract\n     * @param _termsHash bytes32 the hash of the terms\n     * @return bool if the period for betting is over\n     */\n    function retrievingPeriod(address _termsProxy, bytes32 _termsHash)\n        public\n        view\n        returns(bool)\n    {\n        return BetTermsProxyInterface(_termsProxy)\n            .retrievingPeriod(_termsHash);\n    }\n\n    /**\n     * @dev Function that asks the TermsContract if the event has finished\n     * @param _termsProxy address the address of the Proxy contract\n     * @param _termsHash bytes32 the hash of the terms\n     * @return bool if the event is over\n     */\n    function finishedPeriod(address _termsProxy, bytes32 _termsHash)\n        public\n        view\n        returns(bool)\n    {\n        return BetTermsProxyInterface(_termsProxy)\n            .finishedPeriod(_termsHash);\n    }\n\n    function changePeriod(address _termsProxy, bytes32 _termsHash, uint _status)\n        public\n    {\n        betRegistry.isAuthorised(msg.sender);\n        BetTermsProxyInterface(_termsProxy)\n            .changePeriod(_termsHash, _status);\n    }\n}\n",
  "sourcePath": "/Users/carlosgonzalezjuarez/Documents/Development/GuesserProtocol/contracts/BetTerms.sol",
  "compiler": {
    "name": "solc",
    "version": "0.4.25+commit.59dbf8f1.Emscripten.clang"
  },
  "schemaVersion": "3.0.0-beta.1",
  "updatedAt": "2018-11-01T18:13:45.737Z"
}