{
  "contractName": "ERC20BetKernelProxy",
  "abi": [
    {
      "constant": true,
      "inputs": [],
      "name": "betRegistry",
      "outputs": [
        {
          "name": "",
          "type": "address"
        }
      ],
      "payable": false,
      "stateMutability": "view",
      "type": "function"
    },
    {
      "constant": false,
      "inputs": [],
      "name": "unpause",
      "outputs": [],
      "payable": false,
      "stateMutability": "nonpayable",
      "type": "function"
    },
    {
      "constant": true,
      "inputs": [],
      "name": "paused",
      "outputs": [
        {
          "name": "",
          "type": "bool"
        }
      ],
      "payable": false,
      "stateMutability": "view",
      "type": "function"
    },
    {
      "constant": false,
      "inputs": [],
      "name": "renounceOwnership",
      "outputs": [],
      "payable": false,
      "stateMutability": "nonpayable",
      "type": "function"
    },
    {
      "constant": false,
      "inputs": [],
      "name": "pause",
      "outputs": [],
      "payable": false,
      "stateMutability": "nonpayable",
      "type": "function"
    },
    {
      "constant": true,
      "inputs": [],
      "name": "owner",
      "outputs": [
        {
          "name": "",
          "type": "address"
        }
      ],
      "payable": false,
      "stateMutability": "view",
      "type": "function"
    },
    {
      "constant": false,
      "inputs": [
        {
          "name": "_betRegistry",
          "type": "address"
        }
      ],
      "name": "setBetRegistry",
      "outputs": [],
      "payable": false,
      "stateMutability": "nonpayable",
      "type": "function"
    },
    {
      "constant": false,
      "inputs": [
        {
          "name": "_newOwner",
          "type": "address"
        }
      ],
      "name": "transferOwnership",
      "outputs": [],
      "payable": false,
      "stateMutability": "nonpayable",
      "type": "function"
    },
    {
      "anonymous": false,
      "inputs": [],
      "name": "Pause",
      "type": "event"
    },
    {
      "anonymous": false,
      "inputs": [],
      "name": "Unpause",
      "type": "event"
    },
    {
      "anonymous": false,
      "inputs": [
        {
          "indexed": true,
          "name": "previousOwner",
          "type": "address"
        }
      ],
      "name": "OwnershipRenounced",
      "type": "event"
    },
    {
      "anonymous": false,
      "inputs": [
        {
          "indexed": true,
          "name": "previousOwner",
          "type": "address"
        },
        {
          "indexed": true,
          "name": "newOwner",
          "type": "address"
        }
      ],
      "name": "OwnershipTransferred",
      "type": "event"
    },
    {
      "constant": false,
      "inputs": [
        {
          "name": "_betHash",
          "type": "bytes32"
        },
        {
          "name": "_playerBetHashProof",
          "type": "bytes32"
        },
        {
          "name": "_option",
          "type": "uint256"
        },
        {
          "name": "_number",
          "type": "uint256"
        }
      ],
      "name": "placeBet",
      "outputs": [
        {
          "name": "",
          "type": "bool"
        }
      ],
      "payable": false,
      "stateMutability": "nonpayable",
      "type": "function"
    },
    {
      "constant": false,
      "inputs": [
        {
          "name": "_betHash",
          "type": "bytes32"
        },
        {
          "name": "_playerBetHash",
          "type": "bytes32"
        }
      ],
      "name": "getProfits",
      "outputs": [
        {
          "name": "",
          "type": "bool"
        }
      ],
      "payable": false,
      "stateMutability": "nonpayable",
      "type": "function"
    }
  ],
  "bytecode": "0x608060405260008060146101000a81548160ff021916908315150217905550336000806101000a81548173ffffffffffffffffffffffffffffffffffffffff021916908373ffffffffffffffffffffffffffffffffffffffff16021790555061258e8061006d6000396000f3006080604052600436106100a4576000357c0100000000000000000000000000000000000000000000000000000000900463ffffffff168063062824b3146100a95780631ff677bf146101145780633f4ba83a1461016b5780635c975abb14610182578063715018a6146101b15780637355ac8f146101c85780638456cb591461021f5780638da5cb5b14610236578063efdb2b461461028d578063f2fde38b146102d0575b600080fd5b3480156100b557600080fd5b506100fa600480360381019080803560001916906020019092919080356000191690602001909291908035906020019092919080359060200190929190505050610313565b604051808215151515815260200191505060405180910390f35b34801561012057600080fd5b50610129610d6d565b604051808273ffffffffffffffffffffffffffffffffffffffff1673ffffffffffffffffffffffffffffffffffffffff16815260200191505060405180910390f35b34801561017757600080fd5b50610180610d97565b005b34801561018e57600080fd5b50610197610e55565b604051808215151515815260200191505060405180910390f35b3480156101bd57600080fd5b506101c6610e68565b005b3480156101d457600080fd5b5061020560048036038101908080356000191690602001909291908035600019169060200190929190505050610f6a565b604051808215151515815260200191505060405180910390f35b34801561022b57600080fd5b50610234612258565b005b34801561024257600080fd5b5061024b612318565b604051808273ffffffffffffffffffffffffffffffffffffffff1673ffffffffffffffffffffffffffffffffffffffff16815260200191505060405180910390f35b34801561029957600080fd5b506102ce600480360381019080803573ffffffffffffffffffffffffffffffffffffffff16906020019092919050505061233d565b005b3480156102dc57600080fd5b50610311600480360381019080803573ffffffffffffffffffffffffffffffffffffffff169060200190929190505050612401565b005b600080600080600080600160009054906101000a900473ffffffffffffffffffffffffffffffffffffffff1673ffffffffffffffffffffffffffffffffffffffff166314715bcc8b6040518263ffffffff167c0100000000000000000000000000000000000000000000000000000000028152600401808260001916600019168152602001915050602060405180830381600087803b1580156103b557600080fd5b505af11580156103c9573d6000803e3d6000fd5b505050506040513d60208110156103df57600080fd5b81019080805190602001909291905050509450600160009054906101000a900473ffffffffffffffffffffffffffffffffffffffff1673ffffffffffffffffffffffffffffffffffffffff1663de1028e18b6040518263ffffffff167c0100000000000000000000000000000000000000000000000000000000028152600401808260001916600019168152602001915050602060405180830381600087803b15801561048b57600080fd5b505af115801561049f573d6000803e3d6000fd5b505050506040513d60208110156104b557600080fd5b81019080805190602001909291905050509350600160009054906101000a900473ffffffffffffffffffffffffffffffffffffffff1673ffffffffffffffffffffffffffffffffffffffff1663dd943d046040518163ffffffff167c0100000000000000000000000000000000000000000000000000000000028152600401602060405180830381600087803b15801561054e57600080fd5b505af1158015610562573d6000803e3d6000fd5b505050506040513d602081101561057857600080fd5b81019080805190602001909291905050509250600160009054906101000a900473ffffffffffffffffffffffffffffffffffffffff1673ffffffffffffffffffffffffffffffffffffffff1663ca033e7d6040518163ffffffff167c0100000000000000000000000000000000000000000000000000000000028152600401602060405180830381600087803b15801561061157600080fd5b505af1158015610625573d6000803e3d6000fd5b505050506040513d602081101561063b57600080fd5b810190808051906020019092919050505091508173ffffffffffffffffffffffffffffffffffffffff16630348525e600160009054906101000a900473ffffffffffffffffffffffffffffffffffffffff1673ffffffffffffffffffffffffffffffffffffffff16637171e7578d6040518263ffffffff167c0100000000000000000000000000000000000000000000000000000000028152600401808260001916600019168152602001915050602060405180830381600087803b15801561070357600080fd5b505af1158015610717573d6000803e3d6000fd5b505050506040513d602081101561072d57600080fd5b8101908080519060200190929190505050600160009054906101000a900473ffffffffffffffffffffffffffffffffffffffff1673ffffffffffffffffffffffffffffffffffffffff1663825074528e6040518263ffffffff167c0100000000000000000000000000000000000000000000000000000000028152600401808260001916600019168152602001915050602060405180830381600087803b1580156107d757600080fd5b505af11580156107eb573d6000803e3d6000fd5b505050506040513d602081101561080157600080fd5b81019080805190602001909291905050506040518363ffffffff167c0100000000000000000000000000000000000000000000000000000000028152600401808373ffffffffffffffffffffffffffffffffffffffff1673ffffffffffffffffffffffffffffffffffffffff168152602001826000191660001916815260200192505050602060405180830381600087803b15801561089f57600080fd5b505af11580156108b3573d6000803e3d6000fd5b505050506040513d60208110156108c957600080fd5b810190808051906020019092919050505015156108e557600080fd5b8273ffffffffffffffffffffffffffffffffffffffff16636e275bd2868633878c6040518663ffffffff167c0100000000000000000000000000000000000000000000000000000000028152600401808673ffffffffffffffffffffffffffffffffffffffff1673ffffffffffffffffffffffffffffffffffffffff1681526020018573ffffffffffffffffffffffffffffffffffffffff1673ffffffffffffffffffffffffffffffffffffffff1681526020018473ffffffffffffffffffffffffffffffffffffffff1673ffffffffffffffffffffffffffffffffffffffff1681526020018373ffffffffffffffffffffffffffffffffffffffff1673ffffffffffffffffffffffffffffffffffffffff16815260200182815260200195505050505050602060405180830381600087803b158015610a2457600080fd5b505af1158015610a38573d6000803e3d6000fd5b505050506040513d6020811015610a4e57600080fd5b81019080805190602001909291905050501515610a6a57600080fd5b600160009054906101000a900473ffffffffffffffffffffffffffffffffffffffff1673ffffffffffffffffffffffffffffffffffffffff16635faa7cee8b338b8b6040518563ffffffff167c01000000000000000000000000000000000000000000000000000000000281526004018085600019166000191681526020018473ffffffffffffffffffffffffffffffffffffffff1673ffffffffffffffffffffffffffffffffffffffff168152602001838152602001828152602001945050505050602060405180830381600087803b158015610b4757600080fd5b505af1158015610b5b573d6000803e3d6000fd5b505050506040513d6020811015610b7157600080fd5b8101908080519060200190929190505050905080600019168960001916141515610b9a57600080fd5b600160009054906101000a900473ffffffffffffffffffffffffffffffffffffffff1673ffffffffffffffffffffffffffffffffffffffff16634fc2c76c8b896040518363ffffffff167c010000000000000000000000000000000000000000000000000000000002815260040180836000191660001916815260200182815260200192505050602060405180830381600087803b158015610c3b57600080fd5b505af1158015610c4f573d6000803e3d6000fd5b505050506040513d6020811015610c6557600080fd5b810190808051906020019092919050505050600160009054906101000a900473ffffffffffffffffffffffffffffffffffffffff1673ffffffffffffffffffffffffffffffffffffffff1663b90a41498b8a8a6040518463ffffffff167c01000000000000000000000000000000000000000000000000000000000281526004018084600019166000191681526020018381526020018281526020019350505050602060405180830381600087803b158015610d2057600080fd5b505af1158015610d34573d6000803e3d6000fd5b505050506040513d6020811015610d4a57600080fd5b810190808051906020019092919050505050600195505050505050949350505050565b6000600160009054906101000a900473ffffffffffffffffffffffffffffffffffffffff16905090565b6000809054906101000a900473ffffffffffffffffffffffffffffffffffffffff1673ffffffffffffffffffffffffffffffffffffffff163373ffffffffffffffffffffffffffffffffffffffff16141515610df257600080fd5b600060149054906101000a900460ff161515610e0d57600080fd5b60008060146101000a81548160ff0219169083151502179055507f7805862f689e2f13df9f062ff482ad3ad112aca9e0847911ed832e158c525b3360405160405180910390a1565b600060149054906101000a900460ff1681565b6000809054906101000a900473ffffffffffffffffffffffffffffffffffffffff1673ffffffffffffffffffffffffffffffffffffffff163373ffffffffffffffffffffffffffffffffffffffff16141515610ec357600080fd5b6000809054906101000a900473ffffffffffffffffffffffffffffffffffffffff1673ffffffffffffffffffffffffffffffffffffffff167ff8df31144d9c2f0f6b59d69b8b98abd5459d07f2742c4df920b25aae33c6482060405160405180910390a260008060006101000a81548173ffffffffffffffffffffffffffffffffffffffff021916908373ffffffffffffffffffffffffffffffffffffffff160217905550565b6000806000806000600160009054906101000a900473ffffffffffffffffffffffffffffffffffffffff1673ffffffffffffffffffffffffffffffffffffffff1663dd943d046040518163ffffffff167c0100000000000000000000000000000000000000000000000000000000028152600401602060405180830381600087803b158015610ff857600080fd5b505af115801561100c573d6000803e3d6000fd5b505050506040513d602081101561102257600080fd5b81019080805190602001909291905050509350600160009054906101000a900473ffffffffffffffffffffffffffffffffffffffff1673ffffffffffffffffffffffffffffffffffffffff166380fabc916040518163ffffffff167c0100000000000000000000000000000000000000000000000000000000028152600401602060405180830381600087803b1580156110bb57600080fd5b505af11580156110cf573d6000803e3d6000fd5b505050506040513d60208110156110e557600080fd5b81019080805190602001909291905050509250600160009054906101000a900473ffffffffffffffffffffffffffffffffffffffff1673ffffffffffffffffffffffffffffffffffffffff1663ca033e7d6040518163ffffffff167c0100000000000000000000000000000000000000000000000000000000028152600401602060405180830381600087803b15801561117e57600080fd5b505af1158015611192573d6000803e3d6000fd5b505050506040513d60208110156111a857600080fd5b81019080805190602001909291905050509150600160009054906101000a900473ffffffffffffffffffffffffffffffffffffffff1673ffffffffffffffffffffffffffffffffffffffff166381bf370288886040518363ffffffff167c0100000000000000000000000000000000000000000000000000000000028152600401808360001916600019168152602001826000191660001916815260200192505050602060405180830381600087803b15801561126457600080fd5b505af1158015611278573d6000803e3d6000fd5b505050506040513d602081101561128e57600080fd5b810190808051906020019092919050505073ffffffffffffffffffffffffffffffffffffffff163373ffffffffffffffffffffffffffffffffffffffff161415156112d857600080fd5b600160009054906101000a900473ffffffffffffffffffffffffffffffffffffffff1673ffffffffffffffffffffffffffffffffffffffff16639d5e693888886040518363ffffffff167c0100000000000000000000000000000000000000000000000000000000028152600401808360001916600019168152602001826000191660001916815260200192505050602060405180830381600087803b15801561138157600080fd5b505af1158015611395573d6000803e3d6000fd5b505050506040513d60208110156113ab57600080fd5b81019080805190602001909291905050501515156113c857600080fd5b8273ffffffffffffffffffffffffffffffffffffffff1663a03db036600160009054906101000a900473ffffffffffffffffffffffffffffffffffffffff1673ffffffffffffffffffffffffffffffffffffffff166330cdb40d8a6040518263ffffffff167c0100000000000000000000000000000000000000000000000000000000028152600401808260001916600019168152602001915050602060405180830381600087803b15801561147d57600080fd5b505af1158015611491573d6000803e3d6000fd5b505050506040513d60208110156114a757600080fd5b8101908080519060200190929190505050896040518363ffffffff167c0100000000000000000000000000000000000000000000000000000000028152600401808373ffffffffffffffffffffffffffffffffffffffff1673ffffffffffffffffffffffffffffffffffffffff168152602001826000191660001916815260200192505050602060405180830381600087803b15801561154657600080fd5b505af115801561155a573d6000803e3d6000fd5b505050506040513d602081101561157057600080fd5b8101908080519060200190929190505050151561158c57600080fd5b600160009054906101000a900473ffffffffffffffffffffffffffffffffffffffff1673ffffffffffffffffffffffffffffffffffffffff16637d95ff8988886040518363ffffffff167c0100000000000000000000000000000000000000000000000000000000028152600401808360001916600019168152602001826000191660001916815260200192505050602060405180830381600087803b15801561163557600080fd5b505af1158015611649573d6000803e3d6000fd5b505050506040513d602081101561165f57600080fd5b81019080805190602001909291905050508373ffffffffffffffffffffffffffffffffffffffff1663ef5cc573600160009054906101000a900473ffffffffffffffffffffffffffffffffffffffff1673ffffffffffffffffffffffffffffffffffffffff166330cdb40d8b6040518263ffffffff167c0100000000000000000000000000000000000000000000000000000000028152600401808260001916600019168152602001915050602060405180830381600087803b15801561172557600080fd5b505af1158015611739573d6000803e3d6000fd5b505050506040513d602081101561174f57600080fd5b81019080805190602001909291905050508a6040518363ffffffff167c0100000000000000000000000000000000000000000000000000000000028152600401808373ffffffffffffffffffffffffffffffffffffffff1673ffffffffffffffffffffffffffffffffffffffff168152602001826000191660001916815260200192505050602060405180830381600087803b1580156117ee57600080fd5b505af1158015611802573d6000803e3d6000fd5b505050506040513d602081101561181857600080fd5b8101908080519060200190929190505050141515611839576000945061224e565b8173ffffffffffffffffffffffffffffffffffffffff16631d765158600160009054906101000a900473ffffffffffffffffffffffffffffffffffffffff1673ffffffffffffffffffffffffffffffffffffffff16637171e7578a6040518263ffffffff167c0100000000000000000000000000000000000000000000000000000000028152600401808260001916600019168152602001915050602060405180830381600087803b1580156118ee57600080fd5b505af1158015611902573d6000803e3d6000fd5b505050506040513d602081101561191857600080fd5b8101908080519060200190929190505050600160009054906101000a900473ffffffffffffffffffffffffffffffffffffffff1673ffffffffffffffffffffffffffffffffffffffff1663825074528b6040518263ffffffff167c0100000000000000000000000000000000000000000000000000000000028152600401808260001916600019168152602001915050602060405180830381600087803b1580156119c257600080fd5b505af11580156119d6573d6000803e3d6000fd5b505050506040513d60208110156119ec57600080fd5b81019080805190602001909291905050506040518363ffffffff167c0100000000000000000000000000000000000000000000000000000000028152600401808373ffffffffffffffffffffffffffffffffffffffff1673ffffffffffffffffffffffffffffffffffffffff168152602001826000191660001916815260200192505050602060405180830381600087803b158015611a8a57600080fd5b505af1158015611a9e573d6000803e3d6000fd5b505050506040513d6020811015611ab457600080fd5b81019080805190602001909291905050501515611ad057600080fd5b600160009054906101000a900473ffffffffffffffffffffffffffffffffffffffff1673ffffffffffffffffffffffffffffffffffffffff1663b2aa5d0c88886040518363ffffffff167c0100000000000000000000000000000000000000000000000000000000028152600401808360001916600019168152602001826000191660001916815260200192505050602060405180830381600087803b158015611b7957600080fd5b505af1158015611b8d573d6000803e3d6000fd5b505050506040513d6020811015611ba357600080fd5b8101908080519060200190929190505050600160009054906101000a900473ffffffffffffffffffffffffffffffffffffffff1673ffffffffffffffffffffffffffffffffffffffff16632659a07489600160009054906101000a900473ffffffffffffffffffffffffffffffffffffffff1673ffffffffffffffffffffffffffffffffffffffff16637d95ff898c8c6040518363ffffffff167c0100000000000000000000000000000000000000000000000000000000028152600401808360001916600019168152602001826000191660001916815260200192505050602060405180830381600087803b158015611c9c57600080fd5b505af1158015611cb0573d6000803e3d6000fd5b505050506040513d6020811015611cc657600080fd5b81019080805190602001909291905050506040518363ffffffff167c010000000000000000000000000000000000000000000000000000000002815260040180836000191660001916815260200182815260200192505050602060405180830381600087803b158015611d3857600080fd5b505af1158015611d4c573d6000803e3d6000fd5b505050506040513d6020811015611d6257600080fd5b8101908080519060200190929190505050811515611d7c57fe5b04905080600160009054906101000a900473ffffffffffffffffffffffffffffffffffffffff1673ffffffffffffffffffffffffffffffffffffffff1663afc27791896040518263ffffffff167c0100000000000000000000000000000000000000000000000000000000028152600401808260001916600019168152602001915050602060405180830381600087803b158015611e1957600080fd5b505af1158015611e2d573d6000803e3d6000fd5b505050506040513d6020811015611e4357600080fd5b8101908080519060200190929190505050811515611e5d57fe5b0490508373ffffffffffffffffffffffffffffffffffffffff1663f18d03cc600160009054906101000a900473ffffffffffffffffffffffffffffffffffffffff1673ffffffffffffffffffffffffffffffffffffffff166314715bcc8a6040518263ffffffff167c0100000000000000000000000000000000000000000000000000000000028152600401808260001916600019168152602001915050602060405180830381600087803b158015611f1557600080fd5b505af1158015611f29573d6000803e3d6000fd5b505050506040513d6020811015611f3f57600080fd5b8101908080519060200190929190505050600160009054906101000a900473ffffffffffffffffffffffffffffffffffffffff1673ffffffffffffffffffffffffffffffffffffffff1663de1028e18b6040518263ffffffff167c0100000000000000000000000000000000000000000000000000000000028152600401808260001916600019168152602001915050602060405180830381600087803b158015611fe957600080fd5b505af1158015611ffd573d6000803e3d6000fd5b505050506040513d602081101561201357600080fd5b810190808051906020019092919050505033856040518563ffffffff167c0100000000000000000000000000000000000000000000000000000000028152600401808573ffffffffffffffffffffffffffffffffffffffff1673ffffffffffffffffffffffffffffffffffffffff1681526020018473ffffffffffffffffffffffffffffffffffffffff1673ffffffffffffffffffffffffffffffffffffffff1681526020018373ffffffffffffffffffffffffffffffffffffffff1673ffffffffffffffffffffffffffffffffffffffff168152602001828152602001945050505050602060405180830381600087803b15801561211157600080fd5b505af1158015612125573d6000803e3d6000fd5b505050506040513d602081101561213b57600080fd5b8101908080519060200190929190505050151561215757600080fd5b600160009054906101000a900473ffffffffffffffffffffffffffffffffffffffff1673ffffffffffffffffffffffffffffffffffffffff166341b273bb888860016040518463ffffffff167c01000000000000000000000000000000000000000000000000000000000281526004018084600019166000191681526020018360001916600019168152602001821515151581526020019350505050602060405180830381600087803b15801561220d57600080fd5b505af1158015612221573d6000803e3d6000fd5b505050506040513d602081101561223757600080fd5b810190808051906020019092919050505050600194505b5050505092915050565b6000809054906101000a900473ffffffffffffffffffffffffffffffffffffffff1673ffffffffffffffffffffffffffffffffffffffff163373ffffffffffffffffffffffffffffffffffffffff161415156122b357600080fd5b600060149054906101000a900460ff161515156122cf57600080fd5b6001600060146101000a81548160ff0219169083151502179055507f6985a02210a168e66602d3235cb6db0e70f92b3ba4d376a33c0f3d9434bff62560405160405180910390a1565b6000809054906101000a900473ffffffffffffffffffffffffffffffffffffffff1681565b6000809054906101000a900473ffffffffffffffffffffffffffffffffffffffff1673ffffffffffffffffffffffffffffffffffffffff163373ffffffffffffffffffffffffffffffffffffffff1614151561239857600080fd5b80600160006101000a81548173ffffffffffffffffffffffffffffffffffffffff021916908373ffffffffffffffffffffffffffffffffffffffff16021790555060001515600060149054906101000a900460ff16151514156123fe576123fd612258565b5b50565b6000809054906101000a900473ffffffffffffffffffffffffffffffffffffffff1673ffffffffffffffffffffffffffffffffffffffff163373ffffffffffffffffffffffffffffffffffffffff1614151561245c57600080fd5b61246581612468565b50565b600073ffffffffffffffffffffffffffffffffffffffff168173ffffffffffffffffffffffffffffffffffffffff16141515156124a457600080fd5b8073ffffffffffffffffffffffffffffffffffffffff166000809054906101000a900473ffffffffffffffffffffffffffffffffffffffff1673ffffffffffffffffffffffffffffffffffffffff167f8be0079c531659141344cd1fd0a4f28419497f9722a3daafe3b4186f6b6457e060405160405180910390a3806000806101000a81548173ffffffffffffffffffffffffffffffffffffffff021916908373ffffffffffffffffffffffffffffffffffffffff160217905550505600a165627a7a72305820f6f38229a187da2759c62504532de5cea2f664f0bbe377e4e7f425afb7d4aea80029",
  "source": "pragma solidity 0.4.24;\n\n// Internal\nimport \"../ProxyInterfaces/BetKernelProxyInterface.sol\";\nimport \"../RegistrySetter.sol\";\nimport \"../BetPayments.sol\";\nimport \"../BetOracle.sol\";\nimport \"../BetTerms.sol\";\n// External\nimport \"openzeppelin-solidity/contracts/token/ERC20/ERC20.sol\";\n\n\n/**\n * An ERC20 implementation for the kernel used in the Guesser Protocol\n * It has to inherate from the RegistrySetter so it can get called throught\n * a delegate call from the BetPayments contract.\n *\n * Author: Carlos Gonzalez -- Github: carlosgj94\n */\n/** @title ERC20BetKernelProxy. */\ncontract ERC20BetKernelProxy is RegistrySetter, BetKernelProxyInterface {\n\n    modifier onlyBetOwner(bytes32 _betHash) {\n        require(betRegistry.getBetCreator(_betHash) == msg.sender);\n        _;\n    }\n\n    /**\n     * @dev Function that places a bet and returns its hash\n     * @param _betHash bytes32 the hash of the bet\n     * @param _option uint the option voted\n     * @param _number uint the amount voted\n     * @return bool the amount of tokens sent\n     */\n    function placeBet(\n        bytes32 _betHash,\n        bytes32 _playerBetHashProof,\n        uint _option,\n        uint _number\n    )\n        public\n        returns(bool)\n    {\n        address _paymentsProxy = betRegistry.getBetPaymentsProxy(_betHash);\n        address _paymentsToken = betRegistry.getBetPaymentsToken(_betHash);\n\n        BetPayments _betPayments = BetPayments(betRegistry.betPayments());\n        BetTerms _betTerms = BetTerms(betRegistry.betTerms());\n        require(\n            _betTerms.participationPeriod(\n                betRegistry.getBetTermsProxy(_betHash),\n                betRegistry.getBetTermsHash(_betHash)\n            )\n        );\n\n        require(\n            _betPayments.transferFrom(\n                _paymentsProxy,\n                _paymentsToken,\n                msg.sender,\n                address(_betPayments),\n                _number\n            )\n        );\n        // Creating the actual bet and returning the hash\n        bytes32 _playerBetHash = betRegistry.insertPlayerBet(\n            _betHash,\n            msg.sender,\n            _option,\n            _number\n        );\n\n        require(_playerBetHashProof == _playerBetHash);\n\n        betRegistry.addTotalPrincipal(\n            _betHash,\n            _number\n        );\n        betRegistry.addToOption(\n            _betHash,\n            _option,\n            _number\n        );\n\n        return true;\n\n    }\n\n    /**\n     * @dev Function that ask for the profits of a user\n     * @param _betHash bytes32 the hash of the bet\n     * @param _playerBetHash bytes32 the hash of the game bet the player played\n     * @return uint the amount of tokens sent\n     */\n    function getProfits(\n        bytes32 _betHash,\n        bytes32 _playerBetHash\n    )\n        public\n        returns(bool)\n    {\n        BetPayments _betPayments = BetPayments(betRegistry.betPayments());\n        BetOracle _betOracle = BetOracle(betRegistry.betOracle());\n        BetTerms _betTerms = BetTerms(betRegistry.betTerms());\n        \n        require(msg.sender == betRegistry.getPlayerBetPlayer(_betHash, _playerBetHash));\n        require(!betRegistry.getPlayerBetReturned(_betHash, _playerBetHash));\n\n        require(\n            _betOracle.outcomeReady(\n                betRegistry.getBetOracleProxy(_betHash),\n                _betHash\n            )\n        );\n        if (\n            _betOracle.getOutcome(\n                betRegistry.getBetOracleProxy(_betHash),\n                _betHash\n            ) != betRegistry.getPlayerBetOption(_betHash, _playerBetHash)\n        ) \n            return false;\n\n        require(\n            _betTerms.retrievingPeriod(\n                betRegistry.getBetTermsProxy(_betHash),\n                betRegistry.getBetTermsHash(_betHash)\n            )\n        );\n        uint _profits = betRegistry.getPrincipalInOption(\n                _betHash,\n                betRegistry.getPlayerBetOption(_betHash, _playerBetHash)\n            ) / betRegistry.getPlayerBetPrincipal(_betHash, _playerBetHash);\n        _profits = betRegistry.getTotalPrincipal(_betHash) / _profits;\n        // Return the money\n        require(\n            _betPayments.transfer(\n                betRegistry.getBetPaymentsProxy(_betHash),\n                betRegistry.getBetPaymentsToken(_betHash),\n                msg.sender,\n                _profits\n            )\n        );\n        betRegistry.setPlayerBetReturned(_betHash, _playerBetHash, true);\n\n        return true;\n    }\n}\n",
  "sourcePath": "/Users/carlosgonzalezjuarez/Documents/Development/GuesserProtocol/contracts/BetKernelProxies/ERC20BetKernelProxy.sol",
  "compiler": {
    "name": "solc",
    "version": "0.4.24+commit.e67f0147.Emscripten.clang"
  },
  "schemaVersion": "2.0.1",
  "updatedAt": "2018-09-21T11:41:43.966Z"
}