{
  "contractName": "ERC20PaymentProxy",
  "abi": [
    {
      "constant": true,
      "inputs": [],
      "name": "betRegistry",
      "outputs": [
        {
          "name": "",
          "type": "address"
        }
      ],
      "payable": false,
      "stateMutability": "view",
      "type": "function"
    },
    {
      "constant": false,
      "inputs": [],
      "name": "unpause",
      "outputs": [],
      "payable": false,
      "stateMutability": "nonpayable",
      "type": "function"
    },
    {
      "constant": true,
      "inputs": [],
      "name": "paused",
      "outputs": [
        {
          "name": "",
          "type": "bool"
        }
      ],
      "payable": false,
      "stateMutability": "view",
      "type": "function"
    },
    {
      "constant": false,
      "inputs": [],
      "name": "renounceOwnership",
      "outputs": [],
      "payable": false,
      "stateMutability": "nonpayable",
      "type": "function"
    },
    {
      "constant": false,
      "inputs": [],
      "name": "pause",
      "outputs": [],
      "payable": false,
      "stateMutability": "nonpayable",
      "type": "function"
    },
    {
      "constant": true,
      "inputs": [],
      "name": "owner",
      "outputs": [
        {
          "name": "",
          "type": "address"
        }
      ],
      "payable": false,
      "stateMutability": "view",
      "type": "function"
    },
    {
      "constant": false,
      "inputs": [
        {
          "name": "_betRegistry",
          "type": "address"
        }
      ],
      "name": "setBetRegistry",
      "outputs": [],
      "payable": false,
      "stateMutability": "nonpayable",
      "type": "function"
    },
    {
      "constant": false,
      "inputs": [
        {
          "name": "_newOwner",
          "type": "address"
        }
      ],
      "name": "transferOwnership",
      "outputs": [],
      "payable": false,
      "stateMutability": "nonpayable",
      "type": "function"
    },
    {
      "anonymous": false,
      "inputs": [],
      "name": "Pause",
      "type": "event"
    },
    {
      "anonymous": false,
      "inputs": [],
      "name": "Unpause",
      "type": "event"
    },
    {
      "anonymous": false,
      "inputs": [
        {
          "indexed": true,
          "name": "previousOwner",
          "type": "address"
        }
      ],
      "name": "OwnershipRenounced",
      "type": "event"
    },
    {
      "anonymous": false,
      "inputs": [
        {
          "indexed": true,
          "name": "previousOwner",
          "type": "address"
        },
        {
          "indexed": true,
          "name": "newOwner",
          "type": "address"
        }
      ],
      "name": "OwnershipTransferred",
      "type": "event"
    },
    {
      "constant": true,
      "inputs": [
        {
          "name": "_token",
          "type": "address"
        },
        {
          "name": "_owner",
          "type": "address"
        }
      ],
      "name": "allowance",
      "outputs": [
        {
          "name": "",
          "type": "uint256"
        }
      ],
      "payable": false,
      "stateMutability": "view",
      "type": "function"
    },
    {
      "constant": false,
      "inputs": [
        {
          "name": "_token",
          "type": "address"
        },
        {
          "name": "_from",
          "type": "address"
        },
        {
          "name": "_to",
          "type": "address"
        },
        {
          "name": "_profit",
          "type": "uint256"
        }
      ],
      "name": "transferFrom",
      "outputs": [
        {
          "name": "",
          "type": "bool"
        }
      ],
      "payable": false,
      "stateMutability": "nonpayable",
      "type": "function"
    }
  ],
  "bytecode": "0x608060405260008060146101000a81548160ff021916908315150217905550336000806101000a81548173ffffffffffffffffffffffffffffffffffffffff021916908373ffffffffffffffffffffffffffffffffffffffff160217905550610ad08061006d6000396000f3006080604052600436106100a4576000357c0100000000000000000000000000000000000000000000000000000000900463ffffffff16806315dacbea146100a95780631ff677bf1461014e5780633f4ba83a146101a55780635c975abb146101bc578063715018a6146101eb5780638456cb59146102025780638da5cb5b14610219578063dd62ed3e14610270578063efdb2b46146102e7578063f2fde38b1461032a575b600080fd5b3480156100b557600080fd5b50610134600480360381019080803573ffffffffffffffffffffffffffffffffffffffff169060200190929190803573ffffffffffffffffffffffffffffffffffffffff169060200190929190803573ffffffffffffffffffffffffffffffffffffffff1690602001909291908035906020019092919050505061036d565b604051808215151515815260200191505060405180910390f35b34801561015a57600080fd5b5061016361048e565b604051808273ffffffffffffffffffffffffffffffffffffffff1673ffffffffffffffffffffffffffffffffffffffff16815260200191505060405180910390f35b3480156101b157600080fd5b506101ba6104b4565b005b3480156101c857600080fd5b506101d1610572565b604051808215151515815260200191505060405180910390f35b3480156101f757600080fd5b50610200610585565b005b34801561020e57600080fd5b50610217610687565b005b34801561022557600080fd5b5061022e610747565b604051808273ffffffffffffffffffffffffffffffffffffffff1673ffffffffffffffffffffffffffffffffffffffff16815260200191505060405180910390f35b34801561027c57600080fd5b506102d1600480360381019080803573ffffffffffffffffffffffffffffffffffffffff169060200190929190803573ffffffffffffffffffffffffffffffffffffffff16906020019092919050505061076c565b6040518082815260200191505060405180910390f35b3480156102f357600080fd5b50610328600480360381019080803573ffffffffffffffffffffffffffffffffffffffff169060200190929190505050610880565b005b34801561033657600080fd5b5061036b600480360381019080803573ffffffffffffffffffffffffffffffffffffffff169060200190929190505050610943565b005b60008473ffffffffffffffffffffffffffffffffffffffff166323b872dd8585856040518463ffffffff167c0100000000000000000000000000000000000000000000000000000000028152600401808473ffffffffffffffffffffffffffffffffffffffff1673ffffffffffffffffffffffffffffffffffffffff1681526020018373ffffffffffffffffffffffffffffffffffffffff1673ffffffffffffffffffffffffffffffffffffffff1681526020018281526020019350505050602060405180830381600087803b15801561044657600080fd5b505af115801561045a573d6000803e3d6000fd5b505050506040513d602081101561047057600080fd5b81019080805190602001909291905050505060019050949350505050565b600160009054906101000a900473ffffffffffffffffffffffffffffffffffffffff1681565b6000809054906101000a900473ffffffffffffffffffffffffffffffffffffffff1673ffffffffffffffffffffffffffffffffffffffff163373ffffffffffffffffffffffffffffffffffffffff1614151561050f57600080fd5b600060149054906101000a900460ff16151561052a57600080fd5b60008060146101000a81548160ff0219169083151502179055507f7805862f689e2f13df9f062ff482ad3ad112aca9e0847911ed832e158c525b3360405160405180910390a1565b600060149054906101000a900460ff1681565b6000809054906101000a900473ffffffffffffffffffffffffffffffffffffffff1673ffffffffffffffffffffffffffffffffffffffff163373ffffffffffffffffffffffffffffffffffffffff161415156105e057600080fd5b6000809054906101000a900473ffffffffffffffffffffffffffffffffffffffff1673ffffffffffffffffffffffffffffffffffffffff167ff8df31144d9c2f0f6b59d69b8b98abd5459d07f2742c4df920b25aae33c6482060405160405180910390a260008060006101000a81548173ffffffffffffffffffffffffffffffffffffffff021916908373ffffffffffffffffffffffffffffffffffffffff160217905550565b6000809054906101000a900473ffffffffffffffffffffffffffffffffffffffff1673ffffffffffffffffffffffffffffffffffffffff163373ffffffffffffffffffffffffffffffffffffffff161415156106e257600080fd5b600060149054906101000a900460ff161515156106fe57600080fd5b6001600060146101000a81548160ff0219169083151502179055507f6985a02210a168e66602d3235cb6db0e70f92b3ba4d376a33c0f3d9434bff62560405160405180910390a1565b6000809054906101000a900473ffffffffffffffffffffffffffffffffffffffff1681565b60008273ffffffffffffffffffffffffffffffffffffffff1663dd62ed3e83336040518363ffffffff167c0100000000000000000000000000000000000000000000000000000000028152600401808373ffffffffffffffffffffffffffffffffffffffff1673ffffffffffffffffffffffffffffffffffffffff1681526020018273ffffffffffffffffffffffffffffffffffffffff1673ffffffffffffffffffffffffffffffffffffffff16815260200192505050602060405180830381600087803b15801561083d57600080fd5b505af1158015610851573d6000803e3d6000fd5b505050506040513d602081101561086757600080fd5b8101908080519060200190929190505050905092915050565b6000809054906101000a900473ffffffffffffffffffffffffffffffffffffffff1673ffffffffffffffffffffffffffffffffffffffff163373ffffffffffffffffffffffffffffffffffffffff161415156108db57600080fd5b600060149054906101000a900460ff161515156108f757600080fd5b80600160006101000a81548173ffffffffffffffffffffffffffffffffffffffff021916908373ffffffffffffffffffffffffffffffffffffffff160217905550610940610687565b50565b6000809054906101000a900473ffffffffffffffffffffffffffffffffffffffff1673ffffffffffffffffffffffffffffffffffffffff163373ffffffffffffffffffffffffffffffffffffffff1614151561099e57600080fd5b6109a7816109aa565b50565b600073ffffffffffffffffffffffffffffffffffffffff168173ffffffffffffffffffffffffffffffffffffffff16141515156109e657600080fd5b8073ffffffffffffffffffffffffffffffffffffffff166000809054906101000a900473ffffffffffffffffffffffffffffffffffffffff1673ffffffffffffffffffffffffffffffffffffffff167f8be0079c531659141344cd1fd0a4f28419497f9722a3daafe3b4186f6b6457e060405160405180910390a3806000806101000a81548173ffffffffffffffffffffffffffffffffffffffff021916908373ffffffffffffffffffffffffffffffffffffffff160217905550505600a165627a7a7230582032bc3a6640853a8cec502a5a10281d4e207fea40b022d06deb6b557c4834d5d50029",
  "source": "pragma solidity 0.4.24;\n\n// Internal\nimport \"../ProxyInterfaces/BetPaymentsProxyInterface.sol\";\nimport \"../RegistrySetter.sol\";\n// External\nimport \"openzeppelin-solidity/contracts/token/ERC20/ERC20.sol\";\n\n\n/**\n * An ERC20 implementation for the payments used in the Guesser Protocol\n * It has to inherate from the BetRegistry so it can get called throught\n * a delegate call from the BetPayments contract.\n *\n * Author: Carlos Gonzalez -- Github: carlosgj94\n */\n/** @title ERC20PaymentProxy. */\ncontract ERC20PaymentProxy is RegistrySetter, BetPaymentsProxyInterface {\n\n    /**\n     * @dev Function that tells the balance of the bet\n     * @param _owner address Address of the better\n     * @return uint the balance of the user\n     */\n    function allowance(address _token, address _owner)\n        public\n        view\n        returns(uint)\n    {\n        return ERC20(_token).allowance(_owner, msg.sender);\n    }\n\n    /**\n     * @dev Function to send the profits the bet has to a winner\n     * @param _from address Address of the current owner\n     * @param _to address Address of the beneficiary\n     * @param _profit uint this will depend in the child token if it is\n     * an ERC721 or ERC20 Token. But it's the profit the person gets\n     * @return bool if the transaction was succesfull\n     */\n    function transferFrom(\n        address _token,\n        address _from,\n        address _to,\n        uint _profit\n    )\n        public\n        returns(bool)\n    {\n        ERC20(_token).transferFrom(_from, _to, _profit);\n        return true;\n    }\n}\n",
  "sourcePath": "/Users/carlosgonzalezjuarez/Documents/Development/GuesserProtocol/contracts/BetPaymentsProxies/ERC20PaymentProxy.sol",
  "compiler": {
    "name": "solc",
    "version": "0.4.24+commit.e67f0147.Emscripten.clang"
  },
  "schemaVersion": "2.0.0",
  "updatedAt": "2018-07-09T17:18:59.766Z"
}