{
  "contractName": "ETHBetKernelProxy",
  "abi": [
    {
      "constant": true,
      "inputs": [],
      "name": "betRegistry",
      "outputs": [
        {
          "name": "",
          "type": "address"
        }
      ],
      "payable": false,
      "stateMutability": "view",
      "type": "function"
    },
    {
      "constant": false,
      "inputs": [],
      "name": "unpause",
      "outputs": [],
      "payable": false,
      "stateMutability": "nonpayable",
      "type": "function"
    },
    {
      "constant": true,
      "inputs": [],
      "name": "paused",
      "outputs": [
        {
          "name": "",
          "type": "bool"
        }
      ],
      "payable": false,
      "stateMutability": "view",
      "type": "function"
    },
    {
      "constant": false,
      "inputs": [],
      "name": "renounceOwnership",
      "outputs": [],
      "payable": false,
      "stateMutability": "nonpayable",
      "type": "function"
    },
    {
      "constant": false,
      "inputs": [],
      "name": "pause",
      "outputs": [],
      "payable": false,
      "stateMutability": "nonpayable",
      "type": "function"
    },
    {
      "constant": true,
      "inputs": [],
      "name": "owner",
      "outputs": [
        {
          "name": "",
          "type": "address"
        }
      ],
      "payable": false,
      "stateMutability": "view",
      "type": "function"
    },
    {
      "constant": false,
      "inputs": [
        {
          "name": "_betRegistry",
          "type": "address"
        }
      ],
      "name": "setBetRegistry",
      "outputs": [],
      "payable": false,
      "stateMutability": "nonpayable",
      "type": "function"
    },
    {
      "constant": false,
      "inputs": [
        {
          "name": "_newOwner",
          "type": "address"
        }
      ],
      "name": "transferOwnership",
      "outputs": [],
      "payable": false,
      "stateMutability": "nonpayable",
      "type": "function"
    },
    {
      "anonymous": false,
      "inputs": [],
      "name": "Pause",
      "type": "event"
    },
    {
      "anonymous": false,
      "inputs": [],
      "name": "Unpause",
      "type": "event"
    },
    {
      "anonymous": false,
      "inputs": [
        {
          "indexed": true,
          "name": "previousOwner",
          "type": "address"
        }
      ],
      "name": "OwnershipRenounced",
      "type": "event"
    },
    {
      "anonymous": false,
      "inputs": [
        {
          "indexed": true,
          "name": "previousOwner",
          "type": "address"
        },
        {
          "indexed": true,
          "name": "newOwner",
          "type": "address"
        }
      ],
      "name": "OwnershipTransferred",
      "type": "event"
    },
    {
      "constant": false,
      "inputs": [
        {
          "name": "_betHash",
          "type": "bytes32"
        },
        {
          "name": "_playerBetHashProof",
          "type": "bytes32"
        },
        {
          "name": "_player",
          "type": "address"
        },
        {
          "name": "_option",
          "type": "uint256"
        },
        {
          "name": "_number",
          "type": "uint256"
        }
      ],
      "name": "placeBet",
      "outputs": [
        {
          "name": "",
          "type": "bool"
        }
      ],
      "payable": true,
      "stateMutability": "payable",
      "type": "function"
    },
    {
      "constant": false,
      "inputs": [
        {
          "name": "_betHash",
          "type": "bytes32"
        },
        {
          "name": "_playerBetHash",
          "type": "bytes32"
        }
      ],
      "name": "getProfits",
      "outputs": [
        {
          "name": "",
          "type": "bool"
        }
      ],
      "payable": false,
      "stateMutability": "nonpayable",
      "type": "function"
    }
  ],
  "bytecode": "0x608060405260008060146101000a81548160ff021916908315150217905550336000806101000a81548173ffffffffffffffffffffffffffffffffffffffff021916908373ffffffffffffffffffffffffffffffffffffffff160217905550612a4d8061006d6000396000f3006080604052600436106100a4576000357c0100000000000000000000000000000000000000000000000000000000900463ffffffff1680631ff677bf146100a95780633f4ba83a146101005780635c975abb14610117578063715018a6146101465780637355ac8f1461015d5780638456cb59146101b45780638da5cb5b146101cb57806395eb006d14610222578063efdb2b46146102a0578063f2fde38b146102e3575b600080fd5b3480156100b557600080fd5b506100be610326565b604051808273ffffffffffffffffffffffffffffffffffffffff1673ffffffffffffffffffffffffffffffffffffffff16815260200191505060405180910390f35b34801561010c57600080fd5b50610115610350565b005b34801561012357600080fd5b5061012c61040e565b604051808215151515815260200191505060405180910390f35b34801561015257600080fd5b5061015b610421565b005b34801561016957600080fd5b5061019a60048036038101908080356000191690602001909291908035600019169060200190929190505050610523565b604051808215151515815260200191505060405180910390f35b3480156101c057600080fd5b506101c96119b2565b005b3480156101d757600080fd5b506101e0611a72565b604051808273ffffffffffffffffffffffffffffffffffffffff1673ffffffffffffffffffffffffffffffffffffffff16815260200191505060405180910390f35b61028660048036038101908080356000191690602001909291908035600019169060200190929190803573ffffffffffffffffffffffffffffffffffffffff1690602001909291908035906020019092919080359060200190929190505050611a97565b604051808215151515815260200191505060405180910390f35b3480156102ac57600080fd5b506102e1600480360381019080803573ffffffffffffffffffffffffffffffffffffffff1690602001909291905050506127fc565b005b3480156102ef57600080fd5b50610324600480360381019080803573ffffffffffffffffffffffffffffffffffffffff1690602001909291905050506128c0565b005b6000600160009054906101000a900473ffffffffffffffffffffffffffffffffffffffff16905090565b6000809054906101000a900473ffffffffffffffffffffffffffffffffffffffff1673ffffffffffffffffffffffffffffffffffffffff163373ffffffffffffffffffffffffffffffffffffffff161415156103ab57600080fd5b600060149054906101000a900460ff1615156103c657600080fd5b60008060146101000a81548160ff0219169083151502179055507f7805862f689e2f13df9f062ff482ad3ad112aca9e0847911ed832e158c525b3360405160405180910390a1565b600060149054906101000a900460ff1681565b6000809054906101000a900473ffffffffffffffffffffffffffffffffffffffff1673ffffffffffffffffffffffffffffffffffffffff163373ffffffffffffffffffffffffffffffffffffffff1614151561047c57600080fd5b6000809054906101000a900473ffffffffffffffffffffffffffffffffffffffff1673ffffffffffffffffffffffffffffffffffffffff167ff8df31144d9c2f0f6b59d69b8b98abd5459d07f2742c4df920b25aae33c6482060405160405180910390a260008060006101000a81548173ffffffffffffffffffffffffffffffffffffffff021916908373ffffffffffffffffffffffffffffffffffffffff160217905550565b6000806000806000600160009054906101000a900473ffffffffffffffffffffffffffffffffffffffff1673ffffffffffffffffffffffffffffffffffffffff1663dd943d046040518163ffffffff167c0100000000000000000000000000000000000000000000000000000000028152600401602060405180830381600087803b1580156105b157600080fd5b505af11580156105c5573d6000803e3d6000fd5b505050506040513d60208110156105db57600080fd5b81019080805190602001909291905050509350600160009054906101000a900473ffffffffffffffffffffffffffffffffffffffff1673ffffffffffffffffffffffffffffffffffffffff166380fabc916040518163ffffffff167c0100000000000000000000000000000000000000000000000000000000028152600401602060405180830381600087803b15801561067457600080fd5b505af1158015610688573d6000803e3d6000fd5b505050506040513d602081101561069e57600080fd5b81019080805190602001909291905050509250600160009054906101000a900473ffffffffffffffffffffffffffffffffffffffff1673ffffffffffffffffffffffffffffffffffffffff1663ca033e7d6040518163ffffffff167c0100000000000000000000000000000000000000000000000000000000028152600401602060405180830381600087803b15801561073757600080fd5b505af115801561074b573d6000803e3d6000fd5b505050506040513d602081101561076157600080fd5b81019080805190602001909291905050509150600160009054906101000a900473ffffffffffffffffffffffffffffffffffffffff1673ffffffffffffffffffffffffffffffffffffffff166381bf370288886040518363ffffffff167c0100000000000000000000000000000000000000000000000000000000028152600401808360001916600019168152602001826000191660001916815260200192505050602060405180830381600087803b15801561081d57600080fd5b505af1158015610831573d6000803e3d6000fd5b505050506040513d602081101561084757600080fd5b810190808051906020019092919050505073ffffffffffffffffffffffffffffffffffffffff163373ffffffffffffffffffffffffffffffffffffffff1614151561089157600080fd5b600160009054906101000a900473ffffffffffffffffffffffffffffffffffffffff1673ffffffffffffffffffffffffffffffffffffffff16639d5e693888886040518363ffffffff167c0100000000000000000000000000000000000000000000000000000000028152600401808360001916600019168152602001826000191660001916815260200192505050602060405180830381600087803b15801561093a57600080fd5b505af115801561094e573d6000803e3d6000fd5b505050506040513d602081101561096457600080fd5b810190808051906020019092919050505015151561098157600080fd5b8273ffffffffffffffffffffffffffffffffffffffff1663a03db036600160009054906101000a900473ffffffffffffffffffffffffffffffffffffffff1673ffffffffffffffffffffffffffffffffffffffff166330cdb40d8a6040518263ffffffff167c0100000000000000000000000000000000000000000000000000000000028152600401808260001916600019168152602001915050602060405180830381600087803b158015610a3657600080fd5b505af1158015610a4a573d6000803e3d6000fd5b505050506040513d6020811015610a6057600080fd5b8101908080519060200190929190505050896040518363ffffffff167c0100000000000000000000000000000000000000000000000000000000028152600401808373ffffffffffffffffffffffffffffffffffffffff1673ffffffffffffffffffffffffffffffffffffffff168152602001826000191660001916815260200192505050602060405180830381600087803b158015610aff57600080fd5b505af1158015610b13573d6000803e3d6000fd5b505050506040513d6020811015610b2957600080fd5b81019080805190602001909291905050501515610b4557600080fd5b600160009054906101000a900473ffffffffffffffffffffffffffffffffffffffff1673ffffffffffffffffffffffffffffffffffffffff16637d95ff8988886040518363ffffffff167c0100000000000000000000000000000000000000000000000000000000028152600401808360001916600019168152602001826000191660001916815260200192505050602060405180830381600087803b158015610bee57600080fd5b505af1158015610c02573d6000803e3d6000fd5b505050506040513d6020811015610c1857600080fd5b81019080805190602001909291905050508373ffffffffffffffffffffffffffffffffffffffff1663ef5cc573600160009054906101000a900473ffffffffffffffffffffffffffffffffffffffff1673ffffffffffffffffffffffffffffffffffffffff166330cdb40d8b6040518263ffffffff167c0100000000000000000000000000000000000000000000000000000000028152600401808260001916600019168152602001915050602060405180830381600087803b158015610cde57600080fd5b505af1158015610cf2573d6000803e3d6000fd5b505050506040513d6020811015610d0857600080fd5b81019080805190602001909291905050508a6040518363ffffffff167c0100000000000000000000000000000000000000000000000000000000028152600401808373ffffffffffffffffffffffffffffffffffffffff1673ffffffffffffffffffffffffffffffffffffffff168152602001826000191660001916815260200192505050602060405180830381600087803b158015610da757600080fd5b505af1158015610dbb573d6000803e3d6000fd5b505050506040513d6020811015610dd157600080fd5b8101908080519060200190929190505050141515610df257600094506119a8565b8173ffffffffffffffffffffffffffffffffffffffff16631d765158600160009054906101000a900473ffffffffffffffffffffffffffffffffffffffff1673ffffffffffffffffffffffffffffffffffffffff16637171e7578a6040518263ffffffff167c0100000000000000000000000000000000000000000000000000000000028152600401808260001916600019168152602001915050602060405180830381600087803b158015610ea757600080fd5b505af1158015610ebb573d6000803e3d6000fd5b505050506040513d6020811015610ed157600080fd5b8101908080519060200190929190505050600160009054906101000a900473ffffffffffffffffffffffffffffffffffffffff1673ffffffffffffffffffffffffffffffffffffffff1663825074528b6040518263ffffffff167c0100000000000000000000000000000000000000000000000000000000028152600401808260001916600019168152602001915050602060405180830381600087803b158015610f7b57600080fd5b505af1158015610f8f573d6000803e3d6000fd5b505050506040513d6020811015610fa557600080fd5b81019080805190602001909291905050506040518363ffffffff167c0100000000000000000000000000000000000000000000000000000000028152600401808373ffffffffffffffffffffffffffffffffffffffff1673ffffffffffffffffffffffffffffffffffffffff168152602001826000191660001916815260200192505050602060405180830381600087803b15801561104357600080fd5b505af1158015611057573d6000803e3d6000fd5b505050506040513d602081101561106d57600080fd5b8101908080519060200190929190505050151561108957600080fd5b600160009054906101000a900473ffffffffffffffffffffffffffffffffffffffff1673ffffffffffffffffffffffffffffffffffffffff1663b2aa5d0c88886040518363ffffffff167c0100000000000000000000000000000000000000000000000000000000028152600401808360001916600019168152602001826000191660001916815260200192505050602060405180830381600087803b15801561113257600080fd5b505af1158015611146573d6000803e3d6000fd5b505050506040513d602081101561115c57600080fd5b8101908080519060200190929190505050600160009054906101000a900473ffffffffffffffffffffffffffffffffffffffff1673ffffffffffffffffffffffffffffffffffffffff16632659a07489600160009054906101000a900473ffffffffffffffffffffffffffffffffffffffff1673ffffffffffffffffffffffffffffffffffffffff16637d95ff898c8c6040518363ffffffff167c0100000000000000000000000000000000000000000000000000000000028152600401808360001916600019168152602001826000191660001916815260200192505050602060405180830381600087803b15801561125557600080fd5b505af1158015611269573d6000803e3d6000fd5b505050506040513d602081101561127f57600080fd5b81019080805190602001909291905050506040518363ffffffff167c010000000000000000000000000000000000000000000000000000000002815260040180836000191660001916815260200182815260200192505050602060405180830381600087803b1580156112f157600080fd5b505af1158015611305573d6000803e3d6000fd5b505050506040513d602081101561131b57600080fd5b810190808051906020019092919050505081151561133557fe5b04905080600160009054906101000a900473ffffffffffffffffffffffffffffffffffffffff1673ffffffffffffffffffffffffffffffffffffffff1663afc27791896040518263ffffffff167c0100000000000000000000000000000000000000000000000000000000028152600401808260001916600019168152602001915050602060405180830381600087803b1580156113d257600080fd5b505af11580156113e6573d6000803e3d6000fd5b505050506040513d60208110156113fc57600080fd5b810190808051906020019092919050505081151561141657fe5b0490508373ffffffffffffffffffffffffffffffffffffffff1663f18d03cc600160009054906101000a900473ffffffffffffffffffffffffffffffffffffffff1673ffffffffffffffffffffffffffffffffffffffff166314715bcc8a6040518263ffffffff167c0100000000000000000000000000000000000000000000000000000000028152600401808260001916600019168152602001915050602060405180830381600087803b1580156114ce57600080fd5b505af11580156114e2573d6000803e3d6000fd5b505050506040513d60208110156114f857600080fd5b8101908080519060200190929190505050600160009054906101000a900473ffffffffffffffffffffffffffffffffffffffff1673ffffffffffffffffffffffffffffffffffffffff1663de1028e18b6040518263ffffffff167c0100000000000000000000000000000000000000000000000000000000028152600401808260001916600019168152602001915050602060405180830381600087803b1580156115a257600080fd5b505af11580156115b6573d6000803e3d6000fd5b505050506040513d60208110156115cc57600080fd5b810190808051906020019092919050505030856040518563ffffffff167c0100000000000000000000000000000000000000000000000000000000028152600401808573ffffffffffffffffffffffffffffffffffffffff1673ffffffffffffffffffffffffffffffffffffffff1681526020018473ffffffffffffffffffffffffffffffffffffffff1673ffffffffffffffffffffffffffffffffffffffff1681526020018373ffffffffffffffffffffffffffffffffffffffff1673ffffffffffffffffffffffffffffffffffffffff168152602001828152602001945050505050602060405180830381600087803b1580156116ca57600080fd5b505af11580156116de573d6000803e3d6000fd5b505050506040513d60208110156116f457600080fd5b8101908080519060200190929190505050151561171057600080fd5b600160009054906101000a900473ffffffffffffffffffffffffffffffffffffffff1673ffffffffffffffffffffffffffffffffffffffff166341b273bb888860016040518463ffffffff167c01000000000000000000000000000000000000000000000000000000000281526004018084600019166000191681526020018360001916600019168152602001821515151581526020019350505050602060405180830381600087803b1580156117c657600080fd5b505af11580156117da573d6000803e3d6000fd5b505050506040513d60208110156117f057600080fd5b810190808051906020019092919050505050600160009054906101000a900473ffffffffffffffffffffffffffffffffffffffff1673ffffffffffffffffffffffffffffffffffffffff1663de1028e1886040518263ffffffff167c0100000000000000000000000000000000000000000000000000000000028152600401808260001916600019168152602001915050602060405180830381600087803b15801561189b57600080fd5b505af11580156118af573d6000803e3d6000fd5b505050506040513d60208110156118c557600080fd5b810190808051906020019092919050505073ffffffffffffffffffffffffffffffffffffffff16632e1a7d4d826040518263ffffffff167c010000000000000000000000000000000000000000000000000000000002815260040180828152602001915050600060405180830381600087803b15801561194457600080fd5b505af1158015611958573d6000803e3d6000fd5b505050503373ffffffffffffffffffffffffffffffffffffffff166108fc829081150290604051600060405180830381858888f193505050501580156119a2573d6000803e3d6000fd5b50600194505b5050505092915050565b6000809054906101000a900473ffffffffffffffffffffffffffffffffffffffff1673ffffffffffffffffffffffffffffffffffffffff163373ffffffffffffffffffffffffffffffffffffffff16141515611a0d57600080fd5b600060149054906101000a900460ff16151515611a2957600080fd5b6001600060146101000a81548160ff0219169083151502179055507f6985a02210a168e66602d3235cb6db0e70f92b3ba4d376a33c0f3d9434bff62560405160405180910390a1565b6000809054906101000a900473ffffffffffffffffffffffffffffffffffffffff1681565b600080600080600080600160009054906101000a900473ffffffffffffffffffffffffffffffffffffffff1673ffffffffffffffffffffffffffffffffffffffff166314715bcc8c6040518263ffffffff167c0100000000000000000000000000000000000000000000000000000000028152600401808260001916600019168152602001915050602060405180830381600087803b158015611b3957600080fd5b505af1158015611b4d573d6000803e3d6000fd5b505050506040513d6020811015611b6357600080fd5b81019080805190602001909291905050509450600160009054906101000a900473ffffffffffffffffffffffffffffffffffffffff1673ffffffffffffffffffffffffffffffffffffffff1663de1028e18c6040518263ffffffff167c0100000000000000000000000000000000000000000000000000000000028152600401808260001916600019168152602001915050602060405180830381600087803b158015611c0f57600080fd5b505af1158015611c23573d6000803e3d6000fd5b505050506040513d6020811015611c3957600080fd5b81019080805190602001909291905050509350600160009054906101000a900473ffffffffffffffffffffffffffffffffffffffff1673ffffffffffffffffffffffffffffffffffffffff1663dd943d046040518163ffffffff167c0100000000000000000000000000000000000000000000000000000000028152600401602060405180830381600087803b158015611cd257600080fd5b505af1158015611ce6573d6000803e3d6000fd5b505050506040513d6020811015611cfc57600080fd5b81019080805190602001909291905050509250600160009054906101000a900473ffffffffffffffffffffffffffffffffffffffff1673ffffffffffffffffffffffffffffffffffffffff1663ca033e7d6040518163ffffffff167c0100000000000000000000000000000000000000000000000000000000028152600401602060405180830381600087803b158015611d9557600080fd5b505af1158015611da9573d6000803e3d6000fd5b505050506040513d6020811015611dbf57600080fd5b810190808051906020019092919050505091508634141515611e6f576040517f08c379a00000000000000000000000000000000000000000000000000000000081526004018080602001828103825260298152602001807f616d6f756e7420676976656e20697320646966666572656e74207468616e207681526020017f616c75652073656e74000000000000000000000000000000000000000000000081525060400191505060405180910390fd5b600087111515611f0d576040517f08c379a00000000000000000000000000000000000000000000000000000000081526004018080602001828103825260228152602001807f796f75206d7573742073656e6420657468657220746f20706c6163652061206281526020017f657400000000000000000000000000000000000000000000000000000000000081525060400191505060405180910390fd5b8373ffffffffffffffffffffffffffffffffffffffff1663d0e30db0346040518263ffffffff167c01000000000000000000000000000000000000000000000000000000000281526004016000604051808303818588803b158015611f7157600080fd5b505af1158015611f85573d6000803e3d6000fd5b50505050508373ffffffffffffffffffffffffffffffffffffffff1663095ea7b384896040518363ffffffff167c0100000000000000000000000000000000000000000000000000000000028152600401808373ffffffffffffffffffffffffffffffffffffffff1673ffffffffffffffffffffffffffffffffffffffff16815260200182815260200192505050602060405180830381600087803b15801561202d57600080fd5b505af1158015612041573d6000803e3d6000fd5b505050506040513d602081101561205757600080fd5b810190808051906020019092919050505015156120dc576040517f08c379a00000000000000000000000000000000000000000000000000000000081526004018080602001828103825260158152602001807f636f756c646e277420617070726f76652077657468000000000000000000000081525060200191505060405180910390fd5b8173ffffffffffffffffffffffffffffffffffffffff16630348525e600160009054906101000a900473ffffffffffffffffffffffffffffffffffffffff1673ffffffffffffffffffffffffffffffffffffffff16637171e7578e6040518263ffffffff167c0100000000000000000000000000000000000000000000000000000000028152600401808260001916600019168152602001915050602060405180830381600087803b15801561219157600080fd5b505af11580156121a5573d6000803e3d6000fd5b505050506040513d60208110156121bb57600080fd5b8101908080519060200190929190505050600160009054906101000a900473ffffffffffffffffffffffffffffffffffffffff1673ffffffffffffffffffffffffffffffffffffffff1663825074528f6040518263ffffffff167c0100000000000000000000000000000000000000000000000000000000028152600401808260001916600019168152602001915050602060405180830381600087803b15801561226557600080fd5b505af1158015612279573d6000803e3d6000fd5b505050506040513d602081101561228f57600080fd5b81019080805190602001909291905050506040518363ffffffff167c0100000000000000000000000000000000000000000000000000000000028152600401808373ffffffffffffffffffffffffffffffffffffffff1673ffffffffffffffffffffffffffffffffffffffff168152602001826000191660001916815260200192505050602060405180830381600087803b15801561232d57600080fd5b505af1158015612341573d6000803e3d6000fd5b505050506040513d602081101561235757600080fd5b8101908080519060200190929190505050151561237357600080fd5b8273ffffffffffffffffffffffffffffffffffffffff16636e275bd2868630878c6040518663ffffffff167c0100000000000000000000000000000000000000000000000000000000028152600401808673ffffffffffffffffffffffffffffffffffffffff1673ffffffffffffffffffffffffffffffffffffffff1681526020018573ffffffffffffffffffffffffffffffffffffffff1673ffffffffffffffffffffffffffffffffffffffff1681526020018473ffffffffffffffffffffffffffffffffffffffff1673ffffffffffffffffffffffffffffffffffffffff1681526020018373ffffffffffffffffffffffffffffffffffffffff1673ffffffffffffffffffffffffffffffffffffffff16815260200182815260200195505050505050602060405180830381600087803b1580156124b257600080fd5b505af11580156124c6573d6000803e3d6000fd5b505050506040513d60208110156124dc57600080fd5b810190808051906020019092919050505015156124f857600080fd5b600160009054906101000a900473ffffffffffffffffffffffffffffffffffffffff1673ffffffffffffffffffffffffffffffffffffffff16635faa7cee8c8b8b8b6040518563ffffffff167c01000000000000000000000000000000000000000000000000000000000281526004018085600019166000191681526020018473ffffffffffffffffffffffffffffffffffffffff1673ffffffffffffffffffffffffffffffffffffffff168152602001838152602001828152602001945050505050602060405180830381600087803b1580156125d557600080fd5b505af11580156125e9573d6000803e3d6000fd5b505050506040513d60208110156125ff57600080fd5b8101908080519060200190929190505050905080600019168a6000191614151561262857600080fd5b600160009054906101000a900473ffffffffffffffffffffffffffffffffffffffff1673ffffffffffffffffffffffffffffffffffffffff16634fc2c76c8c896040518363ffffffff167c010000000000000000000000000000000000000000000000000000000002815260040180836000191660001916815260200182815260200192505050602060405180830381600087803b1580156126c957600080fd5b505af11580156126dd573d6000803e3d6000fd5b505050506040513d60208110156126f357600080fd5b810190808051906020019092919050505050600160009054906101000a900473ffffffffffffffffffffffffffffffffffffffff1673ffffffffffffffffffffffffffffffffffffffff1663b90a41498c8a8a6040518463ffffffff167c01000000000000000000000000000000000000000000000000000000000281526004018084600019166000191681526020018381526020018281526020019350505050602060405180830381600087803b1580156127ae57600080fd5b505af11580156127c2573d6000803e3d6000fd5b505050506040513d60208110156127d857600080fd5b81019080805190602001909291905050505060019550505050505095945050505050565b6000809054906101000a900473ffffffffffffffffffffffffffffffffffffffff1673ffffffffffffffffffffffffffffffffffffffff163373ffffffffffffffffffffffffffffffffffffffff1614151561285757600080fd5b80600160006101000a81548173ffffffffffffffffffffffffffffffffffffffff021916908373ffffffffffffffffffffffffffffffffffffffff16021790555060001515600060149054906101000a900460ff16151514156128bd576128bc6119b2565b5b50565b6000809054906101000a900473ffffffffffffffffffffffffffffffffffffffff1673ffffffffffffffffffffffffffffffffffffffff163373ffffffffffffffffffffffffffffffffffffffff1614151561291b57600080fd5b61292481612927565b50565b600073ffffffffffffffffffffffffffffffffffffffff168173ffffffffffffffffffffffffffffffffffffffff161415151561296357600080fd5b8073ffffffffffffffffffffffffffffffffffffffff166000809054906101000a900473ffffffffffffffffffffffffffffffffffffffff1673ffffffffffffffffffffffffffffffffffffffff167f8be0079c531659141344cd1fd0a4f28419497f9722a3daafe3b4186f6b6457e060405160405180910390a3806000806101000a81548173ffffffffffffffffffffffffffffffffffffffff021916908373ffffffffffffffffffffffffffffffffffffffff160217905550505600a165627a7a72305820f202a4b549108465888e2cd41678fca3dc2988c9422ad37b554d0867cd9556760029",
  "source": "pragma solidity ^0.4.24;\n\n// Internal\nimport \"../ProxyInterfaces/BetKernelProxyInterface.sol\";\nimport \"../RegistrySetter.sol\";\nimport \"../BetPayments.sol\";\nimport \"../BetOracle.sol\";\nimport \"../BetTerms.sol\";\nimport \"../WETH9.sol\";\n\n\n/**\n * A WETH implementation for the kernel used in the Guesser Protocol\n * It has to inherate from the RegistrySetter so it can get called throught\n * a delegate call from the BetPayments contract.\n *\n * Author: Ben Kaufman -- Github: ben-kaufman\n */\n/** @title ETHBetKernelProxy. */\ncontract ETHBetKernelProxy is RegistrySetter, BetKernelProxyInterface {\n\n    /**\n     * @dev Function that places a bet and returns its hash\n     * @param _betHash bytes32 the hash of the bet\n     * @param _option uint the option voted\n     * @param _number uint the amount voted\n     * @return bool the amount of tokens sent\n     */\n    function placeBet(\n        bytes32 _betHash,\n        bytes32 _playerBetHashProof,\n        address _player,\n        uint _option,\n        uint _number\n    )\n        public\n        payable\n        returns(bool)\n    {\n\n        address _paymentsProxy = betRegistry.getBetPaymentsProxy(_betHash);\n        address _paymentsToken = betRegistry.getBetPaymentsToken(_betHash);\n\n        BetPayments _betPayments = BetPayments(betRegistry.betPayments());\n        BetTerms _betTerms = BetTerms(betRegistry.betTerms());\n\n        require(msg.value == _number, \"amount given is different than value sent\");\n        require(_number > 0, \"you must send ether to place a bet\");\n\n        WETH9(_paymentsToken).deposit.value(msg.value)();\n\n        require(WETH9(_paymentsToken).approve(address(_betPayments), _number), \"couldn't approve weth\");\n\n        require(\n            _betTerms.participationPeriod(\n                betRegistry.getBetTermsProxy(_betHash),\n                betRegistry.getBetTermsHash(_betHash)\n            )\n        );\n\n        require(\n            _betPayments.transferFrom(\n                _paymentsProxy,\n                _paymentsToken,\n                address(this),\n                address(_betPayments),\n                _number\n            )\n        );\n\n        // Creating the actual bet and returning the hash\n        bytes32 _playerBetHash = betRegistry.insertPlayerBet(\n            _betHash,\n            _player,\n            _option,\n            _number\n        );\n\n        require(_playerBetHashProof == _playerBetHash);\n\n        betRegistry.addTotalPrincipal(\n            _betHash,\n            _number\n        );\n\n        betRegistry.addToOption(\n            _betHash,\n            _option,\n            _number\n        );\n\n        return true;\n    }\n\n    /**\n     * @dev Function that ask for the profits of a user\n     * @param _betHash bytes32 the hash of the bet\n     * @param _playerBetHash bytes32 the hash of the game bet the player played\n     * @return uint the amount of tokens sent\n     */\n    function getProfits(\n        bytes32 _betHash,\n        bytes32 _playerBetHash\n    )\n        public\n        returns(bool)\n    {\n        BetPayments _betPayments = BetPayments(betRegistry.betPayments());\n        BetOracle _betOracle = BetOracle(betRegistry.betOracle());\n        BetTerms _betTerms = BetTerms(betRegistry.betTerms());\n\n        require(msg.sender == betRegistry.getPlayerBetPlayer(_betHash, _playerBetHash));\n        require(!betRegistry.getPlayerBetReturned(_betHash, _playerBetHash));\n\n        require(\n            _betOracle.outcomeReady(\n                betRegistry.getBetOracleProxy(_betHash),\n                _betHash\n            )\n        );\n        if (\n            _betOracle.getOutcome(\n                betRegistry.getBetOracleProxy(_betHash),\n                _betHash\n            ) != betRegistry.getPlayerBetOption(_betHash, _playerBetHash)\n        )\n            return false;\n\n        require(\n            _betTerms.retrievingPeriod(\n                betRegistry.getBetTermsProxy(_betHash),\n                betRegistry.getBetTermsHash(_betHash)\n            )\n        );\n        uint _profits = betRegistry.getPrincipalInOption(\n                _betHash,\n                betRegistry.getPlayerBetOption(_betHash, _playerBetHash)\n            ) / betRegistry.getPlayerBetPrincipal(_betHash, _playerBetHash);\n        _profits = betRegistry.getTotalPrincipal(_betHash) / _profits;\n\n        // Get the WETH tokens\n        require(\n            _betPayments.transfer(\n                betRegistry.getBetPaymentsProxy(_betHash),\n                betRegistry.getBetPaymentsToken(_betHash),\n                address(this),\n                _profits\n            )\n        );\n\n        betRegistry.setPlayerBetReturned(_betHash, _playerBetHash, true);\n\n\n        WETH9(betRegistry.getBetPaymentsToken(_betHash)).withdraw(_profits);\n        // Return the ETH\n        (msg.sender).transfer(_profits);\n\n\n        return true;\n    }\n}\n",
  "sourcePath": "/Users/carlosgonzalezjuarez/Documents/Development/GuesserProtocol/contracts/BetKernelProxies/ETHBetKernelProxy.sol",
  "compiler": {
    "name": "solc",
    "version": "0.4.25+commit.59dbf8f1.Emscripten.clang"
  },
  "schemaVersion": "3.0.0-beta.1",
  "updatedAt": "2018-11-01T18:10:50.794Z"
}