{
  "contractName": "EthForwarder",
  "abi": [
    {
      "constant": true,
      "inputs": [],
      "name": "wethToken",
      "outputs": [
        {
          "name": "",
          "type": "address"
        }
      ],
      "payable": false,
      "stateMutability": "view",
      "type": "function"
    },
    {
      "constant": true,
      "inputs": [],
      "name": "betKernel",
      "outputs": [
        {
          "name": "",
          "type": "address"
        }
      ],
      "payable": false,
      "stateMutability": "view",
      "type": "function"
    },
    {
      "constant": true,
      "inputs": [],
      "name": "betPayments",
      "outputs": [
        {
          "name": "",
          "type": "address"
        }
      ],
      "payable": false,
      "stateMutability": "view",
      "type": "function"
    },
    {
      "inputs": [
        {
          "name": "_betKernel",
          "type": "address"
        },
        {
          "name": "_betPayments",
          "type": "address"
        },
        {
          "name": "_wethToken",
          "type": "address"
        }
      ],
      "payable": false,
      "stateMutability": "nonpayable",
      "type": "constructor"
    },
    {
      "constant": false,
      "inputs": [
        {
          "name": "_betHash",
          "type": "bytes32"
        },
        {
          "name": "_option",
          "type": "uint256"
        }
      ],
      "name": "placeBet",
      "outputs": [
        {
          "name": "",
          "type": "bytes32"
        }
      ],
      "payable": true,
      "stateMutability": "payable",
      "type": "function"
    }
  ],
  "bytecode": "0x608060405234801561001057600080fd5b50604051606080610761833981018060405281019080805190602001909291908051906020019092919080519060200190929190505050826000806101000a81548173ffffffffffffffffffffffffffffffffffffffff021916908373ffffffffffffffffffffffffffffffffffffffff16021790555081600160006101000a81548173ffffffffffffffffffffffffffffffffffffffff021916908373ffffffffffffffffffffffffffffffffffffffff16021790555080600260006101000a81548173ffffffffffffffffffffffffffffffffffffffff021916908373ffffffffffffffffffffffffffffffffffffffff1602179055505050506106468061011b6000396000f300608060405260043610610062576000357c0100000000000000000000000000000000000000000000000000000000900463ffffffff1680634b57b0be146100675780634c98ee7b146100be578063dd943d0414610115578063f3118d8e1461016c575b600080fd5b34801561007357600080fd5b5061007c6101b6565b604051808273ffffffffffffffffffffffffffffffffffffffff1673ffffffffffffffffffffffffffffffffffffffff16815260200191505060405180910390f35b3480156100ca57600080fd5b506100d36101dc565b604051808273ffffffffffffffffffffffffffffffffffffffff1673ffffffffffffffffffffffffffffffffffffffff16815260200191505060405180910390f35b34801561012157600080fd5b5061012a610201565b604051808273ffffffffffffffffffffffffffffffffffffffff1673ffffffffffffffffffffffffffffffffffffffff16815260200191505060405180910390f35b610198600480360381019080803560001916906020019092919080359060200190929190505050610227565b60405180826000191660001916815260200191505060405180910390f35b600260009054906101000a900473ffffffffffffffffffffffffffffffffffffffff1681565b6000809054906101000a900473ffffffffffffffffffffffffffffffffffffffff1681565b600160009054906101000a900473ffffffffffffffffffffffffffffffffffffffff1681565b600080341115156102c6576040517f08c379a00000000000000000000000000000000000000000000000000000000081526004018080602001828103825260228152602001807f796f75206d7573742073656e6420657468657220746f20706c6163652061206281526020017f657400000000000000000000000000000000000000000000000000000000000081525060400191505060405180910390fd5b600260009054906101000a900473ffffffffffffffffffffffffffffffffffffffff1673ffffffffffffffffffffffffffffffffffffffff1663d0e30db0346040518263ffffffff167c01000000000000000000000000000000000000000000000000000000000281526004016000604051808303818588803b15801561034c57600080fd5b505af1158015610360573d6000803e3d6000fd5b5050505050600260009054906101000a900473ffffffffffffffffffffffffffffffffffffffff1673ffffffffffffffffffffffffffffffffffffffff1663095ea7b3600160009054906101000a900473ffffffffffffffffffffffffffffffffffffffff16346040518363ffffffff167c0100000000000000000000000000000000000000000000000000000000028152600401808373ffffffffffffffffffffffffffffffffffffffff1673ffffffffffffffffffffffffffffffffffffffff16815260200182815260200192505050602060405180830381600087803b15801561044c57600080fd5b505af1158015610460573d6000803e3d6000fd5b505050506040513d602081101561047657600080fd5b810190808051906020019092919050505015156104fb576040517f08c379a00000000000000000000000000000000000000000000000000000000081526004018080602001828103825260158152602001807f636f756c646e277420617070726f76652077657468000000000000000000000081525060200191505060405180910390fd5b6000809054906101000a900473ffffffffffffffffffffffffffffffffffffffff1673ffffffffffffffffffffffffffffffffffffffff1663edda9b29843385346040518563ffffffff167c01000000000000000000000000000000000000000000000000000000000281526004018085600019166000191681526020018473ffffffffffffffffffffffffffffffffffffffff1673ffffffffffffffffffffffffffffffffffffffff168152602001838152602001828152602001945050505050602060405180830381600087803b1580156105d757600080fd5b505af11580156105eb573d6000803e3d6000fd5b505050506040513d602081101561060157600080fd5b81019080805190602001909291905050509050929150505600a165627a7a723058201d330a492e40c58b41536f5998a9d178a224378967444563dac6fd4b823ddd0d0029",
  "source": "pragma solidity 0.4.24;\n\n// Internal\nimport \"./BetKernel.sol\";\nimport \"./BetPayments.sol\";\nimport \"./WETH9.sol\";\n\n\n/**\n * A utility contract for placing a bet by sending ETH.\n * The contract wraps the ETH into WETH and places a bet with it in the bet kernel.\n *\n * Author: Ben Kaufman -- Github: ben-kaufman\n */\n/** @title EthForwarder. */\ncontract EthForwarder {\n    BetKernel public betKernel;\n    BetPayments public betPayments;\n    WETH9 public wethToken;\n\n    constructor (BetKernel _betKernel, BetPayments _betPayments, WETH9 _wethToken) public {\n        betKernel = _betKernel;\n        betPayments = _betPayments;\n        wethToken = _wethToken;\n    }\n\n    function placeBet(\n        bytes32 _betHash,\n        uint _option\n    )\n        public\n        payable\n        returns(bytes32)\n    {   \n        require(msg.value > 0, \"you must send ether to place a bet\");\n\n        wethToken.deposit.value(msg.value)();\n\n        require(wethToken.approve(address(betPayments), msg.value), \"couldn't approve weth\");\n                \n        return betKernel.placeBet(_betHash, msg.sender, _option, msg.value);\n    }\n}",
  "sourcePath": "/Users/benkaufman/Documents/Work/Guesser/GuesserCore/contracts/EthForwarder.sol",
  "compiler": {
    "name": "solc",
    "version": "0.4.24+commit.e67f0147.Emscripten.clang"
  },
  "schemaVersion": "2.0.1",
  "updatedAt": "2018-10-20T09:44:28.924Z"
}