{
  "contractName": "OwnerBased",
  "abi": [
    {
      "constant": true,
      "inputs": [],
      "name": "betRegistry",
      "outputs": [
        {
          "name": "",
          "type": "address"
        }
      ],
      "payable": false,
      "stateMutability": "view",
      "type": "function",
      "signature": "0x1ff677bf"
    },
    {
      "constant": false,
      "inputs": [],
      "name": "unpause",
      "outputs": [],
      "payable": false,
      "stateMutability": "nonpayable",
      "type": "function",
      "signature": "0x3f4ba83a"
    },
    {
      "constant": true,
      "inputs": [],
      "name": "paused",
      "outputs": [
        {
          "name": "",
          "type": "bool"
        }
      ],
      "payable": false,
      "stateMutability": "view",
      "type": "function",
      "signature": "0x5c975abb"
    },
    {
      "constant": false,
      "inputs": [],
      "name": "renounceOwnership",
      "outputs": [],
      "payable": false,
      "stateMutability": "nonpayable",
      "type": "function",
      "signature": "0x715018a6"
    },
    {
      "constant": false,
      "inputs": [],
      "name": "pause",
      "outputs": [],
      "payable": false,
      "stateMutability": "nonpayable",
      "type": "function",
      "signature": "0x8456cb59"
    },
    {
      "constant": true,
      "inputs": [],
      "name": "owner",
      "outputs": [
        {
          "name": "",
          "type": "address"
        }
      ],
      "payable": false,
      "stateMutability": "view",
      "type": "function",
      "signature": "0x8da5cb5b"
    },
    {
      "constant": true,
      "inputs": [],
      "name": "betsNumber",
      "outputs": [
        {
          "name": "",
          "type": "uint256"
        }
      ],
      "payable": false,
      "stateMutability": "view",
      "type": "function",
      "signature": "0xeaeffc8f"
    },
    {
      "constant": false,
      "inputs": [
        {
          "name": "_betRegistry",
          "type": "address"
        }
      ],
      "name": "setBetRegistry",
      "outputs": [],
      "payable": false,
      "stateMutability": "nonpayable",
      "type": "function",
      "signature": "0xefdb2b46"
    },
    {
      "constant": false,
      "inputs": [
        {
          "name": "_newOwner",
          "type": "address"
        }
      ],
      "name": "transferOwnership",
      "outputs": [],
      "payable": false,
      "stateMutability": "nonpayable",
      "type": "function",
      "signature": "0xf2fde38b"
    },
    {
      "anonymous": false,
      "inputs": [
        {
          "indexed": true,
          "name": "_termsHash",
          "type": "bytes32"
        },
        {
          "indexed": false,
          "name": "_status",
          "type": "uint256"
        }
      ],
      "name": "LogPeriodChanged",
      "type": "event",
      "signature": "0xef864cbdbb840dcdf466b7ea3bab0ef0d0a3aece5cbf2f137b3ba615bdb20293"
    },
    {
      "anonymous": false,
      "inputs": [
        {
          "indexed": true,
          "name": "_sender",
          "type": "address"
        },
        {
          "indexed": true,
          "name": "_termsHash",
          "type": "bytes32"
        }
      ],
      "name": "TermsAdded",
      "type": "event",
      "signature": "0x9d0ee1a210f027805b4b0171bff8e1ee09ba4f061035debc1c6a67d56c30bda2"
    },
    {
      "anonymous": false,
      "inputs": [],
      "name": "Pause",
      "type": "event",
      "signature": "0x6985a02210a168e66602d3235cb6db0e70f92b3ba4d376a33c0f3d9434bff625"
    },
    {
      "anonymous": false,
      "inputs": [],
      "name": "Unpause",
      "type": "event",
      "signature": "0x7805862f689e2f13df9f062ff482ad3ad112aca9e0847911ed832e158c525b33"
    },
    {
      "anonymous": false,
      "inputs": [
        {
          "indexed": true,
          "name": "previousOwner",
          "type": "address"
        }
      ],
      "name": "OwnershipRenounced",
      "type": "event",
      "signature": "0xf8df31144d9c2f0f6b59d69b8b98abd5459d07f2742c4df920b25aae33c64820"
    },
    {
      "anonymous": false,
      "inputs": [
        {
          "indexed": true,
          "name": "previousOwner",
          "type": "address"
        },
        {
          "indexed": true,
          "name": "newOwner",
          "type": "address"
        }
      ],
      "name": "OwnershipTransferred",
      "type": "event",
      "signature": "0x8be0079c531659141344cd1fd0a4f28419497f9722a3daafe3b4186f6b6457e0"
    },
    {
      "constant": true,
      "inputs": [
        {
          "name": "_terms",
          "type": "bytes32[]"
        }
      ],
      "name": "getTermsHash",
      "outputs": [
        {
          "name": "",
          "type": "bytes32"
        }
      ],
      "payable": false,
      "stateMutability": "view",
      "type": "function",
      "signature": "0x9a402f40"
    },
    {
      "constant": false,
      "inputs": [
        {
          "name": "_terms",
          "type": "bytes32[]"
        }
      ],
      "name": "setTermsHash",
      "outputs": [
        {
          "name": "",
          "type": "bool"
        }
      ],
      "payable": false,
      "stateMutability": "nonpayable",
      "type": "function",
      "signature": "0x4389a94e"
    },
    {
      "constant": true,
      "inputs": [
        {
          "name": "_termsHash",
          "type": "bytes32"
        }
      ],
      "name": "participationPeriod",
      "outputs": [
        {
          "name": "",
          "type": "bool"
        }
      ],
      "payable": false,
      "stateMutability": "view",
      "type": "function",
      "signature": "0x7f37aa97"
    },
    {
      "constant": true,
      "inputs": [
        {
          "name": "_termsHash",
          "type": "bytes32"
        }
      ],
      "name": "waitingPeriod",
      "outputs": [
        {
          "name": "",
          "type": "bool"
        }
      ],
      "payable": false,
      "stateMutability": "view",
      "type": "function",
      "signature": "0x28ad26e6"
    },
    {
      "constant": true,
      "inputs": [
        {
          "name": "_termsHash",
          "type": "bytes32"
        }
      ],
      "name": "retrievingPeriod",
      "outputs": [
        {
          "name": "",
          "type": "bool"
        }
      ],
      "payable": false,
      "stateMutability": "view",
      "type": "function",
      "signature": "0xe2af856b"
    },
    {
      "constant": true,
      "inputs": [
        {
          "name": "_termsHash",
          "type": "bytes32"
        }
      ],
      "name": "finishedPeriod",
      "outputs": [
        {
          "name": "",
          "type": "bool"
        }
      ],
      "payable": false,
      "stateMutability": "view",
      "type": "function",
      "signature": "0x65758e6c"
    },
    {
      "constant": false,
      "inputs": [
        {
          "name": "_termsHash",
          "type": "bytes32"
        },
        {
          "name": "_status",
          "type": "uint256"
        }
      ],
      "name": "changePeriod",
      "outputs": [],
      "payable": false,
      "stateMutability": "nonpayable",
      "type": "function",
      "signature": "0x51e069e7"
    }
  ],
  "bytecode": "0x608060405260008060146101000a81548160ff0219169083151502179055506000600355336000806101000a81548173ffffffffffffffffffffffffffffffffffffffff021916908373ffffffffffffffffffffffffffffffffffffffff160217905550610ef8806100726000396000f3006080604052600436106100e6576000357c0100000000000000000000000000000000000000000000000000000000900463ffffffff1680631ff677bf146100eb57806328ad26e6146101425780633f4ba83a1461018b5780634389a94e146101a257806351e069e7146102205780635c975abb1461025b57806365758e6c1461028a578063715018a6146102d35780637f37aa97146102ea5780638456cb59146103335780638da5cb5b1461034a5780639a402f40146103a1578063e2af856b14610423578063eaeffc8f1461046c578063efdb2b4614610497578063f2fde38b146104da575b600080fd5b3480156100f757600080fd5b5061010061051d565b604051808273ffffffffffffffffffffffffffffffffffffffff1673ffffffffffffffffffffffffffffffffffffffff16815260200191505060405180910390f35b34801561014e57600080fd5b506101716004803603810190808035600019169060200190929190505050610547565b604051808215151515815260200191505060405180910390f35b34801561019757600080fd5b506101a0610580565b005b3480156101ae57600080fd5b506102066004803603810190808035906020019082018035906020019080806020026020016040519081016040528093929190818152602001838360200280828437820191505050505050919291929050505061063e565b604051808215151515815260200191505060405180910390f35b34801561022c57600080fd5b506102596004803603810190808035600019169060200190929190803590602001909291905050506107c4565b005b34801561026757600080fd5b506102706108f9565b604051808215151515815260200191505060405180910390f35b34801561029657600080fd5b506102b9600480360381019080803560001916906020019092919050505061090c565b604051808215151515815260200191505060405180910390f35b3480156102df57600080fd5b506102e8610945565b005b3480156102f657600080fd5b506103196004803603810190808035600019169060200190929190505050610a47565b604051808215151515815260200191505060405180910390f35b34801561033f57600080fd5b50610348610a7f565b005b34801561035657600080fd5b5061035f610b3f565b604051808273ffffffffffffffffffffffffffffffffffffffff1673ffffffffffffffffffffffffffffffffffffffff16815260200191505060405180910390f35b3480156103ad57600080fd5b5061040560048036038101908080359060200190820180359060200190808060200260200160405190810160405280939291908181526020018383602002808284378201915050505050509192919290505050610b64565b60405180826000191660001916815260200191505060405180910390f35b34801561042f57600080fd5b506104526004803603810190808035600019169060200190929190505050610c69565b604051808215151515815260200191505060405180910390f35b34801561047857600080fd5b50610481610ca1565b6040518082815260200191505060405180910390f35b3480156104a357600080fd5b506104d8600480360381019080803573ffffffffffffffffffffffffffffffffffffffff169060200190929190505050610ca7565b005b3480156104e657600080fd5b5061051b600480360381019080803573ffffffffffffffffffffffffffffffffffffffff169060200190929190505050610d6b565b005b6000600160009054906101000a900473ffffffffffffffffffffffffffffffffffffffff16905090565b60006001600260008460001916600019168152602001908152602001600020541415610576576001905061057b565b600090505b919050565b6000809054906101000a900473ffffffffffffffffffffffffffffffffffffffff1673ffffffffffffffffffffffffffffffffffffffff163373ffffffffffffffffffffffffffffffffffffffff161415156105db57600080fd5b600060149054906101000a900460ff1615156105f657600080fd5b60008060146101000a81548160ff0219169083151502179055507f7805862f689e2f13df9f062ff482ad3ad112aca9e0847911ed832e158c525b3360405160405180910390a1565b6000803360035484604051602001808473ffffffffffffffffffffffffffffffffffffffff1673ffffffffffffffffffffffffffffffffffffffff166c01000000000000000000000000028152601401838152602001828051906020019060200280838360005b838110156106c05780820151818401526020810190506106a5565b5050505090500193505050506040516020818303038152906040526040518082805190602001908083835b60208310151561071057805182526020820191506020810190506020830392506106eb565b6001836020036101000a0380198251168184511680821785525050505050509050019150506040518091039020905080600019163373ffffffffffffffffffffffffffffffffffffffff167f9d0ee1a210f027805b4b0171bff8e1ee09ba4f061035debc1c6a67d56c30bda260405160405180910390a36000600260008360001916600019168152602001908152602001600020819055506003600081548092919060010191905055506001915050919050565b600160009054906101000a900473ffffffffffffffffffffffffffffffffffffffff1673ffffffffffffffffffffffffffffffffffffffff166351b699cd336040518263ffffffff167c0100000000000000000000000000000000000000000000000000000000028152600401808273ffffffffffffffffffffffffffffffffffffffff1673ffffffffffffffffffffffffffffffffffffffff168152602001915050600060405180830381600087803b15801561088157600080fd5b505af1158015610895573d6000803e3d6000fd5b50505050806002600084600019166000191681526020019081526020016000208190555081600019167fef864cbdbb840dcdf466b7ea3bab0ef0d0a3aece5cbf2f137b3ba615bdb20293826040518082815260200191505060405180910390a25050565b600060149054906101000a900460ff1681565b6000600360026000846000191660001916815260200190815260200160002054141561093b5760019050610940565b600090505b919050565b6000809054906101000a900473ffffffffffffffffffffffffffffffffffffffff1673ffffffffffffffffffffffffffffffffffffffff163373ffffffffffffffffffffffffffffffffffffffff161415156109a057600080fd5b6000809054906101000a900473ffffffffffffffffffffffffffffffffffffffff1673ffffffffffffffffffffffffffffffffffffffff167ff8df31144d9c2f0f6b59d69b8b98abd5459d07f2742c4df920b25aae33c6482060405160405180910390a260008060006101000a81548173ffffffffffffffffffffffffffffffffffffffff021916908373ffffffffffffffffffffffffffffffffffffffff160217905550565b600080600260008460001916600019168152602001908152602001600020541415610a755760019050610a7a565b600090505b919050565b6000809054906101000a900473ffffffffffffffffffffffffffffffffffffffff1673ffffffffffffffffffffffffffffffffffffffff163373ffffffffffffffffffffffffffffffffffffffff16141515610ada57600080fd5b600060149054906101000a900460ff16151515610af657600080fd5b6001600060146101000a81548160ff0219169083151502179055507f6985a02210a168e66602d3235cb6db0e70f92b3ba4d376a33c0f3d9434bff62560405160405180910390a1565b6000809054906101000a900473ffffffffffffffffffffffffffffffffffffffff1681565b60003360035483604051602001808473ffffffffffffffffffffffffffffffffffffffff1673ffffffffffffffffffffffffffffffffffffffff166c01000000000000000000000000028152601401838152602001828051906020019060200280838360005b83811015610be5578082015181840152602081019050610bca565b5050505090500193505050506040516020818303038152906040526040518082805190602001908083835b602083101515610c355780518252602082019150602081019050602083039250610c10565b6001836020036101000a03801982511681845116808217855250505050505090500191505060405180910390209050919050565b600060028060008460001916600019168152602001908152602001600020541415610c975760019050610c9c565b600090505b919050565b60035481565b6000809054906101000a900473ffffffffffffffffffffffffffffffffffffffff1673ffffffffffffffffffffffffffffffffffffffff163373ffffffffffffffffffffffffffffffffffffffff16141515610d0257600080fd5b80600160006101000a81548173ffffffffffffffffffffffffffffffffffffffff021916908373ffffffffffffffffffffffffffffffffffffffff16021790555060001515600060149054906101000a900460ff1615151415610d6857610d67610a7f565b5b50565b6000809054906101000a900473ffffffffffffffffffffffffffffffffffffffff1673ffffffffffffffffffffffffffffffffffffffff163373ffffffffffffffffffffffffffffffffffffffff16141515610dc657600080fd5b610dcf81610dd2565b50565b600073ffffffffffffffffffffffffffffffffffffffff168173ffffffffffffffffffffffffffffffffffffffff1614151515610e0e57600080fd5b8073ffffffffffffffffffffffffffffffffffffffff166000809054906101000a900473ffffffffffffffffffffffffffffffffffffffff1673ffffffffffffffffffffffffffffffffffffffff167f8be0079c531659141344cd1fd0a4f28419497f9722a3daafe3b4186f6b6457e060405160405180910390a3806000806101000a81548173ffffffffffffffffffffffffffffffffffffffff021916908373ffffffffffffffffffffffffffffffffffffffff160217905550505600a165627a7a723058204c09f3ff292026d75510d76d143bc4d46f5cb1743ce241902f6a7865dd3dd8b80029",
  "source": "pragma solidity ^0.4.24;\n\n// Internal\nimport \"../RegistrySetter.sol\";\nimport \"../ProxyInterfaces/BetTermsProxyInterface.sol\";\n\n\n/**\n * An example of the BetTerms contract for Owner based terms events.\n * The owner whill decide if betting is still allowed to and when to ask\n * to the oracle for the information\n *\n * Author: Carlos Gonzalez -- Github: carlosgj94\n */\n/** @title Owner Based Terms. */\ncontract OwnerBased is RegistrySetter, BetTermsProxyInterface {\n    using SafeMath for uint;\n\n    event LogPeriodChanged(\n        bytes32 indexed _termsHash,\n        uint _status\n    );\n\n    event TermsAdded(\n        address indexed _sender,\n        bytes32 indexed _termsHash\n    );\n\n    enum Status {\n        ParticipationPeriod,\n        RetrievingPeriod,\n        FinishedPeriod\n    }\n\n    mapping(bytes32 => uint) internal hashStatus;\n    uint public betsNumber = 0;\n\n    /**\n     * @dev Function that returns a terms hash for the next event\n     * @param _terms bytes in the Owner based this parameter is not really\n     * needed. But it needs to fulfill the interface.\n     * @return bytes32 the terms hash\n     */\n    function getTermsHash(bytes32[] _terms)\n        public\n        view\n        returns(bytes32)\n    {\n        return keccak256(\n            abi.encodePacked(\n                msg.sender,\n                betsNumber,\n                _terms\n            )\n        );\n    }\n\n    /**\n     * @dev Function that given a terms hash creates it if it is true\n     * @param _terms bytes32 the data being used to control the terms of the bet\n     * @return bool if the setter was succesful\n     */\n    function setTermsHash(bytes32[] _terms)\n        public\n        returns(bool)\n    {\n        bytes32 _hash = keccak256(\n            abi.encodePacked(\n                msg.sender,\n                betsNumber,\n                _terms\n            )\n        );\n\n        emit TermsAdded(msg.sender, _hash);\n\n        // Setting the hash to the first state of the enum\n        hashStatus[_hash] = 0;\n        betsNumber++;\n\n        return true;\n    }\n\n    /**\n     * @dev Function that tells if it is the period for playing\n     * @param _termsHash bytes32 of the event\n     * @return bool if it is the period for playing\n     */\n    function participationPeriod(bytes32 _termsHash)\n        public\n        view\n        returns(bool)\n    {\n        if (hashStatus[_termsHash] == 0)\n            return true;\n        else\n            return false;\n    }\n\n    /**\n     * @dev Function that tells if the event is in stand by\n     * @param _termsHash bytes32 of the event\n     * @return bool if it is the waiting period\n     */\n    function waitingPeriod(bytes32 _termsHash)\n        public\n        view\n        returns(bool)\n    {\n        if (hashStatus[_termsHash] == 1)\n            return true;\n        else\n            return false;\n    }\n\n    /**\n     * @dev Function that tells if the period for playing is over\n     * @param _termsHash bytes32 of the event\n     * @return bool if the period for betting is over\n     */\n    function retrievingPeriod(bytes32 _termsHash)\n        public\n        view\n        returns(bool)\n    {\n        if (hashStatus[_termsHash] == 2)\n            return true;\n        else\n            return false;\n    }\n\n    /**\n     * @dev Function that tells if the event is over\n     * @param _termsHash bytes32 of the event\n     * @return bool if the event is over\n     */\n    function finishedPeriod(bytes32 _termsHash)\n        public\n        view\n        returns(bool)\n    {\n        if (hashStatus[_termsHash] == 3)\n            return true;\n        else\n            return false;\n    }\n\n    /**\n     * @dev Function that allows the owner to change the period of the status\n     * @param _termsHash bytes32 of the event\n     * @param _status uint the status to set\n     */\n    function changePeriod(\n        bytes32 _termsHash,\n        uint _status\n    )\n        public\n    {\n        betRegistry.isAuthorised(msg.sender);\n\n        hashStatus[_termsHash] = _status;\n        emit LogPeriodChanged(_termsHash, _status);\n    }\n}\n",
  "sourcePath": "/Users/carlosgonzalezjuarez/Documents/Development/GuesserProtocol/contracts/BetTermsExamples/OwnerBased.sol",
  "compiler": {
    "name": "solc",
    "version": "0.4.25+commit.59dbf8f1.Emscripten.clang"
  },
  "schemaVersion": "3.0.0-beta.1",
  "updatedAt": "2018-11-01T18:10:55.809Z"
}