{
  "contractName": "OwnerBased",
  "abi": [
    {
      "constant": false,
      "inputs": [],
      "name": "renounceOwnership",
      "outputs": [],
      "payable": false,
      "stateMutability": "nonpayable",
      "type": "function"
    },
    {
      "constant": true,
      "inputs": [],
      "name": "owner",
      "outputs": [
        {
          "name": "",
          "type": "address"
        }
      ],
      "payable": false,
      "stateMutability": "view",
      "type": "function"
    },
    {
      "constant": true,
      "inputs": [],
      "name": "betNumber",
      "outputs": [
        {
          "name": "",
          "type": "uint256"
        }
      ],
      "payable": false,
      "stateMutability": "view",
      "type": "function"
    },
    {
      "constant": false,
      "inputs": [
        {
          "name": "_newOwner",
          "type": "address"
        }
      ],
      "name": "transferOwnership",
      "outputs": [],
      "payable": false,
      "stateMutability": "nonpayable",
      "type": "function"
    },
    {
      "anonymous": false,
      "inputs": [
        {
          "indexed": true,
          "name": "_termsHash",
          "type": "bytes32"
        },
        {
          "indexed": false,
          "name": "_status",
          "type": "uint256"
        }
      ],
      "name": "LogPeriodChanged",
      "type": "event"
    },
    {
      "anonymous": false,
      "inputs": [
        {
          "indexed": true,
          "name": "previousOwner",
          "type": "address"
        }
      ],
      "name": "OwnershipRenounced",
      "type": "event"
    },
    {
      "anonymous": false,
      "inputs": [
        {
          "indexed": true,
          "name": "previousOwner",
          "type": "address"
        },
        {
          "indexed": true,
          "name": "newOwner",
          "type": "address"
        }
      ],
      "name": "OwnershipTransferred",
      "type": "event"
    },
    {
      "constant": true,
      "inputs": [],
      "name": "getTermsHash",
      "outputs": [
        {
          "name": "",
          "type": "bytes32"
        }
      ],
      "payable": false,
      "stateMutability": "view",
      "type": "function"
    },
    {
      "constant": false,
      "inputs": [
        {
          "name": "_termsHash",
          "type": "bytes32"
        }
      ],
      "name": "setTermsHash",
      "outputs": [
        {
          "name": "",
          "type": "bool"
        }
      ],
      "payable": false,
      "stateMutability": "nonpayable",
      "type": "function"
    },
    {
      "constant": true,
      "inputs": [
        {
          "name": "_termsHash",
          "type": "bytes32"
        }
      ],
      "name": "participationPeriod",
      "outputs": [
        {
          "name": "",
          "type": "bool"
        }
      ],
      "payable": false,
      "stateMutability": "view",
      "type": "function"
    },
    {
      "constant": true,
      "inputs": [
        {
          "name": "_termsHash",
          "type": "bytes32"
        }
      ],
      "name": "waitingPeriod",
      "outputs": [
        {
          "name": "",
          "type": "bool"
        }
      ],
      "payable": false,
      "stateMutability": "view",
      "type": "function"
    },
    {
      "constant": true,
      "inputs": [
        {
          "name": "_termsHash",
          "type": "bytes32"
        }
      ],
      "name": "retrievingPeriod",
      "outputs": [
        {
          "name": "",
          "type": "bool"
        }
      ],
      "payable": false,
      "stateMutability": "view",
      "type": "function"
    },
    {
      "constant": true,
      "inputs": [
        {
          "name": "_termsHash",
          "type": "bytes32"
        }
      ],
      "name": "finishedPeriod",
      "outputs": [
        {
          "name": "",
          "type": "bool"
        }
      ],
      "payable": false,
      "stateMutability": "view",
      "type": "function"
    },
    {
      "constant": false,
      "inputs": [
        {
          "name": "_termsHash",
          "type": "bytes32"
        },
        {
          "name": "_status",
          "type": "uint256"
        }
      ],
      "name": "changePeriod",
      "outputs": [],
      "payable": false,
      "stateMutability": "nonpayable",
      "type": "function"
    }
  ],
  "bytecode": "0x60806040526000600255336000806101000a81548173ffffffffffffffffffffffffffffffffffffffff021916908373ffffffffffffffffffffffffffffffffffffffff1602179055506109ab806100586000396000f3006080604052600436106100af576000357c0100000000000000000000000000000000000000000000000000000000900463ffffffff16806328ad26e6146100b457806351e069e7146100fd57806365758e6c14610138578063715018a6146101815780637f37aa97146101985780638da5cb5b146101e15780638e8b4ecb14610238578063dad3fdf214610281578063e2af856b146102ac578063e52ec504146102f5578063f2fde38b14610328575b600080fd5b3480156100c057600080fd5b506100e3600480360381019080803560001916906020019092919050505061036b565b604051808215151515815260200191505060405180910390f35b34801561010957600080fd5b506101366004803603810190808035600019169060200190929190803590602001909291905050506103a3565b005b34801561014457600080fd5b50610167600480360381019080803560001916906020019092919050505061045e565b604051808215151515815260200191505060405180910390f35b34801561018d57600080fd5b50610196610497565b005b3480156101a457600080fd5b506101c76004803603810190808035600019169060200190929190505050610599565b604051808215151515815260200191505060405180910390f35b3480156101ed57600080fd5b506101f66105d1565b604051808273ffffffffffffffffffffffffffffffffffffffff1673ffffffffffffffffffffffffffffffffffffffff16815260200191505060405180910390f35b34801561024457600080fd5b5061026760048036038101908080356000191690602001909291905050506105f6565b604051808215151515815260200191505060405180910390f35b34801561028d57600080fd5b50610296610711565b6040518082815260200191505060405180910390f35b3480156102b857600080fd5b506102db6004803603810190808035600019169060200190929190505050610717565b604051808215151515815260200191505060405180910390f35b34801561030157600080fd5b5061030a610750565b60405180826000191660001916815260200191505060405180910390f35b34801561033457600080fd5b50610369600480360381019080803573ffffffffffffffffffffffffffffffffffffffff16906020019092919050505061081e565b005b600060018060008460001916600019168152602001908152602001600020541415610399576001905061039e565b600090505b919050565b6000809054906101000a900473ffffffffffffffffffffffffffffffffffffffff1673ffffffffffffffffffffffffffffffffffffffff163373ffffffffffffffffffffffffffffffffffffffff161415156103fe57600080fd5b806001600084600019166000191681526020019081526020016000208190555081600019167fef864cbdbb840dcdf466b7ea3bab0ef0d0a3aece5cbf2f137b3ba615bdb20293826040518082815260200191505060405180910390a25050565b6000600360016000846000191660001916815260200190815260200160002054141561048d5760019050610492565b600090505b919050565b6000809054906101000a900473ffffffffffffffffffffffffffffffffffffffff1673ffffffffffffffffffffffffffffffffffffffff163373ffffffffffffffffffffffffffffffffffffffff161415156104f257600080fd5b6000809054906101000a900473ffffffffffffffffffffffffffffffffffffffff1673ffffffffffffffffffffffffffffffffffffffff167ff8df31144d9c2f0f6b59d69b8b98abd5459d07f2742c4df920b25aae33c6482060405160405180910390a260008060006101000a81548173ffffffffffffffffffffffffffffffffffffffff021916908373ffffffffffffffffffffffffffffffffffffffff160217905550565b6000806001600084600019166000191681526020019081526020016000205414156105c757600190506105cc565b600090505b919050565b6000809054906101000a900473ffffffffffffffffffffffffffffffffffffffff1681565b60008033600254604051602001808373ffffffffffffffffffffffffffffffffffffffff1673ffffffffffffffffffffffffffffffffffffffff166c01000000000000000000000000028152601401828152602001925050506040516020818303038152906040526040518082805190602001908083835b602083101515610693578051825260208201915060208101905060208303925061066e565b6001836020036101000a03801982511681845116808217855250505050505090500191505060405180910390209050806000191683600019161415156106d857600080fd5b60006001600083600019166000191681526020019081526020016000208190555060026000815480929190600101919050555050919050565b60025481565b60006002600160008460001916600019168152602001908152602001600020541415610746576001905061074b565b600090505b919050565b600033600254604051602001808373ffffffffffffffffffffffffffffffffffffffff1673ffffffffffffffffffffffffffffffffffffffff166c01000000000000000000000000028152601401828152602001925050506040516020818303038152906040526040518082805190602001908083835b6020831015156107ec57805182526020820191506020810190506020830392506107c7565b6001836020036101000a0380198251168184511680821785525050505050509050019150506040518091039020905090565b6000809054906101000a900473ffffffffffffffffffffffffffffffffffffffff1673ffffffffffffffffffffffffffffffffffffffff163373ffffffffffffffffffffffffffffffffffffffff1614151561087957600080fd5b61088281610885565b50565b600073ffffffffffffffffffffffffffffffffffffffff168173ffffffffffffffffffffffffffffffffffffffff16141515156108c157600080fd5b8073ffffffffffffffffffffffffffffffffffffffff166000809054906101000a900473ffffffffffffffffffffffffffffffffffffffff1673ffffffffffffffffffffffffffffffffffffffff167f8be0079c531659141344cd1fd0a4f28419497f9722a3daafe3b4186f6b6457e060405160405180910390a3806000806101000a81548173ffffffffffffffffffffffffffffffffffffffff021916908373ffffffffffffffffffffffffffffffffffffffff160217905550505600a165627a7a723058209741f40aa5f35f00b104f768939cac73747bf334c53866cb9896cc80c9add0820029",
  "source": "pragma solidity 0.4.24;\n\n// Internal\nimport \"../BetTerms.sol\";\nimport \"../TermsContract.sol\";\n// External\nimport \"openzeppelin-solidity/contracts/math/SafeMath.sol\";\nimport \"openzeppelin-solidity/contracts/ownership/Ownable.sol\";\n\n\n/**\n * An example of the BetTerms contract for Owner based terms events.\n * The owner will decide if betting is still allowed to and when to ask\n * to the oracle for the information\n *\n * Author: Carlos Gonzalez -- Github: carlosgj94\n */\n/** @title Owner Based Terms. */\ncontract OwnerBased is TermsContract, Ownable {\n    using SafeMath for uint;\n\n    event LogPeriodChanged(\n        bytes32 indexed _termsHash,\n        uint _status\n    );\n\n    enum Status {\n        ParticipationPeriod,\n        RetrievingPeriod,\n        FinishedPeriod\n    }\n\n    mapping(bytes32 => uint) internal hashStatus;\n    uint public betNumber = 0;\n\n    /**\n     * @dev Function that returns a terms hash for the next event\n     * @return bytes32 the terms hash\n     */\n    function getTermsHash()\n        public\n        view\n        returns(bytes32)\n    {\n        return keccak256(\n            abi.encodePacked(\n                msg.sender,\n                betNumber\n            )\n        );\n    }\n\n    /**\n     * @dev Function that given a terms hash creates it if it is true\n     * @param _termsHash bytes32 the random number to create the terms hash\n     */\n    function setTermsHash(bytes32 _termsHash)\n        public\n        returns(bool)\n    {\n        bytes32 _hash = keccak256(\n            abi.encodePacked(\n                msg.sender,\n                betNumber\n            )\n        );\n\n        require(_termsHash == _hash);\n\n        // Setting the hash to the first state of the enum\n        hashStatus[_hash] = 0;\n        betNumber++;\n    }\n\n    /**\n     * @dev Function that tells if it is the period for playing\n     * @param _termsHash bytes32 of the event\n     * @return bool if it is the period for playing\n     */\n    function participationPeriod(bytes32 _termsHash)\n        public\n        view\n        returns(bool)\n    {\n        if (hashStatus[_termsHash] == 0)\n            return true;\n        else\n            return false;\n    }\n\n    /**\n     * @dev Function that tells if the event is in stand by\n     * @param _termsHash bytes32 of the event\n     * @return bool if it is the waiting period\n     */\n    function waitingPeriod(bytes32 _termsHash)\n        public\n        view\n        returns(bool)\n    {\n        if (hashStatus[_termsHash] == 1)\n            return true;\n        else\n            return false;\n    }\n\n    /**\n     * @dev Function that tells if the period for playing is over\n     * @param _termsHash bytes32 of the event\n     * @return bool if the period for betting is over\n     */\n    function retrievingPeriod(bytes32 _termsHash)\n        public\n        view\n        returns(bool)\n    {\n        if (hashStatus[_termsHash] == 2)\n            return true;\n        else\n            return false;\n    }\n\n    /**\n     * @dev Function that tells if the event is over\n     * @param _termsHash bytes32 of the event\n     * @return bool if the event is over\n     */\n    function finishedPeriod(bytes32 _termsHash)\n        public\n        view\n        returns(bool)\n    {\n        if (hashStatus[_termsHash] == 3)\n            return true;\n        else\n            return false;\n    }\n\n    /**\n     * @dev Function that allows the owner to change the period of the status\n     * @param _termsHash bytes32 of the event\n     * @param _status uint the status to set\n     */\n    function changePeriod(\n        bytes32 _termsHash,\n        uint _status\n    )\n        public\n        onlyOwner\n    {\n        hashStatus[_termsHash] = _status;\n        emit LogPeriodChanged(_termsHash, _status);\n    }\n}\n",
  "sourcePath": "/Users/carlosgonzalezjuarez/Documents/Development/GuesserProtocol/contracts/BetTermsExamples/OwnerBased.sol",
  "compiler": {
    "name": "solc",
    "version": "0.4.24+commit.e67f0147.Emscripten.clang"
  },
  "schemaVersion": "2.0.0",
  "updatedAt": "2018-07-06T14:19:09.844Z"
}