{
  "contractName": "OwnerBased",
  "abi": [
    {
      "constant": true,
      "inputs": [],
      "name": "betRegistry",
      "outputs": [
        {
          "name": "",
          "type": "address"
        }
      ],
      "payable": false,
      "stateMutability": "view",
      "type": "function"
    },
    {
      "constant": false,
      "inputs": [],
      "name": "unpause",
      "outputs": [],
      "payable": false,
      "stateMutability": "nonpayable",
      "type": "function"
    },
    {
      "constant": true,
      "inputs": [],
      "name": "paused",
      "outputs": [
        {
          "name": "",
          "type": "bool"
        }
      ],
      "payable": false,
      "stateMutability": "view",
      "type": "function"
    },
    {
      "constant": false,
      "inputs": [],
      "name": "renounceOwnership",
      "outputs": [],
      "payable": false,
      "stateMutability": "nonpayable",
      "type": "function"
    },
    {
      "constant": false,
      "inputs": [],
      "name": "pause",
      "outputs": [],
      "payable": false,
      "stateMutability": "nonpayable",
      "type": "function"
    },
    {
      "constant": true,
      "inputs": [],
      "name": "owner",
      "outputs": [
        {
          "name": "",
          "type": "address"
        }
      ],
      "payable": false,
      "stateMutability": "view",
      "type": "function"
    },
    {
      "constant": true,
      "inputs": [],
      "name": "betsNumber",
      "outputs": [
        {
          "name": "",
          "type": "uint256"
        }
      ],
      "payable": false,
      "stateMutability": "view",
      "type": "function"
    },
    {
      "constant": false,
      "inputs": [
        {
          "name": "_betRegistry",
          "type": "address"
        }
      ],
      "name": "setBetRegistry",
      "outputs": [],
      "payable": false,
      "stateMutability": "nonpayable",
      "type": "function"
    },
    {
      "constant": false,
      "inputs": [
        {
          "name": "_newOwner",
          "type": "address"
        }
      ],
      "name": "transferOwnership",
      "outputs": [],
      "payable": false,
      "stateMutability": "nonpayable",
      "type": "function"
    },
    {
      "anonymous": false,
      "inputs": [
        {
          "indexed": true,
          "name": "_termsHash",
          "type": "bytes32"
        },
        {
          "indexed": false,
          "name": "_status",
          "type": "uint256"
        }
      ],
      "name": "LogPeriodChanged",
      "type": "event"
    },
    {
      "anonymous": false,
      "inputs": [],
      "name": "Pause",
      "type": "event"
    },
    {
      "anonymous": false,
      "inputs": [],
      "name": "Unpause",
      "type": "event"
    },
    {
      "anonymous": false,
      "inputs": [
        {
          "indexed": true,
          "name": "previousOwner",
          "type": "address"
        }
      ],
      "name": "OwnershipRenounced",
      "type": "event"
    },
    {
      "anonymous": false,
      "inputs": [
        {
          "indexed": true,
          "name": "previousOwner",
          "type": "address"
        },
        {
          "indexed": true,
          "name": "newOwner",
          "type": "address"
        }
      ],
      "name": "OwnershipTransferred",
      "type": "event"
    },
    {
      "constant": true,
      "inputs": [],
      "name": "getTermsHash",
      "outputs": [
        {
          "name": "",
          "type": "bytes32"
        }
      ],
      "payable": false,
      "stateMutability": "view",
      "type": "function"
    },
    {
      "constant": false,
      "inputs": [
        {
          "name": "_termsHash",
          "type": "bytes32"
        }
      ],
      "name": "setTermsHash",
      "outputs": [
        {
          "name": "",
          "type": "bool"
        }
      ],
      "payable": false,
      "stateMutability": "nonpayable",
      "type": "function"
    },
    {
      "constant": true,
      "inputs": [
        {
          "name": "_termsHash",
          "type": "bytes32"
        }
      ],
      "name": "participationPeriod",
      "outputs": [
        {
          "name": "",
          "type": "bool"
        }
      ],
      "payable": false,
      "stateMutability": "view",
      "type": "function"
    },
    {
      "constant": true,
      "inputs": [
        {
          "name": "_termsHash",
          "type": "bytes32"
        }
      ],
      "name": "waitingPeriod",
      "outputs": [
        {
          "name": "",
          "type": "bool"
        }
      ],
      "payable": false,
      "stateMutability": "view",
      "type": "function"
    },
    {
      "constant": true,
      "inputs": [
        {
          "name": "_termsHash",
          "type": "bytes32"
        }
      ],
      "name": "retrievingPeriod",
      "outputs": [
        {
          "name": "",
          "type": "bool"
        }
      ],
      "payable": false,
      "stateMutability": "view",
      "type": "function"
    },
    {
      "constant": true,
      "inputs": [
        {
          "name": "_termsHash",
          "type": "bytes32"
        }
      ],
      "name": "finishedPeriod",
      "outputs": [
        {
          "name": "",
          "type": "bool"
        }
      ],
      "payable": false,
      "stateMutability": "view",
      "type": "function"
    },
    {
      "constant": false,
      "inputs": [
        {
          "name": "_termsHash",
          "type": "bytes32"
        },
        {
          "name": "_status",
          "type": "uint256"
        }
      ],
      "name": "changePeriod",
      "outputs": [],
      "payable": false,
      "stateMutability": "nonpayable",
      "type": "function"
    }
  ],
  "bytecode": "0x608060405260008060146101000a81548160ff0219169083151502179055506000600355336000806101000a81548173ffffffffffffffffffffffffffffffffffffffff021916908373ffffffffffffffffffffffffffffffffffffffff160217905550610d57806100726000396000f3006080604052600436106100e6576000357c0100000000000000000000000000000000000000000000000000000000900463ffffffff1680631ff677bf146100eb57806328ad26e6146101425780633f4ba83a1461018b57806351e069e7146101a25780635c975abb146101dd57806365758e6c1461020c578063715018a6146102555780637f37aa971461026c5780638456cb59146102b55780638da5cb5b146102cc5780638e8b4ecb14610323578063e2af856b1461036c578063e52ec504146103b5578063eaeffc8f146103e8578063efdb2b4614610413578063f2fde38b14610456575b600080fd5b3480156100f757600080fd5b50610100610499565b604051808273ffffffffffffffffffffffffffffffffffffffff1673ffffffffffffffffffffffffffffffffffffffff16815260200191505060405180910390f35b34801561014e57600080fd5b5061017160048036038101908080356000191690602001909291905050506104bf565b604051808215151515815260200191505060405180910390f35b34801561019757600080fd5b506101a06104f8565b005b3480156101ae57600080fd5b506101db6004803603810190808035600019169060200190929190803590602001909291905050506105b6565b005b3480156101e957600080fd5b506101f2610671565b604051808215151515815260200191505060405180910390f35b34801561021857600080fd5b5061023b6004803603810190808035600019169060200190929190505050610684565b604051808215151515815260200191505060405180910390f35b34801561026157600080fd5b5061026a6106bd565b005b34801561027857600080fd5b5061029b60048036038101908080356000191690602001909291905050506107bf565b604051808215151515815260200191505060405180910390f35b3480156102c157600080fd5b506102ca6107f7565b005b3480156102d857600080fd5b506102e16108b7565b604051808273ffffffffffffffffffffffffffffffffffffffff1673ffffffffffffffffffffffffffffffffffffffff16815260200191505060405180910390f35b34801561032f57600080fd5b5061035260048036038101908080356000191690602001909291905050506108dc565b604051808215151515815260200191505060405180910390f35b34801561037857600080fd5b5061039b60048036038101908080356000191690602001909291905050506109fb565b604051808215151515815260200191505060405180910390f35b3480156103c157600080fd5b506103ca610a33565b60405180826000191660001916815260200191505060405180910390f35b3480156103f457600080fd5b506103fd610b01565b6040518082815260200191505060405180910390f35b34801561041f57600080fd5b50610454600480360381019080803573ffffffffffffffffffffffffffffffffffffffff169060200190929190505050610b07565b005b34801561046257600080fd5b50610497600480360381019080803573ffffffffffffffffffffffffffffffffffffffff169060200190929190505050610bca565b005b600160009054906101000a900473ffffffffffffffffffffffffffffffffffffffff1681565b600060016002600084600019166000191681526020019081526020016000205414156104ee57600190506104f3565b600090505b919050565b6000809054906101000a900473ffffffffffffffffffffffffffffffffffffffff1673ffffffffffffffffffffffffffffffffffffffff163373ffffffffffffffffffffffffffffffffffffffff1614151561055357600080fd5b600060149054906101000a900460ff16151561056e57600080fd5b60008060146101000a81548160ff0219169083151502179055507f7805862f689e2f13df9f062ff482ad3ad112aca9e0847911ed832e158c525b3360405160405180910390a1565b6000809054906101000a900473ffffffffffffffffffffffffffffffffffffffff1673ffffffffffffffffffffffffffffffffffffffff163373ffffffffffffffffffffffffffffffffffffffff1614151561061157600080fd5b806002600084600019166000191681526020019081526020016000208190555081600019167fef864cbdbb840dcdf466b7ea3bab0ef0d0a3aece5cbf2f137b3ba615bdb20293826040518082815260200191505060405180910390a25050565b600060149054906101000a900460ff1681565b600060036002600084600019166000191681526020019081526020016000205414156106b357600190506106b8565b600090505b919050565b6000809054906101000a900473ffffffffffffffffffffffffffffffffffffffff1673ffffffffffffffffffffffffffffffffffffffff163373ffffffffffffffffffffffffffffffffffffffff1614151561071857600080fd5b6000809054906101000a900473ffffffffffffffffffffffffffffffffffffffff1673ffffffffffffffffffffffffffffffffffffffff167ff8df31144d9c2f0f6b59d69b8b98abd5459d07f2742c4df920b25aae33c6482060405160405180910390a260008060006101000a81548173ffffffffffffffffffffffffffffffffffffffff021916908373ffffffffffffffffffffffffffffffffffffffff160217905550565b6000806002600084600019166000191681526020019081526020016000205414156107ed57600190506107f2565b600090505b919050565b6000809054906101000a900473ffffffffffffffffffffffffffffffffffffffff1673ffffffffffffffffffffffffffffffffffffffff163373ffffffffffffffffffffffffffffffffffffffff1614151561085257600080fd5b600060149054906101000a900460ff1615151561086e57600080fd5b6001600060146101000a81548160ff0219169083151502179055507f6985a02210a168e66602d3235cb6db0e70f92b3ba4d376a33c0f3d9434bff62560405160405180910390a1565b6000809054906101000a900473ffffffffffffffffffffffffffffffffffffffff1681565b60008033600354604051602001808373ffffffffffffffffffffffffffffffffffffffff1673ffffffffffffffffffffffffffffffffffffffff166c01000000000000000000000000028152601401828152602001925050506040516020818303038152906040526040518082805190602001908083835b6020831015156109795780518252602082019150602081019050602083039250610954565b6001836020036101000a03801982511681845116808217855250505050505090500191505060405180910390209050806000191683600019161415156109be57600080fd5b6000600260008360001916600019168152602001908152602001600020819055506003600081548092919060010191905055506001915050919050565b600060028060008460001916600019168152602001908152602001600020541415610a295760019050610a2e565b600090505b919050565b600033600354604051602001808373ffffffffffffffffffffffffffffffffffffffff1673ffffffffffffffffffffffffffffffffffffffff166c01000000000000000000000000028152601401828152602001925050506040516020818303038152906040526040518082805190602001908083835b602083101515610acf5780518252602082019150602081019050602083039250610aaa565b6001836020036101000a0380198251168184511680821785525050505050509050019150506040518091039020905090565b60035481565b6000809054906101000a900473ffffffffffffffffffffffffffffffffffffffff1673ffffffffffffffffffffffffffffffffffffffff163373ffffffffffffffffffffffffffffffffffffffff16141515610b6257600080fd5b600060149054906101000a900460ff16151515610b7e57600080fd5b80600160006101000a81548173ffffffffffffffffffffffffffffffffffffffff021916908373ffffffffffffffffffffffffffffffffffffffff160217905550610bc76107f7565b50565b6000809054906101000a900473ffffffffffffffffffffffffffffffffffffffff1673ffffffffffffffffffffffffffffffffffffffff163373ffffffffffffffffffffffffffffffffffffffff16141515610c2557600080fd5b610c2e81610c31565b50565b600073ffffffffffffffffffffffffffffffffffffffff168173ffffffffffffffffffffffffffffffffffffffff1614151515610c6d57600080fd5b8073ffffffffffffffffffffffffffffffffffffffff166000809054906101000a900473ffffffffffffffffffffffffffffffffffffffff1673ffffffffffffffffffffffffffffffffffffffff167f8be0079c531659141344cd1fd0a4f28419497f9722a3daafe3b4186f6b6457e060405160405180910390a3806000806101000a81548173ffffffffffffffffffffffffffffffffffffffff021916908373ffffffffffffffffffffffffffffffffffffffff160217905550505600a165627a7a7230582098373e5990af8e62e98f2d9a545d3ecdea130e3f8e506f0d6a767678be8ad8190029",
  "source": "pragma solidity 0.4.24;\n\n// Internal\nimport \"../RegistrySetter.sol\";\nimport \"../ProxyInterfaces/BetTermsProxyInterface.sol\";\n\n\n/**\n * An example of the BetTerms contract for Owner based terms events.\n * The owner whill decide if betting is still allowed to and when to ask\n * to the oracle for the information\n *\n * Author: Carlos Gonzalez -- Github: carlosgj94\n */\n/** @title Owner Based Terms. */\ncontract OwnerBased is RegistrySetter, BetTermsProxyInterface {\n    using SafeMath for uint;\n\n    event LogPeriodChanged(\n        bytes32 indexed _termsHash,\n        uint _status\n    );\n\n    enum Status {\n        ParticipationPeriod,\n        RetrievingPeriod,\n        FinishedPeriod\n    }\n\n    mapping(bytes32 => uint) internal hashStatus;\n    uint public betsNumber = 0;\n\n    /**\n     * @dev Function that returns a terms hash for the next event\n     * @return bytes32 the terms hash\n     */\n    function getTermsHash()\n        public\n        view\n        returns(bytes32)\n    {\n        return keccak256(\n            abi.encodePacked(\n                msg.sender,\n                betsNumber\n            )\n        );\n    }\n\n    /**\n     * @dev Function that given a terms hash creates it if it is true\n     * @param _termsHash bytes32 the random number to create the terms hash\n     */\n    function setTermsHash(bytes32 _termsHash)\n        public\n        returns(bool)\n    {\n        bytes32 _hash = keccak256(\n            abi.encodePacked(\n                msg.sender,\n                betsNumber\n            )\n        );\n\n        require(_termsHash == _hash);\n\n        // Setting the hash to the first state of the enum\n        hashStatus[_hash] = 0;\n        betsNumber++;\n\n        return true;\n    }\n\n    /**\n     * @dev Function that tells if it is the period for playing\n     * @param _termsHash bytes32 of the event\n     * @return bool if it is the period for playing\n     */\n    function participationPeriod(bytes32 _termsHash)\n        public\n        view\n        returns(bool)\n    {\n        if (hashStatus[_termsHash] == 0)\n            return true;\n        else\n            return false;\n    }\n\n    /**\n     * @dev Function that tells if the event is in stand by\n     * @param _termsHash bytes32 of the event\n     * @return bool if it is the waiting period\n     */\n    function waitingPeriod(bytes32 _termsHash)\n        public\n        view\n        returns(bool)\n    {\n        if (hashStatus[_termsHash] == 1)\n            return true;\n        else\n            return false;\n    }\n\n    /**\n     * @dev Function that tells if the period for playing is over\n     * @param _termsHash bytes32 of the event\n     * @return bool if the period for betting is over\n     */\n    function retrievingPeriod(bytes32 _termsHash)\n        public \n        view\n        returns(bool)\n    {\n        if (hashStatus[_termsHash] == 2)\n            return true;\n        else\n            return false;\n    }\n\n    /**\n     * @dev Function that tells if the event is over\n     * @param _termsHash bytes32 of the event\n     * @return bool if the event is over\n     */\n    function finishedPeriod(bytes32 _termsHash)\n        public\n        view\n        returns(bool)\n    {\n        if (hashStatus[_termsHash] == 3)\n            return true;\n        else\n            return false;\n    }\n\n    /**\n     * @dev Function that allows the owner to change the period of the status\n     * @param _termsHash bytes32 of the event\n     * @param _status uint the status to set\n     */\n    function changePeriod(\n        bytes32 _termsHash,\n        uint _status\n    )\n        public\n        onlyOwner\n    {\n        hashStatus[_termsHash] = _status;\n        emit LogPeriodChanged(_termsHash, _status);\n    }\n}\n",
  "sourcePath": "/Users/carlosgonzalezjuarez/Documents/Development/GuesserProtocol/contracts/BetTermsExamples/OwnerBased.sol",
  "compiler": {
    "name": "solc",
    "version": "0.4.24+commit.e67f0147.Emscripten.clang"
  },
  "schemaVersion": "2.0.0",
  "updatedAt": "2018-07-11T08:53:18.483Z"
}