{
  "contractName": "OwnerBased",
  "abi": [
    {
      "constant": false,
      "inputs": [],
      "name": "renounceOwnership",
      "outputs": [],
      "payable": false,
      "stateMutability": "nonpayable",
      "type": "function"
    },
    {
      "constant": true,
      "inputs": [],
      "name": "owner",
      "outputs": [
        {
          "name": "",
          "type": "address"
        }
      ],
      "payable": false,
      "stateMutability": "view",
      "type": "function"
    },
    {
      "constant": false,
      "inputs": [
        {
          "name": "_newOwner",
          "type": "address"
        }
      ],
      "name": "transferOwnership",
      "outputs": [],
      "payable": false,
      "stateMutability": "nonpayable",
      "type": "function"
    },
    {
      "anonymous": false,
      "inputs": [
        {
          "indexed": true,
          "name": "_termsHash",
          "type": "bytes32"
        },
        {
          "indexed": false,
          "name": "_status",
          "type": "uint256"
        }
      ],
      "name": "LogPeriodChanged",
      "type": "event"
    },
    {
      "anonymous": false,
      "inputs": [
        {
          "indexed": true,
          "name": "previousOwner",
          "type": "address"
        }
      ],
      "name": "OwnershipRenounced",
      "type": "event"
    },
    {
      "anonymous": false,
      "inputs": [
        {
          "indexed": true,
          "name": "previousOwner",
          "type": "address"
        },
        {
          "indexed": true,
          "name": "newOwner",
          "type": "address"
        }
      ],
      "name": "OwnershipTransferred",
      "type": "event"
    },
    {
      "constant": false,
      "inputs": [
        {
          "name": "_salt",
          "type": "uint256"
        }
      ],
      "name": "getTermsHash",
      "outputs": [
        {
          "name": "",
          "type": "bytes32"
        }
      ],
      "payable": false,
      "stateMutability": "nonpayable",
      "type": "function"
    },
    {
      "constant": false,
      "inputs": [
        {
          "name": "_termsHash",
          "type": "bytes32"
        }
      ],
      "name": "participationPeriod",
      "outputs": [
        {
          "name": "",
          "type": "bool"
        }
      ],
      "payable": false,
      "stateMutability": "nonpayable",
      "type": "function"
    },
    {
      "constant": false,
      "inputs": [
        {
          "name": "_termsHash",
          "type": "bytes32"
        }
      ],
      "name": "retrievingPeriod",
      "outputs": [
        {
          "name": "",
          "type": "bool"
        }
      ],
      "payable": false,
      "stateMutability": "nonpayable",
      "type": "function"
    },
    {
      "constant": false,
      "inputs": [
        {
          "name": "_termsHash",
          "type": "bytes32"
        }
      ],
      "name": "finishedPeriod",
      "outputs": [
        {
          "name": "",
          "type": "bool"
        }
      ],
      "payable": false,
      "stateMutability": "nonpayable",
      "type": "function"
    },
    {
      "constant": false,
      "inputs": [
        {
          "name": "_termsHash",
          "type": "bytes32"
        },
        {
          "name": "_status",
          "type": "uint256"
        }
      ],
      "name": "changePeriod",
      "outputs": [],
      "payable": false,
      "stateMutability": "nonpayable",
      "type": "function"
    }
  ],
  "bytecode": "0x6080604052336000806101000a81548173ffffffffffffffffffffffffffffffffffffffff021916908373ffffffffffffffffffffffffffffffffffffffff160217905550610771806100536000396000f30060806040526004361061008e576000357c0100000000000000000000000000000000000000000000000000000000900463ffffffff16806351e069e71461009357806365758e6c146100ce578063715018a6146101175780637f37aa971461012e5780638da5cb5b14610177578063d46e57ea146101ce578063e2af856b14610217578063f2fde38b14610260575b600080fd5b34801561009f57600080fd5b506100cc6004803603810190808035600019169060200190929190803590602001909291905050506102a3565b005b3480156100da57600080fd5b506100fd600480360381019080803560001916906020019092919050505061035e565b604051808215151515815260200191505060405180910390f35b34801561012357600080fd5b5061012c610397565b005b34801561013a57600080fd5b5061015d6004803603810190808035600019169060200190929190505050610499565b604051808215151515815260200191505060405180910390f35b34801561018357600080fd5b5061018c6104d1565b604051808273ffffffffffffffffffffffffffffffffffffffff1673ffffffffffffffffffffffffffffffffffffffff16815260200191505060405180910390f35b3480156101da57600080fd5b506101f9600480360381019080803590602001909291905050506104f6565b60405180826000191660001916815260200191505060405180910390f35b34801561022357600080fd5b5061024660048036038101908080356000191690602001909291905050506105ac565b604051808215151515815260200191505060405180910390f35b34801561026c57600080fd5b506102a1600480360381019080803573ffffffffffffffffffffffffffffffffffffffff1690602001909291905050506105e4565b005b6000809054906101000a900473ffffffffffffffffffffffffffffffffffffffff1673ffffffffffffffffffffffffffffffffffffffff163373ffffffffffffffffffffffffffffffffffffffff161415156102fe57600080fd5b806001600084600019166000191681526020019081526020016000208190555081600019167fef864cbdbb840dcdf466b7ea3bab0ef0d0a3aece5cbf2f137b3ba615bdb20293826040518082815260200191505060405180910390a25050565b6000600260016000846000191660001916815260200190815260200160002054141561038d5760019050610392565b600090505b919050565b6000809054906101000a900473ffffffffffffffffffffffffffffffffffffffff1673ffffffffffffffffffffffffffffffffffffffff163373ffffffffffffffffffffffffffffffffffffffff161415156103f257600080fd5b6000809054906101000a900473ffffffffffffffffffffffffffffffffffffffff1673ffffffffffffffffffffffffffffffffffffffff167ff8df31144d9c2f0f6b59d69b8b98abd5459d07f2742c4df920b25aae33c6482060405160405180910390a260008060006101000a81548173ffffffffffffffffffffffffffffffffffffffff021916908373ffffffffffffffffffffffffffffffffffffffff160217905550565b6000806001600084600019166000191681526020019081526020016000205414156104c757600190506104cc565b600090505b919050565b6000809054906101000a900473ffffffffffffffffffffffffffffffffffffffff1681565b600080428360405160200180838152602001828152602001925050506040516020818303038152906040526040518082805190602001908083835b6020831015156105565780518252602082019150602081019050602083039250610531565b6001836020036101000a0380198251168184511680821785525050505050509050019150506040518091039020905060006001600083600019166000191681526020019081526020016000208190555050919050565b6000600180600084600019166000191681526020019081526020016000205414156105da57600190506105df565b600090505b919050565b6000809054906101000a900473ffffffffffffffffffffffffffffffffffffffff1673ffffffffffffffffffffffffffffffffffffffff163373ffffffffffffffffffffffffffffffffffffffff1614151561063f57600080fd5b6106488161064b565b50565b600073ffffffffffffffffffffffffffffffffffffffff168173ffffffffffffffffffffffffffffffffffffffff161415151561068757600080fd5b8073ffffffffffffffffffffffffffffffffffffffff166000809054906101000a900473ffffffffffffffffffffffffffffffffffffffff1673ffffffffffffffffffffffffffffffffffffffff167f8be0079c531659141344cd1fd0a4f28419497f9722a3daafe3b4186f6b6457e060405160405180910390a3806000806101000a81548173ffffffffffffffffffffffffffffffffffffffff021916908373ffffffffffffffffffffffffffffffffffffffff160217905550505600a165627a7a72305820352fd81709102f48e33a82a0daccb5d26321b7d64f5b943e1d4198048a2d8ab40029",
  "source": "pragma solidity 0.4.24;\n\n// Internal\nimport \"../BetTerms.sol\";\nimport \"../TermsContract.sol\";\n// External\nimport \"openzeppelin-solidity/contracts/math/SafeMath.sol\";\nimport \"openzeppelin-solidity/contracts/ownership/Ownable.sol\";\n\n\n/**\n * An example of the BetTerms contract for Owner based terms events.\n * The owner whill decide if betting is still allowed to and when to ask\n * to the oracle for the information\n *\n * Author: Carlos Gonzalez -- Github: carlosgj94\n */\n/** @title Owner Based Terms. */\ncontract OwnerBased is TermsContract, Ownable {\n    using SafeMath for uint;\n\n    event LogPeriodChanged(\n        bytes32 indexed _termsHash,\n        uint _status\n    );\n\n    enum Status {\n        ParticipationPeriod,\n        RetrievingPeriod,\n        FinishedPeriod\n    }\n    mapping(bytes32 => uint) hashStatus;\n\n    /**\n     * @dev Function that given a random number creates a terms hash\n     * @param _salt uint the random number to create the terms hash\n     * @return bytes32 the terms hash\n     */\n    function getTermsHash(uint _salt)\n        public\n        returns(bytes32)\n    {\n        bytes32 _hash = keccak256(\n            abi.encodePacked(\n                block.timestamp,\n                _salt\n            )\n        );\n\n        // Setting the hash to the first state of the enum\n        hashStatus[_hash] = 0;\n    }\n\n    /**\n     * @dev Function that tells if it is the period for playing\n     * @param _termsHash bytes32 of the event\n     * @return bool if it is the period for playing\n     */\n    function participationPeriod(bytes32 _termsHash)\n        public\n        returns(bool)\n    {\n        if (hashStatus[_termsHash] == 0)\n            return true;\n        else\n            return false;\n    }\n\n    /**\n     * @dev Function that tells if the period for playing is over\n     * @param _termsHash bytes32 of the event\n     * @return bool if the period for betting is over\n     */\n    function retrievingPeriod(bytes32 _termsHash)\n        public \n        returns(bool)\n    {\n        if (hashStatus[_termsHash] == 1)\n            return true;\n        else\n            return false;\n    }\n\n    /**\n     * @dev Function that tells if the event is over\n     * @param _termsHash bytes32 of the event\n     * @return bool if the event is over\n     */\n    function finishedPeriod(bytes32 _termsHash)\n        public\n        returns(bool)\n    {\n        if(hashStatus[_termsHash] == 2)\n            return true;\n        else\n            return false;\n    }\n\n    /**\n     * @dev Function that allows the owner to change the period of the status\n     * @param _termsHash bytes32 of the event\n     * @param _status uint the status to set\n     */\n    function changePeriod(\n        bytes32 _termsHash,\n        uint _status\n    )\n        public\n        onlyOwner\n    {\n        hashStatus[_termsHash] = _status;\n        emit LogPeriodChanged(_termsHash, _status);\n    }\n}\n",
  "sourcePath": "/Users/carlosgonzalezjuarez/Documents/Development/GuesserProtocol/contracts/BetTermsExamples/OwnerBased.sol",
  "compiler": {
    "name": "solc",
    "version": "0.4.24+commit.e67f0147.Emscripten.clang"
  },
  "schemaVersion": "2.0.0",
  "updatedAt": "2018-06-30T11:16:49.700Z"
}