{
  "contractName": "RegistryStorage",
  "abi": [
    {
      "constant": true,
      "inputs": [],
      "name": "betKernel",
      "outputs": [
        {
          "name": "",
          "type": "address"
        }
      ],
      "payable": false,
      "stateMutability": "view",
      "type": "function"
    },
    {
      "constant": true,
      "inputs": [],
      "name": "betOracle",
      "outputs": [
        {
          "name": "",
          "type": "address"
        }
      ],
      "payable": false,
      "stateMutability": "view",
      "type": "function"
    },
    {
      "constant": true,
      "inputs": [],
      "name": "proxyRegistry",
      "outputs": [
        {
          "name": "",
          "type": "address"
        }
      ],
      "payable": false,
      "stateMutability": "view",
      "type": "function"
    },
    {
      "constant": true,
      "inputs": [],
      "name": "betTerms",
      "outputs": [
        {
          "name": "",
          "type": "address"
        }
      ],
      "payable": false,
      "stateMutability": "view",
      "type": "function"
    },
    {
      "constant": true,
      "inputs": [],
      "name": "betPayments",
      "outputs": [
        {
          "name": "",
          "type": "address"
        }
      ],
      "payable": false,
      "stateMutability": "view",
      "type": "function"
    }
  ],
  "bytecode": "0x608060405234801561001057600080fd5b5061030e806100206000396000f30060806040526004361061006d576000357c0100000000000000000000000000000000000000000000000000000000900463ffffffff1680634c98ee7b1461007257806380fabc91146100c9578063b50cbd9f14610120578063ca033e7d14610177578063dd943d04146101ce575b600080fd5b34801561007e57600080fd5b50610087610225565b604051808273ffffffffffffffffffffffffffffffffffffffff1673ffffffffffffffffffffffffffffffffffffffff16815260200191505060405180910390f35b3480156100d557600080fd5b506100de61024a565b604051808273ffffffffffffffffffffffffffffffffffffffff1673ffffffffffffffffffffffffffffffffffffffff16815260200191505060405180910390f35b34801561012c57600080fd5b50610135610270565b604051808273ffffffffffffffffffffffffffffffffffffffff1673ffffffffffffffffffffffffffffffffffffffff16815260200191505060405180910390f35b34801561018357600080fd5b5061018c610296565b604051808273ffffffffffffffffffffffffffffffffffffffff1673ffffffffffffffffffffffffffffffffffffffff16815260200191505060405180910390f35b3480156101da57600080fd5b506101e36102bc565b604051808273ffffffffffffffffffffffffffffffffffffffff1673ffffffffffffffffffffffffffffffffffffffff16815260200191505060405180910390f35b6000809054906101000a900473ffffffffffffffffffffffffffffffffffffffff1681565b600260009054906101000a900473ffffffffffffffffffffffffffffffffffffffff1681565b600460009054906101000a900473ffffffffffffffffffffffffffffffffffffffff1681565b600360009054906101000a900473ffffffffffffffffffffffffffffffffffffffff1681565b600160009054906101000a900473ffffffffffffffffffffffffffffffffffffffff16815600a165627a7a723058209891469bd1bf22892de9bfec412205efff2af6ad52ed7dc37552f8a4feab1eed0029",
  "source": "pragma solidity 0.4.24;\n\n\ncontract RegistryStorage {\n    // Allowed Contracts\n    address public betKernel;\n    address public betPayments;\n    address public betOracle;\n    address public betTerms;\n    address public proxyRegistry;\n\n    // Storage\n    struct BetEntry {\n        address paymentsProxy;\n        address paymentsToken;\n        address oracleProxy;\n        address termsProxy;\n        bytes32 termsHash;\n        string title;\n        uint datetime;\n        address creator;\n        mapping(bytes32 => PlayerBet) playerBets;\n        mapping(uint => uint) principalInOption;\n        uint totalPrincipal;\n    }\n\n    struct PlayerBet {\n        address player;\n        uint option;\n        uint principal;\n        bool returned;\n    }\n\n    // Primary registry mapping the events with their hash\n    mapping(bytes32 => BetEntry) internal betRegistry;\n}\n",
  "sourcePath": "/Users/carlosgonzalezjuarez/Documents/Development/GuesserProtocol/contracts/RegistryStorage.sol",
  "compiler": {
    "name": "solc",
    "version": "0.4.24+commit.e67f0147.Emscripten.clang"
  },
  "schemaVersion": "2.0.0",
  "updatedAt": "2018-07-11T14:52:11.206Z"
}