{
  "contractName": "TimeBasedTerms",
  "abi": [
    {
      "constant": true,
      "inputs": [],
      "name": "betRegistry",
      "outputs": [
        {
          "name": "",
          "type": "address"
        }
      ],
      "payable": false,
      "stateMutability": "view",
      "type": "function"
    },
    {
      "constant": false,
      "inputs": [],
      "name": "unpause",
      "outputs": [],
      "payable": false,
      "stateMutability": "nonpayable",
      "type": "function"
    },
    {
      "constant": true,
      "inputs": [],
      "name": "paused",
      "outputs": [
        {
          "name": "",
          "type": "bool"
        }
      ],
      "payable": false,
      "stateMutability": "view",
      "type": "function"
    },
    {
      "constant": false,
      "inputs": [],
      "name": "renounceOwnership",
      "outputs": [],
      "payable": false,
      "stateMutability": "nonpayable",
      "type": "function"
    },
    {
      "constant": false,
      "inputs": [],
      "name": "pause",
      "outputs": [],
      "payable": false,
      "stateMutability": "nonpayable",
      "type": "function"
    },
    {
      "constant": true,
      "inputs": [],
      "name": "owner",
      "outputs": [
        {
          "name": "",
          "type": "address"
        }
      ],
      "payable": false,
      "stateMutability": "view",
      "type": "function"
    },
    {
      "constant": false,
      "inputs": [
        {
          "name": "_betRegistry",
          "type": "address"
        }
      ],
      "name": "setBetRegistry",
      "outputs": [],
      "payable": false,
      "stateMutability": "nonpayable",
      "type": "function"
    },
    {
      "constant": false,
      "inputs": [
        {
          "name": "_newOwner",
          "type": "address"
        }
      ],
      "name": "transferOwnership",
      "outputs": [],
      "payable": false,
      "stateMutability": "nonpayable",
      "type": "function"
    },
    {
      "anonymous": false,
      "inputs": [],
      "name": "Pause",
      "type": "event"
    },
    {
      "anonymous": false,
      "inputs": [],
      "name": "Unpause",
      "type": "event"
    },
    {
      "anonymous": false,
      "inputs": [
        {
          "indexed": true,
          "name": "previousOwner",
          "type": "address"
        }
      ],
      "name": "OwnershipRenounced",
      "type": "event"
    },
    {
      "anonymous": false,
      "inputs": [
        {
          "indexed": true,
          "name": "previousOwner",
          "type": "address"
        },
        {
          "indexed": true,
          "name": "newOwner",
          "type": "address"
        }
      ],
      "name": "OwnershipTransferred",
      "type": "event"
    },
    {
      "constant": false,
      "inputs": [
        {
          "name": "",
          "type": "bytes32"
        },
        {
          "name": "",
          "type": "uint256"
        }
      ],
      "name": "changePeriod",
      "outputs": [],
      "payable": false,
      "stateMutability": "nonpayable",
      "type": "function"
    },
    {
      "constant": true,
      "inputs": [
        {
          "name": "_terms",
          "type": "bytes32[]"
        }
      ],
      "name": "getTermsHash",
      "outputs": [
        {
          "name": "",
          "type": "bytes32"
        }
      ],
      "payable": false,
      "stateMutability": "view",
      "type": "function"
    },
    {
      "constant": false,
      "inputs": [
        {
          "name": "_terms",
          "type": "bytes32[]"
        }
      ],
      "name": "setTermsHash",
      "outputs": [
        {
          "name": "",
          "type": "bool"
        }
      ],
      "payable": false,
      "stateMutability": "nonpayable",
      "type": "function"
    },
    {
      "constant": true,
      "inputs": [
        {
          "name": "_termsHash",
          "type": "bytes32"
        }
      ],
      "name": "participationPeriod",
      "outputs": [
        {
          "name": "",
          "type": "bool"
        }
      ],
      "payable": false,
      "stateMutability": "view",
      "type": "function"
    },
    {
      "constant": true,
      "inputs": [
        {
          "name": "_termsHash",
          "type": "bytes32"
        }
      ],
      "name": "waitingPeriod",
      "outputs": [
        {
          "name": "",
          "type": "bool"
        }
      ],
      "payable": false,
      "stateMutability": "view",
      "type": "function"
    },
    {
      "constant": true,
      "inputs": [
        {
          "name": "_termsHash",
          "type": "bytes32"
        }
      ],
      "name": "retrievingPeriod",
      "outputs": [
        {
          "name": "",
          "type": "bool"
        }
      ],
      "payable": false,
      "stateMutability": "view",
      "type": "function"
    },
    {
      "constant": true,
      "inputs": [
        {
          "name": "_termsHash",
          "type": "bytes32"
        }
      ],
      "name": "finishedPeriod",
      "outputs": [
        {
          "name": "",
          "type": "bool"
        }
      ],
      "payable": false,
      "stateMutability": "view",
      "type": "function"
    }
  ],
  "bytecode": "0x608060405260008060146101000a81548160ff021916908315150217905550336000806101000a81548173ffffffffffffffffffffffffffffffffffffffff021916908373ffffffffffffffffffffffffffffffffffffffff1602179055506110008061006d6000396000f3006080604052600436106100db576000357c0100000000000000000000000000000000000000000000000000000000900463ffffffff1680631ff677bf146100e057806328ad26e6146101375780633f4ba83a146101805780634389a94e1461019757806351e069e7146102155780635c975abb1461025057806365758e6c1461027f578063715018a6146102c85780637f37aa97146102df5780638456cb59146103285780638da5cb5b1461033f5780639a402f4014610396578063e2af856b14610418578063efdb2b4614610461578063f2fde38b146104a4575b600080fd5b3480156100ec57600080fd5b506100f56104e7565b604051808273ffffffffffffffffffffffffffffffffffffffff1673ffffffffffffffffffffffffffffffffffffffff16815260200191505060405180910390f35b34801561014357600080fd5b506101666004803603810190808035600019169060200190929190505050610511565b604051808215151515815260200191505060405180910390f35b34801561018c57600080fd5b50610195610564565b005b3480156101a357600080fd5b506101fb60048036038101908080359060200190820180359060200190808060200260200160405190810160405280939291908181526020018383602002808284378201915050505050509192919290505050610622565b604051808215151515815260200191505060405180910390f35b34801561022157600080fd5b5061024e6004803603810190808035600019169060200190929190803590602001909291905050506108da565b005b34801561025c57600080fd5b5061026561096e565b604051808215151515815260200191505060405180910390f35b34801561028b57600080fd5b506102ae6004803603810190808035600019169060200190929190505050610981565b604051808215151515815260200191505060405180910390f35b3480156102d457600080fd5b506102dd6109ab565b005b3480156102eb57600080fd5b5061030e6004803603810190808035600019169060200190929190505050610aad565b604051808215151515815260200191505060405180910390f35b34801561033457600080fd5b5061033d610ad7565b005b34801561034b57600080fd5b50610354610b97565b604051808273ffffffffffffffffffffffffffffffffffffffff1673ffffffffffffffffffffffffffffffffffffffff16815260200191505060405180910390f35b3480156103a257600080fd5b506103fa60048036038101908080359060200190820180359060200190808060200260200160405190810160405280939291908181526020018383602002808284378201915050505050509192919290505050610bbc565b60405180826000191660001916815260200191505060405180910390f35b34801561042457600080fd5b506104476004803603810190808035600019169060200190929190505050610cc7565b604051808215151515815260200191505060405180910390f35b34801561046d57600080fd5b506104a2600480360381019080803573ffffffffffffffffffffffffffffffffffffffff169060200190929190505050610d1a565b005b3480156104b057600080fd5b506104e5600480360381019080803573ffffffffffffffffffffffffffffffffffffffff169060200190929190505050610dde565b005b6000600160009054906101000a900473ffffffffffffffffffffffffffffffffffffffff16905090565b6000426002600084600019166000191681526020019081526020016000206000015410801561055d57504260026000846000191660001916815260200190815260200160002060010154115b9050919050565b6000809054906101000a900473ffffffffffffffffffffffffffffffffffffffff1673ffffffffffffffffffffffffffffffffffffffff163373ffffffffffffffffffffffffffffffffffffffff161415156105bf57600080fd5b600060149054906101000a900460ff1615156105da57600080fd5b60008060146101000a81548160ff0219169083151502179055507f7805862f689e2f13df9f062ff482ad3ad112aca9e0847911ed832e158c525b3360405160405180910390a1565b600080600080600061064b86600081518110151561063c57fe5b90602001906020020151610e45565b935061066e86600181518110151561065f57fe5b90602001906020020151610e45565b925061069186600281518110151561068257fe5b90602001906020020151610e45565b91504284111515610730576040517f08c379a00000000000000000000000000000000000000000000000000000000081526004018080602001828103825260328152602001807f50617274696369706174696f6e20706572696f64206d75737420626520756e7481526020017f696c2066757475726520646561646c696e65000000000000000000000000000081525060400191505060405180910390fd5b83831115156107cd576040517f08c379a00000000000000000000000000000000000000000000000000000000081526004018080602001828103825260328152602001807f57616974696e6720706572696f64206d75737420656e6420616674657220706181526020017f7274696369706174696f6e20706572696f64000000000000000000000000000081525060400191505060405180910390fd5b828211151561086a576040517f08c379a000000000000000000000000000000000000000000000000000000000815260040180806020018281038252602f8152602001807f52657472696576696e6720706572696f64206d75737420656e6420616674657281526020017f2077616974696e6720706572696f64000000000000000000000000000000000081525060400191505060405180910390fd5b61087386610bbc565b9050606060405190810160405280858152602001848152602001838152506002600083600019166000191681526020019081526020016000206000820151816000015560208201518160010155604082015181600201559050506001945050505050919050565b6040517f08c379a00000000000000000000000000000000000000000000000000000000081526004018080602001828103825260328152602001807f54686973207465726d7320636f6e747261637420646f65736e2774207375707081526020017f6f72742074686973206f7065726174696f6e000000000000000000000000000081525060400191505060405180910390fd5b600060149054906101000a900460ff1681565b60004260026000846000191660001916815260200190815260200160002060010154109050919050565b6000809054906101000a900473ffffffffffffffffffffffffffffffffffffffff1673ffffffffffffffffffffffffffffffffffffffff163373ffffffffffffffffffffffffffffffffffffffff16141515610a0657600080fd5b6000809054906101000a900473ffffffffffffffffffffffffffffffffffffffff1673ffffffffffffffffffffffffffffffffffffffff167ff8df31144d9c2f0f6b59d69b8b98abd5459d07f2742c4df920b25aae33c6482060405160405180910390a260008060006101000a81548173ffffffffffffffffffffffffffffffffffffffff021916908373ffffffffffffffffffffffffffffffffffffffff160217905550565b60004260026000846000191660001916815260200190815260200160002060000154119050919050565b6000809054906101000a900473ffffffffffffffffffffffffffffffffffffffff1673ffffffffffffffffffffffffffffffffffffffff163373ffffffffffffffffffffffffffffffffffffffff16141515610b3257600080fd5b600060149054906101000a900460ff16151515610b4e57600080fd5b6001600060146101000a81548160ff0219169083151502179055507f6985a02210a168e66602d3235cb6db0e70f92b3ba4d376a33c0f3d9434bff62560405160405180910390a1565b6000809054906101000a900473ffffffffffffffffffffffffffffffffffffffff1681565b600080600080610be3856000815181101515610bd457fe5b90602001906020020151610e45565b9250610c06856001815181101515610bf757fe5b90602001906020020151610e45565b9150610c29856002815181101515610c1a57fe5b90602001906020020151610e45565b90508282826040516020018084815260200183815260200182815260200193505050506040516020818303038152906040526040518082805190602001908083835b602083101515610c905780518252602082019150602081019050602083039250610c6b565b6001836020036101000a03801982511681845116808217855250505050505090500191505060405180910390209350505050919050565b60004260026000846000191660001916815260200190815260200160002060010154108015610d1357504260026000846000191660001916815260200190815260200160002060020154115b9050919050565b6000809054906101000a900473ffffffffffffffffffffffffffffffffffffffff1673ffffffffffffffffffffffffffffffffffffffff163373ffffffffffffffffffffffffffffffffffffffff16141515610d7557600080fd5b80600160006101000a81548173ffffffffffffffffffffffffffffffffffffffff021916908373ffffffffffffffffffffffffffffffffffffffff16021790555060001515600060149054906101000a900460ff1615151415610ddb57610dda610ad7565b5b50565b6000809054906101000a900473ffffffffffffffffffffffffffffffffffffffff1673ffffffffffffffffffffffffffffffffffffffff163373ffffffffffffffffffffffffffffffffffffffff16141515610e3957600080fd5b610e4281610eda565b50565b60008060008090505b602060ff16811015610ed05760018101602060ff160360080260020a8482602081101515610e7857fe5b1a7f0100000000000000000000000000000000000000000000000000000000000000027f0100000000000000000000000000000000000000000000000000000000000000900402820191508080600101915050610e4e565b8192505050919050565b600073ffffffffffffffffffffffffffffffffffffffff168173ffffffffffffffffffffffffffffffffffffffff1614151515610f1657600080fd5b8073ffffffffffffffffffffffffffffffffffffffff166000809054906101000a900473ffffffffffffffffffffffffffffffffffffffff1673ffffffffffffffffffffffffffffffffffffffff167f8be0079c531659141344cd1fd0a4f28419497f9722a3daafe3b4186f6b6457e060405160405180910390a3806000806101000a81548173ffffffffffffffffffffffffffffffffffffffff021916908373ffffffffffffffffffffffffffffffffffffffff160217905550505600a165627a7a72305820e94c85e1f7e8540ec5b1081151e9b973e0b22bd9cd2c6283dcb4b059c5e5333e0029",
  "source": "pragma solidity 0.4.24;\n\n// Internal\nimport \"../RegistrySetter.sol\";\nimport \"../ProxyInterfaces/BetTermsProxyInterface.sol\";\n\n\n/**\n * An example of the BetTerms contract for time based terms events.\n * Times for each phase of the bet are predefined by the terms.\n *\n * Author: Ben Kaufman -- Github: ben-kaufman\n */\n/** @title Owner Based Terms. */\ncontract TimeBasedTerms is RegistrySetter, BetTermsProxyInterface {\n\n    struct BetTerms {\n        uint256 participationPeriod;\n        uint256 waitingPeriod;\n        uint256 retrievingPeriod;\n    }\n\n    mapping(bytes32 => BetTerms) internal betsTerms;\n\n    function changePeriod(bytes32, uint)\n        external {\n        revert(\"This terms contract doesn't support this operation\");\n    }\n\n    /**\n     * @dev Function that returns a terms hash for the next event\n     * @return bytes32 the terms hash\n     */\n    function getTermsHash(bytes32[] _terms) public view returns(bytes32) {\n        uint256 _participationPeriod = bytesToUint(_terms[0]);\n        uint256 _waitingPeriod = bytesToUint(_terms[1]);\n        uint256 _retrievingPeriod = bytesToUint(_terms[2]);\n\n        return keccak256(\n            abi.encodePacked(\n                _participationPeriod,\n                _waitingPeriod,\n                _retrievingPeriod\n            )\n        );\n    }\n\n    function setTermsHash(bytes32[] _terms) public returns(bool) {\n        uint256 _participationPeriod = bytesToUint(_terms[0]);\n        uint256 _waitingPeriod = bytesToUint(_terms[1]);\n        uint256 _retrievingPeriod = bytesToUint(_terms[2]);\n\n        // solium-disable-next-line security/no-block-members\n        require(_participationPeriod > now, \"Participation period must be until future deadline\");\n        require(_waitingPeriod > _participationPeriod, \"Waiting period must end after participation period\");\n        require(_retrievingPeriod > _waitingPeriod, \"Retrieving period must end after waiting period\");\n        \n        bytes32 hash = getTermsHash(_terms);\n        betsTerms[hash] = BetTerms(_participationPeriod, _waitingPeriod, _retrievingPeriod);\n\n        return true;\n    }\n\n    /**\n     * @dev Function that tells if it is the period for playing\n     * @param _termsHash bytes32 of the event\n     * @return bool if it is the period for playing\n     */\n    function participationPeriod(bytes32 _termsHash) public view returns(bool) {\n        // solium-disable-next-line security/no-block-members\n        return betsTerms[_termsHash].participationPeriod > now;\n    }\n\n    /**\n     * @dev Function that tells if the event is in stand by\n     * @param _termsHash bytes32 of the event\n     * @return bool if it is the waiting period\n     */\n    function waitingPeriod(bytes32 _termsHash) public view returns(bool) {\n        // solium-disable-next-line security/no-block-members\n        return betsTerms[_termsHash].participationPeriod < now && betsTerms[_termsHash].waitingPeriod > now;\n    }\n\n    /**\n     * @dev Function that tells if the period for playing is over\n     * @param _termsHash bytes32 of the event\n     * @return bool if the period for betting is over\n     */\n    function retrievingPeriod(bytes32 _termsHash) public view returns(bool) {\n        // solium-disable-next-line security/no-block-members\n        return betsTerms[_termsHash].waitingPeriod < now && betsTerms[_termsHash].retrievingPeriod > now;\n    }\n\n    /**\n     * @dev Function that tells if the event is over\n     * @param _termsHash bytes32 of the event\n     * @return bool if the event is over\n     */\n    function finishedPeriod(bytes32 _termsHash) public view returns(bool) {\n        // solium-disable-next-line security/no-block-members\n        return betsTerms[_termsHash].waitingPeriod < now;\n    }\n\n    function bytesToUint(bytes32 b) private pure returns (uint256){\n        uint256 number;\n        for(uint i = 0; i < b.length; i++){\n            number = number + uint(b[i])*(2**(8*(b.length-(i+1))));\n        }\n\n        return number;\n    }\n}\n",
  "sourcePath": "/Users/benkaufman/Desktop/GuesserCore/contracts/BetTermsExamples/TimeBasedTerms.sol",
  "compiler": {
    "name": "solc",
    "version": "0.4.24+commit.e67f0147.Emscripten.clang"
  },
  "schemaVersion": "2.0.1",
  "updatedAt": "2018-10-02T17:02:31.884Z"
}