{
  "contractName": "TimeBasedTerms",
  "abi": [
    {
      "constant": true,
      "inputs": [],
      "name": "betRegistry",
      "outputs": [
        {
          "name": "",
          "type": "address"
        }
      ],
      "payable": false,
      "stateMutability": "view",
      "type": "function",
      "signature": "0x1ff677bf"
    },
    {
      "constant": false,
      "inputs": [],
      "name": "unpause",
      "outputs": [],
      "payable": false,
      "stateMutability": "nonpayable",
      "type": "function",
      "signature": "0x3f4ba83a"
    },
    {
      "constant": true,
      "inputs": [],
      "name": "paused",
      "outputs": [
        {
          "name": "",
          "type": "bool"
        }
      ],
      "payable": false,
      "stateMutability": "view",
      "type": "function",
      "signature": "0x5c975abb"
    },
    {
      "constant": false,
      "inputs": [],
      "name": "renounceOwnership",
      "outputs": [],
      "payable": false,
      "stateMutability": "nonpayable",
      "type": "function",
      "signature": "0x715018a6"
    },
    {
      "constant": false,
      "inputs": [],
      "name": "pause",
      "outputs": [],
      "payable": false,
      "stateMutability": "nonpayable",
      "type": "function",
      "signature": "0x8456cb59"
    },
    {
      "constant": true,
      "inputs": [],
      "name": "owner",
      "outputs": [
        {
          "name": "",
          "type": "address"
        }
      ],
      "payable": false,
      "stateMutability": "view",
      "type": "function",
      "signature": "0x8da5cb5b"
    },
    {
      "constant": false,
      "inputs": [
        {
          "name": "_betRegistry",
          "type": "address"
        }
      ],
      "name": "setBetRegistry",
      "outputs": [],
      "payable": false,
      "stateMutability": "nonpayable",
      "type": "function",
      "signature": "0xefdb2b46"
    },
    {
      "constant": false,
      "inputs": [
        {
          "name": "_newOwner",
          "type": "address"
        }
      ],
      "name": "transferOwnership",
      "outputs": [],
      "payable": false,
      "stateMutability": "nonpayable",
      "type": "function",
      "signature": "0xf2fde38b"
    },
    {
      "anonymous": false,
      "inputs": [],
      "name": "Pause",
      "type": "event",
      "signature": "0x6985a02210a168e66602d3235cb6db0e70f92b3ba4d376a33c0f3d9434bff625"
    },
    {
      "anonymous": false,
      "inputs": [],
      "name": "Unpause",
      "type": "event",
      "signature": "0x7805862f689e2f13df9f062ff482ad3ad112aca9e0847911ed832e158c525b33"
    },
    {
      "anonymous": false,
      "inputs": [
        {
          "indexed": true,
          "name": "previousOwner",
          "type": "address"
        }
      ],
      "name": "OwnershipRenounced",
      "type": "event",
      "signature": "0xf8df31144d9c2f0f6b59d69b8b98abd5459d07f2742c4df920b25aae33c64820"
    },
    {
      "anonymous": false,
      "inputs": [
        {
          "indexed": true,
          "name": "previousOwner",
          "type": "address"
        },
        {
          "indexed": true,
          "name": "newOwner",
          "type": "address"
        }
      ],
      "name": "OwnershipTransferred",
      "type": "event",
      "signature": "0x8be0079c531659141344cd1fd0a4f28419497f9722a3daafe3b4186f6b6457e0"
    },
    {
      "constant": false,
      "inputs": [
        {
          "name": "",
          "type": "bytes32"
        },
        {
          "name": "",
          "type": "uint256"
        }
      ],
      "name": "changePeriod",
      "outputs": [],
      "payable": false,
      "stateMutability": "nonpayable",
      "type": "function",
      "signature": "0x51e069e7"
    },
    {
      "constant": true,
      "inputs": [
        {
          "name": "_terms",
          "type": "bytes32[]"
        }
      ],
      "name": "getTermsHash",
      "outputs": [
        {
          "name": "",
          "type": "bytes32"
        }
      ],
      "payable": false,
      "stateMutability": "view",
      "type": "function",
      "signature": "0x9a402f40"
    },
    {
      "constant": false,
      "inputs": [
        {
          "name": "_terms",
          "type": "bytes32[]"
        }
      ],
      "name": "setTermsHash",
      "outputs": [
        {
          "name": "",
          "type": "bool"
        }
      ],
      "payable": false,
      "stateMutability": "nonpayable",
      "type": "function",
      "signature": "0x4389a94e"
    },
    {
      "constant": true,
      "inputs": [
        {
          "name": "_termsHash",
          "type": "bytes32"
        }
      ],
      "name": "participationPeriod",
      "outputs": [
        {
          "name": "",
          "type": "bool"
        }
      ],
      "payable": false,
      "stateMutability": "view",
      "type": "function",
      "signature": "0x7f37aa97"
    },
    {
      "constant": true,
      "inputs": [
        {
          "name": "_termsHash",
          "type": "bytes32"
        }
      ],
      "name": "waitingPeriod",
      "outputs": [
        {
          "name": "",
          "type": "bool"
        }
      ],
      "payable": false,
      "stateMutability": "view",
      "type": "function",
      "signature": "0x28ad26e6"
    },
    {
      "constant": true,
      "inputs": [
        {
          "name": "_termsHash",
          "type": "bytes32"
        }
      ],
      "name": "retrievingPeriod",
      "outputs": [
        {
          "name": "",
          "type": "bool"
        }
      ],
      "payable": false,
      "stateMutability": "view",
      "type": "function",
      "signature": "0xe2af856b"
    },
    {
      "constant": true,
      "inputs": [
        {
          "name": "_termsHash",
          "type": "bytes32"
        }
      ],
      "name": "finishedPeriod",
      "outputs": [
        {
          "name": "",
          "type": "bool"
        }
      ],
      "payable": false,
      "stateMutability": "view",
      "type": "function",
      "signature": "0x65758e6c"
    },
    {
      "constant": true,
      "inputs": [
        {
          "name": "_number",
          "type": "uint256"
        }
      ],
      "name": "uintToBytes32",
      "outputs": [
        {
          "name": "",
          "type": "bytes32"
        }
      ],
      "payable": false,
      "stateMutability": "pure",
      "type": "function",
      "signature": "0x886d3db9"
    }
  ],
  "bytecode": "0x608060405260008060146101000a81548160ff021916908315150217905550336000806101000a81548173ffffffffffffffffffffffffffffffffffffffff021916908373ffffffffffffffffffffffffffffffffffffffff160217905550610fb98061006d6000396000f3006080604052600436106100e6576000357c0100000000000000000000000000000000000000000000000000000000900463ffffffff1680631ff677bf146100eb57806328ad26e6146101425780633f4ba83a1461018b5780634389a94e146101a257806351e069e7146102205780635c975abb1461025b57806365758e6c1461028a578063715018a6146102d35780637f37aa97146102ea5780638456cb5914610333578063886d3db91461034a5780638da5cb5b146103935780639a402f40146103ea578063e2af856b1461046c578063efdb2b46146104b5578063f2fde38b146104f8575b600080fd5b3480156100f757600080fd5b5061010061053b565b604051808273ffffffffffffffffffffffffffffffffffffffff1673ffffffffffffffffffffffffffffffffffffffff16815260200191505060405180910390f35b34801561014e57600080fd5b506101716004803603810190808035600019169060200190929190505050610565565b604051808215151515815260200191505060405180910390f35b34801561019757600080fd5b506101a06105b8565b005b3480156101ae57600080fd5b5061020660048036038101908080359060200190820180359060200190808060200260200160405190810160405280939291908181526020018383602002808284378201915050505050509192919290505050610676565b604051808215151515815260200191505060405180910390f35b34801561022c57600080fd5b50610259600480360381019080803560001916906020019092919080359060200190929190505050610922565b005b34801561026757600080fd5b506102706109b6565b604051808215151515815260200191505060405180910390f35b34801561029657600080fd5b506102b960048036038101908080356000191690602001909291905050506109c9565b604051808215151515815260200191505060405180910390f35b3480156102df57600080fd5b506102e86109f3565b005b3480156102f657600080fd5b506103196004803603810190808035600019169060200190929190505050610af5565b604051808215151515815260200191505060405180910390f35b34801561033f57600080fd5b50610348610b1f565b005b34801561035657600080fd5b5061037560048036038101908080359060200190929190505050610bdf565b60405180826000191660001916815260200191505060405180910390f35b34801561039f57600080fd5b506103a8610bf1565b604051808273ffffffffffffffffffffffffffffffffffffffff1673ffffffffffffffffffffffffffffffffffffffff16815260200191505060405180910390f35b3480156103f657600080fd5b5061044e60048036038101908080359060200190820180359060200190808060200260200160405190810160405280939291908181526020018383602002808284378201915050505050509192919290505050610c16565b60405180826000191660001916815260200191505060405180910390f35b34801561047857600080fd5b5061049b6004803603810190808035600019169060200190929190505050610d15565b604051808215151515815260200191505060405180910390f35b3480156104c157600080fd5b506104f6600480360381019080803573ffffffffffffffffffffffffffffffffffffffff169060200190929190505050610d68565b005b34801561050457600080fd5b50610539600480360381019080803573ffffffffffffffffffffffffffffffffffffffff169060200190929190505050610e2c565b005b6000600160009054906101000a900473ffffffffffffffffffffffffffffffffffffffff16905090565b600042600260008460001916600019168152602001908152602001600020600001541080156105b157504260026000846000191660001916815260200190815260200160002060010154115b9050919050565b6000809054906101000a900473ffffffffffffffffffffffffffffffffffffffff1673ffffffffffffffffffffffffffffffffffffffff163373ffffffffffffffffffffffffffffffffffffffff1614151561061357600080fd5b600060149054906101000a900460ff16151561062e57600080fd5b60008060146101000a81548160ff0219169083151502179055507f7805862f689e2f13df9f062ff482ad3ad112aca9e0847911ed832e158c525b3360405160405180910390a1565b600080600080600085600081518110151561068d57fe5b906020019060200201516001900493508560018151811015156106ac57fe5b906020019060200201516001900492508560028151811015156106cb57fe5b906020019060200201516001900491504284111515610778576040517f08c379a00000000000000000000000000000000000000000000000000000000081526004018080602001828103825260328152602001807f50617274696369706174696f6e20706572696f64206d75737420626520756e7481526020017f696c2066757475726520646561646c696e65000000000000000000000000000081525060400191505060405180910390fd5b8383111515610815576040517f08c379a00000000000000000000000000000000000000000000000000000000081526004018080602001828103825260328152602001807f57616974696e6720706572696f64206d75737420656e6420616674657220706181526020017f7274696369706174696f6e20706572696f64000000000000000000000000000081525060400191505060405180910390fd5b82821115156108b2576040517f08c379a000000000000000000000000000000000000000000000000000000000815260040180806020018281038252602f8152602001807f52657472696576696e6720706572696f64206d75737420656e6420616674657281526020017f2077616974696e6720706572696f64000000000000000000000000000000000081525060400191505060405180910390fd5b6108bb86610c16565b9050606060405190810160405280858152602001848152602001838152506002600083600019166000191681526020019081526020016000206000820151816000015560208201518160010155604082015181600201559050506001945050505050919050565b6040517f08c379a00000000000000000000000000000000000000000000000000000000081526004018080602001828103825260328152602001807f54686973207465726d7320636f6e747261637420646f65736e2774207375707081526020017f6f72742074686973206f7065726174696f6e000000000000000000000000000081525060400191505060405180910390fd5b600060149054906101000a900460ff1681565b60004260026000846000191660001916815260200190815260200160002060010154109050919050565b6000809054906101000a900473ffffffffffffffffffffffffffffffffffffffff1673ffffffffffffffffffffffffffffffffffffffff163373ffffffffffffffffffffffffffffffffffffffff16141515610a4e57600080fd5b6000809054906101000a900473ffffffffffffffffffffffffffffffffffffffff1673ffffffffffffffffffffffffffffffffffffffff167ff8df31144d9c2f0f6b59d69b8b98abd5459d07f2742c4df920b25aae33c6482060405160405180910390a260008060006101000a81548173ffffffffffffffffffffffffffffffffffffffff021916908373ffffffffffffffffffffffffffffffffffffffff160217905550565b60004260026000846000191660001916815260200190815260200160002060000154119050919050565b6000809054906101000a900473ffffffffffffffffffffffffffffffffffffffff1673ffffffffffffffffffffffffffffffffffffffff163373ffffffffffffffffffffffffffffffffffffffff16141515610b7a57600080fd5b600060149054906101000a900460ff16151515610b9657600080fd5b6001600060146101000a81548160ff0219169083151502179055507f6985a02210a168e66602d3235cb6db0e70f92b3ba4d376a33c0f3d9434bff62560405160405180910390a1565b60008082600102905080915050919050565b6000809054906101000a900473ffffffffffffffffffffffffffffffffffffffff1681565b600080600080846000815181101515610c2b57fe5b90602001906020020151600190049250846001815181101515610c4a57fe5b90602001906020020151600190049150846002815181101515610c6957fe5b906020019060200201516001900490508282826040516020018084815260200183815260200182815260200193505050506040516020818303038152906040526040518082805190602001908083835b602083101515610cde5780518252602082019150602081019050602083039250610cb9565b6001836020036101000a03801982511681845116808217855250505050505090500191505060405180910390209350505050919050565b60004260026000846000191660001916815260200190815260200160002060010154108015610d6157504260026000846000191660001916815260200190815260200160002060020154115b9050919050565b6000809054906101000a900473ffffffffffffffffffffffffffffffffffffffff1673ffffffffffffffffffffffffffffffffffffffff163373ffffffffffffffffffffffffffffffffffffffff16141515610dc357600080fd5b80600160006101000a81548173ffffffffffffffffffffffffffffffffffffffff021916908373ffffffffffffffffffffffffffffffffffffffff16021790555060001515600060149054906101000a900460ff1615151415610e2957610e28610b1f565b5b50565b6000809054906101000a900473ffffffffffffffffffffffffffffffffffffffff1673ffffffffffffffffffffffffffffffffffffffff163373ffffffffffffffffffffffffffffffffffffffff16141515610e8757600080fd5b610e9081610e93565b50565b600073ffffffffffffffffffffffffffffffffffffffff168173ffffffffffffffffffffffffffffffffffffffff1614151515610ecf57600080fd5b8073ffffffffffffffffffffffffffffffffffffffff166000809054906101000a900473ffffffffffffffffffffffffffffffffffffffff1673ffffffffffffffffffffffffffffffffffffffff167f8be0079c531659141344cd1fd0a4f28419497f9722a3daafe3b4186f6b6457e060405160405180910390a3806000806101000a81548173ffffffffffffffffffffffffffffffffffffffff021916908373ffffffffffffffffffffffffffffffffffffffff160217905550505600a165627a7a723058206f4173233745cc0dc8a7d95e37ffc12606119c00a2f3f19ed19c1d82f7a4387f0029",
  "source": "pragma solidity ^0.4.24;\n\n// Internal\nimport \"../RegistrySetter.sol\";\nimport \"../ProxyInterfaces/BetTermsProxyInterface.sol\";\n\n\n/**\n * An example of the BetTerms contract for time based terms events.\n * Times for each phase of the bet are predefined by the terms.\n *\n * Author: Ben Kaufman -- Github: ben-kaufman\n */\n/** @title Owner Based Terms. */\ncontract TimeBasedTerms is RegistrySetter, BetTermsProxyInterface {\n\n    struct BetTerms {\n        uint256 participationPeriod;\n        uint256 waitingPeriod;\n        uint256 retrievingPeriod;\n    }\n\n    mapping(bytes32 => BetTerms) internal betsTerms;\n\n    function changePeriod(bytes32, uint)\n    external {\n        revert(\"This terms contract doesn't support this operation\");\n    }\n\n    /**\n     * @dev Function that returns a terms hash for the next event\n     * @return bytes32 the terms hash\n     */\n    function getTermsHash(bytes32[] _terms) public view returns(bytes32) {\n        uint256 _participationPeriod = uint256(_terms[0]);\n        uint256 _waitingPeriod = uint256(_terms[1]);\n        uint256 _retrievingPeriod = uint256(_terms[2]);\n\n        return keccak256(\n            abi.encodePacked(\n                _participationPeriod,\n                _waitingPeriod,\n                _retrievingPeriod\n            )\n        );\n    }\n\n    function setTermsHash(bytes32[] _terms) public returns(bool) {\n        uint256 _participationPeriod = uint256(_terms[0]);\n        uint256 _waitingPeriod = uint256(_terms[1]);\n        uint256 _retrievingPeriod = uint256(_terms[2]);\n\n        // solium-disable-next-line security/no-block-members\n        require(_participationPeriod > now, \"Participation period must be until future deadline\");\n        require(_waitingPeriod > _participationPeriod, \"Waiting period must end after participation period\");\n        require(_retrievingPeriod > _waitingPeriod, \"Retrieving period must end after waiting period\");\n\n        bytes32 hash = getTermsHash(_terms);\n        betsTerms[hash] = BetTerms(_participationPeriod, _waitingPeriod, _retrievingPeriod);\n\n        return true;\n    }\n\n    /**\n     * @dev Function that tells if it is the period for playing\n     * @param _termsHash bytes32 of the event\n     * @return bool if it is the period for playing\n     */\n    function participationPeriod(bytes32 _termsHash) public view returns(bool) {\n        // solium-disable-next-line security/no-block-members\n        return betsTerms[_termsHash].participationPeriod > now;\n    }\n\n    /**\n     * @dev Function that tells if the event is in stand by\n     * @param _termsHash bytes32 of the event\n     * @return bool if it is the waiting period\n     */\n    function waitingPeriod(bytes32 _termsHash) public view returns(bool) {\n        // solium-disable-next-line security/no-block-members\n        return betsTerms[_termsHash].participationPeriod < now && betsTerms[_termsHash].waitingPeriod > now;\n    }\n\n    /**\n     * @dev Function that tells if the period for playing is over\n     * @param _termsHash bytes32 of the event\n     * @return bool if the period for betting is over\n     */\n    function retrievingPeriod(bytes32 _termsHash) public view returns(bool) {\n        // solium-disable-next-line security/no-block-members\n        return betsTerms[_termsHash].waitingPeriod < now && betsTerms[_termsHash].retrievingPeriod > now;\n    }\n\n    /**\n     * @dev Function that tells if the event is over\n     * @param _termsHash bytes32 of the event\n     * @return bool if the event is over\n     */\n    function finishedPeriod(bytes32 _termsHash) public view returns(bool) {\n        // solium-disable-next-line security/no-block-members\n        return betsTerms[_termsHash].waitingPeriod < now;\n    }\n\n    function uintToBytes32(uint _number) public pure returns (bytes32) {\n        bytes32 _b = bytes32(_number);\n\n        return _b;\n    }\n}\n",
  "sourcePath": "/Users/carlosgonzalezjuarez/Documents/Development/GuesserProtocol/contracts/BetTermsExamples/TimeBasedTerms.sol",
  "compiler": {
    "name": "solc",
    "version": "0.4.25+commit.59dbf8f1.Emscripten.clang"
  },
  "schemaVersion": "3.0.0-beta.1",
  "updatedAt": "2018-11-01T18:13:45.754Z"
}